Component: ARM Compiler 5.06 update 1 (build 61) Tool: armlink [4d35a8]

==============================================================================

Section Cross References

    stm32l0xx_nucleo.o(i.ADCx_Init) refers to stm32l0xx_hal_adc.o(i.HAL_ADC_GetState) for HAL_ADC_GetState
    stm32l0xx_nucleo.o(i.ADCx_Init) refers to stm32l0xx_hal_gpio.o(i.HAL_GPIO_Init) for HAL_GPIO_Init
    stm32l0xx_nucleo.o(i.ADCx_Init) refers to stm32l0xx_hal_adc.o(i.HAL_ADC_Init) for HAL_ADC_Init
    stm32l0xx_nucleo.o(i.ADCx_Init) refers to stm32l0xx_nucleo.o(.bss) for .bss
    stm32l0xx_nucleo.o(i.BSP_JOY_GetState) refers to stm32l0xx_hal_adc.o(i.HAL_ADC_Start) for HAL_ADC_Start
    stm32l0xx_nucleo.o(i.BSP_JOY_GetState) refers to stm32l0xx_hal_adc.o(i.HAL_ADC_PollForConversion) for HAL_ADC_PollForConversion
    stm32l0xx_nucleo.o(i.BSP_JOY_GetState) refers to stm32l0xx_hal_adc.o(i.HAL_ADC_GetValue) for HAL_ADC_GetValue
    stm32l0xx_nucleo.o(i.BSP_JOY_GetState) refers to stm32l0xx_nucleo.o(.bss) for .bss
    stm32l0xx_nucleo.o(i.BSP_JOY_Init) refers to stm32l0xx_nucleo.o(i.ADCx_Init) for ADCx_Init
    stm32l0xx_nucleo.o(i.BSP_JOY_Init) refers to stm32l0xx_hal_adc_ex.o(i.HAL_ADCEx_Calibration_Start) for HAL_ADCEx_Calibration_Start
    stm32l0xx_nucleo.o(i.BSP_JOY_Init) refers to stm32l0xx_hal_adc.o(i.HAL_ADC_ConfigChannel) for HAL_ADC_ConfigChannel
    stm32l0xx_nucleo.o(i.BSP_JOY_Init) refers to stm32l0xx_nucleo.o(.bss) for .bss
    stm32l0xx_nucleo.o(i.BSP_JOY_Init) refers to stm32l0xx_nucleo.o(.data) for .data
    stm32l0xx_nucleo.o(i.BSP_LED_Init) refers to stm32l0xx_hal_gpio.o(i.HAL_GPIO_Init) for HAL_GPIO_Init
    stm32l0xx_nucleo.o(i.BSP_LED_Init) refers to stm32l0xx_hal_gpio.o(i.HAL_GPIO_WritePin) for HAL_GPIO_WritePin
    stm32l0xx_nucleo.o(i.BSP_LED_Init) refers to stm32l0xx_nucleo.o(.constdata) for .constdata
    stm32l0xx_nucleo.o(i.BSP_LED_Init) refers to stm32l0xx_nucleo.o(.data) for .data
    stm32l0xx_nucleo.o(i.BSP_LED_Off) refers to stm32l0xx_hal_gpio.o(i.HAL_GPIO_WritePin) for HAL_GPIO_WritePin
==============================================================================

Removing Unused input sections from the image.

    Removing stm32l0xx_nucleo.o(.rev16_text), (4 bytes).
    Removing stm32l0xx_nucleo.o(.revsh_text), (4 bytes).
    Removing stm32l0xx_nucleo.o(i.ADCx_Init), (124 bytes).
    Removing stm32l0xx_nucleo.o(i.BSP_GetVersion), (8 bytes).
    Removing stm32l0xx_nucleo.o(i.BSP_JOY_GetState), (128 bytes).
    Removing stm32l0xx_nucleo.o(i.BSP_JOY_Init), (40 bytes).
    Removing stm32l0xx_nucleo.o(i.BSP_LED_Init), (76 bytes).
    Removing stm32l0xx_nucleo.o(i.BSP_LED_Off), (32 bytes).
    Removing stm32l0xx_nucleo.o(i.BSP_PB_GetState), (28 bytes).
    Removing stm32l0xx_nucleo.o(i.LCD_Delay), (8 bytes).
    Removing stm32l0xx_nucleo.o(i.LCD_IO_Init), (100 bytes).
    Removing stm32l0xx_nucleo.o(i.LCD_IO_WriteData), (52 bytes).
    Removing stm32l0xx_nucleo.o(i.LCD_IO_WriteMultipleData), (116 bytes).
    Removing stm32l0xx_nucleo.o(i.LCD_IO_WriteReg), (52 bytes).
    Removing stm32l0xx_nucleo.o(i.SD_IO_CSState), (28 bytes).
    Removing stm32l0xx_nucleo.o(i.SD_IO_Init), (116 bytes).
    Removing stm32l0xx_nucleo.o(i.SD_IO_WriteByte), (20 bytes).
    Removing stm32l0xx_nucleo.o(i.SD_IO_WriteReadData), (8 bytes).
==============================================================================

Image Symbol Table

    Local Symbols

    Symbol Name                              Value     Ov Type        Size  Object(Section)

    ../clib/../cmprslib/zerorunl2.c          0x00000000   Number         0  __dczerorl2.o ABSOLUTE
    ../clib/microlib/ctype/ctype.c           0x00000000   Number         0  isalnum_o.o ABSOLUTE
    ../clib/microlib/ctype/ctype.c           0x00000000   Number         0  islower_o.o ABSOLUTE
    ../clib/microlib/ctype/ctype.c           0x00000000   Number         0  isalpha_o.o ABSOLUTE
    ../clib/microlib/ctype/ctype.c           0x00000000   Number         0  isprint_o.o ABSOLUTE
    ../clib/microlib/ctype/ctype.c           0x00000000   Number         0  isspace_c.o ABSOLUTE
    ../clib/microlib/ctype/ctype.c           0x00000000   Number         0  isspace_o.o ABSOLUTE
    ../clib/microlib/ctype/ctype.c           0x00000000   Number         0  isupper_o.o ABSOLUTE
    ../clib/microlib/ctype/ctype.c           0x00000000   Number         0  ctype_c.o ABSOLUTE
    ../clib/microlib/ctype/ctype.c           0x00000000   Number         0  isblank_o.o ABSOLUTE
    ../clib/microlib/ctype/ctype.c           0x00000000   Number         0  isxdigit_o.o ABSOLUTE
    ../clib/microlib/ctype/ctype.c           0x00000000   Number         0  ispunct_o.o ABSOLUTE
    ../clib/microlib/ctype/ctype.c           0x00000000   Number         0  iscntrl_o.o ABSOLUTE
    ../clib/microlib/ctype/ctype.c           0x00000000   Number         0  ctype_o.o ABSOLUTE
    ../clib/microlib/ctype/ctype.c           0x00000000   Number         0  isdigit_o.o ABSOLUTE
    ../clib/microlib/ctype/ctype.c           0x00000000   Number         0  isgraph_o.o ABSOLUTE
    ../clib/microlib/division.c              0x00000000   Number         0  idiv.o ABSOLUTE
    ../clib/microlib/division.c              0x00000000   Number         0  uldiv.o ABSOLUTE
    ../clib/microlib/division.c              0x00000000   Number         0  uidiv.o ABSOLUTE
    ../clib/microlib/errno.c                 0x00000000   Number         0  errno.o ABSOLUTE
    ../clib/microlib/init/entry.s            0x00000000   Number         0  entry2.o ABSOLUTE
    ../clib/microlib/init/entry.s            0x00000000   Number         0  entry11a.o ABSOLUTE
    ../clib/microlib/init/entry.s            0x00000000   Number         0  entry7b.o ABSOLUTE
    ../clib/microlib/init/entry.s            0x00000000   Number         0  entry10a.o ABSOLUTE
    ../clib/microlib/init/entry.s            0x00000000   Number         0  entry8a.o ABSOLUTE
    ../clib/microlib/init/entry.s            0x00000000   Number         0  entry10b.o ABSOLUTE
    ../clib/microlib/init/entry.s            0x00000000   Number         0  entry8b.o ABSOLUTE
    ../clib/microlib/init/entry.s            0x00000000   Number         0  entry9a.o ABSOLUTE
    ../clib/microlib/init/entry.s            0x00000000   Number         0  entry9b.o ABSOLUTE
    ../clib/microlib/init/entry.s            0x00000000   Number         0  entry11b.o ABSOLUTE
    ../clib/microlib/init/entry.s            0x00000000   Number         0  entry.o ABSOLUTE
    ../clib/microlib/init/entry.s            0x00000000   Number         0  entry5.o ABSOLUTE
    ../clib/microlib/init/entry.s            0x00000000   Number         0  entry7a.o ABSOLUTE
    ../clib/microlib/longlong.c              0x00000000   Number         0  llshl.o ABSOLUTE
    ../clib/microlib/longlong.c              0x00000000   Number         0  llushr.o ABSOLUTE
    ../clib/microlib/longlong.c              0x00000000   Number         0  llsshr.o ABSOLUTE
    ../clib/microlib/longlong.c              0x00000000   Number         0  llmul.o ABSOLUTE
    ../clib/microlib/malloc/malloc.c         0x00000000   Number         0  mallocra.o ABSOLUTE
    ../clib/microlib/malloc/malloc.c         0x00000000   Number         0  malloca.o ABSOLUTE
    ../clib/microlib/malloc/malloc.c         0x00000000   Number         0  mallocr.o ABSOLUTE
    ../clib/microlib/malloc/malloc.c         0x00000000   Number         0  malloc.o ABSOLUTE
    ../clib/microlib/malloc/mvars.c          0x00000000   Number         0  mvars.o ABSOLUTE
    ../clib/microlib/printf/printf.c         0x00000000   Number         0  printf5.o ABSOLUTE
    ../clib/microlib/printf/printf.c         0x00000000   Number         0  printf4.o ABSOLUTE
    ../clib/microlib/printf/printf.c         0x00000000   Number         0  printf0.o ABSOLUTE
    ../clib/microlib/printf/printf.c         0x00000000   Number         0  printfa.o ABSOLUTE
    ../clib/microlib/printf/printf.c         0x00000000   Number         0  printf1.o ABSOLUTE
    ../clib/microlib/printf/printf.c         0x00000000   Number         0  printf8.o ABSOLUTE
    ../clib/microlib/printf/printf.c         0x00000000   Number         0  printfb.o ABSOLUTE
    ../clib/microlib/printf/printf.c         0x00000000   Number         0  printf7.o ABSOLUTE
    ../clib/microlib/printf/printf.c         0x00000000   Number         0  printf2.o ABSOLUTE
    ../clib/microlib/printf/printf.c         0x00000000   Number         0  printf3.o ABSOLUTE
    ../clib/microlib/printf/printf.c         0x00000000   Number         0  printf6.o ABSOLUTE
    ../clib/microlib/printf/stubs.s          0x00000000   Number         0  stubs.o ABSOLUTE
    ../clib/microlib/stdio/streams.c         0x00000000   Number         0  stdout.o ABSOLUTE
    ../clib/microlib/stdlib/abort.c          0x00000000   Number         0  abort.o ABSOLUTE
    ../clib/microlib/stdlib/rand.c           0x00000000   Number         0  rand.o ABSOLUTE
    ../clib/microlib/string/memchr.c         0x00000000   Number         0  memchr.o ABSOLUTE
    ../clib/microlib/string/memcmp.c         0x00000000   Number         0  memcmp.o ABSOLUTE
    ../clib/microlib/string/memcpy.c         0x00000000   Number         0  memcpyb.o ABSOLUTE
    ../clib/microlib/string/memcpy.c         0x00000000   Number         0  memcpya.o ABSOLUTE
    ../clib/microlib/string/memset.c         0x00000000   Number         0  memseta.o ABSOLUTE
    ../clib/microlib/string/strchr.c         0x00000000   Number         0  strchr.o ABSOLUTE
    ../clib/microlib/string/strcmp.c         0x00000000   Number         0  strcmp.o ABSOLUTE
    ../clib/microlib/string/strcpy.c         0x00000000   Number         0  strcpy.o ABSOLUTE
    ../clib/microlib/string/strlen.c         0x00000000   Number         0  strlen.o ABSOLUTE
    ../clib/microlib/string/strncmp.c        0x00000000   Number         0  strncmp.o ABSOLUTE
    ../clib/microlib/string/strncpy.c        0x00000000   Number         0  strncpy.o ABSOLUTE
    ../clib/microlib/string/strstr.c         0x00000000   Number         0  strstr.o ABSOLUTE
    ../clib/microlib/stubs.s                 0x00000000   Number         0  iusefp.o ABSOLUTE
    ../clib/microlib/time/gmtime.c           0x00000000   Number         0  gmtime.o ABSOLUTE
    ../clib/microlib/unhosted.c              0x00000000   Number         0  uread4.o ABSOLUTE
    ../clib/scanf.c                          0x00000000   Number         0  scanf_fp.o ABSOLUTE
    ../clib/scanf.c                          0x00000000   Number         0  strtol.o ABSOLUTE
    ../clib/scanf.c                          0x00000000   Number         0  _sgetc.o ABSOLUTE
    ../clib/scanf.c                          0x00000000   Number         0  _strtoul.o ABSOLUTE
    ../clib/scanf.c                          0x00000000   Number         0  scanf_char.o ABSOLUTE
    ../clib/scanf.c                          0x00000000   Number         0  __0sscanf.o ABSOLUTE
    ../clib/scanf.c                          0x00000000   Number         0  _scanf_str.o ABSOLUTE
    ../clib/scanf.c                          0x00000000   Number         0  _scanf.o ABSOLUTE
    ../clib/scanf.c                          0x00000000   Number         0  _chval.o ABSOLUTE
    ../clib/scanf.c                          0x00000000   Number         0  strtod.o ABSOLUTE
    ../fplib/microlib/d2f.c                  0x00000000   Number         0  d2f.o ABSOLUTE
    ../fplib/microlib/fpadd.c                0x00000000   Number         0  dadd.o ABSOLUTE
    ../fplib/microlib/fpadd.c                0x00000000   Number         0  fadd.o ABSOLUTE
    ../fplib/microlib/fpdiv.c                0x00000000   Number         0  ddiv.o ABSOLUTE
    ../fplib/microlib/fpdiv.c                0x00000000   Number         0  fdiv.o ABSOLUTE
    ../fplib/microlib/fpepilogue.c           0x00000000   Number         0  fepilogue.o ABSOLUTE
    ../fplib/microlib/fpepilogue.c           0x00000000   Number         0  depilogue.o ABSOLUTE
    ../fplib/microlib/fpfix.c                0x00000000   Number         0  dfixul.o ABSOLUTE
    ../fplib/microlib/fpfix.c                0x00000000   Number         0  dfixi.o ABSOLUTE
    ../fplib/microlib/fpfix.c                0x00000000   Number         0  dfixui.o ABSOLUTE
    ../fplib/microlib/fpflt.c                0x00000000   Number         0  dfltul.o ABSOLUTE
    ../fplib/microlib/fpflt.c                0x00000000   Number         0  ffltui.o ABSOLUTE
    ../fplib/microlib/fpflt.c                0x00000000   Number         0  dflti.o ABSOLUTE
    ../fplib/microlib/fpflt.c                0x00000000   Number         0  dfltui.o ABSOLUTE
    ../fplib/microlib/fpflt.c                0x00000000   Number         0  fflti.o ABSOLUTE
    ../fplib/microlib/fpmul.c                0x00000000   Number         0  dmul.o ABSOLUTE
    ../fplib/microlib/fpscalb.c              0x00000000   Number         0  dscalb.o ABSOLUTE
    ../fplib/microlib/fpsqrt.c               0x00000000   Number         0  dsqrt.o ABSOLUTE
    ../mathlib/acos.c                        0x00000000   Number         0  acos_x.o ABSOLUTE
    ../mathlib/acos.c                        0x00000000   Number         0  acos.o ABSOLUTE
    ../mathlib/asin.c                        0x00000000   Number         0  asin_x.o ABSOLUTE
    ../mathlib/asin.c                        0x00000000   Number         0  asin.o ABSOLUTE
    ../mathlib/atan.c                        0x00000000   Number         0  atan.o ABSOLUTE
    ../mathlib/atan.c                        0x00000000   Number         0  atan_x.o ABSOLUTE
    ../mathlib/atan2.c                       0x00000000   Number         0  atan2_x.o ABSOLUTE
    ../mathlib/atan2.c                       0x00000000   Number         0  atan2.o ABSOLUTE
    ../mathlib/ceil.c                        0x00000000   Number         0  ceil.o ABSOLUTE
    ../mathlib/cos.c                         0x00000000   Number         0  cos_x.o ABSOLUTE
    ../mathlib/cos.c                         0x00000000   Number         0  cos.o ABSOLUTE
    ../mathlib/cos_i.c                       0x00000000   Number         0  cos_i.o ABSOLUTE
    ../mathlib/dunder.c                      0x00000000   Number         0  dunder.o ABSOLUTE
    ../mathlib/fpclassify.c                  0x00000000   Number         0  fpclassify.o ABSOLUTE
    ../mathlib/modf.c                        0x00000000   Number         0  modf.o ABSOLUTE
    ../mathlib/poly.c                        0x00000000   Number         0  poly.o ABSOLUTE
    ../mathlib/pow.c                         0x00000000   Number         0  pow_x.o ABSOLUTE
    ../mathlib/pow.c                         0x00000000   Number         0  pow.o ABSOLUTE
    ../mathlib/qnan.c                        0x00000000   Number         0  qnan.o ABSOLUTE
    ../mathlib/rred.c                        0x00000000   Number         0  rred.o ABSOLUTE
    ../mathlib/sin.c                         0x00000000   Number         0  sin_x.o ABSOLUTE
    ../mathlib/sin.c                         0x00000000   Number         0  sin.o ABSOLUTE
    ../mathlib/sin_i.c                       0x00000000   Number         0  sin_i_x.o ABSOLUTE
    ../mathlib/sin_i.c                       0x00000000   Number         0  sin_i.o ABSOLUTE
    ../mathlib/sqrt.c                        0x00000000   Number         0  sqrt_x.o ABSOLUTE
    ../mathlib/sqrt.c                        0x00000000   Number         0  sqrt.o ABSOLUTE
    ../mathlib/strtod.c                      0x00000000   Number         0  strtod.o ABSOLUTE
    ../mathlib/tan.c                         0x00000000   Number         0  tan.o ABSOLUTE
    ../mathlib/tan.c                         0x00000000   Number         0  tan_x.o ABSOLUTE
    ../mathlib/tan_i.c                       0x00000000   Number         0  tan_i.o ABSOLUTE
    ../mathlib/tan_i.c                       0x00000000   Number         0  tan_i_x.o ABSOLUTE
    ..\..\..\..\Drivers\BSP\STM32L0xx_Nucleo\stm32l0xx_nucleo.c 0x00000000   Number         0  stm32l0xx_nucleo.o ABSOLUTE
    ..\..\..\..\Drivers\STM32L0xx_HAL_Driver\Src\stm32l0xx_hal.c 0x00000000   Number         0  stm32l0xx_hal.o ABSOLUTE
    ..\..\..\..\Drivers\STM32L0xx_HAL_Driver\Src\stm32l0xx_hal_adc.c 0x00000000   Number         0  stm32l0xx_hal_adc.o ABSOLUTE
    ..\..\..\..\Drivers\STM32L0xx_HAL_Driver\Src\stm32l0xx_hal_adc_ex.c 0x00000000   Number         0  stm32l0xx_hal_adc_ex.o ABSOLUTE
    ..\..\..\..\Drivers\STM32L0xx_HAL_Driver\Src\stm32l0xx_hal_comp.c 0x00000000   Number         0  stm32l0xx_hal_comp.o ABSOLUTE
    ..\..\..\..\Drivers\STM32L0xx_HAL_Driver\Src\stm32l0xx_hal_cortex.c 0x00000000   Number         0  stm32l0xx_hal_cortex.o ABSOLUTE
    ..\..\..\..\Drivers\STM32L0xx_HAL_Driver\Src\stm32l0xx_hal_crc.c 0x00000000   Number         0  stm32l0xx_hal_crc.o ABSOLUTE
    ..\..\..\..\Drivers\STM32L0xx_HAL_Driver\Src\stm32l0xx_hal_crc_ex.c 0x00000000   Number         0  stm32l0xx_hal_crc_ex.o ABSOLUTE
    ..\..\..\..\Drivers\STM32L0xx_HAL_Driver\Src\stm32l0xx_hal_cryp.c 0x00000000   Number         0  stm32l0xx_hal_cryp.o ABSOLUTE
    ..\..\..\..\Drivers\STM32L0xx_HAL_Driver\Src\stm32l0xx_hal_cryp_ex.c 0x00000000   Number         0  stm32l0xx_hal_cryp_ex.o ABSOLUTE
    ..\..\..\..\Drivers\STM32L0xx_HAL_Driver\Src\stm32l0xx_hal_dac.c 0x00000000   Number         0  stm32l0xx_hal_dac.o ABSOLUTE
    ..\..\..\..\Drivers\STM32L0xx_HAL_Driver\Src\stm32l0xx_hal_dac_ex.c 0x00000000   Number         0  stm32l0xx_hal_dac_ex.o ABSOLUTE
    ..\..\..\..\Drivers\STM32L0xx_HAL_Driver\Src\stm32l0xx_hal_dma.c 0x00000000   Number         0  stm32l0xx_hal_dma.o ABSOLUTE
    ..\..\..\..\Drivers\STM32L0xx_HAL_Driver\Src\stm32l0xx_hal_flash.c 0x00000000   Number         0  stm32l0xx_hal_flash.o ABSOLUTE
    ..\..\..\..\Drivers\STM32L0xx_HAL_Driver\Src\stm32l0xx_hal_flash_ex.c 0x00000000   Number         0  stm32l0xx_hal_flash_ex.o ABSOLUTE
    ..\..\..\..\Drivers\STM32L0xx_HAL_Driver\Src\stm32l0xx_hal_flash_ramfunc.c 0x00000000   Number         0  stm32l0xx_hal_flash_ramfunc.o ABSOLUTE
    ..\..\..\..\Drivers\STM32L0xx_HAL_Driver\Src\stm32l0xx_hal_gpio.c 0x00000000   Number         0  stm32l0xx_hal_gpio.o ABSOLUTE
    ..\..\..\..\Drivers\STM32L0xx_HAL_Driver\Src\stm32l0xx_hal_i2c.c 0x00000000   Number         0  stm32l0xx_hal_i2c.o ABSOLUTE
    ..\..\..\..\Drivers\STM32L0xx_HAL_Driver\Src\stm32l0xx_hal_i2c_ex.c 0x00000000   Number         0  stm32l0xx_hal_i2c_ex.o ABSOLUTE
    ..\..\..\..\Drivers\STM32L0xx_HAL_Driver\Src\stm32l0xx_hal_i2s.c 0x00000000   Number         0  stm32l0xx_hal_i2s.o ABSOLUTE
    ..\..\..\..\Drivers\STM32L0xx_HAL_Driver\Src\stm32l0xx_hal_irda.c 0x00000000   Number         0  stm32l0xx_hal_irda.o ABSOLUTE
    ..\..\..\..\Drivers\STM32L0xx_HAL_Driver\Src\stm32l0xx_hal_iwdg.c 0x00000000   Number         0  stm32l0xx_hal_iwdg.o ABSOLUTE
    ..\..\..\..\Drivers\STM32L0xx_HAL_Driver\Src\stm32l0xx_hal_lcd.c 0x00000000   Number         0  stm32l0xx_hal_lcd.o ABSOLUTE
    ..\..\..\..\Drivers\STM32L0xx_HAL_Driver\Src\stm32l0xx_hal_lptim.c 0x00000000   Number         0  stm32l0xx_hal_lptim.o ABSOLUTE
    ..\..\..\..\Drivers\STM32L0xx_HAL_Driver\Src\stm32l0xx_hal_pcd.c 0x00000000   Number         0  stm32l0xx_hal_pcd.o ABSOLUTE
    ..\..\..\..\Drivers\STM32L0xx_HAL_Driver\Src\stm32l0xx_hal_pcd_ex.c 0x00000000   Number         0  stm32l0xx_hal_pcd_ex.o ABSOLUTE
    ..\..\..\..\Drivers\STM32L0xx_HAL_Driver\Src\stm32l0xx_hal_pwr.c 0x00000000   Number         0  stm32l0xx_hal_pwr.o ABSOLUTE
    ..\..\..\..\Drivers\STM32L0xx_HAL_Driver\Src\stm32l0xx_hal_pwr_ex.c 0x00000000   Number         0  stm32l0xx_hal_pwr_ex.o ABSOLUTE
    ..\..\..\..\Drivers\STM32L0xx_HAL_Driver\Src\stm32l0xx_hal_rcc.c 0x00000000   Number         0  stm32l0xx_hal_rcc.o ABSOLUTE
    ..\..\..\..\Drivers\STM32L0xx_HAL_Driver\Src\stm32l0xx_hal_rcc_ex.c 0x00000000   Number         0  stm32l0xx_hal_rcc_ex.o ABSOLUTE
    ..\..\..\..\Drivers\STM32L0xx_HAL_Driver\Src\stm32l0xx_hal_rng.c 0x00000000   Number         0  stm32l0xx_hal_rng.o ABSOLUTE
    ..\..\..\..\Drivers\STM32L0xx_HAL_Driver\Src\stm32l0xx_hal_rtc.c 0x00000000   Number         0  stm32l0xx_hal_rtc.o ABSOLUTE
    ..\..\..\..\Drivers\STM32L0xx_HAL_Driver\Src\stm32l0xx_hal_rtc_ex.c 0x00000000   Number         0  stm32l0xx_hal_rtc_ex.o ABSOLUTE
    ..\..\..\..\Drivers\STM32L0xx_HAL_Driver\Src\stm32l0xx_hal_smartcard.c 0x00000000   Number         0  stm32l0xx_hal_smartcard.o ABSOLUTE
    ..\..\..\..\Drivers\STM32L0xx_HAL_Driver\Src\stm32l0xx_hal_smartcard_ex.c 0x00000000   Number         0  stm32l0xx_hal_smartcard_ex.o ABSOLUTE
    ..\..\..\..\Drivers\STM32L0xx_HAL_Driver\Src\stm32l0xx_hal_smbus.c 0x00000000   Number         0  stm32l0xx_hal_smbus.o ABSOLUTE
    ..\..\..\..\Drivers\STM32L0xx_HAL_Driver\Src\stm32l0xx_hal_spi.c 0x00000000   Number         0  stm32l0xx_hal_spi.o ABSOLUTE
    ..\..\..\..\Drivers\STM32L0xx_HAL_Driver\Src\stm32l0xx_hal_tim.c 0x00000000   Number         0  stm32l0xx_hal_tim.o ABSOLUTE
    ..\..\..\..\Drivers\STM32L0xx_HAL_Driver\Src\stm32l0xx_hal_tim_ex.c 0x00000000   Number         0  stm32l0xx_hal_tim_ex.o ABSOLUTE
    ..\..\..\..\Drivers\STM32L0xx_HAL_Driver\Src\stm32l0xx_hal_tsc.c 0x00000000   Number         0  stm32l0xx_hal_tsc.o ABSOLUTE
    ..\..\..\..\Drivers\STM32L0xx_HAL_Driver\Src\stm32l0xx_hal_uart.c 0x00000000   Number         0  stm32l0xx_hal_uart.o ABSOLUTE
    ..\..\..\..\Drivers\STM32L0xx_HAL_Driver\Src\stm32l0xx_hal_uart_ex.c 0x00000000   Number         0  stm32l0xx_hal_uart_ex.o ABSOLUTE
    ..\..\..\..\Drivers\STM32L0xx_HAL_Driver\Src\stm32l0xx_hal_usart.c 0x00000000   Number         0  stm32l0xx_hal_usart.o ABSOLUTE
    ..\..\..\..\Drivers\STM32L0xx_HAL_Driver\Src\stm32l0xx_hal_wwdg.c 0x00000000   Number         0  stm32l0xx_hal_wwdg.o ABSOLUTE
    ..\..\..\..\Middlewares\Third_Party\FatFs\src\diskio.c 0x00000000   Number         0  diskio.o ABSOLUTE
    ..\..\..\..\Middlewares\Third_Party\FatFs\src\ff.c 0x00000000   Number         0  ff.o ABSOLUTE
    ..\..\..\..\Middlewares\Third_Party\FatFs\src\ff_gen_drv.c 0x00000000   Number         0  ff_gen_drv.o ABSOLUTE
    ..\..\..\..\Middlewares\Third_Party\FatFs\src\option\syscall.c 0x00000000   Number         0  syscall.o ABSOLUTE
    ..\..\..\..\Middlewares\Third_Party\FatFs\src\option\unicode.c 0x00000000   Number         0  unicode.o ABSOLUTE
    ..\..\..\..\Middlewares\Third_Party\FreeRTOS\Source\CMSIS_RTOS\cmsis_os.c 0x00000000   Number         0  cmsis_os.o ABSOLUTE
    ..\..\..\..\Middlewares\Third_Party\FreeRTOS\Source\list.c 0x00000000   Number         0  list.o ABSOLUTE
    ..\..\..\..\Middlewares\Third_Party\FreeRTOS\Source\portable\MemMang\heap_4.c 0x00000000   Number         0  heap_4.o ABSOLUTE
    ..\..\..\..\Middlewares\Third_Party\FreeRTOS\Source\portable\RVDS\ARM_CM0\port.c 0x00000000   Number         0  port.o ABSOLUTE
    ..\..\..\..\Middlewares\Third_Party\FreeRTOS\Source\queue.c 0x00000000   Number         0  queue.o ABSOLUTE
    ..\..\..\..\Middlewares\Third_Party\FreeRTOS\Source\tasks.c 0x00000000   Number         0  tasks.o ABSOLUTE
    ..\..\..\..\Middlewares\Third_Party\FreeRTOS\Source\timers.c 0x00000000   Number         0  timers.o ABSOLUTE
    ..\..\..\..\Middlewares\Third_Party\nmealib\src\context.c 0x00000000   Number         0  context.o ABSOLUTE
    ..\..\..\..\Middlewares\Third_Party\nmealib\src\generate.c 0x00000000   Number         0  generate.o ABSOLUTE
    ..\..\..\..\Middlewares\Third_Party\nmealib\src\generator.c 0x00000000   Number         0  generator.o ABSOLUTE
    ..\..\..\..\Middlewares\Third_Party\nmealib\src\gmath.c 0x00000000   Number         0  gmath.o ABSOLUTE
    ..\..\..\..\Middlewares\Third_Party\nmealib\src\info.c 0x00000000   Number         0  info.o ABSOLUTE
    ..\..\..\..\Middlewares\Third_Party\nmealib\src\parse.c 0x00000000   Number         0  parse.o ABSOLUTE
    ..\..\..\..\Middlewares\Third_Party\nmealib\src\parser.c 0x00000000   Number         0  parser.o ABSOLUTE
    ..\..\..\..\Middlewares\Third_Party\nmealib\src\sentence.c 0x00000000   Number         0  sentence.o ABSOLUTE
    ..\..\..\..\Middlewares\Third_Party\nmealib\src\time.c 0x00000000   Number         0  time.o ABSOLUTE
    ..\..\..\..\Middlewares\Third_Party\nmealib\src\tok.c 0x00000000   Number         0  tok.o ABSOLUTE
    ..\Src\command.c                         0x00000000   Number         0  command.o ABSOLUTE
    ..\Src\common.c                          0x00000000   Number         0  common.o ABSOLUTE
    ..\Src\config_file.c                     0x00000000   Number         0  config_file.o ABSOLUTE
    ..\Src\debug.c                           0x00000000   Number         0  debug.o ABSOLUTE
    ..\Src\eeprom.c                          0x00000000   Number         0  eeprom.o ABSOLUTE
    ..\Src\gps.c                             0x00000000   Number         0  gps.o ABSOLUTE
    ..\Src\gpsOne.c                          0x00000000   Number         0  gpsone.o ABSOLUTE
    ..\Src\gsensor.c                         0x00000000   Number         0  gsensor.o ABSOLUTE
    ..\Src\gsm.c                             0x00000000   Number         0  gsm.o ABSOLUTE
    ..\Src\hardware.c                        0x00000000   Number         0  hardware.o ABSOLUTE
    ..\Src\kalman.c                          0x00000000   Number         0  kalman.o ABSOLUTE
    ..\Src\main.c                            0x00000000   Number         0  main.o ABSOLUTE
    ..\Src\matrix.c                          0x00000000   Number         0  matrix.o ABSOLUTE
    ..\Src\printf2.c                         0x00000000   Number         0  printf2.o ABSOLUTE
    ..\Src\ring_buffer.c                     0x00000000   Number         0  ring_buffer.o ABSOLUTE
    ..\Src\stm32l0xx_hal_msp.c               0x00000000   Number         0  stm32l0xx_hal_msp.o ABSOLUTE
    ..\Src\stm32l0xx_it.c                    0x00000000   Number         0  stm32l0xx_it.o ABSOLUTE
    ..\Src\system_stm32l0xx.c                0x00000000   Number         0  system_stm32l0xx_1.o ABSOLUTE
    ..\Src\utility.c                         0x00000000   Number         0  utility.o ABSOLUTE
    ..\Src\work.c                            0x00000000   Number         0  work.o ABSOLUTE
    ..\\..\\..\\..\\Drivers\\BSP\\STM32L0xx_Nucleo\\stm32l0xx_nucleo.c 0x00000000   Number         0  stm32l0xx_nucleo.o ABSOLUTE
    ..\\..\\..\\..\\Drivers\\STM32L0xx_HAL_Driver\\Src\\stm32l0xx_hal.c 0x00000000   Number         0  stm32l0xx_hal.o ABSOLUTE
    ..\\..\\..\\..\\Drivers\\STM32L0xx_HAL_Driver\\Src\\stm32l0xx_hal_adc.c 0x00000000   Number         0  stm32l0xx_hal_adc.o ABSOLUTE
    ..\\..\\..\\..\\Drivers\\STM32L0xx_HAL_Driver\\Src\\stm32l0xx_hal_adc_ex.c 0x00000000   Number         0  stm32l0xx_hal_adc_ex.o ABSOLUTE
    ..\\..\\..\\..\\Drivers\\STM32L0xx_HAL_Driver\\Src\\stm32l0xx_hal_comp.c 0x00000000   Number         0  stm32l0xx_hal_comp.o ABSOLUTE
    ..\\..\\..\\..\\Drivers\\STM32L0xx_HAL_Driver\\Src\\stm32l0xx_hal_cortex.c 0x00000000   Number         0  stm32l0xx_hal_cortex.o ABSOLUTE
    ..\\..\\..\\..\\Drivers\\STM32L0xx_HAL_Driver\\Src\\stm32l0xx_hal_crc.c 0x00000000   Number         0  stm32l0xx_hal_crc.o ABSOLUTE
    ..\\..\\..\\..\\Drivers\\STM32L0xx_HAL_Driver\\Src\\stm32l0xx_hal_crc_ex.c 0x00000000   Number         0  stm32l0xx_hal_crc_ex.o ABSOLUTE
    ..\\..\\..\\..\\Drivers\\STM32L0xx_HAL_Driver\\Src\\stm32l0xx_hal_dma.c 0x00000000   Number         0  stm32l0xx_hal_dma.o ABSOLUTE
    ..\\..\\..\\..\\Drivers\\STM32L0xx_HAL_Driver\\Src\\stm32l0xx_hal_flash.c 0x00000000   Number         0  stm32l0xx_hal_flash.o ABSOLUTE
    ..\\..\\..\\..\\Drivers\\STM32L0xx_HAL_Driver\\Src\\stm32l0xx_hal_flash_ex.c 0x00000000   Number         0  stm32l0xx_hal_flash_ex.o ABSOLUTE
    ..\\..\\..\\..\\Drivers\\STM32L0xx_HAL_Driver\\Src\\stm32l0xx_hal_flash_ramfunc.c 0x00000000   Number         0  stm32l0xx_hal_flash_ramfunc.o ABSOLUTE
    ..\\..\\..\\..\\Drivers\\STM32L0xx_HAL_Driver\\Src\\stm32l0xx_hal_gpio.c 0x00000000   Number         0  stm32l0xx_hal_gpio.o ABSOLUTE
    ..\\..\\..\\..\\Drivers\\STM32L0xx_HAL_Driver\\Src\\stm32l0xx_hal_i2c.c 0x00000000   Number         0  stm32l0xx_hal_i2c.o ABSOLUTE
    ..\\..\\..\\..\\Drivers\\STM32L0xx_HAL_Driver\\Src\\stm32l0xx_hal_i2c_ex.c 0x00000000   Number         0  stm32l0xx_hal_i2c_ex.o ABSOLUTE
    ..\\..\\..\\..\\Drivers\\STM32L0xx_HAL_Driver\\Src\\stm32l0xx_hal_i2s.c 0x00000000   Number         0  stm32l0xx_hal_i2s.o ABSOLUTE
    ..\\..\\..\\..\\Drivers\\STM32L0xx_HAL_Driver\\Src\\stm32l0xx_hal_irda.c 0x00000000   Number         0  stm32l0xx_hal_irda.o ABSOLUTE
    ..\\..\\..\\..\\Drivers\\STM32L0xx_HAL_Driver\\Src\\stm32l0xx_hal_iwdg.c 0x00000000   Number         0  stm32l0xx_hal_iwdg.o ABSOLUTE
    ..\\..\\..\\..\\Drivers\\STM32L0xx_HAL_Driver\\Src\\stm32l0xx_hal_lcd.c 0x00000000   Number         0  stm32l0xx_hal_lcd.o ABSOLUTE
    ..\\..\\..\\..\\Drivers\\STM32L0xx_HAL_Driver\\Src\\stm32l0xx_hal_lptim.c 0x00000000   Number         0  stm32l0xx_hal_lptim.o ABSOLUTE
    ..\\..\\..\\..\\Drivers\\STM32L0xx_HAL_Driver\\Src\\stm32l0xx_hal_pcd.c 0x00000000   Number         0  stm32l0xx_hal_pcd.o ABSOLUTE
    ..\\..\\..\\..\\Drivers\\STM32L0xx_HAL_Driver\\Src\\stm32l0xx_hal_pwr.c 0x00000000   Number         0  stm32l0xx_hal_pwr.o ABSOLUTE
    ..\\..\\..\\..\\Drivers\\STM32L0xx_HAL_Driver\\Src\\stm32l0xx_hal_pwr_ex.c 0x00000000   Number         0  stm32l0xx_hal_pwr_ex.o ABSOLUTE
    ..\\..\\..\\..\\Drivers\\STM32L0xx_HAL_Driver\\Src\\stm32l0xx_hal_rcc.c 0x00000000   Number         0  stm32l0xx_hal_rcc.o ABSOLUTE
    ..\\..\\..\\..\\Drivers\\STM32L0xx_HAL_Driver\\Src\\stm32l0xx_hal_rcc_ex.c 0x00000000   Number         0  stm32l0xx_hal_rcc_ex.o ABSOLUTE
    ..\\..\\..\\..\\Drivers\\STM32L0xx_HAL_Driver\\Src\\stm32l0xx_hal_rng.c 0x00000000   Number         0  stm32l0xx_hal_rng.o ABSOLUTE
    ..\\..\\..\\..\\Drivers\\STM32L0xx_HAL_Driver\\Src\\stm32l0xx_hal_rtc.c 0x00000000   Number         0  stm32l0xx_hal_rtc.o ABSOLUTE
    ..\\..\\..\\..\\Drivers\\STM32L0xx_HAL_Driver\\Src\\stm32l0xx_hal_rtc_ex.c 0x00000000   Number         0  stm32l0xx_hal_rtc_ex.o ABSOLUTE
    ..\\..\\..\\..\\Drivers\\STM32L0xx_HAL_Driver\\Src\\stm32l0xx_hal_smartcard.c 0x00000000   Number         0  stm32l0xx_hal_smartcard.o ABSOLUTE
    ..\\..\\..\\..\\Drivers\\STM32L0xx_HAL_Driver\\Src\\stm32l0xx_hal_smartcard_ex.c 0x00000000   Number         0  stm32l0xx_hal_smartcard_ex.o ABSOLUTE
    ..\\..\\..\\..\\Drivers\\STM32L0xx_HAL_Driver\\Src\\stm32l0xx_hal_smbus.c 0x00000000   Number         0  stm32l0xx_hal_smbus.o ABSOLUTE
    ..\\..\\..\\..\\Drivers\\STM32L0xx_HAL_Driver\\Src\\stm32l0xx_hal_spi.c 0x00000000   Number         0  stm32l0xx_hal_spi.o ABSOLUTE
    ..\\..\\..\\..\\Drivers\\STM32L0xx_HAL_Driver\\Src\\stm32l0xx_hal_tim.c 0x00000000   Number         0  stm32l0xx_hal_tim.o ABSOLUTE
    ..\\..\\..\\..\\Drivers\\STM32L0xx_HAL_Driver\\Src\\stm32l0xx_hal_tim_ex.c 0x00000000   Number         0  stm32l0xx_hal_tim_ex.o ABSOLUTE
    ..\\..\\..\\..\\Drivers\\STM32L0xx_HAL_Driver\\Src\\stm32l0xx_hal_uart.c 0x00000000   Number         0  stm32l0xx_hal_uart.o ABSOLUTE
    ..\\..\\..\\..\\Drivers\\STM32L0xx_HAL_Driver\\Src\\stm32l0xx_hal_uart_ex.c 0x00000000   Number         0  stm32l0xx_hal_uart_ex.o ABSOLUTE
    ..\\..\\..\\..\\Drivers\\STM32L0xx_HAL_Driver\\Src\\stm32l0xx_hal_usart.c 0x00000000   Number         0  stm32l0xx_hal_usart.o ABSOLUTE
    ..\\..\\..\\..\\Drivers\\STM32L0xx_HAL_Driver\\Src\\stm32l0xx_hal_wwdg.c 0x00000000   Number         0  stm32l0xx_hal_wwdg.o ABSOLUTE
    ..\\..\\..\\..\\Middlewares\\Third_Party\\FatFs\\src\\diskio.c 0x00000000   Number         0  diskio.o ABSOLUTE
    ..\\..\\..\\..\\Middlewares\\Third_Party\\FatFs\\src\\ff.c 0x00000000   Number         0  ff.o ABSOLUTE
    ..\\..\\..\\..\\Middlewares\\Third_Party\\FatFs\\src\\ff_gen_drv.c 0x00000000   Number         0  ff_gen_drv.o ABSOLUTE
    ..\\..\\..\\..\\Middlewares\\Third_Party\\FatFs\\src\\option\\syscall.c 0x00000000   Number         0  syscall.o ABSOLUTE
    ..\\..\\..\\..\\Middlewares\\Third_Party\\FatFs\\src\\option\\unicode.c 0x00000000   Number         0  unicode.o ABSOLUTE
    ..\\..\\..\\..\\Middlewares\\Third_Party\\FreeRTOS\\Source\\CMSIS_RTOS\\cmsis_os.c 0x00000000   Number         0  cmsis_os.o ABSOLUTE
    ..\\..\\..\\..\\Middlewares\\Third_Party\\FreeRTOS\\Source\\portable\\RVDS\\ARM_CM0\\port.c 0x00000000   Number         0  port.o ABSOLUTE
    ..\\Src\\command.c                       0x00000000   Number         0  command.o ABSOLUTE
    ..\\Src\\common.c                        0x00000000   Number         0  common.o ABSOLUTE
    ..\\Src\\config_file.c                   0x00000000   Number         0  config_file.o ABSOLUTE
    ..\\Src\\debug.c                         0x00000000   Number         0  debug.o ABSOLUTE
    ..\\Src\\eeprom.c                        0x00000000   Number         0  eeprom.o ABSOLUTE
    ..\\Src\\gps.c                           0x00000000   Number         0  gps.o ABSOLUTE
    ..\\Src\\gpsOne.c                        0x00000000   Number         0  gpsone.o ABSOLUTE
    ..\\Src\\gsensor.c                       0x00000000   Number         0  gsensor.o ABSOLUTE
    ..\\Src\\gsm.c                           0x00000000   Number         0  gsm.o ABSOLUTE
    ..\\Src\\hardware.c                      0x00000000   Number         0  hardware.o ABSOLUTE
    ..\\Src\\kalman.c                        0x00000000   Number         0  kalman.o ABSOLUTE
    ..\\Src\\main.c                          0x00000000   Number         0  main.o ABSOLUTE
    ..\\Src\\stm32l0xx_hal_msp.c             0x00000000   Number         0  stm32l0xx_hal_msp.o ABSOLUTE
    ..\\Src\\stm32l0xx_it.c                  0x00000000   Number         0  stm32l0xx_it.o ABSOLUTE
    ..\\Src\\system_stm32l0xx.c              0x00000000   Number         0  system_stm32l0xx_1.o ABSOLUTE
    ..\\Src\\utility.c                       0x00000000   Number         0  utility.o ABSOLUTE
    ..\\Src\\work.c                          0x00000000   Number         0  work.o ABSOLUTE
    cdcmple.s                                0x00000000   Number         0  cdcmple.o ABSOLUTE
    cdrcmple.s                               0x00000000   Number         0  cdrcmple.o ABSOLUTE
    cfcmple.s                                0x00000000   Number         0  cfcmple.o ABSOLUTE
    cfrcmple.s                               0x00000000   Number         0  cfrcmple.o ABSOLUTE
    dc.s                                     0x00000000   Number         0  dc.o ABSOLUTE
    handlers.s                               0x00000000   Number         0  handlers.o ABSOLUTE
    init.s                                   0x00000000   Number         0  init.o ABSOLUTE
    startup_stm32l073xx.s                    0x00000000   Number         0  startup_stm32l073xx.o ABSOLUTE
    RESET                                    0x08000000   Section      192  startup_stm32l073xx.o(RESET)
    .ARM.Collect$$$$00000000                 0x080000c0   Section        0  entry.o(.ARM.Collect$$$$00000000)
    .ARM.Collect$$$$00000001                 0x080000c0   Section        4  entry2.o(.ARM.Collect$$$$00000001)
    .ARM.Collect$$$$00000004                 0x080000c4   Section        4  entry5.o(.ARM.Collect$$$$00000004)
    .ARM.Collect$$$$00000008                 0x080000c8   Section        0  entry7b.o(.ARM.Collect$$$$00000008)
    .ARM.Collect$$$$0000000A                 0x080000c8   Section        0  entry8b.o(.ARM.Collect$$$$0000000A)
    .ARM.Collect$$$$0000000B                 0x080000c8   Section        8  entry9a.o(.ARM.Collect$$$$0000000B)
    .ARM.Collect$$$$0000000D                 0x080000d0   Section        0  entry10a.o(.ARM.Collect$$$$0000000D)
    .ARM.Collect$$$$0000000F                 0x080000d0   Section        0  entry11a.o(.ARM.Collect$$$$0000000F)
    .ARM.Collect$$$$00002712                 0x080000d0   Section        4  entry2.o(.ARM.Collect$$$$00002712)
    __lit__00000000                          0x080000d0   Data           4  entry2.o(.ARM.Collect$$$$00002712)
    .emb_text                                0x080000d4   Section      112  port.o(.emb_text)
    .text                                    0x08000144   Section       28  startup_stm32l073xx.o(.text)
    .text                                    0x08000160   Section        0  uidiv.o(.text)
    .text                                    0x0800018c   Section        0  ctype_o.o(.text)
    .text                                    0x08000194   Section        0  isspace_o.o(.text)
    .text                                    0x080001a6   Section        0  memcpya.o(.text)
    .text                                    0x080001ca   Section        0  memseta.o(.text)
    .text                                    0x080001ee   Section        0  strstr.o(.text)
    .text                                    0x08000216   Section        0  strlen.o(.text)
    .text                                    0x08000224   Section        0  strcmp.o(.text)
    .text                                    0x08000240   Section        0  memchr.o(.text)
    .text                                    0x08000254   Section        0  strncmp.o(.text)
    .text                                    0x08000274   Section        0  __0sscanf.o(.text)
    .text                                    0x080002b0   Section        0  _scanf_str.o(.text)
    .text                                    0x08000398   Section        0  strtol.o(.text)
    .text                                    0x08000408   Section        0  dadd.o(.text)
    .text                                    0x0800056c   Section        0  dmul.o(.text)
    .text                                    0x0800063c   Section        0  ddiv.o(.text)
    .text                                    0x0800072c   Section        0  dscalb.o(.text)
    .text                                    0x08000758   Section        0  dflti.o(.text)
    .text                                    0x08000780   Section        0  dfltui.o(.text)
    .text                                    0x0800079c   Section        0  dfixi.o(.text)
    .text                                    0x080007e4   Section        0  dfixui.o(.text)
    .text                                    0x08000820   Section       40  cdcmple.o(.text)
    .text                                    0x08000848   Section       40  cdrcmple.o(.text)
    .text                                    0x08000870   Section        0  uldiv.o(.text)
    .text                                    0x080008d0   Section        0  llshl.o(.text)
    .text                                    0x080008f0   Section        0  llushr.o(.text)
    .text                                    0x08000912   Section        0  llsshr.o(.text)
    .text                                    0x08000938   Section        0  scanf_char.o(.text)
    _scanf_char_input                        0x08000939   Thumb Code    12  scanf_char.o(.text)
    .text                                    0x08000964   Section        0  _sgetc.o(.text)
    .text                                    0x080009a8   Section        0  _strtoul.o(.text)
    .text                                    0x08000a50   Section        0  strtod.o(.text)
    _local_sscanf                            0x08000a51   Thumb Code    54  strtod.o(.text)
    .text                                    0x08000af4   Section        0  fepilogue.o(.text)
    .text                                    0x08000af4   Section        0  iusefp.o(.text)
    .text                                    0x08000b76   Section        0  depilogue.o(.text)
    .text                                    0x08000c34   Section        0  dfixul.o(.text)
    .text                                    0x08000c74   Section       36  init.o(.text)
    .text                                    0x08000c98   Section        0  _chval.o(.text)
    .text                                    0x08000cb8   Section        0  _scanf.o(.text)
    .text                                    0x08000ff0   Section        0  scanf_fp.o(.text)
    _fp_value                                0x08000ff1   Thumb Code   246  scanf_fp.o(.text)
    .text                                    0x0800133c   Section        0  llmul.o(.text)
    .text                                    0x080013b8   Section        0  dfltul.o(.text)
    .text                                    0x080013d4   Section        0  d2f.o(.text)
    .text                                    0x0800140c   Section        0  __dczerorl2.o(.text)
    i.BSP_LED_On                             0x08001464   Section        0  stm32l0xx_nucleo.o(i.BSP_LED_On)
    i.BSP_LED_Toggle                         0x08001484   Section        0  stm32l0xx_nucleo.o(i.BSP_LED_Toggle)
    i.BSP_PB_Init                            0x080014a0   Section        0  stm32l0xx_nucleo.o(i.BSP_PB_Init)
    i.DebugInit                              0x08001560   Section        0  debug.o(i.DebugInit)
    i.EXTI4_15_IRQHandler                    0x080015e8   Section        0  stm32l0xx_it.o(i.EXTI4_15_IRQHandler)
    i.Error_Handler                          0x080015f4   Section        0  gps.o(i.Error_Handler)
    i.FLASH_SetErrorCode                     0x0800160c   Section        0  stm32l0xx_hal_flash.o(i.FLASH_SetErrorCode)
    FLASH_SetErrorCode                       0x0800160d   Thumb Code   108  stm32l0xx_hal_flash.o(i.FLASH_SetErrorCode)
    i.FLASH_WaitForLastOperation             0x08001684   Section        0  stm32l0xx_hal_flash.o(i.FLASH_WaitForLastOperation)
    i.FilterAverageGet                       0x08001704   Section        0  kalman.o(i.FilterAverageGet)
    i.FilterAverageInit                      0x080017d0   Section        0  kalman.o(i.FilterAverageInit)
    i.FilterAverageUpdate                    0x080017dc   Section        0  kalman.o(i.FilterAverageUpdate)
    i.FilterKalmanGet                        0x08001830   Section        0  kalman.o(i.FilterKalmanGet)
    i.FilterKalmanInit                       0x08001860   Section        0  kalman.o(i.FilterKalmanInit)
    i.FilterKalmanUpdate                     0x0800198c   Section        0  kalman.o(i.FilterKalmanUpdate)
    i.GPRS_SET_GL865                         0x08001ac4   Section        0  gsm.o(i.GPRS_SET_GL865)
    i.GPRS_SET_WS228                         0x08001b34   Section        0  gsm.o(i.GPRS_SET_WS228)
    i.GPRS_START_GL865                       0x08001bd0   Section        0  gsm.o(i.GPRS_START_GL865)
    i.GPRS_START_W228                        0x08001c14   Section        0  gsm.o(i.GPRS_START_W228)
    i.GPRS_STOP_GL865                        0x08001c3c   Section        0  gsm.o(i.GPRS_STOP_GL865)
    i.GPRS_STOP_W228                         0x08001c60   Section        0  gsm.o(i.GPRS_STOP_W228)
    i.GpsGeneral_Init                        0x08001c84   Section        0  gps.o(i.GpsGeneral_Init)
    i.GpsInit                                0x08001c88   Section        0  gps.o(i.GpsInit)
    i.GpsMTK_Init                            0x08001d0c   Section        0  gps.o(i.GpsMTK_Init)
    i.GpsPut                                 0x08001d24   Section        0  gps.o(i.GpsPut)
    i.GpsPutLineCS                           0x08001d54   Section        0  gps.o(i.GpsPutLineCS)
    i.GsmAddTask                             0x08001d9c   Section        0  gsm.o(i.GsmAddTask)
    i.HAL_Delay                              0x08001dc0   Section        0  stm32l0xx_hal.o(i.HAL_Delay)
    i.HAL_FLASHEx_DATAEEPROM_Erase           0x08001dd8   Section        0  stm32l0xx_hal_flash_ex.o(i.HAL_FLASHEx_DATAEEPROM_Erase)
    i.HAL_FLASHEx_DATAEEPROM_Lock            0x08001e00   Section        0  stm32l0xx_hal_flash_ex.o(i.HAL_FLASHEx_DATAEEPROM_Lock)
    i.HAL_FLASHEx_DATAEEPROM_Program         0x08001e14   Section        0  stm32l0xx_hal_flash_ex.o(i.HAL_FLASHEx_DATAEEPROM_Program)
    i.HAL_FLASHEx_DATAEEPROM_Unlock          0x08001e68   Section        0  stm32l0xx_hal_flash_ex.o(i.HAL_FLASHEx_DATAEEPROM_Unlock)
    i.HAL_GPIO_DeInit                        0x08001e8c   Section        0  stm32l0xx_hal_gpio.o(i.HAL_GPIO_DeInit)
    i.HAL_GPIO_EXTI_Callback                 0x08001f7c   Section        0  main.o(i.HAL_GPIO_EXTI_Callback)
    i.HAL_GPIO_EXTI_IRQHandler               0x08001f90   Section        0  stm32l0xx_hal_gpio.o(i.HAL_GPIO_EXTI_IRQHandler)
    i.HAL_GPIO_Init                          0x08001fa8   Section        0  stm32l0xx_hal_gpio.o(i.HAL_GPIO_Init)
    i.HAL_GPIO_TogglePin                     0x0800212c   Section        0  stm32l0xx_hal_gpio.o(i.HAL_GPIO_TogglePin)
    i.HAL_GPIO_WritePin                      0x08002134   Section        0  stm32l0xx_hal_gpio.o(i.HAL_GPIO_WritePin)
    i.HAL_GetTick                            0x08002140   Section        0  stm32l0xx_hal.o(i.HAL_GetTick)
    i.HAL_IncTick                            0x0800214c   Section        0  stm32l0xx_hal.o(i.HAL_IncTick)
    i.HAL_Init                               0x0800215c   Section        0  stm32l0xx_hal.o(i.HAL_Init)
    i.HAL_InitTick                           0x0800217c   Section        0  stm32l0xx_hal.o(i.HAL_InitTick)
    i.HAL_MspInit                            0x0800219e   Section        0  stm32l0xx_hal.o(i.HAL_MspInit)
    i.HAL_NVIC_DisableIRQ                    0x080021a0   Section        0  stm32l0xx_hal_cortex.o(i.HAL_NVIC_DisableIRQ)
    i.HAL_NVIC_EnableIRQ                     0x080021b4   Section        0  stm32l0xx_hal_cortex.o(i.HAL_NVIC_EnableIRQ)
    i.HAL_NVIC_SetPriority                   0x080021c8   Section        0  stm32l0xx_hal_cortex.o(i.HAL_NVIC_SetPriority)
    i.HAL_PWR_EnterSLEEPMode                 0x080021d0   Section        0  stm32l0xx_hal_pwr.o(i.HAL_PWR_EnterSLEEPMode)
    i.HAL_RCC_ClockConfig                    0x08002200   Section        0  stm32l0xx_hal_rcc.o(i.HAL_RCC_ClockConfig)
    i.HAL_RCC_GetHCLKFreq                    0x0800234c   Section        0  stm32l0xx_hal_rcc.o(i.HAL_RCC_GetHCLKFreq)
    i.HAL_RCC_GetPCLK1Freq                   0x08002374   Section        0  stm32l0xx_hal_rcc.o(i.HAL_RCC_GetPCLK1Freq)
    i.HAL_RCC_GetPCLK2Freq                   0x08002394   Section        0  stm32l0xx_hal_rcc.o(i.HAL_RCC_GetPCLK2Freq)
    i.HAL_RCC_GetSysClockFreq                0x080023b4   Section        0  stm32l0xx_hal_rcc.o(i.HAL_RCC_GetSysClockFreq)
    i.HAL_RCC_OscConfig                      0x08002438   Section        0  stm32l0xx_hal_rcc.o(i.HAL_RCC_OscConfig)
    i.HAL_SYSTICK_Config                     0x080027ec   Section        0  stm32l0xx_hal_cortex.o(i.HAL_SYSTICK_Config)
    i.HAL_UART_DeInit                        0x0800281c   Section        0  stm32l0xx_hal_uart.o(i.HAL_UART_DeInit)
    i.HAL_UART_Init                          0x08002858   Section        0  stm32l0xx_hal_uart.o(i.HAL_UART_Init)
    i.HAL_UART_MspDeInit                     0x080028c0   Section        0  stm32l0xx_hal_msp.o(i.HAL_UART_MspDeInit)
    i.HAL_UART_MspInit                       0x080028f8   Section        0  stm32l0xx_hal_msp.o(i.HAL_UART_MspInit)
    i.HAL_UART_Transmit                      0x08002964   Section        0  stm32l0xx_hal_uart.o(i.HAL_UART_Transmit)
    i.HardFault_Handler                      0x08002a1e   Section        0  stm32l0xx_it.o(i.HardFault_Handler)
    i.HardwareInit                           0x08002a20   Section        0  main.o(i.HardwareInit)
    i.NMI_Handler                            0x08002a3a   Section        0  stm32l0xx_it.o(i.NMI_Handler)
    i.NVIC_SetPriority                       0x08002a3c   Section        0  stm32l0xx_hal_cortex.o(i.NVIC_SetPriority)
    NVIC_SetPriority                         0x08002a3d   Thumb Code    60  stm32l0xx_hal_cortex.o(i.NVIC_SetPriority)
    i.PostSleepProcessing                    0x08002a80   Section        0  main.o(i.PostSleepProcessing)
    i.PreSleepProcessing                     0x08002a82   Section        0  main.o(i.PreSleepProcessing)
    i.STRCPY                                 0x08002a92   Section        0  config_file.o(i.STRCPY)
    i.SVC_Handler                            0x08002aa0   Section        0  port.o(i.SVC_Handler)
    i.ShowError                              0x08002aa4   Section        0  main.o(i.ShowError)
    i.SysTick_Handler                        0x08002b04   Section        0  stm32l0xx_it.o(i.SysTick_Handler)
    i.SystemClock_Config                     0x08002b10   Section        0  main.o(i.SystemClock_Config)
    i.SystemInit                             0x08002b88   Section        0  system_stm32l0xx_1.o(i.SystemInit)
    i.TCP_OPEN_GL865                         0x08002bdc   Section        0  gsm.o(i.TCP_OPEN_GL865)
    i.TCP_OPEN_WS228                         0x08002c20   Section        0  gsm.o(i.TCP_OPEN_WS228)
    i.UART_AdvFeatureConfig                  0x08002c74   Section        0  stm32l0xx_hal_uart.o(i.UART_AdvFeatureConfig)
    i.UART_CheckIdleState                    0x08002d40   Section        0  stm32l0xx_hal_uart.o(i.UART_CheckIdleState)
    i.UART_SetConfig                         0x08002d94   Section        0  stm32l0xx_hal_uart.o(i.UART_SetConfig)
    i.UART_WaitOnFlagUntilTimeout            0x08002fa8   Section        0  stm32l0xx_hal_uart.o(i.UART_WaitOnFlagUntilTimeout)
    i.USART1_IRQHandler                      0x08003058   Section        0  gps.o(i.USART1_IRQHandler)
    i.USART2_IRQHandler                      0x08003268   Section        0  gsm.o(i.USART2_IRQHandler)
    i.__0printf                              0x080033c0   Section        0  printfa.o(i.__0printf)
    i.__0sprintf                             0x080033e0   Section        0  printfa.o(i.__0sprintf)
    i.__0vsnprintf                           0x08003408   Section        0  printfa.o(i.__0vsnprintf)
    i.__ARM_clz                              0x0800342c   Section        0  depilogue.o(i.__ARM_clz)
    i.__ARM_common_switch8                   0x0800345a   Section        0  gpsone.o(i.__ARM_common_switch8)
    i.__aeabi_errno_addr                     0x08003474   Section        0  errno.o(i.__aeabi_errno_addr)
    i.__scatterload_copy                     0x0800347c   Section       14  handlers.o(i.__scatterload_copy)
    i.__scatterload_null                     0x0800348a   Section        2  handlers.o(i.__scatterload_null)
    i.__scatterload_zeroinit                 0x0800348c   Section       14  handlers.o(i.__scatterload_zeroinit)
    i._fp_digits                             0x0800349c   Section        0  printfa.o(i._fp_digits)
    _fp_digits                               0x0800349d   Thumb Code   316  printfa.o(i._fp_digits)
    i._is_digit                              0x080035f4   Section        0  scanf_fp.o(i._is_digit)
    i._nmea_parse_time                       0x08003604   Section        0  parse.o(i._nmea_parse_time)
    i._printf_core                           0x08003694   Section        0  printfa.o(i._printf_core)
    _printf_core                             0x08003695   Thumb Code  1754  printfa.o(i._printf_core)
    i._printf_post_padding                   0x08003d80   Section        0  printfa.o(i._printf_post_padding)
    _printf_post_padding                     0x08003d81   Thumb Code    32  printfa.o(i._printf_post_padding)
    i._printf_pre_padding                    0x08003da0   Section        0  printfa.o(i._printf_pre_padding)
    _printf_pre_padding                      0x08003da1   Thumb Code    44  printfa.o(i._printf_pre_padding)
    i._snputc                                0x08003dcc   Section        0  printfa.o(i._snputc)
    _snputc                                  0x08003dcd   Thumb Code    22  printfa.o(i._snputc)
    i._sputc                                 0x08003de2   Section        0  printfa.o(i._sputc)
    _sputc                                   0x08003de3   Thumb Code    10  printfa.o(i._sputc)
    i.add_matrix                             0x08003dec   Section        0  matrix.o(i.add_matrix)
    i.create_sw_conf_table                   0x08003e3c   Section        0  config_file.o(i.create_sw_conf_table)
    i.destructive_invert_matrix              0x08003ebc   Section        0  matrix.o(i.destructive_invert_matrix)
    i.eTaskConfirmSleepModeStatus            0x08003fb0   Section        0  tasks.o(i.eTaskConfirmSleepModeStatus)
    i.flash_eeprom                           0x08003fe0   Section        0  eeprom.o(i.flash_eeprom)
    i.fputc                                  0x0800406c   Section        0  debug.o(i.fputc)
    i.gpsCheckTypeInit                       0x0800408c   Section        0  gps.o(i.gpsCheckTypeInit)
    i.gpsWaitComplete                        0x080040a0   Section        0  gps.o(i.gpsWaitComplete)
    i.gsmCmd0                                0x080040dc   Section        0  gsm.o(i.gsmCmd0)
    i.gsmCmd1                                0x080040ec   Section        0  gsm.o(i.gsmCmd1)
    i.gsmCmd2                                0x080040f8   Section        0  gsm.o(i.gsmCmd2)
    i.gsmCmdX0                               0x08004160   Section        0  gsm.o(i.gsmCmdX0)
    i.gsmCmdX2                               0x0800417a   Section        0  gsm.o(i.gsmCmdX2)
    i.gsmRxFlush                             0x08004198   Section        0  gsm.o(i.gsmRxFlush)
    i.gsmSend                                0x080041cc   Section        0  gsm.o(i.gsmSend)
    i.gsmSends                               0x08004210   Section        0  gsm.o(i.gsmSends)
    i.gsmShowError                           0x0800422c   Section        0  gsm.o(i.gsmShowError)
    i.gsmToken                               0x080042cc   Section        0  gsm.o(i.gsmToken)
    i.init_matrix                            0x080042ec   Section        0  matrix.o(i.init_matrix)
    i.init_sw_conf_table                     0x0800430c   Section        0  config_file.o(i.init_sw_conf_table)
    i.main                                   0x080043d8   Section        0  main.o(i.main)
    i.makeFreeRtosPriority                   0x08004478   Section        0  cmsis_os.o(i.makeFreeRtosPriority)
    makeFreeRtosPriority                     0x08004479   Thumb Code    12  cmsis_os.o(i.makeFreeRtosPriority)
    i.multiply_by_transpose_matrix           0x08004484   Section        0  matrix.o(i.multiply_by_transpose_matrix)
    i.multiply_matrix                        0x0800450e   Section        0  matrix.o(i.multiply_matrix)
    i.nmea_atof                              0x08004590   Section        0  tok.o(i.nmea_atof)
    i.nmea_atoi                              0x080045bc   Section        0  tok.o(i.nmea_atoi)
    i.nmea_error                             0x080045e8   Section        0  context.o(i.nmea_error)
    i.nmea_ndeg2degree                       0x0800462c   Section        0  gmath.o(i.nmea_ndeg2degree)
    i.nmea_parse_GPRMC                       0x08004670   Section        0  parse.o(i.nmea_parse_GPRMC)
    i.nmea_scanf                             0x08004778   Section        0  tok.o(i.nmea_scanf)
    i.nmea_trace_buff                        0x0800493c   Section        0  context.o(i.nmea_trace_buff)
    i.osKernelStart                          0x08004950   Section        0  cmsis_os.o(i.osKernelStart)
    i.osSystickHandler                       0x0800495a   Section        0  cmsis_os.o(i.osSystickHandler)
    i.osThreadCreate                         0x0800496a   Section        0  cmsis_os.o(i.osThreadCreate)
    i.pinHigh                                0x080049a2   Section        0  hardware.o(i.pinHigh)
    i.pinMode                                0x080049ba   Section        0  hardware.o(i.pinMode)
    i.pinRemap                               0x08004a16   Section        0  hardware.o(i.pinRemap)
    i.prvAddCurrentTaskToDelayedList         0x08004a40   Section        0  tasks.o(i.prvAddCurrentTaskToDelayedList)
    prvAddCurrentTaskToDelayedList           0x08004a41   Thumb Code    46  tasks.o(i.prvAddCurrentTaskToDelayedList)
    i.prvCheckTasksWaitingTermination        0x08004a74   Section        0  tasks.o(i.prvCheckTasksWaitingTermination)
    prvCheckTasksWaitingTermination          0x08004a75   Thumb Code    78  tasks.o(i.prvCheckTasksWaitingTermination)
    i.prvCopyDataFromQueue                   0x08004acc   Section        0  queue.o(i.prvCopyDataFromQueue)
    prvCopyDataFromQueue                     0x08004acd   Thumb Code    38  queue.o(i.prvCopyDataFromQueue)
    i.prvCopyDataToQueue                     0x08004af2   Section        0  queue.o(i.prvCopyDataToQueue)
    prvCopyDataToQueue                       0x08004af3   Thumb Code   118  queue.o(i.prvCopyDataToQueue)
    i.prvGetExpectedIdleTime                 0x08004b68   Section        0  tasks.o(i.prvGetExpectedIdleTime)
    prvGetExpectedIdleTime                   0x08004b69   Thumb Code    30  tasks.o(i.prvGetExpectedIdleTime)
    i.prvHeapInit                            0x08004b90   Section        0  heap_4.o(i.prvHeapInit)
    prvHeapInit                              0x08004b91   Thumb Code    60  heap_4.o(i.prvHeapInit)
    i.prvIdleTask                            0x08004bd4   Section        0  tasks.o(i.prvIdleTask)
    prvIdleTask                              0x08004bd5   Thumb Code    60  tasks.o(i.prvIdleTask)
    i.prvInsertBlockIntoFreeList             0x08004c18   Section        0  heap_4.o(i.prvInsertBlockIntoFreeList)
    prvInsertBlockIntoFreeList               0x08004c19   Thumb Code    72  heap_4.o(i.prvInsertBlockIntoFreeList)
    i.prvResetNextTaskUnblockTime            0x08004c64   Section        0  tasks.o(i.prvResetNextTaskUnblockTime)
    prvResetNextTaskUnblockTime              0x08004c65   Thumb Code    28  tasks.o(i.prvResetNextTaskUnblockTime)
    i.prvSetupTimerInterrupt                 0x08004c84   Section        0  port.o(i.prvSetupTimerInterrupt)
    prvSetupTimerInterrupt                   0x08004c85   Thumb Code    62  port.o(i.prvSetupTimerInterrupt)
    i.prvTaskExitError                       0x08004cd4   Section        0  port.o(i.prvTaskExitError)
    prvTaskExitError                         0x08004cd5   Thumb Code    14  port.o(i.prvTaskExitError)
    i.prvUnlockQueue                         0x08004ce8   Section        0  queue.o(i.prvUnlockQueue)
    prvUnlockQueue                           0x08004ce9   Thumb Code   106  queue.o(i.prvUnlockQueue)
    i.pvPortMalloc                           0x08004d54   Section        0  heap_4.o(i.pvPortMalloc)
    i.pvTaskIncrementMutexHeldCount          0x08004e04   Section        0  tasks.o(i.pvTaskIncrementMutexHeldCount)
    i.pxPortInitialiseStack                  0x08004e1c   Section        0  port.o(i.pxPortInitialiseStack)
    i.rb_Get                                 0x08004e3c   Section        0  ring_buffer.o(i.rb_Get)
    i.rb_Init                                0x08004e60   Section        0  ring_buffer.o(i.rb_Init)
    i.rb_Put                                 0x08004e6c   Section        0  ring_buffer.o(i.rb_Put)
    i.read_eeprom                            0x08004e90   Section        0  eeprom.o(i.read_eeprom)
    i.scale_matrix                           0x08004ec8   Section        0  matrix.o(i.scale_matrix)
    i.scale_row                              0x08004f10   Section        0  matrix.o(i.scale_row)
    i.set_identity_matrix                    0x08004f48   Section        0  matrix.o(i.set_identity_matrix)
    i.set_matrix                             0x08004f88   Section        0  matrix.o(i.set_matrix)
    i.set_matrix_const                       0x08004fca   Section        0  matrix.o(i.set_matrix_const)
    i.set_seconds_per_timestep               0x08004ffc   Section        0  kalman.o(i.set_seconds_per_timestep)
    set_seconds_per_timestep                 0x08004ffd   Thumb Code    26  kalman.o(i.set_seconds_per_timestep)
    i.shear_row                              0x08005024   Section        0  matrix.o(i.shear_row)
    i.show_sw_conf                           0x08005064   Section        0  config_file.o(i.show_sw_conf)
    i.strtod                                 0x08005094   Section        0  strtod.o(i.strtod)
    i.subtract_from_identity_matrix          0x080050b0   Section        0  matrix.o(i.subtract_from_identity_matrix)
    i.subtract_matrix                        0x08005110   Section        0  matrix.o(i.subtract_matrix)
    i.swap_rows                              0x08005160   Section        0  matrix.o(i.swap_rows)
    i.uxListRemove                           0x08005174   Section        0  list.o(i.uxListRemove)
    i.vGpsTask                               0x08005198   Section        0  gps.o(i.vGpsTask)
    i.vListInitialise                        0x080054e0   Section        0  list.o(i.vListInitialise)
    i.vListInitialiseItem                    0x080054f6   Section        0  list.o(i.vListInitialiseItem)
    i.vListInsert                            0x080054fc   Section        0  list.o(i.vListInsert)
    i.vListInsertEnd                         0x0800552c   Section        0  list.o(i.vListInsertEnd)
    i.vPortEnterCritical                     0x08005544   Section        0  port.o(i.vPortEnterCritical)
    i.vPortExitCritical                      0x0800555c   Section        0  port.o(i.vPortExitCritical)
    i.vPortFree                              0x08005578   Section        0  heap_4.o(i.vPortFree)
    i.vPortSuppressTicksAndSleep             0x080055bc   Section        0  port.o(i.vPortSuppressTicksAndSleep)
    i.vPortYield                             0x080056a8   Section        0  port.o(i.vPortYield)
    i.vTaskDelay                             0x080056c0   Section        0  tasks.o(i.vTaskDelay)
    i.vTaskMissedYield                       0x080056fc   Section        0  tasks.o(i.vTaskMissedYield)
    i.vTaskPlaceOnEventList                  0x08005708   Section        0  tasks.o(i.vTaskPlaceOnEventList)
    i.vTaskPriorityInherit                   0x08005748   Section        0  tasks.o(i.vTaskPriorityInherit)
    i.vTaskSetTimeOutState                   0x080057ac   Section        0  tasks.o(i.vTaskSetTimeOutState)
    i.vTaskStartScheduler                    0x080057c4   Section        0  tasks.o(i.vTaskStartScheduler)
    i.vTaskStepTick                          0x08005808   Section        0  tasks.o(i.vTaskStepTick)
    i.vTaskSuspendAll                        0x08005824   Section        0  tasks.o(i.vTaskSuspendAll)
    i.vTaskSwitchContext                     0x08005834   Section        0  tasks.o(i.vTaskSwitchContext)
    i.xPortStartScheduler                    0x0800588c   Section        0  port.o(i.xPortStartScheduler)
    i.xPortSysTickHandler                    0x080058bc   Section        0  port.o(i.xPortSysTickHandler)
    i.xQueueGenericReceive                   0x080058e0   Section        0  queue.o(i.xQueueGenericReceive)
    i.xQueueGenericSend                      0x08005a1a   Section        0  queue.o(i.xQueueGenericSend)
    i.xQueueGiveFromISR                      0x08005b30   Section        0  queue.o(i.xQueueGiveFromISR)
    i.xTaskCheckForTimeOut                   0x08005ba4   Section        0  tasks.o(i.xTaskCheckForTimeOut)
    i.xTaskGenericCreate                     0x08005bf8   Section        0  tasks.o(i.xTaskGenericCreate)
    i.xTaskGetSchedulerState                 0x08005d74   Section        0  tasks.o(i.xTaskGetSchedulerState)
    i.xTaskGetTickCount                      0x08005d94   Section        0  tasks.o(i.xTaskGetTickCount)
    i.xTaskIncrementTick                     0x08005da0   Section        0  tasks.o(i.xTaskIncrementTick)
    i.xTaskPriorityDisinherit                0x08005e60   Section        0  tasks.o(i.xTaskPriorityDisinherit)
    i.xTaskRemoveFromEventList               0x08005ec8   Section        0  tasks.o(i.xTaskRemoveFromEventList)
    i.xTaskResumeAll                         0x08005f30   Section        0  tasks.o(i.xTaskResumeAll)
    .constdata                               0x08005fd8   Section        6  stm32l0xx_nucleo.o(.constdata)
    .constdata                               0x08005fe0   Section       20  main.o(.constdata)
    .constdata                               0x08005ff4   Section       88  gps.o(.constdata)
    .constdata                               0x0800604c   Section       19  gps.o(.constdata)
    .constdata                               0x0800605f   Section       12  gps.o(.constdata)
    .constdata                               0x0800606b   Section       19  gps.o(.constdata)
    .constdata                               0x0800607e   Section       10  gps.o(.constdata)
    .constdata                               0x08006088   Section       16  gps.o(.constdata)
    .constdata                               0x08006098   Section       16  gps.o(.constdata)
    .constdata                               0x080060a8   Section       16  gps.o(.constdata)
    .constdata                               0x080060b8   Section       16  gps.o(.constdata)
    .constdata                               0x080060c8   Section       16  gps.o(.constdata)
    .constdata                               0x080060d8   Section       16  gps.o(.constdata)
    .constdata                               0x080060e8   Section      512  gsm.o(.constdata)
    .constdata                               0x080062e8   Section      384  kalman.o(.constdata)
    .constdata                               0x08006468   Section       16  stm32l0xx_hal_rcc.o(.constdata)
    APBAHBPrescTable                         0x08006468   Data          16  stm32l0xx_hal_rcc.o(.constdata)
    .constdata                               0x08006478   Section       25  system_stm32l0xx_1.o(.constdata)
    .constdata                               0x08006491   Section      129  ctype_o.o(.constdata)
    .constdata                               0x08006514   Section        4  ctype_o.o(.constdata)
    table                                    0x08006514   Data           4  ctype_o.o(.constdata)
    .conststring                             0x08006518   Section       11  main.o(.conststring)
    .conststring                             0x08006524   Section      111  gsm.o(.conststring)
    .conststring                             0x08006594   Section      145  config_file.o(.conststring)
    .data                                    0x20000000   Section       20  stm32l0xx_nucleo.o(.data)
    sConfig                                  0x2000000c   Data           8  stm32l0xx_nucleo.o(.data)
    .data                                    0x20000014   Section       12  main.o(.data)
    .data                                    0x20000020   Section       12  gpsone.o(.data)
    .data                                    0x2000002c   Section        8  kalman.o(.data)
    .data                                    0x20000034   Section        8  kalman.o(.data)
    .data                                    0x2000003c   Section        8  kalman.o(.data)
    .data                                    0x20000044   Section        8  kalman.o(.data)
    .data                                    0x2000004c   Section        8  kalman.o(.data)
    .data                                    0x20000054   Section        8  kalman.o(.data)
    .data                                    0x2000005c   Section        8  kalman.o(.data)
    .data                                    0x20000064   Section      236  config_file.o(.data)
    .data                                    0x20000150   Section       12  eeprom.o(.data)
    .data                                    0x2000015c   Section        4  stm32l0xx_hal.o(.data)
    uwTick                                   0x2000015c   Data           4  stm32l0xx_hal.o(.data)
    .data                                    0x20000160   Section        4  system_stm32l0xx_1.o(.data)
    .data                                    0x20000164   Section       56  tasks.o(.data)
    uxTasksDeleted                           0x20000168   Data           4  tasks.o(.data)
    uxCurrentNumberOfTasks                   0x2000016c   Data           4  tasks.o(.data)
    xTickCount                               0x20000170   Data           4  tasks.o(.data)
    uxTopReadyPriority                       0x20000174   Data           4  tasks.o(.data)
    xSchedulerRunning                        0x20000178   Data           4  tasks.o(.data)
    uxPendedTicks                            0x2000017c   Data           4  tasks.o(.data)
    xYieldPending                            0x20000180   Data           4  tasks.o(.data)
    xNumOfOverflows                          0x20000184   Data           4  tasks.o(.data)
    uxTaskNumber                             0x20000188   Data           4  tasks.o(.data)
    xNextTaskUnblockTime                     0x2000018c   Data           4  tasks.o(.data)
    uxSchedulerSuspended                     0x20000190   Data           4  tasks.o(.data)
    pxDelayedTaskList                        0x20000194   Data           4  tasks.o(.data)
    pxOverflowDelayedTaskList                0x20000198   Data           4  tasks.o(.data)
    .data                                    0x2000019c   Section       24  heap_4.o(.data)
    pxEnd                                    0x2000019c   Data           4  heap_4.o(.data)
    xFreeBytesRemaining                      0x200001a0   Data           4  heap_4.o(.data)
    xMinimumEverFreeBytesRemaining           0x200001a4   Data           4  heap_4.o(.data)
    xBlockAllocatedBit                       0x200001a8   Data           4  heap_4.o(.data)
    xStart                                   0x200001ac   Data           8  heap_4.o(.data)
    .data                                    0x200001b4   Section       16  port.o(.data)
    uxCriticalNesting                        0x200001b4   Data           4  port.o(.data)
    ulTimerCountsForOneTick                  0x200001b8   Data           4  port.o(.data)
    xMaximumPossibleSuppressedTicks          0x200001bc   Data           4  port.o(.data)
    ulStoppedTimerCompensation               0x200001c0   Data           4  port.o(.data)
    .data                                    0x200001c4   Section       12  context.o(.data)
    prop                                     0x200001c4   Data          12  context.o(.data)
    .data                                    0x200001d0   Section        4  stdout.o(.data)
    .data                                    0x200001d4   Section        4  errno.o(.data)
    _errno                                   0x200001d4   Data           4  errno.o(.data)
    .bss                                     0x200001d8   Section      112  debug.o(.bss)
    .bss                                     0x20000248   Section      536  gps.o(.bss)
    gpsTxBuffer                              0x200002b8   Data          32  gps.o(.bss)
    gpsRxBuffer                              0x200002d8   Data         128  gps.o(.bss)
    .bss                                     0x20000460   Section      160  gpsone.o(.bss)
    .bss                                     0x20000500   Section      920  gsm.o(.bss)
    .bss                                     0x20000898   Section     1568  kalman.o(.bss)
    .bss                                     0x20000eb8   Section       16  kalman.o(.bss)
    .bss                                     0x20000ec8   Section       16  kalman.o(.bss)
    .bss                                     0x20000ed8   Section       16  kalman.o(.bss)
    .bss                                     0x20000ee8   Section       16  kalman.o(.bss)
    .bss                                     0x20000ef8   Section       16  kalman.o(.bss)
    .bss                                     0x20000f08   Section       16  kalman.o(.bss)
    .bss                                     0x20000f18   Section       16  kalman.o(.bss)
    .bss                                     0x20000f28   Section      359  config_file.o(.bss)
    .bss                                     0x2000108f   Section       51  config_file.o(.bss)
    .bss                                     0x200010c2   Section      301  config_file.o(.bss)
    .bss                                     0x200011f0   Section       24  stm32l0xx_hal_flash.o(.bss)
    .bss                                     0x20001208   Section      240  tasks.o(.bss)
    pxReadyTasksLists                        0x20001208   Data         140  tasks.o(.bss)
    xDelayedTaskList1                        0x20001294   Data          20  tasks.o(.bss)
    xDelayedTaskList2                        0x200012a8   Data          20  tasks.o(.bss)
    xPendingReadyList                        0x200012bc   Data          20  tasks.o(.bss)
    xTasksWaitingTermination                 0x200012d0   Data          20  tasks.o(.bss)
    xSuspendedTaskList                       0x200012e4   Data          20  tasks.o(.bss)
    .bss                                     0x200012f8   Section     3072  heap_4.o(.bss)
    ucHeap                                   0x200012f8   Data        3072  heap_4.o(.bss)
    STACK                                    0x20001ef8   Section     1024  startup_stm32l073xx.o(STACK)

    Global Symbols

    Symbol Name                              Value     Ov Type        Size  Object(Section)

    BuildAttributes$$THM_ISAv3M$S$PE$A:L22$X:L11$S22$IEEE1$IW$USESV6$~STKCKD$USESV7$~SHL$OTIME$ROPI$IEEEX$EBA8$MICROLIB$REQ8$PRES8$EABIv2 0x00000000   Number         0  anon$$obj.o ABSOLUTE
    __ARM_use_no_argv                        0x00000000   Number         0  main.o ABSOLUTE
    _printf_a                                0x00000000   Number         0  stubs.o ABSOLUTE
    _printf_c                                0x00000000   Number         0  stubs.o ABSOLUTE
    _printf_charcount                        0x00000000   Number         0  stubs.o ABSOLUTE
    _printf_d                                0x00000000   Number         0  stubs.o ABSOLUTE
    _printf_e                                0x00000000   Number         0  stubs.o ABSOLUTE
    _printf_f                                0x00000000   Number         0  stubs.o ABSOLUTE
    _printf_flags                            0x00000000   Number         0  stubs.o ABSOLUTE
    _printf_fp_dec                           0x00000000   Number         0  stubs.o ABSOLUTE
    _printf_fp_hex                           0x00000000   Number         0  stubs.o ABSOLUTE
    _printf_g                                0x00000000   Number         0  stubs.o ABSOLUTE
    _printf_i                                0x00000000   Number         0  stubs.o ABSOLUTE
    _printf_int_dec                          0x00000000   Number         0  stubs.o ABSOLUTE
    _printf_l                                0x00000000   Number         0  stubs.o ABSOLUTE
    _printf_lc                               0x00000000   Number         0  stubs.o ABSOLUTE
    _printf_ll                               0x00000000   Number         0  stubs.o ABSOLUTE
    _printf_lld                              0x00000000   Number         0  stubs.o ABSOLUTE
    _printf_lli                              0x00000000   Number         0  stubs.o ABSOLUTE
    _printf_llo                              0x00000000   Number         0  stubs.o ABSOLUTE
    _printf_llu                              0x00000000   Number         0  stubs.o ABSOLUTE
    _printf_llx                              0x00000000   Number         0  stubs.o ABSOLUTE
    _printf_longlong_dec                     0x00000000   Number         0  stubs.o ABSOLUTE
    _printf_longlong_hex                     0x00000000   Number         0  stubs.o ABSOLUTE
    _printf_longlong_oct                     0x00000000   Number         0  stubs.o ABSOLUTE
    _printf_ls                               0x00000000   Number         0  stubs.o ABSOLUTE
    _printf_mbtowc                           0x00000000   Number         0  stubs.o ABSOLUTE
    _printf_n                                0x00000000   Number         0  stubs.o ABSOLUTE
    _printf_o                                0x00000000   Number         0  stubs.o ABSOLUTE
    _printf_p                                0x00000000   Number         0  stubs.o ABSOLUTE
    _printf_percent                          0x00000000   Number         0  stubs.o ABSOLUTE
    _printf_pre_padding                      0x00000000   Number         0  stubs.o ABSOLUTE
    _printf_return_value                     0x00000000   Number         0  stubs.o ABSOLUTE
    _printf_s                                0x00000000   Number         0  stubs.o ABSOLUTE
    _printf_sizespec                         0x00000000   Number         0  stubs.o ABSOLUTE
    _printf_str                              0x00000000   Number         0  stubs.o ABSOLUTE
    _printf_truncate_signed                  0x00000000   Number         0  stubs.o ABSOLUTE
    _printf_truncate_unsigned                0x00000000   Number         0  stubs.o ABSOLUTE
    _printf_u                                0x00000000   Number         0  stubs.o ABSOLUTE
    _printf_wc                               0x00000000   Number         0  stubs.o ABSOLUTE
    _printf_wctomb                           0x00000000   Number         0  stubs.o ABSOLUTE
    _printf_widthprec                        0x00000000   Number         0  stubs.o ABSOLUTE
    _printf_x                                0x00000000   Number         0  stubs.o ABSOLUTE
    __cpp_initialize__aeabi_                  - Undefined Weak Reference
    __cxa_finalize                            - Undefined Weak Reference
    _clock_init                               - Undefined Weak Reference
    _microlib_exit                            - Undefined Weak Reference
    _scanf_int                                - Undefined Weak Reference
    _scanf_longlong                           - Undefined Weak Reference
    __Vectors_Size                           0x000000c0   Number         0  startup_stm32l073xx.o ABSOLUTE
    __Vectors                                0x08000000   Data           4  startup_stm32l073xx.o(RESET)
    __Vectors_End                            0x080000c0   Data           0  startup_stm32l073xx.o(RESET)
    __main                                   0x080000c1   Thumb Code     0  entry.o(.ARM.Collect$$$$00000000)
    _main_stk                                0x080000c1   Thumb Code     0  entry2.o(.ARM.Collect$$$$00000001)
    _main_scatterload                        0x080000c5   Thumb Code     0  entry5.o(.ARM.Collect$$$$00000004)
    __main_after_scatterload                 0x080000c9   Thumb Code     0  entry5.o(.ARM.Collect$$$$00000004)
    _main_clock                              0x080000c9   Thumb Code     0  entry7b.o(.ARM.Collect$$$$00000008)
    _main_cpp_init                           0x080000c9   Thumb Code     0  entry8b.o(.ARM.Collect$$$$0000000A)
    _main_init                               0x080000c9   Thumb Code     0  entry9a.o(.ARM.Collect$$$$0000000B)
    __rt_final_cpp                           0x080000d1   Thumb Code     0  entry10a.o(.ARM.Collect$$$$0000000D)
    __rt_final_exit                          0x080000d1   Thumb Code     0  entry11a.o(.ARM.Collect$$$$0000000F)
    __asm___6_port_c_39a90d8d__prvPortStartFirstTask 0x080000d5   Thumb Code    28  port.o(.emb_text)
    ulSetInterruptMaskFromISR                0x080000f5   Thumb Code     8  port.o(.emb_text)
    vClearInterruptMaskFromISR               0x080000fd   Thumb Code     6  port.o(.emb_text)
    PendSV_Handler                           0x08000103   Thumb Code    62  port.o(.emb_text)
    Reset_Handler                            0x08000145   Thumb Code     8  startup_stm32l073xx.o(.text)
    ADC1_COMP_IRQHandler                     0x08000157   Thumb Code     0  startup_stm32l073xx.o(.text)
    DMA1_Channel1_IRQHandler                 0x08000157   Thumb Code     0  startup_stm32l073xx.o(.text)
    DMA1_Channel2_3_IRQHandler               0x08000157   Thumb Code     0  startup_stm32l073xx.o(.text)
    DMA1_Channel4_5_6_7_IRQHandler           0x08000157   Thumb Code     0  startup_stm32l073xx.o(.text)
    EXTI0_1_IRQHandler                       0x08000157   Thumb Code     0  startup_stm32l073xx.o(.text)
    EXTI2_3_IRQHandler                       0x08000157   Thumb Code     0  startup_stm32l073xx.o(.text)
    FLASH_IRQHandler                         0x08000157   Thumb Code     0  startup_stm32l073xx.o(.text)
    I2C1_IRQHandler                          0x08000157   Thumb Code     0  startup_stm32l073xx.o(.text)
    I2C2_IRQHandler                          0x08000157   Thumb Code     0  startup_stm32l073xx.o(.text)
    I2C3_IRQHandler                          0x08000157   Thumb Code     0  startup_stm32l073xx.o(.text)
    LCD_IRQHandler                           0x08000157   Thumb Code     0  startup_stm32l073xx.o(.text)
    LPTIM1_IRQHandler                        0x08000157   Thumb Code     0  startup_stm32l073xx.o(.text)
    PVD_IRQHandler                           0x08000157   Thumb Code     0  startup_stm32l073xx.o(.text)
    RCC_CRS_IRQHandler                       0x08000157   Thumb Code     0  startup_stm32l073xx.o(.text)
    RNG_LPUART1_IRQHandler                   0x08000157   Thumb Code     0  startup_stm32l073xx.o(.text)
    RTC_IRQHandler                           0x08000157   Thumb Code     0  startup_stm32l073xx.o(.text)
    SPI1_IRQHandler                          0x08000157   Thumb Code     0  startup_stm32l073xx.o(.text)
    SPI2_IRQHandler                          0x08000157   Thumb Code     0  startup_stm32l073xx.o(.text)
    TIM21_IRQHandler                         0x08000157   Thumb Code     0  startup_stm32l073xx.o(.text)
    TIM22_IRQHandler                         0x08000157   Thumb Code     0  startup_stm32l073xx.o(.text)
    TIM2_IRQHandler                          0x08000157   Thumb Code     0  startup_stm32l073xx.o(.text)
    TIM3_IRQHandler                          0x08000157   Thumb Code     0  startup_stm32l073xx.o(.text)
    TIM6_DAC_IRQHandler                      0x08000157   Thumb Code     0  startup_stm32l073xx.o(.text)
    TIM7_IRQHandler                          0x08000157   Thumb Code     0  startup_stm32l073xx.o(.text)
    TSC_IRQHandler                           0x08000157   Thumb Code     0  startup_stm32l073xx.o(.text)
    USART4_5_IRQHandler                      0x08000157   Thumb Code     0  startup_stm32l073xx.o(.text)
    USB_IRQHandler                           0x08000157   Thumb Code     0  startup_stm32l073xx.o(.text)
    WWDG_IRQHandler                          0x08000157   Thumb Code     0  startup_stm32l073xx.o(.text)
    __aeabi_uidiv                            0x08000161   Thumb Code     0  uidiv.o(.text)
    __aeabi_uidivmod                         0x08000161   Thumb Code    44  uidiv.o(.text)
    __rt_ctype_table                         0x0800018d   Thumb Code     4  ctype_o.o(.text)
    isspace                                  0x08000195   Thumb Code    18  isspace_o.o(.text)
    __aeabi_memcpy                           0x080001a7   Thumb Code    36  memcpya.o(.text)
    __aeabi_memcpy4                          0x080001a7   Thumb Code     0  memcpya.o(.text)
    __aeabi_memcpy8                          0x080001a7   Thumb Code     0  memcpya.o(.text)
    __aeabi_memset                           0x080001cb   Thumb Code    14  memseta.o(.text)
    __aeabi_memset4                          0x080001cb   Thumb Code     0  memseta.o(.text)
    __aeabi_memset8                          0x080001cb   Thumb Code     0  memseta.o(.text)
    __aeabi_memclr                           0x080001d9   Thumb Code     4  memseta.o(.text)
    __aeabi_memclr4                          0x080001d9   Thumb Code     0  memseta.o(.text)
    __aeabi_memclr8                          0x080001d9   Thumb Code     0  memseta.o(.text)
    _memset$wrapper                          0x080001dd   Thumb Code    18  memseta.o(.text)
    strstr                                   0x080001ef   Thumb Code    40  strstr.o(.text)
    strlen                                   0x08000217   Thumb Code    14  strlen.o(.text)
    strcmp                                   0x08000225   Thumb Code    28  strcmp.o(.text)
    memchr                                   0x08000241   Thumb Code    20  memchr.o(.text)
    strncmp                                  0x08000255   Thumb Code    30  strncmp.o(.text)
    __0sscanf                                0x08000275   Thumb Code    50  __0sscanf.o(.text)
    _scanf_string                            0x080002b1   Thumb Code   232  _scanf_str.o(.text)
    strtol                                   0x08000399   Thumb Code   108  strtol.o(.text)
    __aeabi_dadd                             0x08000409   Thumb Code   328  dadd.o(.text)
    __aeabi_dsub                             0x08000551   Thumb Code    12  dadd.o(.text)
    __aeabi_drsub                            0x0800055d   Thumb Code    12  dadd.o(.text)
    __aeabi_dmul                             0x0800056d   Thumb Code   202  dmul.o(.text)
    __aeabi_ddiv                             0x0800063d   Thumb Code   234  ddiv.o(.text)
    __ARM_scalbn                             0x0800072d   Thumb Code    44  dscalb.o(.text)
    scalbn                                   0x0800072d   Thumb Code     0  dscalb.o(.text)
    __aeabi_i2d                              0x08000759   Thumb Code    34  dflti.o(.text)
    __aeabi_ui2d                             0x08000781   Thumb Code    24  dfltui.o(.text)
    __aeabi_d2iz                             0x0800079d   Thumb Code    62  dfixi.o(.text)
    __aeabi_d2uiz                            0x080007e5   Thumb Code    50  dfixui.o(.text)
    __aeabi_cdcmpeq                          0x08000821   Thumb Code     0  cdcmple.o(.text)
    __aeabi_cdcmple                          0x08000821   Thumb Code    38  cdcmple.o(.text)
    __aeabi_cdrcmple                         0x08000849   Thumb Code    38  cdrcmple.o(.text)
    __aeabi_uldivmod                         0x08000871   Thumb Code    96  uldiv.o(.text)
    __aeabi_llsl                             0x080008d1   Thumb Code    32  llshl.o(.text)
    _ll_shift_l                              0x080008d1   Thumb Code     0  llshl.o(.text)
    __aeabi_llsr                             0x080008f1   Thumb Code    34  llushr.o(.text)
    _ll_ushift_r                             0x080008f1   Thumb Code     0  llushr.o(.text)
    __aeabi_lasr                             0x08000913   Thumb Code    38  llsshr.o(.text)
    _ll_sshift_r                             0x08000913   Thumb Code     0  llsshr.o(.text)
    __vfscanf_char                           0x08000945   Thumb Code    24  scanf_char.o(.text)
    _sgetc                                   0x08000965   Thumb Code    32  _sgetc.o(.text)
    _sbackspace                              0x08000985   Thumb Code    36  _sgetc.o(.text)
    _strtoul                                 0x080009a9   Thumb Code   166  _strtoul.o(.text)
    __strtod_int                             0x08000a87   Thumb Code    92  strtod.o(.text)
    __I$use$fp                               0x08000af5   Thumb Code     0  iusefp.o(.text)
    _float_round                             0x08000af5   Thumb Code    16  fepilogue.o(.text)
    _float_epilogue                          0x08000b05   Thumb Code   114  fepilogue.o(.text)
    _double_round                            0x08000b77   Thumb Code    26  depilogue.o(.text)
    _double_epilogue                         0x08000b91   Thumb Code   164  depilogue.o(.text)
    __aeabi_d2ulz                            0x08000c35   Thumb Code    54  dfixul.o(.text)
    __scatterload                            0x08000c75   Thumb Code    28  init.o(.text)
    __scatterload_rt2                        0x08000c75   Thumb Code     0  init.o(.text)
    _chval                                   0x08000c99   Thumb Code    30  _chval.o(.text)
    __vfscanf                                0x08000cb9   Thumb Code   812  _scanf.o(.text)
    _scanf_real                              0x080010e7   Thumb Code     0  scanf_fp.o(.text)
    _scanf_really_real                       0x080010e7   Thumb Code   586  scanf_fp.o(.text)
    __aeabi_lmul                             0x0800133d   Thumb Code   122  llmul.o(.text)
    _ll_mul                                  0x0800133d   Thumb Code     0  llmul.o(.text)
    __aeabi_ul2d                             0x080013b9   Thumb Code    22  dfltul.o(.text)
    __aeabi_d2f                              0x080013d5   Thumb Code    56  d2f.o(.text)
    __decompress                             0x0800140d   Thumb Code     0  __dczerorl2.o(.text)
    __decompress1                            0x0800140d   Thumb Code    86  __dczerorl2.o(.text)
    BSP_LED_On                               0x08001465   Thumb Code    22  stm32l0xx_nucleo.o(i.BSP_LED_On)
    BSP_LED_Toggle                           0x08001485   Thumb Code    20  stm32l0xx_nucleo.o(i.BSP_LED_Toggle)
    BSP_PB_Init                              0x080014a1   Thumb Code   168  stm32l0xx_nucleo.o(i.BSP_PB_Init)
    DebugInit                                0x08001561   Thumb Code    72  debug.o(i.DebugInit)
    EXTI4_15_IRQHandler                      0x080015e9   Thumb Code    12  stm32l0xx_it.o(i.EXTI4_15_IRQHandler)
    Error_Handler                            0x080015f5   Thumb Code    24  gps.o(i.Error_Handler)
    FLASH_WaitForLastOperation               0x08001685   Thumb Code   122  stm32l0xx_hal_flash.o(i.FLASH_WaitForLastOperation)
    FilterAverageGet                         0x08001705   Thumb Code   196  kalman.o(i.FilterAverageGet)
    FilterAverageInit                        0x080017d1   Thumb Code    10  kalman.o(i.FilterAverageInit)
    FilterAverageUpdate                      0x080017dd   Thumb Code    78  kalman.o(i.FilterAverageUpdate)
    FilterKalmanGet                          0x08001831   Thumb Code    40  kalman.o(i.FilterKalmanGet)
    FilterKalmanInit                         0x08001861   Thumb Code   270  kalman.o(i.FilterKalmanInit)
    FilterKalmanUpdate                       0x0800198d   Thumb Code   304  kalman.o(i.FilterKalmanUpdate)
    GPRS_SET_GL865                           0x08001ac5   Thumb Code    48  gsm.o(i.GPRS_SET_GL865)
    GPRS_SET_WS228                           0x08001b35   Thumb Code    58  gsm.o(i.GPRS_SET_WS228)
    GPRS_START_GL865                         0x08001bd1   Thumb Code    50  gsm.o(i.GPRS_START_GL865)
    GPRS_START_W228                          0x08001c15   Thumb Code    16  gsm.o(i.GPRS_START_W228)
    GPRS_STOP_GL865                          0x08001c3d   Thumb Code    22  gsm.o(i.GPRS_STOP_GL865)
    GPRS_STOP_W228                           0x08001c61   Thumb Code    18  gsm.o(i.GPRS_STOP_W228)
    GpsGeneral_Init                          0x08001c85   Thumb Code     4  gps.o(i.GpsGeneral_Init)
    GpsInit                                  0x08001c89   Thumb Code   124  gps.o(i.GpsInit)
    GpsMTK_Init                              0x08001d0d   Thumb Code    18  gps.o(i.GpsMTK_Init)
    GpsPut                                   0x08001d25   Thumb Code    40  gps.o(i.GpsPut)
    GpsPutLineCS                             0x08001d55   Thumb Code    64  gps.o(i.GpsPutLineCS)
    GsmAddTask                               0x08001d9d   Thumb Code    28  gsm.o(i.GsmAddTask)
    HAL_Delay                                0x08001dc1   Thumb Code    22  stm32l0xx_hal.o(i.HAL_Delay)
    HAL_FLASHEx_DATAEEPROM_Erase             0x08001dd9   Thumb Code    30  stm32l0xx_hal_flash_ex.o(i.HAL_FLASHEx_DATAEEPROM_Erase)
    HAL_FLASHEx_DATAEEPROM_Lock              0x08001e01   Thumb Code    14  stm32l0xx_hal_flash_ex.o(i.HAL_FLASHEx_DATAEEPROM_Lock)
    HAL_FLASHEx_DATAEEPROM_Program           0x08001e15   Thumb Code    76  stm32l0xx_hal_flash_ex.o(i.HAL_FLASHEx_DATAEEPROM_Program)
    HAL_FLASHEx_DATAEEPROM_Unlock            0x08001e69   Thumb Code    24  stm32l0xx_hal_flash_ex.o(i.HAL_FLASHEx_DATAEEPROM_Unlock)
    HAL_GPIO_DeInit                          0x08001e8d   Thumb Code   212  stm32l0xx_hal_gpio.o(i.HAL_GPIO_DeInit)
    HAL_GPIO_EXTI_Callback                   0x08001f7d   Thumb Code    16  main.o(i.HAL_GPIO_EXTI_Callback)
    HAL_GPIO_EXTI_IRQHandler                 0x08001f91   Thumb Code    18  stm32l0xx_hal_gpio.o(i.HAL_GPIO_EXTI_IRQHandler)
    HAL_GPIO_Init                            0x08001fa9   Thumb Code   356  stm32l0xx_hal_gpio.o(i.HAL_GPIO_Init)
    HAL_GPIO_TogglePin                       0x0800212d   Thumb Code     8  stm32l0xx_hal_gpio.o(i.HAL_GPIO_TogglePin)
    HAL_GPIO_WritePin                        0x08002135   Thumb Code    12  stm32l0xx_hal_gpio.o(i.HAL_GPIO_WritePin)
    HAL_GetTick                              0x08002141   Thumb Code     6  stm32l0xx_hal.o(i.HAL_GetTick)
    HAL_IncTick                              0x0800214d   Thumb Code    10  stm32l0xx_hal.o(i.HAL_IncTick)
    HAL_Init                                 0x0800215d   Thumb Code    26  stm32l0xx_hal.o(i.HAL_Init)
    HAL_InitTick                             0x0800217d   Thumb Code    34  stm32l0xx_hal.o(i.HAL_InitTick)
    HAL_MspInit                              0x0800219f   Thumb Code     2  stm32l0xx_hal.o(i.HAL_MspInit)
    HAL_NVIC_DisableIRQ                      0x080021a1   Thumb Code    14  stm32l0xx_hal_cortex.o(i.HAL_NVIC_DisableIRQ)
    HAL_NVIC_EnableIRQ                       0x080021b5   Thumb Code    14  stm32l0xx_hal_cortex.o(i.HAL_NVIC_EnableIRQ)
    HAL_NVIC_SetPriority                     0x080021c9   Thumb Code     8  stm32l0xx_hal_cortex.o(i.HAL_NVIC_SetPriority)
    HAL_PWR_EnterSLEEPMode                   0x080021d1   Thumb Code    38  stm32l0xx_hal_pwr.o(i.HAL_PWR_EnterSLEEPMode)
    HAL_RCC_ClockConfig                      0x08002201   Thumb Code   320  stm32l0xx_hal_rcc.o(i.HAL_RCC_ClockConfig)
    HAL_RCC_GetHCLKFreq                      0x0800234d   Thumb Code    26  stm32l0xx_hal_rcc.o(i.HAL_RCC_GetHCLKFreq)
    HAL_RCC_GetPCLK1Freq                     0x08002375   Thumb Code    22  stm32l0xx_hal_rcc.o(i.HAL_RCC_GetPCLK1Freq)
    HAL_RCC_GetPCLK2Freq                     0x08002395   Thumb Code    22  stm32l0xx_hal_rcc.o(i.HAL_RCC_GetPCLK2Freq)
    HAL_RCC_GetSysClockFreq                  0x080023b5   Thumb Code   108  stm32l0xx_hal_rcc.o(i.HAL_RCC_GetSysClockFreq)
    HAL_RCC_OscConfig                        0x08002439   Thumb Code   928  stm32l0xx_hal_rcc.o(i.HAL_RCC_OscConfig)
    HAL_SYSTICK_Config                       0x080027ed   Thumb Code    38  stm32l0xx_hal_cortex.o(i.HAL_SYSTICK_Config)
    HAL_UART_DeInit                          0x0800281d   Thumb Code    60  stm32l0xx_hal_uart.o(i.HAL_UART_DeInit)
    HAL_UART_Init                            0x08002859   Thumb Code   104  stm32l0xx_hal_uart.o(i.HAL_UART_Init)
    HAL_UART_MspDeInit                       0x080028c1   Thumb Code    50  stm32l0xx_hal_msp.o(i.HAL_UART_MspDeInit)
    HAL_UART_MspInit                         0x080028f9   Thumb Code   104  stm32l0xx_hal_msp.o(i.HAL_UART_MspInit)
    HAL_UART_Transmit                        0x08002965   Thumb Code   186  stm32l0xx_hal_uart.o(i.HAL_UART_Transmit)
    HardFault_Handler                        0x08002a1f   Thumb Code     2  stm32l0xx_it.o(i.HardFault_Handler)
    HardwareInit                             0x08002a21   Thumb Code    26  main.o(i.HardwareInit)
    NMI_Handler                              0x08002a3b   Thumb Code     2  stm32l0xx_it.o(i.NMI_Handler)
    PostSleepProcessing                      0x08002a81   Thumb Code     2  main.o(i.PostSleepProcessing)
    PreSleepProcessing                       0x08002a83   Thumb Code    16  main.o(i.PreSleepProcessing)
    STRCPY                                   0x08002a93   Thumb Code    14  config_file.o(i.STRCPY)
    SVC_Handler                              0x08002aa1   Thumb Code     2  port.o(i.SVC_Handler)
    ShowError                                0x08002aa5   Thumb Code    86  main.o(i.ShowError)
    SysTick_Handler                          0x08002b05   Thumb Code    12  stm32l0xx_it.o(i.SysTick_Handler)
    SystemClock_Config                       0x08002b11   Thumb Code   110  main.o(i.SystemClock_Config)
    SystemInit                               0x08002b89   Thumb Code    66  system_stm32l0xx_1.o(i.SystemInit)
    TCP_OPEN_GL865                           0x08002bdd   Thumb Code    34  gsm.o(i.TCP_OPEN_GL865)
    TCP_OPEN_WS228                           0x08002c21   Thumb Code    28  gsm.o(i.TCP_OPEN_WS228)
    UART_AdvFeatureConfig                    0x08002c75   Thumb Code   202  stm32l0xx_hal_uart.o(i.UART_AdvFeatureConfig)
    UART_CheckIdleState                      0x08002d41   Thumb Code    80  stm32l0xx_hal_uart.o(i.UART_CheckIdleState)
    UART_SetConfig                           0x08002d95   Thumb Code   484  stm32l0xx_hal_uart.o(i.UART_SetConfig)
    UART_WaitOnFlagUntilTimeout              0x08002fa9   Thumb Code   174  stm32l0xx_hal_uart.o(i.UART_WaitOnFlagUntilTimeout)
    USART1_IRQHandler                        0x08003059   Thumb Code   386  gps.o(i.USART1_IRQHandler)
    USART2_IRQHandler                        0x08003269   Thumb Code   322  gsm.o(i.USART2_IRQHandler)
    __0printf                                0x080033c1   Thumb Code    24  printfa.o(i.__0printf)
    __1printf                                0x080033c1   Thumb Code     0  printfa.o(i.__0printf)
    __2printf                                0x080033c1   Thumb Code     0  printfa.o(i.__0printf)
    __c89printf                              0x080033c1   Thumb Code     0  printfa.o(i.__0printf)
    printf                                   0x080033c1   Thumb Code     0  printfa.o(i.__0printf)
    __0sprintf                               0x080033e1   Thumb Code    36  printfa.o(i.__0sprintf)
    __1sprintf                               0x080033e1   Thumb Code     0  printfa.o(i.__0sprintf)
    __2sprintf                               0x080033e1   Thumb Code     0  printfa.o(i.__0sprintf)
    __c89sprintf                             0x080033e1   Thumb Code     0  printfa.o(i.__0sprintf)
    sprintf                                  0x080033e1   Thumb Code     0  printfa.o(i.__0sprintf)
    __0vsnprintf                             0x08003409   Thumb Code    32  printfa.o(i.__0vsnprintf)
    __1vsnprintf                             0x08003409   Thumb Code     0  printfa.o(i.__0vsnprintf)
    __2vsnprintf                             0x08003409   Thumb Code     0  printfa.o(i.__0vsnprintf)
    __c89vsnprintf                           0x08003409   Thumb Code     0  printfa.o(i.__0vsnprintf)
    vsnprintf                                0x08003409   Thumb Code     0  printfa.o(i.__0vsnprintf)
    __ARM_clz                                0x0800342d   Thumb Code    46  depilogue.o(i.__ARM_clz)
    __ARM_common_switch8                     0x0800345b   Thumb Code    26  gpsone.o(i.__ARM_common_switch8)
    __aeabi_errno_addr                       0x08003475   Thumb Code     4  errno.o(i.__aeabi_errno_addr)
    __rt_errno_addr                          0x08003475   Thumb Code     0  errno.o(i.__aeabi_errno_addr)
    __scatterload_copy                       0x0800347d   Thumb Code    14  handlers.o(i.__scatterload_copy)
    __scatterload_null                       0x0800348b   Thumb Code     2  handlers.o(i.__scatterload_null)
    __scatterload_zeroinit                   0x0800348d   Thumb Code    14  handlers.o(i.__scatterload_zeroinit)
    _is_digit                                0x080035f5   Thumb Code    14  scanf_fp.o(i._is_digit)
    _nmea_parse_time                         0x08003605   Thumb Code    78  parse.o(i._nmea_parse_time)
    add_matrix                               0x08003ded   Thumb Code    80  matrix.o(i.add_matrix)
    create_sw_conf_table                     0x08003e3d   Thumb Code   108  config_file.o(i.create_sw_conf_table)
    destructive_invert_matrix                0x08003ebd   Thumb Code   240  matrix.o(i.destructive_invert_matrix)
    eTaskConfirmSleepModeStatus              0x08003fb1   Thumb Code    40  tasks.o(i.eTaskConfirmSleepModeStatus)
    flash_eeprom                             0x08003fe1   Thumb Code   126  eeprom.o(i.flash_eeprom)
    fputc                                    0x0800406d   Thumb Code    24  debug.o(i.fputc)
    gpsCheckTypeInit                         0x0800408d   Thumb Code    16  gps.o(i.gpsCheckTypeInit)
    gpsWaitComplete                          0x080040a1   Thumb Code    60  gps.o(i.gpsWaitComplete)
    gsmCmd0                                  0x080040dd   Thumb Code    16  gsm.o(i.gsmCmd0)
    gsmCmd1                                  0x080040ed   Thumb Code    12  gsm.o(i.gsmCmd1)
    gsmCmd2                                  0x080040f9   Thumb Code    94  gsm.o(i.gsmCmd2)
    gsmCmdX0                                 0x08004161   Thumb Code    26  gsm.o(i.gsmCmdX0)
    gsmCmdX2                                 0x0800417b   Thumb Code    28  gsm.o(i.gsmCmdX2)
    gsmRxFlush                               0x08004199   Thumb Code    46  gsm.o(i.gsmRxFlush)
    gsmSend                                  0x080041cd   Thumb Code    58  gsm.o(i.gsmSend)
    gsmSends                                 0x08004211   Thumb Code    28  gsm.o(i.gsmSends)
    gsmShowError                             0x0800422d   Thumb Code    46  gsm.o(i.gsmShowError)
    gsmToken                                 0x080042cd   Thumb Code    26  gsm.o(i.gsmToken)
    init_matrix                              0x080042ed   Thumb Code    30  matrix.o(i.init_matrix)
    init_sw_conf_table                       0x0800430d   Thumb Code   162  config_file.o(i.init_sw_conf_table)
    main                                     0x080043d9   Thumb Code    82  main.o(i.main)
    multiply_by_transpose_matrix             0x08004485   Thumb Code   138  matrix.o(i.multiply_by_transpose_matrix)
    multiply_matrix                          0x0800450f   Thumb Code   130  matrix.o(i.multiply_matrix)
    nmea_atof                                0x08004591   Thumb Code    44  tok.o(i.nmea_atof)
    nmea_atoi                                0x080045bd   Thumb Code    44  tok.o(i.nmea_atoi)
    nmea_error                               0x080045e9   Thumb Code    58  context.o(i.nmea_error)
    nmea_ndeg2degree                         0x0800462d   Thumb Code    60  gmath.o(i.nmea_ndeg2degree)
    nmea_parse_GPRMC                         0x08004671   Thumb Code   168  parse.o(i.nmea_parse_GPRMC)
    nmea_scanf                               0x08004779   Thumb Code   452  tok.o(i.nmea_scanf)
    nmea_trace_buff                          0x0800493d   Thumb Code    16  context.o(i.nmea_trace_buff)
    osKernelStart                            0x08004951   Thumb Code    10  cmsis_os.o(i.osKernelStart)
    osSystickHandler                         0x0800495b   Thumb Code    16  cmsis_os.o(i.osSystickHandler)
    osThreadCreate                           0x0800496b   Thumb Code    56  cmsis_os.o(i.osThreadCreate)
    pinHigh                                  0x080049a3   Thumb Code    24  hardware.o(i.pinHigh)
    pinMode                                  0x080049bb   Thumb Code    92  hardware.o(i.pinMode)
    pinRemap                                 0x08004a17   Thumb Code    42  hardware.o(i.pinRemap)
    pvPortMalloc                             0x08004d55   Thumb Code   172  heap_4.o(i.pvPortMalloc)
    pvTaskIncrementMutexHeldCount            0x08004e05   Thumb Code    20  tasks.o(i.pvTaskIncrementMutexHeldCount)
    pxPortInitialiseStack                    0x08004e1d   Thumb Code    28  port.o(i.pxPortInitialiseStack)
    rb_Get                                   0x08004e3d   Thumb Code    36  ring_buffer.o(i.rb_Get)
    rb_Init                                  0x08004e61   Thumb Code    12  ring_buffer.o(i.rb_Init)
    rb_Put                                   0x08004e6d   Thumb Code    34  ring_buffer.o(i.rb_Put)
    read_eeprom                              0x08004e91   Thumb Code    42  eeprom.o(i.read_eeprom)
    scale_matrix                             0x08004ec9   Thumb Code    72  matrix.o(i.scale_matrix)
    scale_row                                0x08004f11   Thumb Code    54  matrix.o(i.scale_row)
    set_identity_matrix                      0x08004f49   Thumb Code    58  matrix.o(i.set_identity_matrix)
    set_matrix                               0x08004f89   Thumb Code    66  matrix.o(i.set_matrix)
    set_matrix_const                         0x08004fcb   Thumb Code    50  matrix.o(i.set_matrix_const)
    shear_row                                0x08005025   Thumb Code    64  matrix.o(i.shear_row)
    show_sw_conf                             0x08005065   Thumb Code    24  config_file.o(i.show_sw_conf)
    strtod                                   0x08005095   Thumb Code    28  strtod.o(i.strtod)
    subtract_from_identity_matrix            0x080050b1   Thumb Code    92  matrix.o(i.subtract_from_identity_matrix)
    subtract_matrix                          0x08005111   Thumb Code    80  matrix.o(i.subtract_matrix)
    swap_rows                                0x08005161   Thumb Code    20  matrix.o(i.swap_rows)
    uxListRemove                             0x08005175   Thumb Code    36  list.o(i.uxListRemove)
    vGpsTask                                 0x08005199   Thumb Code   650  gps.o(i.vGpsTask)
    vListInitialise                          0x080054e1   Thumb Code    22  list.o(i.vListInitialise)
    vListInitialiseItem                      0x080054f7   Thumb Code     6  list.o(i.vListInitialiseItem)
    vListInsert                              0x080054fd   Thumb Code    48  list.o(i.vListInsert)
    vListInsertEnd                           0x0800552d   Thumb Code    24  list.o(i.vListInsertEnd)
    vPortEnterCritical                       0x08005545   Thumb Code    20  port.o(i.vPortEnterCritical)
    vPortExitCritical                        0x0800555d   Thumb Code    22  port.o(i.vPortExitCritical)
    vPortFree                                0x08005579   Thumb Code    62  heap_4.o(i.vPortFree)
    vPortSuppressTicksAndSleep               0x080055bd   Thumb Code   228  port.o(i.vPortSuppressTicksAndSleep)
    vPortYield                               0x080056a9   Thumb Code    18  port.o(i.vPortYield)
    vTaskDelay                               0x080056c1   Thumb Code    54  tasks.o(i.vTaskDelay)
    vTaskMissedYield                         0x080056fd   Thumb Code     8  tasks.o(i.vTaskMissedYield)
    vTaskPlaceOnEventList                    0x08005709   Thumb Code    56  tasks.o(i.vTaskPlaceOnEventList)
    vTaskPriorityInherit                     0x08005749   Thumb Code    92  tasks.o(i.vTaskPriorityInherit)
    vTaskSetTimeOutState                     0x080057ad   Thumb Code    20  tasks.o(i.vTaskSetTimeOutState)
    vTaskStartScheduler                      0x080057c5   Thumb Code    52  tasks.o(i.vTaskStartScheduler)
    vTaskStepTick                            0x08005809   Thumb Code    24  tasks.o(i.vTaskStepTick)
    vTaskSuspendAll                          0x08005825   Thumb Code    10  tasks.o(i.vTaskSuspendAll)
    vTaskSwitchContext                       0x08005835   Thumb Code    78  tasks.o(i.vTaskSwitchContext)
    xPortStartScheduler                      0x0800588d   Thumb Code    40  port.o(i.xPortStartScheduler)
    xPortSysTickHandler                      0x080058bd   Thumb Code    32  port.o(i.xPortSysTickHandler)
    xQueueGenericReceive                     0x080058e1   Thumb Code   314  queue.o(i.xQueueGenericReceive)
    xQueueGenericSend                        0x08005a1b   Thumb Code   278  queue.o(i.xQueueGenericSend)
    xQueueGiveFromISR                        0x08005b31   Thumb Code   114  queue.o(i.xQueueGiveFromISR)
    xTaskCheckForTimeOut                     0x08005ba5   Thumb Code    80  tasks.o(i.xTaskCheckForTimeOut)
    xTaskGenericCreate                       0x08005bf9   Thumb Code   370  tasks.o(i.xTaskGenericCreate)
    xTaskGetSchedulerState                   0x08005d75   Thumb Code    26  tasks.o(i.xTaskGetSchedulerState)
    xTaskGetTickCount                        0x08005d95   Thumb Code     6  tasks.o(i.xTaskGetTickCount)
    xTaskIncrementTick                       0x08005da1   Thumb Code   184  tasks.o(i.xTaskIncrementTick)
    xTaskPriorityDisinherit                  0x08005e61   Thumb Code    96  tasks.o(i.xTaskPriorityDisinherit)
    xTaskRemoveFromEventList                 0x08005ec9   Thumb Code    96  tasks.o(i.xTaskRemoveFromEventList)
    xTaskResumeAll                           0x08005f31   Thumb Code   160  tasks.o(i.xTaskResumeAll)
    BUTTON_IRQn                              0x08005fd8   Data           1  stm32l0xx_nucleo.o(.constdata)
    LED_PIN                                  0x08005fda   Data           2  stm32l0xx_nucleo.o(.constdata)
    BUTTON_PIN                               0x08005fdc   Data           2  stm32l0xx_nucleo.o(.constdata)
    GpsCmdGeneral                            0x08005ff4   Data           4  gps.o(.constdata)
    GpsCmdMTK                                0x08005ff8   Data           4  gps.o(.constdata)
    GPS_SET_MTK0                             0x08005ffc   Data           5  gps.o(.constdata)
    HEX_CHARS                                0x08006001   Data          17  gps.o(.constdata)
    GPS_SET_STM                              0x08006014   Data          24  gps.o(.constdata)
    GPS_SET_SIRFS                            0x0800602c   Data          32  gps.o(.constdata)
    GPS_SET_STM1                             0x0800604c   Data          19  gps.o(.constdata)
    GPS_SET_STM2                             0x0800605f   Data          12  gps.o(.constdata)
    GPS_SET_STM3                             0x0800606b   Data          19  gps.o(.constdata)
    GPS_SET_SIRF0                            0x0800607e   Data          10  gps.o(.constdata)
    GPS_SET_SIRF1                            0x08006088   Data          16  gps.o(.constdata)
    GPS_SET_SIRF2                            0x08006098   Data          16  gps.o(.constdata)
    GPS_SET_SIRF3                            0x080060a8   Data          16  gps.o(.constdata)
    GPS_SET_SIRF4                            0x080060b8   Data          16  gps.o(.constdata)
    GPS_SET_SIRF5                            0x080060c8   Data          16  gps.o(.constdata)
    GPS_SET_SIRF6                            0x080060d8   Data          16  gps.o(.constdata)
    GSM_CRLF                                 0x080060e8   Data           3  gsm.o(.constdata)
    GSM_OK                                   0x080060eb   Data           3  gsm.o(.constdata)
    GSM_LINE_END                             0x080060ee   Data           4  gsm.o(.constdata)
    GSM_AT                                   0x080060f2   Data           5  gsm.o(.constdata)
    GSM_ERROR                                0x080060f7   Data           6  gsm.o(.constdata)
    GSM_E0                                   0x080060fd   Data           7  gsm.o(.constdata)
    GSM_ATI3                                 0x08006104   Data           7  gsm.o(.constdata)
    GSM_CONNECT                              0x0800610b   Data           8  gsm.o(.constdata)
    GSM_CFUN1                                0x08006113   Data          12  gsm.o(.constdata)
    GSM_CMEE                                 0x0800611f   Data          12  gsm.o(.constdata)
    GSM_GET_CPIN                             0x0800612b   Data          11  gsm.o(.constdata)
    GSM_CPIN_RDY                             0x08006136   Data          13  gsm.o(.constdata)
    GSM_NO_SIM                               0x08006143   Data          15  gsm.o(.constdata)
    GSM_CMGF                                 0x08006152   Data          12  gsm.o(.constdata)
    GSM_CNMI                                 0x0800615e   Data          12  gsm.o(.constdata)
    GSM_CMGL                                 0x0800616a   Data          16  gsm.o(.constdata)
    GSM_CSDH                                 0x0800617a   Data          12  gsm.o(.constdata)
    GSM_CREG                                 0x08006186   Data          11  gsm.o(.constdata)
    GSM_CREG0                                0x08006191   Data          12  gsm.o(.constdata)
    GSM_COPS0                                0x0800619d   Data          12  gsm.o(.constdata)
    GSM_CREG01                               0x080061a9   Data          11  gsm.o(.constdata)
    GSM_CREG03                               0x080061b4   Data          11  gsm.o(.constdata)
    GSM_CREG05                               0x080061bf   Data          11  gsm.o(.constdata)
    GSM_CGATT                                0x080061ca   Data          12  gsm.o(.constdata)
    GSM_CGATT1                               0x080061d6   Data          10  gsm.o(.constdata)
    GSM_CME_ERROR                            0x080061e0   Data          12  gsm.o(.constdata)
    GSM_CMS_ERROR                            0x080061ec   Data          12  gsm.o(.constdata)
    GSM_SHUTDOWN                             0x080061f8   Data           9  gsm.o(.constdata)
    GSM_NO_CARRIER                           0x08006201   Data          11  gsm.o(.constdata)
    GSM_K0                                   0x0800620c   Data          13  gsm.o(.constdata)
    GSM_WIPPEERCLOSE                         0x08006219   Data          15  gsm.o(.constdata)
    Commands_WS228                           0x08006228   Data          40  gsm.o(.constdata)
    Commands_GL865                           0x08006250   Data          40  gsm.o(.constdata)
    D2I_CONST                                0x08006278   Data         112  gsm.o(.constdata)
    kf_state_transition                      0x080062e8   Data           8  kalman.o(.constdata)
    kf_observation_model                     0x080062f0   Data           8  kalman.o(.constdata)
    kf_process_noise_covariance              0x080062f8   Data           8  kalman.o(.constdata)
    kf_observation                           0x08006300   Data           8  kalman.o(.constdata)
    kf_predicted_state                       0x08006308   Data           8  kalman.o(.constdata)
    kf_innovation                            0x08006310   Data           8  kalman.o(.constdata)
    kf_innovation_covariance                 0x08006318   Data           8  kalman.o(.constdata)
    kf_optimal_gain                          0x08006320   Data           8  kalman.o(.constdata)
    kf_state_estimate                        0x08006328   Data           8  kalman.o(.constdata)
    kf_estimate_covariance                   0x08006330   Data           8  kalman.o(.constdata)
    kf_vertical_scratch                      0x08006338   Data           8  kalman.o(.constdata)
    kf_small_square_scratch                  0x08006340   Data           8  kalman.o(.constdata)
    kf_big_square_scratch                    0x08006348   Data           8  kalman.o(.constdata)
    kf_observation_noise_covariance          0x08006350   Data           8  kalman.o(.constdata)
    kf_predicted_estimate_covariance         0x08006358   Data           8  kalman.o(.constdata)
    kf_inverse_innovation_covariance         0x08006360   Data           8  kalman.o(.constdata)
    i_process_noise_covariance               0x08006368   Data         128  kalman.o(.constdata)
    i_observation_noise_covariance           0x080063e8   Data          32  kalman.o(.constdata)
    i_observation_model                      0x08006408   Data          64  kalman.o(.constdata)
    i_state_estimate                         0x08006448   Data          32  kalman.o(.constdata)
    AHBPrescTable                            0x08006478   Data          16  system_stm32l0xx_1.o(.constdata)
    PLLMulTable                              0x08006488   Data           9  system_stm32l0xx_1.o(.constdata)
    __ctype_table                            0x08006491   Data         129  ctype_o.o(.constdata)
    Region$$Table$$Base                      0x08006628   Number         0  anon$$obj.o(Region$$Table)
    Region$$Table$$Limit                     0x08006648   Number         0  anon$$obj.o(Region$$Table)
    LED_PORT                                 0x20000000   Data           4  stm32l0xx_nucleo.o(.data)
    BUTTON_PORT                              0x20000004   Data           4  stm32l0xx_nucleo.o(.data)
    SpixTimeout                              0x20000008   Data           4  stm32l0xx_nucleo.o(.data)
    GlobalStatus                             0x20000014   Data           2  main.o(.data)
    UserButtonStatus                         0x20000018   Data           4  main.o(.data)
    GPSThreadHandle                          0x2000001c   Data           4  main.o(.data)
    GG_FwSmsIndex                            0x20000020   Data           4  gpsone.o(.data)
    SET_HOST_PORT                            0x20000024   Data           8  gpsone.o(.data)
    mr_observation_model                     0x2000002c   Data           8  kalman.o(.data)
    mr_observation                           0x20000034   Data           8  kalman.o(.data)
    mr_innovation                            0x2000003c   Data           8  kalman.o(.data)
    mr_innovation_covariance                 0x20000044   Data           8  kalman.o(.data)
    mr_small_square_scratch                  0x2000004c   Data           8  kalman.o(.data)
    mr_observation_noise_covariance          0x20000054   Data           8  kalman.o(.data)
    mr_inverse_innovation_covariance         0x2000005c   Data           8  kalman.o(.data)
    parray                                   0x20000064   Data           4  config_file.o(.data)
    farray                                   0x20000068   Data           4  config_file.o(.data)
    swMap                                    0x2000006c   Data         228  config_file.o(.data)
    Address                                  0x20000150   Data           4  eeprom.o(.data)
    data32                                   0x20000154   Data           4  eeprom.o(.data)
    MemoryProgramStatus                      0x20000158   Data           4  eeprom.o(.data)
    SystemCoreClock                          0x20000160   Data           4  system_stm32l0xx_1.o(.data)
    pxCurrentTCB                             0x20000164   Data           4  tasks.o(.data)
    __stdout                                 0x200001d0   Data           4  stdout.o(.data)
    UartHandle                               0x200001d8   Data         112  debug.o(.bss)
    gpsUartHandle                            0x20000248   Data         112  gps.o(.bss)
    GpsContext                               0x20000358   Data         264  gps.o(.bss)
    SET_GRPS_APN_NAME                        0x20000460   Data          32  gpsone.o(.bss)
    SET_GPRS_USERNAME                        0x20000480   Data          32  gpsone.o(.bss)
    SET_GPRS_PASSWORD                        0x200004a0   Data          32  gpsone.o(.bss)
    SET_HOST_ADDR                            0x200004c0   Data          32  gpsone.o(.bss)
    GG_FwFileName                            0x200004e0   Data          32  gpsone.o(.bss)
    GsmContext                               0x20000500   Data         100  gsm.o(.bss)
    GsmTask                                  0x20000568   Data         112  gsm.o(.bss)
    gsmSenderDA                              0x200005d8   Data          16  gsm.o(.bss)
    gsmTxBuffer                              0x200005e8   Data          64  gsm.o(.bss)
    gsmRxBuffer                              0x20000628   Data         256  gsm.o(.bss)
    gsmBuffer                                0x20000728   Data         256  gsm.o(.bss)
    gsmUartHandle                            0x20000828   Data         112  gsm.o(.bss)
    AverageData                              0x20000898   Data         480  kalman.o(.bss)
    mc_state_transition                      0x20000a78   Data         128  kalman.o(.bss)
    mr_state_transition                      0x20000af8   Data          16  kalman.o(.bss)
    mc_observation_model                     0x20000b08   Data          64  kalman.o(.bss)
    mc_process_noise_covariance              0x20000b48   Data         128  kalman.o(.bss)
    mc_observation                           0x20000bc8   Data          16  kalman.o(.bss)
    mc_predicted_state                       0x20000bd8   Data          32  kalman.o(.bss)
    mc_innovation                            0x20000bf8   Data          16  kalman.o(.bss)
    mc_innovation_covariance                 0x20000c08   Data          32  kalman.o(.bss)
    mc_optimal_gain                          0x20000c28   Data          64  kalman.o(.bss)
    mc_state_estimate                        0x20000c68   Data          32  kalman.o(.bss)
    mr_state_estimate                        0x20000c88   Data          16  kalman.o(.bss)
    mc_estimate_covariance                   0x20000c98   Data         128  kalman.o(.bss)
    mc_vertical_scratch                      0x20000d18   Data          64  kalman.o(.bss)
    mc_small_square_scratch                  0x20000d58   Data          32  kalman.o(.bss)
    mc_big_square_scratch                    0x20000d78   Data         128  kalman.o(.bss)
    mc_observation_noise_covariance          0x20000df8   Data          32  kalman.o(.bss)
    mc_predicted_estimate_covariance         0x20000e18   Data         128  kalman.o(.bss)
    mc_inverse_innovation_covariance         0x20000e98   Data          32  kalman.o(.bss)
    mr_process_noise_covariance              0x20000eb8   Data          16  kalman.o(.bss)
    mr_predicted_state                       0x20000ec8   Data          16  kalman.o(.bss)
    mr_optimal_gain                          0x20000ed8   Data          16  kalman.o(.bss)
    mr_estimate_covariance                   0x20000ee8   Data          16  kalman.o(.bss)
    mr_vertical_scratch                      0x20000ef8   Data          16  kalman.o(.bss)
    mr_big_square_scratch                    0x20000f08   Data          16  kalman.o(.bss)
    mr_predicted_estimate_covariance         0x20000f18   Data          16  kalman.o(.bss)
    swConf                                   0x20000f28   Data         359  config_file.o(.bss)
    shellLibBuf                              0x2000108f   Data          51  config_file.o(.bss)
    dataBuf                                  0x200010c2   Data         301  config_file.o(.bss)
    ProcFlash                                0x200011f0   Data          24  stm32l0xx_hal_flash.o(.bss)
    __initial_sp                             0x200022f8   Data           0  startup_stm32l073xx.o(STACK)



==============================================================================

Memory Map of the image

  Image Entry point : 0x080000c1

  Load Region LR_IROM1 (Base: 0x08000000, Size: 0x00006820, Max: 0x00030000, ABSOLUTE, COMPRESSED[0x000066f0])

    Execution Region ER_IROM1 (Base: 0x08000000, Size: 0x00006648, Max: 0x00030000, ABSOLUTE)

    Base Addr    Size         Type   Attr      Idx    E Section Name        Object

    0x08000000   0x000000c0   Data   RO         6947    RESET               startup_stm32l073xx.o
    0x080000c0   0x00000000   Code   RO         9117  * .ARM.Collect$$$$00000000  mc_p.l(entry.o)
    0x080000c0   0x00000004   Code   RO         9553    .ARM.Collect$$$$00000001  mc_p.l(entry2.o)
    0x080000c4   0x00000004   Code   RO         9556    .ARM.Collect$$$$00000004  mc_p.l(entry5.o)
    0x080000c8   0x00000000   Code   RO         9558    .ARM.Collect$$$$00000008  mc_p.l(entry7b.o)
    0x080000c8   0x00000000   Code   RO         9560    .ARM.Collect$$$$0000000A  mc_p.l(entry8b.o)
    0x080000c8   0x00000008   Code   RO         9561    .ARM.Collect$$$$0000000B  mc_p.l(entry9a.o)
    0x080000d0   0x00000000   Code   RO         9563    .ARM.Collect$$$$0000000D  mc_p.l(entry10a.o)
    0x080000d0   0x00000000   Code   RO         9565    .ARM.Collect$$$$0000000F  mc_p.l(entry11a.o)
    0x080000d0   0x00000004   Code   RO         9554    .ARM.Collect$$$$00002712  mc_p.l(entry2.o)
    0x080000d4   0x00000070   Code   RO         7511    .emb_text           port.o
    0x08000144   0x0000001c   Code   RO         6948    .text               startup_stm32l073xx.o
    0x08000160   0x0000002c   Code   RO         9120    .text               mc_p.l(uidiv.o)
    0x0800018c   0x00000008   Code   RO         9124    .text               mc_p.l(ctype_o.o)
    0x08000194   0x00000012   Code   RO         9146    .text               mc_p.l(isspace_o.o)
    0x080001a6   0x00000024   Code   RO         9159    .text               mc_p.l(memcpya.o)
    0x080001ca   0x00000024   Code   RO         9161    .text               mc_p.l(memseta.o)
    0x080001ee   0x00000028   Code   RO         9163    .text               mc_p.l(strstr.o)
    0x08000216   0x0000000e   Code   RO         9169    .text               mc_p.l(strlen.o)
    0x08000224   0x0000001c   Code   RO         9171    .text               mc_p.l(strcmp.o)
    0x08000240   0x00000014   Code   RO         9173    .text               mc_p.l(memchr.o)
    0x08000254   0x0000001e   Code   RO         9179    .text               mc_p.l(strncmp.o)
    0x08000272   0x00000002   PAD
    0x08000274   0x0000003c   Code   RO         9474    .text               mc_p.l(__0sscanf.o)
    0x080002b0   0x000000e8   Code   RO         9476    .text               mc_p.l(_scanf_str.o)
    0x08000398   0x00000070   Code   RO         9478    .text               mc_p.l(strtol.o)
    0x08000408   0x00000164   Code   RO         9484    .text               mf_p.l(dadd.o)
    0x0800056c   0x000000d0   Code   RO         9486    .text               mf_p.l(dmul.o)
    0x0800063c   0x000000f0   Code   RO         9488    .text               mf_p.l(ddiv.o)
    0x0800072c   0x0000002c   Code   RO         9490    .text               mf_p.l(dscalb.o)
    0x08000758   0x00000028   Code   RO         9496    .text               mf_p.l(dflti.o)
    0x08000780   0x0000001c   Code   RO         9498    .text               mf_p.l(dfltui.o)
    0x0800079c   0x00000048   Code   RO         9500    .text               mf_p.l(dfixi.o)
    0x080007e4   0x0000003c   Code   RO         9502    .text               mf_p.l(dfixui.o)
    0x08000820   0x00000028   Code   RO         9504    .text               mf_p.l(cdcmple.o)
    0x08000848   0x00000028   Code   RO         9506    .text               mf_p.l(cdrcmple.o)
    0x08000870   0x00000060   Code   RO         9568    .text               mc_p.l(uldiv.o)
    0x080008d0   0x00000020   Code   RO         9570    .text               mc_p.l(llshl.o)
    0x080008f0   0x00000022   Code   RO         9572    .text               mc_p.l(llushr.o)
    0x08000912   0x00000026   Code   RO         9574    .text               mc_p.l(llsshr.o)
    0x08000938   0x0000002c   Code   RO         9585    .text               mc_p.l(scanf_char.o)
    0x08000964   0x00000044   Code   RO         9587    .text               mc_p.l(_sgetc.o)
    0x080009a8   0x000000a6   Code   RO         9589    .text               mc_p.l(_strtoul.o)
    0x08000a4e   0x00000002   PAD
    0x08000a50   0x000000a4   Code   RO         9591    .text               mc_p.l(strtod.o)
    0x08000af4   0x00000000   Code   RO         9593    .text               mc_p.l(iusefp.o)
    0x08000af4   0x00000082   Code   RO         9594    .text               mf_p.l(fepilogue.o)
    0x08000b76   0x000000be   Code   RO         9596    .text               mf_p.l(depilogue.o)
    0x08000c34   0x00000040   Code   RO         9602    .text               mf_p.l(dfixul.o)
    0x08000c74   0x00000024   Code   RO         9604    .text               mc_p.l(init.o)
    0x08000c98   0x0000001e   Code   RO         9608    .text               mc_p.l(_chval.o)
    0x08000cb6   0x00000002   PAD
    0x08000cb8   0x00000338   Code   RO         9610    .text               mc_p.l(_scanf.o)
    0x08000ff0   0x0000034c   Code   RO         9612    .text               mc_p.l(scanf_fp.o)
    0x0800133c   0x0000007a   Code   RO         9616    .text               mc_p.l(llmul.o)
    0x080013b6   0x00000002   PAD
    0x080013b8   0x0000001c   Code   RO         9621    .text               mf_p.l(dfltul.o)
    0x080013d4   0x00000038   Code   RO         9623    .text               mf_p.l(d2f.o)
    0x0800140c   0x00000056   Code   RO         9633    .text               mc_p.l(__dczerorl2.o)
    0x08001462   0x00000002   PAD
    0x08001464   0x00000020   Code   RO            9    i.BSP_LED_On        stm32l0xx_nucleo.o
    0x08001484   0x0000001c   Code   RO           10    i.BSP_LED_Toggle    stm32l0xx_nucleo.o
    0x080014a0   0x000000c0   Code   RO           12    i.BSP_PB_Init       stm32l0xx_nucleo.o
    0x08001560   0x00000088   Code   RO          917    i.DebugInit         debug.o
    0x080015e8   0x0000000c   Code   RO          430    i.EXTI4_15_IRQHandler  stm32l0xx_it.o
    0x080015f4   0x00000018   Code   RO          968    i.Error_Handler     gps.o
    0x0800160c   0x00000078   Code   RO         5968    i.FLASH_SetErrorCode  stm32l0xx_hal_flash.o
    0x08001684   0x00000080   Code   RO         5969    i.FLASH_WaitForLastOperation  stm32l0xx_hal_flash.o
    0x08001704   0x000000cc   Code   RO         1715    i.FilterAverageGet  kalman.o
    0x080017d0   0x0000000a   Code   RO         1716    i.FilterAverageInit  kalman.o
    0x080017da   0x00000002   PAD
    0x080017dc   0x00000054   Code   RO         1717    i.FilterAverageUpdate  kalman.o
    0x08001830   0x00000030   Code   RO         1718    i.FilterKalmanGet   kalman.o
    0x08001860   0x0000012c   Code   RO         1719    i.FilterKalmanInit  kalman.o
    0x0800198c   0x00000138   Code   RO         1720    i.FilterKalmanUpdate  kalman.o
    0x08001ac4   0x00000070   Code   RO         1342    i.GPRS_SET_GL865    gsm.o
    0x08001b34   0x0000009c   Code   RO         1343    i.GPRS_SET_WS228    gsm.o
    0x08001bd0   0x00000044   Code   RO         1344    i.GPRS_START_GL865  gsm.o
    0x08001c14   0x00000028   Code   RO         1345    i.GPRS_START_W228   gsm.o
    0x08001c3c   0x00000024   Code   RO         1346    i.GPRS_STOP_GL865   gsm.o
    0x08001c60   0x00000024   Code   RO         1347    i.GPRS_STOP_W228    gsm.o
    0x08001c84   0x00000004   Code   RO          970    i.GpsGeneral_Init   gps.o
    0x08001c88   0x00000084   Code   RO          971    i.GpsInit           gps.o
    0x08001d0c   0x00000018   Code   RO          973    i.GpsMTK_Init       gps.o
    0x08001d24   0x00000030   Code   RO          974    i.GpsPut            gps.o
    0x08001d54   0x00000048   Code   RO          977    i.GpsPutLineCS      gps.o
    0x08001d9c   0x00000024   Code   RO         1348    i.GsmAddTask        gsm.o
    0x08001dc0   0x00000016   Code   RO         2187    i.HAL_Delay         stm32l0xx_hal.o
    0x08001dd6   0x00000002   PAD
    0x08001dd8   0x00000028   Code   RO         6738    i.HAL_FLASHEx_DATAEEPROM_Erase  stm32l0xx_hal_flash_ex.o
    0x08001e00   0x00000014   Code   RO         6739    i.HAL_FLASHEx_DATAEEPROM_Lock  stm32l0xx_hal_flash_ex.o
    0x08001e14   0x00000054   Code   RO         6740    i.HAL_FLASHEx_DATAEEPROM_Program  stm32l0xx_hal_flash_ex.o
    0x08001e68   0x00000024   Code   RO         6741    i.HAL_FLASHEx_DATAEEPROM_Unlock  stm32l0xx_hal_flash_ex.o
    0x08001e8c   0x000000f0   Code   RO         3314    i.HAL_GPIO_DeInit   stm32l0xx_hal_gpio.o
    0x08001f7c   0x00000014   Code   RO          507    i.HAL_GPIO_EXTI_Callback  main.o
    0x08001f90   0x00000018   Code   RO         3316    i.HAL_GPIO_EXTI_IRQHandler  stm32l0xx_hal_gpio.o
    0x08001fa8   0x00000184   Code   RO         3317    i.HAL_GPIO_Init     stm32l0xx_hal_gpio.o
    0x0800212c   0x00000008   Code   RO         3320    i.HAL_GPIO_TogglePin  stm32l0xx_hal_gpio.o
    0x08002134   0x0000000c   Code   RO         3321    i.HAL_GPIO_WritePin  stm32l0xx_hal_gpio.o
    0x08002140   0x0000000c   Code   RO         2191    i.HAL_GetTick       stm32l0xx_hal.o
    0x0800214c   0x00000010   Code   RO         2192    i.HAL_IncTick       stm32l0xx_hal.o
    0x0800215c   0x00000020   Code   RO         2193    i.HAL_Init          stm32l0xx_hal.o
    0x0800217c   0x00000022   Code   RO         2194    i.HAL_InitTick      stm32l0xx_hal.o
    0x0800219e   0x00000002   Code   RO         2196    i.HAL_MspInit       stm32l0xx_hal.o
    0x080021a0   0x00000014   Code   RO         5503    i.HAL_NVIC_DisableIRQ  stm32l0xx_hal_cortex.o
    0x080021b4   0x00000014   Code   RO         5504    i.HAL_NVIC_EnableIRQ  stm32l0xx_hal_cortex.o
    0x080021c8   0x00000008   Code   RO         5508    i.HAL_NVIC_SetPriority  stm32l0xx_hal_cortex.o
    0x080021d0   0x00000030   Code   RO         3882    i.HAL_PWR_EnterSLEEPMode  stm32l0xx_hal_pwr.o
    0x08002200   0x0000014c   Code   RO         5200    i.HAL_RCC_ClockConfig  stm32l0xx_hal_rcc.o
    0x0800234c   0x00000028   Code   RO         5204    i.HAL_RCC_GetHCLKFreq  stm32l0xx_hal_rcc.o
    0x08002374   0x00000020   Code   RO         5206    i.HAL_RCC_GetPCLK1Freq  stm32l0xx_hal_rcc.o
    0x08002394   0x00000020   Code   RO         5207    i.HAL_RCC_GetPCLK2Freq  stm32l0xx_hal_rcc.o
    0x080023b4   0x00000084   Code   RO         5208    i.HAL_RCC_GetSysClockFreq  stm32l0xx_hal_rcc.o
    0x08002438   0x000003b4   Code   RO         5211    i.HAL_RCC_OscConfig  stm32l0xx_hal_rcc.o
    0x080027ec   0x00000030   Code   RO         5512    i.HAL_SYSTICK_Config  stm32l0xx_hal_cortex.o
    0x0800281c   0x0000003c   Code   RO         6082    i.HAL_UART_DeInit   stm32l0xx_hal_uart.o
    0x08002858   0x00000068   Code   RO         6087    i.HAL_UART_Init     stm32l0xx_hal_uart.o
    0x080028c0   0x00000038   Code   RO          337    i.HAL_UART_MspDeInit  stm32l0xx_hal_msp.o
    0x080028f8   0x0000006c   Code   RO          338    i.HAL_UART_MspInit  stm32l0xx_hal_msp.o
    0x08002964   0x000000ba   Code   RO         6095    i.HAL_UART_Transmit  stm32l0xx_hal_uart.o
    0x08002a1e   0x00000002   Code   RO          431    i.HardFault_Handler  stm32l0xx_it.o
    0x08002a20   0x0000001a   Code   RO          508    i.HardwareInit      main.o
    0x08002a3a   0x00000002   Code   RO          433    i.NMI_Handler       stm32l0xx_it.o
    0x08002a3c   0x00000044   Code   RO         5514    i.NVIC_SetPriority  stm32l0xx_hal_cortex.o
    0x08002a80   0x00000002   Code   RO          509    i.PostSleepProcessing  main.o
    0x08002a82   0x00000010   Code   RO          510    i.PreSleepProcessing  main.o
    0x08002a92   0x0000000e   Code   RO         2086    i.STRCPY            config_file.o
    0x08002aa0   0x00000002   Code   RO         7512    i.SVC_Handler       port.o
    0x08002aa2   0x00000002   PAD
    0x08002aa4   0x00000060   Code   RO          513    i.ShowError         main.o
    0x08002b04   0x0000000c   Code   RO          434    i.SysTick_Handler   stm32l0xx_it.o
    0x08002b10   0x00000078   Code   RO          516    i.SystemClock_Config  main.o
    0x08002b88   0x00000054   Code   RO         6915    i.SystemInit        system_stm32l0xx_1.o
    0x08002bdc   0x00000044   Code   RO         1354    i.TCP_OPEN_GL865    gsm.o
    0x08002c20   0x00000054   Code   RO         1355    i.TCP_OPEN_WS228    gsm.o
    0x08002c74   0x000000ca   Code   RO         6100    i.UART_AdvFeatureConfig  stm32l0xx_hal_uart.o
    0x08002d3e   0x00000002   PAD
    0x08002d40   0x00000054   Code   RO         6101    i.UART_CheckIdleState  stm32l0xx_hal_uart.o
    0x08002d94   0x00000214   Code   RO         6108    i.UART_SetConfig    stm32l0xx_hal_uart.o
    0x08002fa8   0x000000ae   Code   RO         6110    i.UART_WaitOnFlagUntilTimeout  stm32l0xx_hal_uart.o
    0x08003056   0x00000002   PAD
    0x08003058   0x00000210   Code   RO          982    i.USART1_IRQHandler  gps.o
    0x08003268   0x00000158   Code   RO         1356    i.USART2_IRQHandler  gsm.o
    0x080033c0   0x00000020   Code   RO         9416    i.__0printf         mc_p.l(printfa.o)
    0x080033e0   0x00000028   Code   RO         9418    i.__0sprintf        mc_p.l(printfa.o)
    0x08003408   0x00000024   Code   RO         9421    i.__0vsnprintf      mc_p.l(printfa.o)
    0x0800342c   0x0000002e   Code   RO         9598    i.__ARM_clz         mf_p.l(depilogue.o)
    0x0800345a   0x0000001a   Code   RO         1255    i.__ARM_common_switch8  gpsone.o
    0x08003474   0x00000008   Code   RO         9578    i.__aeabi_errno_addr  mc_p.l(errno.o)
    0x0800347c   0x0000000e   Code   RO         9627    i.__scatterload_copy  mc_p.l(handlers.o)
    0x0800348a   0x00000002   Code   RO         9628    i.__scatterload_null  mc_p.l(handlers.o)
    0x0800348c   0x0000000e   Code   RO         9629    i.__scatterload_zeroinit  mc_p.l(handlers.o)
    0x0800349a   0x00000002   PAD
    0x0800349c   0x00000158   Code   RO         9423    i._fp_digits        mc_p.l(printfa.o)
    0x080035f4   0x0000000e   Code   RO         9614    i._is_digit         mc_p.l(scanf_fp.o)
    0x08003602   0x00000002   PAD
    0x08003604   0x00000090   Code   RO         7993    i._nmea_parse_time  parse.o
    0x08003694   0x000006ec   Code   RO         9424    i._printf_core      mc_p.l(printfa.o)
    0x08003d80   0x00000020   Code   RO         9425    i._printf_post_padding  mc_p.l(printfa.o)
    0x08003da0   0x0000002c   Code   RO         9426    i._printf_pre_padding  mc_p.l(printfa.o)
    0x08003dcc   0x00000016   Code   RO         9427    i._snputc           mc_p.l(printfa.o)
    0x08003de2   0x0000000a   Code   RO         9428    i._sputc            mc_p.l(printfa.o)
    0x08003dec   0x00000050   Code   RO         1812    i.add_matrix        matrix.o
    0x08003e3c   0x00000080   Code   RO         2087    i.create_sw_conf_table  config_file.o
    0x08003ebc   0x000000f4   Code   RO         1814    i.destructive_invert_matrix  matrix.o
    0x08003fb0   0x00000030   Code   RO         7163    i.eTaskConfirmSleepModeStatus  tasks.o
    0x08003fe0   0x0000008c   Code   RO         2149    i.flash_eeprom      eeprom.o
    0x0800406c   0x00000020   Code   RO          920    i.fputc             debug.o
    0x0800408c   0x00000014   Code   RO          983    i.gpsCheckTypeInit  gps.o
    0x080040a0   0x0000003c   Code   RO          985    i.gpsWaitComplete   gps.o
    0x080040dc   0x00000010   Code   RO         1358    i.gsmCmd0           gsm.o
    0x080040ec   0x0000000c   Code   RO         1359    i.gsmCmd1           gsm.o
    0x080040f8   0x00000068   Code   RO         1361    i.gsmCmd2           gsm.o
    0x08004160   0x0000001a   Code   RO         1362    i.gsmCmdX0          gsm.o
    0x0800417a   0x0000001c   Code   RO         1363    i.gsmCmdX2          gsm.o
    0x08004196   0x00000002   PAD
    0x08004198   0x00000034   Code   RO         1373    i.gsmRxFlush        gsm.o
    0x080041cc   0x00000044   Code   RO         1377    i.gsmSend           gsm.o
    0x08004210   0x0000001c   Code   RO         1380    i.gsmSends          gsm.o
    0x0800422c   0x000000a0   Code   RO         1381    i.gsmShowError      gsm.o
    0x080042cc   0x00000020   Code   RO         1383    i.gsmToken          gsm.o
    0x080042ec   0x0000001e   Code   RO         1816    i.init_matrix       matrix.o
    0x0800430a   0x00000002   PAD
    0x0800430c   0x000000cc   Code   RO         2089    i.init_sw_conf_table  config_file.o
    0x080043d8   0x000000a0   Code   RO          519    i.main              main.o
    0x08004478   0x0000000c   Code   RO         8706    i.makeFreeRtosPriority  cmsis_os.o
    0x08004484   0x0000008a   Code   RO         1817    i.multiply_by_transpose_matrix  matrix.o
    0x0800450e   0x00000082   Code   RO         1818    i.multiply_matrix   matrix.o
    0x08004590   0x0000002c   Code   RO         8212    i.nmea_atof         tok.o
    0x080045bc   0x0000002c   Code   RO         8213    i.nmea_atoi         tok.o
    0x080045e8   0x00000044   Code   RO         7592    i.nmea_error        context.o
    0x0800462c   0x00000044   Code   RO         7884    i.nmea_ndeg2degree  gmath.o
    0x08004670   0x00000108   Code   RO         8004    i.nmea_parse_GPRMC  parse.o
    0x08004778   0x000001c4   Code   RO         8216    i.nmea_scanf        tok.o
    0x0800493c   0x00000014   Code   RO         7595    i.nmea_trace_buff   context.o
    0x08004950   0x0000000a   Code   RO         8710    i.osKernelStart     cmsis_os.o
    0x0800495a   0x00000010   Code   RO         8739    i.osSystickHandler  cmsis_os.o
    0x0800496a   0x00000038   Code   RO         8740    i.osThreadCreate    cmsis_os.o
    0x080049a2   0x00000018   Code   RO         1671    i.pinHigh           hardware.o
    0x080049ba   0x0000005c   Code   RO         1673    i.pinMode           hardware.o
    0x08004a16   0x0000002a   Code   RO         1674    i.pinRemap          hardware.o
    0x08004a40   0x00000034   Code   RO         7164    i.prvAddCurrentTaskToDelayedList  tasks.o
    0x08004a74   0x00000058   Code   RO         7165    i.prvCheckTasksWaitingTermination  tasks.o
    0x08004acc   0x00000026   Code   RO         6998    i.prvCopyDataFromQueue  queue.o
    0x08004af2   0x00000076   Code   RO         6999    i.prvCopyDataToQueue  queue.o
    0x08004b68   0x00000028   Code   RO         7166    i.prvGetExpectedIdleTime  tasks.o
    0x08004b90   0x00000044   Code   RO         7462    i.prvHeapInit       heap_4.o
    0x08004bd4   0x00000044   Code   RO         7167    i.prvIdleTask       tasks.o
    0x08004c18   0x0000004c   Code   RO         7463    i.prvInsertBlockIntoFreeList  heap_4.o
    0x08004c64   0x00000020   Code   RO         7169    i.prvResetNextTaskUnblockTime  tasks.o
    0x08004c84   0x00000050   Code   RO         7513    i.prvSetupTimerInterrupt  port.o
    0x08004cd4   0x00000014   Code   RO         7514    i.prvTaskExitError  port.o
    0x08004ce8   0x0000006a   Code   RO         7000    i.prvUnlockQueue    queue.o
    0x08004d52   0x00000002   PAD
    0x08004d54   0x000000b0   Code   RO         7464    i.pvPortMalloc      heap_4.o
    0x08004e04   0x00000018   Code   RO         7171    i.pvTaskIncrementMutexHeldCount  tasks.o
    0x08004e1c   0x00000020   Code   RO         7515    i.pxPortInitialiseStack  port.o
    0x08004e3c   0x00000024   Code   RO         1963    i.rb_Get            ring_buffer.o
    0x08004e60   0x0000000c   Code   RO         1964    i.rb_Init           ring_buffer.o
    0x08004e6c   0x00000022   Code   RO         1965    i.rb_Put            ring_buffer.o
    0x08004e8e   0x00000002   PAD
    0x08004e90   0x00000038   Code   RO         2150    i.read_eeprom       eeprom.o
    0x08004ec8   0x00000048   Code   RO         1819    i.scale_matrix      matrix.o
    0x08004f10   0x00000036   Code   RO         1820    i.scale_row         matrix.o
    0x08004f46   0x00000002   PAD
    0x08004f48   0x00000040   Code   RO         1821    i.set_identity_matrix  matrix.o
    0x08004f88   0x00000042   Code   RO         1822    i.set_matrix        matrix.o
    0x08004fca   0x00000032   Code   RO         1823    i.set_matrix_const  matrix.o
    0x08004ffc   0x00000028   Code   RO         1721    i.set_seconds_per_timestep  kalman.o
    0x08005024   0x00000040   Code   RO         1824    i.shear_row         matrix.o
    0x08005064   0x00000030   Code   RO         2090    i.show_sw_conf      config_file.o
    0x08005094   0x0000001c   Code   RO         9106    i.strtod            m_ps.l(strtod.o)
    0x080050b0   0x00000060   Code   RO         1825    i.subtract_from_identity_matrix  matrix.o
    0x08005110   0x00000050   Code   RO         1826    i.subtract_matrix   matrix.o
    0x08005160   0x00000014   Code   RO         1827    i.swap_rows         matrix.o
    0x08005174   0x00000024   Code   RO         6952    i.uxListRemove      list.o
    0x08005198   0x00000348   Code   RO          987    i.vGpsTask          gps.o
    0x080054e0   0x00000016   Code   RO         6953    i.vListInitialise   list.o
    0x080054f6   0x00000006   Code   RO         6954    i.vListInitialiseItem  list.o
    0x080054fc   0x00000030   Code   RO         6955    i.vListInsert       list.o
    0x0800552c   0x00000018   Code   RO         6956    i.vListInsertEnd    list.o
    0x08005544   0x00000018   Code   RO         7517    i.vPortEnterCritical  port.o
    0x0800555c   0x0000001c   Code   RO         7518    i.vPortExitCritical  port.o
    0x08005578   0x00000044   Code   RO         7465    i.vPortFree         heap_4.o
    0x080055bc   0x000000ec   Code   RO         7519    i.vPortSuppressTicksAndSleep  port.o
    0x080056a8   0x00000018   Code   RO         7520    i.vPortYield        port.o
    0x080056c0   0x0000003c   Code   RO         7179    i.vTaskDelay        tasks.o
    0x080056fc   0x0000000c   Code   RO         7182    i.vTaskMissedYield  tasks.o
    0x08005708   0x00000040   Code   RO         7184    i.vTaskPlaceOnEventList  tasks.o
    0x08005748   0x00000064   Code   RO         7186    i.vTaskPriorityInherit  tasks.o
    0x080057ac   0x00000018   Code   RO         7190    i.vTaskSetTimeOutState  tasks.o
    0x080057c4   0x00000044   Code   RO         7191    i.vTaskStartScheduler  tasks.o
    0x08005808   0x0000001c   Code   RO         7192    i.vTaskStepTick     tasks.o
    0x08005824   0x00000010   Code   RO         7194    i.vTaskSuspendAll   tasks.o
    0x08005834   0x00000058   Code   RO         7195    i.vTaskSwitchContext  tasks.o
    0x0800588c   0x00000030   Code   RO         7521    i.xPortStartScheduler  port.o
    0x080058bc   0x00000024   Code   RO         7522    i.xPortSysTickHandler  port.o
    0x080058e0   0x0000013a   Code   RO         7013    i.xQueueGenericReceive  queue.o
    0x08005a1a   0x00000116   Code   RO         7015    i.xQueueGenericSend  queue.o
    0x08005b30   0x00000072   Code   RO         7017    i.xQueueGiveFromISR  queue.o
    0x08005ba2   0x00000002   PAD
    0x08005ba4   0x00000054   Code   RO         7196    i.xTaskCheckForTimeOut  tasks.o
    0x08005bf8   0x0000017c   Code   RO         7197    i.xTaskGenericCreate  tasks.o
    0x08005d74   0x00000020   Code   RO         7200    i.xTaskGetSchedulerState  tasks.o
    0x08005d94   0x0000000c   Code   RO         7201    i.xTaskGetTickCount  tasks.o
    0x08005da0   0x000000c0   Code   RO         7203    i.xTaskIncrementTick  tasks.o
    0x08005e60   0x00000068   Code   RO         7206    i.xTaskPriorityDisinherit  tasks.o
    0x08005ec8   0x00000068   Code   RO         7207    i.xTaskRemoveFromEventList  tasks.o
    0x08005f30   0x000000a8   Code   RO         7209    i.xTaskResumeAll    tasks.o
    0x08005fd8   0x00000006   Data   RO           28    .constdata          stm32l0xx_nucleo.o
    0x08005fde   0x00000002   PAD
    0x08005fe0   0x00000014   Data   RO          526    .constdata          main.o
    0x08005ff4   0x00000058   Data   RO          989    .constdata          gps.o
    0x0800604c   0x00000013   Data   RO          993    .constdata          gps.o
    0x0800605f   0x0000000c   Data   RO          994    .constdata          gps.o
    0x0800606b   0x00000013   Data   RO          995    .constdata          gps.o
    0x0800607e   0x0000000a   Data   RO          999    .constdata          gps.o
    0x08006088   0x00000010   Data   RO         1000    .constdata          gps.o
    0x08006098   0x00000010   Data   RO         1001    .constdata          gps.o
    0x080060a8   0x00000010   Data   RO         1002    .constdata          gps.o
    0x080060b8   0x00000010   Data   RO         1003    .constdata          gps.o
    0x080060c8   0x00000010   Data   RO         1004    .constdata          gps.o
    0x080060d8   0x00000010   Data   RO         1005    .constdata          gps.o
    0x080060e8   0x00000200   Data   RO         1390    .constdata          gsm.o
    0x080062e8   0x00000180   Data   RO         1730    .constdata          kalman.o
    0x08006468   0x00000010   Data   RO         5212    .constdata          stm32l0xx_hal_rcc.o
    0x08006478   0x00000019   Data   RO         6916    .constdata          system_stm32l0xx_1.o
    0x08006491   0x00000081   Data   RO         9125    .constdata          mc_p.l(ctype_o.o)
    0x08006512   0x00000002   PAD
    0x08006514   0x00000004   Data   RO         9126    .constdata          mc_p.l(ctype_o.o)
    0x08006518   0x0000000b   Data   RO          527    .conststring        main.o
    0x08006523   0x00000001   PAD
    0x08006524   0x0000006f   Data   RO         1407    .conststring        gsm.o
    0x08006593   0x00000001   PAD
    0x08006594   0x00000091   Data   RO         2096    .conststring        config_file.o
    0x08006625   0x00000003   PAD
    0x08006628   0x00000020   Data   RO         9625    Region$$Table       anon$$obj.o


    Execution Region RW_IRAM1 (Base: 0x20000000, Size: 0x000022f8, Max: 0x00005000, ABSOLUTE, COMPRESSED[0x000000a8])

    Base Addr    Size         Type   Attr      Idx    E Section Name        Object

    0x20000000   0x00000014   Data   RW           29    .data               stm32l0xx_nucleo.o
    0x20000014   0x0000000c   Data   RW          528    .data               main.o
    0x20000020   0x0000000c   Data   RW         1164    .data               gpsone.o
    0x2000002c   0x00000008   Data   RW         1732    .data               kalman.o
    0x20000034   0x00000008   Data   RW         1733    .data               kalman.o
    0x2000003c   0x00000008   Data   RW         1734    .data               kalman.o
    0x20000044   0x00000008   Data   RW         1735    .data               kalman.o
    0x2000004c   0x00000008   Data   RW         1736    .data               kalman.o
    0x20000054   0x00000008   Data   RW         1737    .data               kalman.o
    0x2000005c   0x00000008   Data   RW         1738    .data               kalman.o
    0x20000064   0x000000ec   Data   RW         2097    .data               config_file.o
    0x20000150   0x0000000c   Data   RW         2151    .data               eeprom.o
    0x2000015c   0x00000004   Data   RW         2205    .data               stm32l0xx_hal.o
    0x20000160   0x00000004   Data   RW         6917    .data               system_stm32l0xx_1.o
    0x20000164   0x00000038   Data   RW         7212    .data               tasks.o
    0x2000019c   0x00000018   Data   RW         7470    .data               heap_4.o
    0x200001b4   0x00000010   Data   RW         7523    .data               port.o
    0x200001c4   0x0000000c   Data   RW         7596    .data               context.o
    0x200001d0   0x00000004   Data   RW         9567    .data               mc_p.l(stdout.o)
    0x200001d4   0x00000004   Data   RW         9581    .data               mc_p.l(errno.o)
    0x200001d8   0x00000070   Zero   RW          922    .bss                debug.o
    0x20000248   0x00000218   Zero   RW          988    .bss                gps.o
    0x20000460   0x000000a0   Zero   RW         1148    .bss                gpsone.o
    0x20000500   0x00000398   Zero   RW         1388    .bss                gsm.o
    0x20000898   0x00000620   Zero   RW         1722    .bss                kalman.o
    0x20000eb8   0x00000010   Zero   RW         1723    .bss                kalman.o
    0x20000ec8   0x00000010   Zero   RW         1724    .bss                kalman.o
    0x20000ed8   0x00000010   Zero   RW         1725    .bss                kalman.o
    0x20000ee8   0x00000010   Zero   RW         1726    .bss                kalman.o
    0x20000ef8   0x00000010   Zero   RW         1727    .bss                kalman.o
    0x20000f08   0x00000010   Zero   RW         1728    .bss                kalman.o
    0x20000f18   0x00000010   Zero   RW         1729    .bss                kalman.o
    0x20000f28   0x00000167   Zero   RW         2093    .bss                config_file.o
    0x2000108f   0x00000033   Zero   RW         2094    .bss                config_file.o
    0x200010c2   0x0000012d   Zero   RW         2095    .bss                config_file.o
    0x200011ef   0x00000001   PAD
    0x200011f0   0x00000018   Zero   RW         5981    .bss                stm32l0xx_hal_flash.o
    0x20001208   0x000000f0   Zero   RW         7211    .bss                tasks.o
    0x200012f8   0x00000c00   Zero   RW         7469    .bss                heap_4.o
    0x20001ef8   0x00000400   Zero   RW         6945    STACK               startup_stm32l073xx.o


==============================================================================

Image component sizes


      Code (inc. data)   RO Data    RW Data    ZI Data      Debug   Object Name

        94          0          0          0          0       7522   cmsis_os.o
       394         86        145        236        711       5625   config_file.o
        88         14          0         12          0       2895   context.o
       168         72          0          0        112       1221   debug.o
       196         28          0         12          0       2282   eeprom.o
         0          0          0          0          0       2904   generate.o
        68          8          0          0          0        611   gmath.o
      1752        366        244          0        536      11724   gps.o
        26          0          0         12        160       3527   gpsone.o
      1506        502        623          0        920      17254   gsm.o
       158          0          0          0          0       1935   hardware.o
       388         22          0         24       3072       4451   heap_4.o
       998         74        384         56       1680      13905   kalman.o
       136          0          0          0          0       3634   list.o
       440        102         31         12          0      11983   main.o
      1188         14          0          0          0      12459   matrix.o
       408        162          0          0          0       2374   parse.o
       642         74          0         16          0       9223   port.o
       968          0          0          0          0       8051   queue.o
        82          0          0          0          0       2144   ring_buffer.o
        28          8        192          0       1024        624   startup_stm32l073xx.o
       118         18          0          4          0       4396   stm32l0xx_hal.o
       164         30          0          0          0      11547   stm32l0xx_hal_cortex.o
       248         18          0          0         24       4381   stm32l0xx_hal_flash.o
       180         36          0          0          0       2934   stm32l0xx_hal_flash_ex.o
       672         66          0          0          0       4646   stm32l0xx_hal_gpio.o
       164         10          0          0          0      31994   stm32l0xx_hal_msp.o
        48         10          0          0          0        673   stm32l0xx_hal_pwr.o
      1516         90         16          0          0       6816   stm32l0xx_hal_rcc.o
      1342         76          0          0          0       7139   stm32l0xx_hal_uart.o
        28          0          0          0          0       1822   stm32l0xx_it.o
       252         42          6         20          0     206796   stm32l0xx_nucleo.o
        84         18         25          4          0       1233   system_stm32l0xx_1.o
      1888        174          0         56        240      21590   tasks.o
       540          0          0          0          0       4331   tok.o

    ----------------------------------------------------------------------
     16994       2120       1705        464       8480     436646   Object Totals
         0          0         32          0          0          0   (incl. Generated)
        22          0          7          0          1          0   (incl. Padding)

    ----------------------------------------------------------------------

      Code (inc. data)   RO Data    RW Data    ZI Data      Debug   Library Member Name

        28          0          0          0          0         72   strtod.o
        60         10          0          0          0         84   __0sscanf.o
        86          0          0          0          0          0   __dczerorl2.o
        30          0          0          0          0         60   _chval.o
       824         12          0          0          0         84   _scanf.o
       232          0          0          0          0         84   _scanf_str.o
        68          0          0          0          0         76   _sgetc.o
       166          0          0          0          0         84   _strtoul.o
         8          4        133          0          0         60   ctype_o.o
         0          0          0          0          0          0   entry.o
         0          0          0          0          0          0   entry10a.o
         0          0          0          0          0          0   entry11a.o
         8          4          0          0          0          0   entry2.o
         4          0          0          0          0          0   entry5.o
         0          0          0          0          0          0   entry7b.o
         0          0          0          0          0          0   entry8b.o
         8          4          0          0          0          0   entry9a.o
         8          4          0          4          0         60   errno.o
        30          0          0          0          0          0   handlers.o
        36          8          0          0          0         68   init.o
        18          0          0          0          0         68   isspace_o.o
         0          0          0          0          0          0   iusefp.o
       122          0          0          0          0         84   llmul.o
        32          0          0          0          0         68   llshl.o
        38          0          0          0          0         68   llsshr.o
        34          0          0          0          0         68   llushr.o
        20          0          0          0          0         60   memchr.o
        36          0          0          0          0         60   memcpya.o
        36          0          0          0          0        100   memseta.o
      2332        106          0          0          0        688   printfa.o
        44          8          0          0          0         84   scanf_char.o
       858         12          0          0          0        184   scanf_fp.o
         0          0          0          4          0          0   stdout.o
        28          0          0          0          0         68   strcmp.o
        14          0          0          0          0         60   strlen.o
        30          0          0          0          0         72   strncmp.o
        40          0          0          0          0         72   strstr.o
       164         18          0          0          0        120   strtod.o
       112          4          0          0          0         76   strtol.o
        44          0          0          0          0         72   uidiv.o
        96          0          0          0          0         84   uldiv.o
        40          2          0          0          0         68   cdcmple.o
        40          2          0          0          0         68   cdrcmple.o
        56          0          0          0          0         68   d2f.o
       356          4          0          0          0        140   dadd.o
       240          6          0          0          0         84   ddiv.o
       236          0          0          0          0        216   depilogue.o
        72         10          0          0          0         72   dfixi.o
        60         10          0          0          0         68   dfixui.o
        64         10          0          0          0         68   dfixul.o
        40          6          0          0          0         68   dflti.o
        28          4          0          0          0         68   dfltui.o
        28          6          0          0          0         68   dfltul.o
       208          6          0          0          0         88   dmul.o
        44          0          0          0          0         72   dscalb.o
       130          0          0          0          0        144   fepilogue.o

    ----------------------------------------------------------------------
      7350        260        135          8          0       4248   Library Totals
        14          0          2          0          0          0   (incl. Padding)

    ----------------------------------------------------------------------

      Code (inc. data)   RO Data    RW Data    ZI Data      Debug   Library Name

        28          0          0          0          0         72   m_ps.l
      5666        194        133          8          0       2816   mc_p.l
      1642         66          0          0          0       1360   mf_p.l

    ----------------------------------------------------------------------
      7350        260        135          8          0       4248   Library Totals

    ----------------------------------------------------------------------

==============================================================================


      Code (inc. data)   RO Data    RW Data    ZI Data      Debug   

     24344       2380       1840        472       8480     430974   Grand Totals
     24344       2380       1840        168       8480     430974   ELF Image Totals (compressed)
     24344       2380       1840        168          0          0   ROM Totals

==============================================================================

    Total RO  Size (Code + RO Data)                26184 (  25.57kB)
    Total RW  Size (RW Data + ZI Data)              8952 (   8.74kB)
    Total ROM Size (Code + RO Data + RW Data)      26352 (  25.73kB)

==============================================================================

