:020000040800F2
:10800000804D002045810008C3E10008CDDC000858
:108010000000000000000000000000000000000060
:10802000000000000000000000000000C1EA00089D
:10803000000000000000000003810008FDEB0008C4
:108040005781000857810008C1E4000857810008E3
:10805000578100080D9E000857810008179E0008F0
:1080600057810008C19D000857810008578100080A
:10807000578100085781000885F5000857810008DE
:108080005781000857810008578100080000000050
:10809000578100085781000857810008E9DC000873
:1080A0005781000857810008DDE500085781000866
:1080B00075F50008578100085781000857810008AE
:1080C0000348854600F0EEFE00480047B97A0108F3
:1080D000804D0020064B19680868203080F309881D
:1080E000022080F314883FBCAE4662B600BD00009B
:1080F00018060020EFF3108072B6704780F31088E6
:108100007047EFF309800E4B1A6820381060F0C0FA
:1081100044464D4656465F46F0C008B572B615F067
:1081200093FA62B60CBC116808681030F0C8A0461B
:10813000A946B246BB4680F309882038F0C81847E4
:10814000180600200448804704480047FEE7FEE781
:10815000FEE7FEE7FEE7FEE789EC0008C1800008C5
:1081600030B50B46014600202022012409E00D46CF
:10817000D5409D4205D31D469540491B2546954057
:1081800040191546521E002DF1DC30BD70B500249B
:108190002546002801DA01244042002901DA0125A0
:1081A0004942FFF7DDFFAC4200D04042002C00D036
:1081B000494270BD004870479CED010810B5044667
:1081C000FFF7F8FF0068005DC007C00F10BD014653
:1081D0006139192900D82038704703460B439B07A3
:1081E00003D009E008C9121F08C0042AFAD203E02C
:1081F0000B780370401C491C521EF9D27047D2B252
:1082000001E00270401C491EFBD270470022F6E7D5
:1082100010B513460A4604461946FFF7F0FF2046FC
:1082200010BD421E5378521C002BFBD10B781370EB
:10823000491C521C002BF9D1704730B505462A461F
:108240000B4610781C78521C5B1C002801D0A04201
:10825000F7D0002C03D0002802D06D1CEFE7284691
:1082600030BD10B5044605E00B780370401C002BB0
:1082700000D0491C521EF7D2204610BDCAB2401E83
:108280004178401C8A4202D00029F9D10020704771
:10829000421C0178401C0029FBD1801A704710B5A0
:1082A000002200E0521C835C8C5CA34201D1002BB5
:1082B000F8D1D8B2E1B2401A10BDC9B203E00378D8
:1082C0008B4203D0401C521EF9D200207047034657
:1082D0000A780270401C491C002AF9D118467047E0
:1082E00030B505460020034600E05B1C934205D2F2
:1082F000EC5CC85C201A01D1002CF6D130BD032102
:10830000001D401E037812021A43491EF9D510467B
:10831000704700000FB400B58DB009900B9010A904
:1083200000200091C0430A9000200C90064806905F
:10833000064807906A4609A80F9900F0E5FB0DB0C2
:1083400008BC04B018470000298B0008498B0008BE
:10835000FFB5002083B000905068019091691446E9
:10836000002697680498884705460C9906980843A4
:1083700005D009E0A169761C049888470546216A62
:10838000284688470028F5D1681C03D00198C0070B
:1083900004D017E00020C04307B0F0BD2068011DE5
:1083A0002160006800900DE00198C00704D100989A
:1083B00005700098401C0090A169761C7F1E0498EF
:1083C00088470546002F1CDD681C1AD00698002837
:1083D0000FD0E817C00E401941118A0006994009D4
:1083E000511840012A1A0968012090400142DBD14E
:1083F00007E00C980028D7D1216A28468847002832
:10840000D2D0E169049888470C98002807D1002E43
:1084100005DD0198C00702D1009800210170A06815
:10842000B84204DD0C98002804D0002F02D00120AF
:10843000C043B1E73046AFE770B5064607F026F90E
:10844000046805460A220021304600F0E1FB2C605A
:1084500070BDF8B502464A40D40F42004B005208A6
:108460005B089A4202D20246084611464A0023D0CF
:10847000C30D4A00DDB2120EAD1A202D35DA4902C5
:108480000126490AF6058A19002C00D05242202103
:108490004F1B1146B9402A411018C20D9A4221D0F3
:1084A000002C17D0012D08DCDA05801AD20F8019B4
:1084B000D207DBB200F0ECFBF8BDDA05801A01232D
:1084C00040001B06C01880185A428018CA0F10437B
:1084D000490007E04908C2071143DA05801A8019EC
:1084E0004008801800F0CCFBF8BD61000122511A51
:1084F000001BF7E70122D2075140AAE70122D20769
:108500005040A6E770B502464A40D50F40004A00E9
:10851000ED0740085208002814D0002A12D0C40DDC
:10852000D30D41020120C0055202490A520AE41A41
:10853000091812187D34914201D3641C00E04900EF
:10854000002C01DA002070BD0023914201D3891A6A
:108550000343400849000028F7D100290AD091427E
:1085600002D10121C90705E0914201D2012101E0B8
:108570000121C943E005C018401900F081FB70BD1E
:10858000F0B507460846584087B0C00F0490480031
:108590000E46590040084908BC1A884105D23846A1
:1085A00031461E4617460B46024658004008104307
:1085B0004CD0300D039040055900400D490D0590F9
:1085C000401A0290402872DA18030121000B0905B5
:1085D0000843019004980092002805D00199524266
:1085E0000020884100920190029840210A1A0199C6
:1085F000009800F04FFA05460C466B4607CB00F09A
:108600006AFAC0197141039A0E0D0023D71756401C
:108610001A467A40164344D0049A002A2DD0029A72
:10862000012A039A15DC1205C01A9141012636056C
:10863000001C7141D20F059ED20700930192029651
:108640002A46234600F06AFB07B0F0BD38463146A3
:10865000FAE71605224A0F46B218C01AB74101219F
:108660000905001C4F4100187F4111461818794137
:10867000E20F10436D19644113E0E2076D081543E2
:108680006408C2071443039A01261205C01A9141D7
:108690003605001C7141CE07400830434908C01818
:1086A00051412A46234600F02CFBCDE7FFE7049812
:1086B00001224000C117121A00238B410498314651
:1086C000C417381AA141EEE730B40124E40763402F
:1086D00030BC55E730B40124E407614030BC4FE7BB
:1086E0000000E0FFF0B51FB488B00B990998002492
:1086F00048400999C00F490049080991C0070B99E2
:108700000090490049080B9109990898A64608432A
:108710001CD00B990A98084318D0099801244000EE
:10872000420D4800410D099824050003000B204329
:1087300009900B980003000B20430B9050181C4924
:108740004018002201901446104605E00020014622
:108750000DB0F0BD032801DA034600E003239C4678
:10876000C11A0AAE0AE05F0008ADED5B4F00F75B8F
:108770007D430027AA187C41491C5B1E6145F2DD40
:10878000410004AB5A522104120C0A43240C401C31
:108790000828DFDB01980290009970460191009053
:1087A000059B049A0799069800F0B8FAD0E70000F4
:1087B0000DFCFFFFF0B50C465C4085B0E40FE4070C
:1087C00003944C0000266408590094464908024668
:1087D0000296224321D062460A431ED06200570D02
:1087E0004A000E032303550D012402462C4924059B
:1087F000781B1B0B360B4018234326436146009021
:108800001C46501AB44103D30098401C009002E06B
:10881000921800985B41002803DA0020014605B059
:10882000F0BD0020012109050746864611E0644697
:108830001D46141BB54106D36546521BB341744611
:1088400007430C43A646CD07400849082843921821
:108850005B4105460D43EAD11046184313D06046EC
:10886000194650407140084306D06046101AB34183
:1088700006D20122002306E000220123DB0702E0EA
:108880000122D2435310009874460105381C6141FF
:10889000029C039D0019694100F033FABFE7000014
:1088A000FD03000070B54B005B0803430BD04B0089
:1088B0005C0D002633466542B341D417AD1AA3417F
:1088C00002DB0020014670BD12053018514170BD19
:1088D000C217C10F504010B54018CA079623002197
:1088E00000F0D6F910BD10B500229623114600F015
:1088F000CFF910BD0EB5C217C10F5040CA074018BE
:108900000021054B0293019200910A460B4600F0AC
:1089100005FA03B000BD0000330400000EB50549A0
:108920000291002100910A460B46019100F0F6F9F0
:1089300003B000BD3304000070B5CD0F4A00090339
:108940000123090B1B0519430B4BED070024520DA6
:108950009A4201DA002070BD074B34339A4203DC9F
:108960009A1A00F0A7F802E00449511888402C43F5
:10897000F1D0404270BD0000FF030000CDFBFFFFBF
:108980004A0009030123090B1B051943094B10B5C4
:10899000520D9A4201DA002010BD064B34339A4240
:1089A00003DC9A1A00F086F810BD0349511888407C
:1089B00010BD0000FF030000CDFBFFFF10B5002934
:1089C00004DB0124E40740428C412146002B04DBF8
:1089D0001C460123DB075242A3418B4200D1824255
:1089E00010BD000010B5002904DB0124E40740425B
:1089F0008C412146002B04DB1C460123DB0752423D
:108A0000A341994200D1904210BD00000122D2073B
:108A1000002800DB101A002900DB511A8142704740
:108A20000122D207002800DB101A002900DB511AAE
:108A300088427047F0B51FB40646002082B0054654
:108A40004024019100901BE0019922460F463046D8
:108A500000F030F8049A059B801A994110D3104613
:108A60001946224600F016F8361A8F410197224621
:108A700001200021009F00F00DF838184D410090B2
:108A80002046641E0028DFDC019B00982946324600
:108A900007B0F0BD10B5202A04DB0146203A914012
:108AA000002010BD914020239C1A0346E340194347
:108AB000904010BD10B5202A04DB0846203AD04073
:108AC000002110BD0B46D340D0402024A21A914073
:108AD0000843194610BD10B5202A06DBCB170846FF
:108AE000203A1041C1170B4306E00B461341D0401A
:108AF0002024A21A91400843194610BD0268137839
:108B0000511801601846704710B5D1600449516191
:108B10000449116200211161114600F0D5F910BD20
:108B2000FD8A0008BD8100084268002A08D001685B
:108B30000B78491C002B03D0521E06C01846704704
:108B40000121C160881E70474268002A0BD0C368AB
:108B50000168002B07D183688B4204D0491E521C48
:108B600006C0002070470020C04370470FB400B516
:108B700089B00CA900910B990023CB60204B214AAE
:108B800006930792042201921F4A02921F4A0892FA
:108B900002466B46002000F0AEFB09B008BC04B0F2
:108BA000184770B586B006460020C04301900020EB
:108BB00015460C460091029104903246694604A87D
:108BC000FFF7D4FF034604982118002D05D0002894
:108BD00001D00A4600E022462A6000280DD0002B72
:108BE00002DD0098884208D0081B019000943246AC
:108BF0006946029404A8FFF7B9FF06B070BD0000F3
:108C0000298B0008498B0008FFFFFF7FBD8100080A
:108C1000F7B5009C0F4600262578641C002D05D072
:108C2000FFF7C8FA0068405DC007F5D12B2D02D0D0
:108C30002D2D18D0641E39462046029A00F086FC7D
:108C4000002F04D03968A14201D100993960710523
:108C5000022400290BDA4042002803DD06F016FD4D
:108C60000460A007FEBD012080020643E3E7002860
:108C7000F8DA06F00BFD04600048FEBDFFFFFF7F41
:108C8000002904DA401C490001D140084000704727
:108C900070B40024050C05D11024000402D1002971
:108CA00021D01124050E01D100020834050F01D195
:108CB0000001241D850F01D18000A41C002801DBC8
:108CC0004000641C002908D020252E1B0D46F540CD
:108CD000A14000D001212943084301061B1B000AC3
:108CE000DB1D02D5002070BC7047DB05181880180A
:108CF0000029F8DA401C4900F5D170BC400840005A
:108D0000704710B5002B08DA0024401C614192180E
:108D10005B411A4301D14008400010BDF0B51FB4BB
:108D200082B005460C0003D0084606F05BFC02E06A
:108D300006F058FC20300246009021462846FFF7F6
:108D4000A9FE049B059A04460F46184311430843A5
:108D500014D0184610431BD0009840210A1A184618
:108D60000599FFF7A7FE05460E46009A0599049857
:108D7000FFF790FE084305D0012004E02046394665
:108D800007B0F0BD0020C11705430E432C43374305
:108D900000990E986305401A7905E40A00220C43F5
:108DA000FD0A0A3002D500200146E9E70105101945
:108DB00069410C9C0D9D00196941FFF7A2FFDFE797
:108DC000FEB500231A461B1A8A4103DB0020014628
:108DD00003B0F0BD4A000D0301212D0B0905520D12
:108DE0000D43D10702D100186D41521E5110FF31C1
:108DF000FF310131002704463E4638460097019175
:108E00000246012100200905FFF754FEC3197141F4
:108E1000F818324684468E464A4161462846611A11
:108E2000904104D36046241A954176461F46241982
:108E300000986D41401C00903428E1DDF91930465E
:108E40007041091BA84103D20022D243134601E01E
:108E50000022134601980105381C7141FFF751FFAC
:108E6000B6E700004A0009030123090B1B0519435B
:108E70000A4B10B5520D9A4202DA0020014610BD8D
:108E8000064B34339A4203DC9A1AFFF713FE10BDE7
:108E9000034BD218FFF7FEFD10BD0000FF030000DA
:108EA000CDFBFFFF064C0125064E05E0E36807CC2D
:108EB0002B430C3C98471034B442F7D3FFF704F926
:108EC00064F5010884F50108F3B58DB000200A901F
:108ED00001200B90002608460C300C460990626970
:108EE000012109989047051E2ED0252D2DD0216AED
:108EF0008847002818D06269012109989047216AA3
:108F000088470028F7D1411E62690998904700E020
:108F1000761CA1690D988847216A88470028F7D1F7
:108F2000E1690D988847DAE7A1690D9888470746F7
:108F3000A84201D1761CD2E7E1690D9888477F1CD1
:108F400002D10A98002877D049E1002762693D469E
:108F50003946099890472A280CD16269012109985D
:108F60009047012506E00A214F433F18303FEBD4DC
:108F70001020054362690121099890470146303964
:108F80000A2903D29B498F42DEDCECE7E90600D4D4
:108F9000994F6C280AD04C2810D0682824D06A2811
:108FA0002ED074280CD07A280AD00DE062690121F5
:108FB000099890476C2823D004211CE02020054309
:108FC0006269012109989047A760656065284FD0C4
:108FD00026DC582839D01ADC452849D012DC25284F
:108FE00034D04128B0D143E062690121099890470B
:108FF000682802D008210D43E6E70120C002DEE721
:109000000220DCE7462833D047282CD130E05B280B
:1090100070D061282CD063286CD0642823D161E003
:109020006F284FD009DC662822D0672820D0692815
:1090300026D06E2817D12EE0CDE070284DD07328B1
:109040006FD075284ED078280DD154E0A1690D98C5
:1090500088470546252800D16CE7E1690D988847C7
:109060006D1C00D16DE7BAE00A224CE00A2252E002
:10907000012023466A46C0430D9900F03CF9A3E065
:109080002846402108436060A807234601D50022F6
:1090900039E000223FE0E80700D020E72068011D0A
:1090A00021600068290501D5067018E7290701D558
:1090B000068014E7A90703D5F117066041600EE7A3
:1090C00006600CE72846402108436060A807234655
:1090D00001D5082217E008221DE04849284608402B
:1090E000606016E02846402108436060A8072346D8
:1090F000BCD5B9E715E02846402108436060A807C1
:1091000007D5234610220120C0430D99C046C04612
:109110005AE0234610220120C0430D99C046C046A4
:1091200052E000210C910B460091632802D05B288D
:1091300007D043E0E80601D40120A06001200090A0
:109140003CE062690121099890475E2805D1012021
:109150000C9001466269099890472169002906D15F
:109160000B4601AA8F00491CD3510829FADB0028BD
:1091700035D0216900290ED1C117C90E09184A112D
:10918000930001AA9A1849094901411A012013685C
:1091900088400343136062690121099890475D2864
:1091A000E5D10C98002808D0002001AB81005A5866
:1091B000401CD2435A500828F8DB01AB012022465C
:1091C000C0430D99FFF7C4F800280ADA401C06D105
:1091D0000B98002803D00020C0430FB0F0BD0A98C0
:1091E000FBE7E90702D10A99491C0A9136180020C9
:1091F0000B9074E6CCCCCC0CFFFFFF7FF1F7FFFFA8
:10920000FFB5087885B01546FF2805D0491C2D28E4
:1092100004D00022002407E000240BE00122F9E73B
:109220000A235C430419491C0878FF28F8D1002A56
:1092300000D06442002001902A7801462D2A01D0F6
:109240002B2A04D16D1C2D2A0DD00022019200265C
:109250002F78FF2F09D00A2200236D1C00F0C9F9D6
:1092600038187141F4E70122F0E7089AA218039236
:1092700002460A430DD00024B24AB14D2646009260
:1092800000F004FA049003980291002807DA47429C
:109290001AE0002105980A4606C009B0F0BD07464D
:1092A00012E0F80707D022462B4630460099FFF718
:1092B00019FA0646009122462B4610461946FFF73A
:1092C00011FA04460D467F10002FEAD10398009B47
:1092D000002802990498324602DAFFF76BFA01E09F
:1092E000FFF700FA019A002A02D00122D20751406A
:1092F000059A03C2D1E7FFB591B00020099000257F
:10930000ED432E209E685C681F460190B9696D1C74
:10931000129888470090396A88470028F6D100984B
:10932000401C0AD00D20C0018443002E12DD00989D
:109330002B2809D02D280DD103E00020C04315B003
:10934000F0BD012080020443B9696D1C1298884762
:10935000761E009003A9600501D52D2000E02B208A
:109360006A461073491C0CA80F9102900AE0B96973
:109370006D1C129888470090012040020443139806
:10938000761E0560002E02DD00983028EFD001998E
:109390000098884246D18020044308E00998401E86
:1093A00009900120400204431399681C0860B969C0
:1093B0006D1C761E1298884700903028EED031E060
:1093C0000199884205D1200603D480200443761EEB
:1093D0001EE0009806F06AFD002826D00120400219
:1093E000044307A90F980331761E88420BD20098D8
:1093F0000F99303808700F98401C0F90200607D541
:109400000998401E03E0200602D40998401C0990E8
:10941000A00502D51399681C0860B9696D1C1298E3
:1094200088470090002ECBDC59E0002E57DD0098D5
:10943000652801D0452852D1A00550D5032000024F
:109440008443B9696D1C761E129888470090002EDF
:109450000CDD2B2804D02D2808D1FF200130044337
:10946000B9696D1C12988847761E0090E00501D5F9
:109470002D2100E02B21029801700298401C0290DF
:10948000019025E00120400204430EA90298013119
:10949000761E88420ED20098029930380006000EDF
:1094A000087003D10299019881420AD90298401CA0
:1094B000029006E0E00501D5234801E02248404241
:1094C0000990B9696D1C129888470090139805603F
:1094D000002E04DD009806F0E9FC0028D2D1F969DD
:1094E000129888470F99FF200870029903AA087004
:1094F00000200A900B900CA90AA8099BFFF780FE98
:10950000A00502D40120C04319E72420044209D059
:10951000E00713D138680B9A0A99031D3B60006875
:1095200006C00BE00B990A9800F0BEF80146E00770
:1095300004D13868021D3A60006801602846FEE6E2
:10954000000024400000F03FF1D8FFFFF7B582B0E3
:10955000029C00272078641C15460197302802D011
:10956000002D15D015E020780127641C782804D040
:10957000582802D0002D09D00BE0002D01D0102D6D
:1095800007D1002710252078641C02E0082500E0A0
:109590000A250026009610E0009901276943081863
:1095A000020C294680B2714300908E18380486421E
:1095B00001D3012001902078641C294600F056F860
:1095C0000028E9DA0398002805D0002F01D0641E96
:1095D00000E0029C04600198002806D006F056F8CE
:1095E00002210160C81E05B0F0BD00993004084397
:1095F000F9E7F0B51FB486B000200090019002900A
:109600000698069980B204900798090C0204001489
:10961000114307900027089D099806913E463C4655
:1096200003900398A9B20204000C039004982D0C37
:109630001543484300212246FFF72CFAC719714110
:1096400010340E46402CECDB3846029AFFF722FA23
:10965000009A019B801800905941029801911030A6
:1096600002904028CCDB00980BB0F0BD3A2800D225
:109670003038202302469A43412A01D31046373816
:10968000884201D30020C043704700000EB5054A50
:1096900002920022009213460192FFF73FFB03B0B3
:1096A00000BD000033040000CB0FDB07490010B5FC
:1096B000490802460A4307D00A0D07240903E401BA
:1096C000090B121B002A01DC002010BDC900440F49
:1096D0000C43C100E018D2058018FFF7D1FA10BD85
:1096E00070B58C180578401C6B075B0F01D10378AF
:1096F000401C2A1106D10278401C03E006780E7047
:10970000401C491C5B1EF9D12B0705D40023521EB7
:109710000DD40B70491CFAE70378401CCB1A921C3D
:1097200003E01D780D70491C5B1C521EF9D5A14247
:10973000D8D3002070BD000010B525482349016032
:1097400000210322920741604261C1640122416409
:109750008264C261816102624162C162826241636C
:109760000422C263816301F061FF1A4C002805D016
:109770002078002802D018A005F010FF002114481E
:1097800001F0BCFE002805D02078002802D01AA0E5
:1097900005F004FF0F492448383108600C4801F0F7
:1097A000F5FE002805D02078002802D01FA005F083
:1097B000F5FE074802F09AF8002805D02078002826
:1097C00002D024A005F0EAFE10BD000000240140F4
:1097D0000413002004000020444542554720493A24
:1097E000202048414C5F4144435F496E69742065C5
:1097F00072726F720D0A0000444542554720493A83
:10980000202048414C5F41444345785F43616C6987
:1098100062726174696F6E5F5374617274206572F5
:10982000726F720D0A00000000100030444542556E
:109830004720493A202048414C5F4144435F436FF1
:109840006E6669674368616E6E656C206572726FE3
:10985000720D0A00444542554720493A20204841AC
:109860004C5F4144435F5374617274206572726F40
:10987000720D0A0038B50446064805490068FEF72F
:109880006FFC604300E0401E00900028FBD138BD13
:1098900040420F0014060020F8B5044600688168B5
:1098A0008907890F012902D10168C90722D181687E
:1098B000114A10261140012500290ED18168294343
:1098C00081600120FFF7D6FF02F056FB07460CE04F
:1098D00002F052FBC01B0A2807D9A06D3043A065D7
:1098E000E06D2843E0650120F8BD20680068C043B2
:1098F000C007EDD10020F8BD17000080F8B507467D
:109900000A21584801F092FF564801F089FE80056F
:109910006FD5544801F086FE534CA062A06A002522
:10992000962802D2606A002805D0607C0B26B6011A
:10993000002823D034E0A07C401C40B2A074E57421
:10994000257505287ED11520205602287FDAA574BA
:109950002078002802D045A005F020FE207E0028B7
:1099600002D0514805F01AFE0E2007F0B5FE606ADD
:10997000401C6062607D401C60755BE0A06A9628B8
:109980000ED9A06AB0420BD2606A002808D147A065
:109990000AF0EEFA012248A1FEF7A2FC00280BD043
:1099A000A06A962828D9A06A5521C900884223D2E6
:1099B000E07800281ED01FE0E07C401C40B2E0743C
:1099C000A57425756575052834D1E57420780028BF
:1099D00002D03A4805F0E2FD207E002802D0384847
:1099E00005F0DCFD0D2007F09DFA606A401C606206
:1099F00020E036E0062F08D0A06AB04216D9656292
:109A0000A574E5742575657521E0207D401C40B284
:109A10002075E574A574657505280BD12575294851
:109A20000EF082FC0220206204E00BE0A06A96287F
:109A300000D96575606A002801DD401C60627828E5
:109A400000DD656212202056052800DDA574132074
:109A50002056052800DDE57414202056052800DD79
:109A60002575F8BD0413002004000020444542552C
:109A70004720493A202A2A2A2A2A2A2A2A2A2A2A0E
:109A80002A2A2A2A2A2A63757420616C61726D2A37
:109A90002A2A2A2A2A2A2A2A2A2A2A2A2A2A2A2A26
:109AA0002A2A2A0D0A000000F8EF01087761726E79
:109AB0006C6F7762617474003100000088F00108F7
:109AC0003CF001088813000010B57D2424012146D4
:109AD00005A00AF08FFD214607A00AF08BFD214664
:109AE00009A00AF087FD10BD41542B514155444354
:109AF000483D300D0A00000041542B434C564C3D6C
:109B000039300D0A0000000041542B514D49433DAE
:109B1000302C31320D0A000010B57D24240121467D
:109B20000BA00AF067FD21460CA00AF063FD214658
:109B30000EA00AF05FFD214610A00AF05BFD214651
:109B400012A00AF057FD214616A00AF053FD10BDE1
:109B500041542B514441433D330D0A0041542B5194
:109B60004155444D4F443D320D0A000041542B43B2
:109B70004C564C3D39300D0A0000000041542B5129
:109B80004D49433D322C31320D0A000041542B51D6
:109B90004155444741494E3D322C3130302C36300E
:109BA0000D0A000041542B5153494445543D2D3476
:109BB00035300D0A00000000F7B5604C0026A069A2
:109BC0005F4F154605283FDA0C2141433E463C3E97
:109BD000009A72508919019A8D60401C4A60A061F8
:109BE000FEF776FE0446F1683068FEF732FCB16994
:109BF000FEF72FFC716AFEF72CFC316BFEF729FC97
:109C00002146FEF77FFC386031697068FEF721FC61
:109C1000F169FEF71EFCB16AFEF71BFC716BFEF7E3
:109C200018FC2146FEF76EFC78607169B068FEF79B
:109C300010FC316AFEF70DFCF16AFEF70AFCB16B0D
:109C4000FEF707FC214674E03D4F00983968FEF7A7
:109C500051FC01463948203009F018FC7968019818
:109C6000FEF748FC01463548243009F00FFC284631
:109C7000B968FEF73FFC01463048283009F006FC81
:109C8000214620312D480EC91C3004F07FFAA1680E
:109C9000E069FEF7C5FE05D2002012F063F800204F
:109CA000A061FEBD264C3C3C0C21002071430919EB
:109CB00082008B18DB68401C8B500328F8DB761C75
:109CC000042EF1DB009F27630199A56361630E46B3
:109CD000E1682068FEF7BDFBA169FEF7BAFB616A87
:109CE000FEF7B7FB3946FEF7B4FB1649FEF70AFC50
:109CF000134F386021696068FEF7ABFBE169FEF73E
:109D0000A8FBA16AFEF7A5FB3146FEF7A2FB0D49B1
:109D1000FEF7F8FB78606169A068FEF79AFB216A9C
:109D2000FEF797FBE16AFEF794FB2946FEF791FBED
:109D30000449FEF7E7FBB860FEBD000058010020B3
:109D40008C0800200000A04070B511460646049D16
:109D500008462A46194600F013F8084C00223046FF
:109D6000216A0DF09FFB2E2101702A46401C616A7A
:109D70000DF098FB2C210170401C70BD8401002067
:109D80007CB55206140E6A460DF0DAFE0A4DE40068
:109D90002B190CCBFEF7F4FB63199A68DB68FEF70E
:109DA000A1FCFEF7EDFD054C606201990098FEF7FD
:109DB000E7FD20627CBD000050E80108840100201E
:109DC00010B50248006D01F0BFFD10BD0413002066
:109DD00008B50D480B490160E121490241600021AD
:109DE0008160C160016181610C21416103F071FBFF
:109DF000054803F005FC01226946034803F0D8FD3D
:109E000008BD0000004400408011002010B5012072
:109E100001F0D8FF10BD10B50120400301F0D2FFC2
:109E2000102001F0CFFF10BD10B5044800780028C5
:109E300002D003A005F0B2FB10BD000020020020FC
:109E4000444542554720493A2073656E6420657247
:109E5000726F720D0A00000000B5002200F002F8D7
:109E600000BD000030B50E4B05465C7A0120012C88
:109E700015D8587A00241C54587A8000C0184560C0
:109E80005D7A184608302A54587A421C5A7230308B
:109E900008703A2048702F208870CC70002030BDA8
:109EA0007039002000B5002100F002F800BD00006C
:109EB00010B50B4902464B7A0120002B0FD01278C7
:109EC000303AD2B293005B185C68002C07D00020B7
:109ED0008A1858601072487A401E4872002010BDDF
:109EE000703900201A498869C2051A4803D54269A9
:109EF00008231A4342618A69920503D54269042303
:109F00001A4342618A69520503D5426902231A4302
:109F100042618A69120503D5426910231A434261DE
:109F20008A69920403D5426901231A4342618A690E
:109F3000920303D5426920231A4342618A69D203FE
:109F400003D5426940231A43426103488861704740
:109F50000020024038240020002F030070B5054681
:109F600002F00AF806461C4C0AE0681C08D0002DD6
:109F700004D002F001F8801BA84201D9032070BD73
:109F8000A069C043C007F0D0A069800701D50220B6
:109F9000A061A069C043C00517D5A069C043800572
:109FA00013D5A069C04340050FD5A069C043000583
:109FB0000BD5A069C043800407D5A069C0438003C6
:109FC00003D5A069C043C00303D4FFF78BFF012072
:109FD00070BD002070BD00000020024010B5054C8F
:109FE0000120207004F044FB2078400840002070DD
:109FF000207810BD800600200D480078C00701D0F1
:10A0000003207047002907D0012907D0022908D072
:10A01000032909D004207047002070470120400325
:10A0200003E00120400200E008201060F4E7000097
:10A030008006002070B51546084600241A462946B9
:10A0400012F046FA204670BD0448012101700178E3
:10A050004908490001700078704700008006002020
:10A0600070B51546084600241A46294612F038FAFB
:10A07000204670BDF7B501462030447A8CB0002CE4
:10A080004FD0077A002603960196807A3546A04283
:10A0900000D204462046FEF741FC059104901CE0E6
:10A0A000002F00D11E277F1EFFB2380122490A90DF
:10A0B00008180CC830460399FEF762FA0646039169
:10A0C0001D490A984018C368826828460199FEF71E
:10A0D00057FA641E0546E4B20191002CE0D100223B
:10A0E000164B05990498FEF769FC08D10D99039861
:10A0F0000E6048600E9901980D6048600EE003AC58
:10A100000ECC3046FEF756FB0D9A03C22846059B3F
:10A11000049A0199FEF74EFB0E9A03C201200FB07C
:10A12000F0BD00204862014602460D9806C000209E
:10A130000E99024605C1F2E7681300200000F03FC7
:10A14000002120300172417270470000F0B50146D5
:10A1500020310C7A114E2401A719079D0024002DEF
:10A1600005D0466A002E02D00A36AE4202D20C72E8
:10A170004C7202E04E7A1E2E02D24E7A761C4E723D
:10A180000E7A761CF6B20E721E2E00D30C720CC71D
:10A190000599069A06C74562F0BD000068130020C5
:10A1A000F8B5094C0D4621680646084F03C9002240
:10A1B0003B46FEF7FFFA03C66168002203C93B462F
:10A1C000FEF7F8FA03C5F8BD5817002000408F408D
:10A1D00010B5434943480DF097F841494148903143
:10A1E00008300DF091F83E493E48D03110300DF066
:10A1F0008BF83C483C4968300DF086F839483B49BB
:10A2000018300DF081F839493648103120300DF002
:10A210007BF835493348203170300DF075F83349FB
:10A220003048303128300DF06FF830492D4840313A
:10A2300030300DF069F82C492A48A03178300DF003
:10A2400063F82A492748603138300DF05DF8274916
:10A250002448A03140300DF057F824492148D0312E
:10A2600048300DF051F820491E48E03950300DF0CB
:10A270004BF81D491B48A03958300DF045F81A49D4
:10A280001848803960300DF03FF8164811F09EFDF7
:10A290000020174911F0F4FD12481649083011F05A
:10A2A000D6FD104980310846703811F0D0FD1149B3
:10A2B00020390846983811F0CAFD0E490948403146
:10A2C000403011F0C4FD0748483011F07FFD0548CB
:10A2D00051225206084B483011F096FC10BD000088
:10A2E00048150020C0E80108C81800209816002072
:10A2F0000000F03FE0E90108941A6D42F0B51FB488
:10A3000082B0054614461F460C98FEF707FB11F075
:10A31000B7FD464E0022334620463946FEF7E2F9A5
:10A3200004460F460022334628460399FEF7DAF921
:10A3300002460B463E480197009411F067FD3C4AE7
:10A34000083211462031084640380DF0A2FC384A48
:10A35000483211461839084648380DF09AFC344AFC
:10A36000583211467039084660300DF04DFC304AC5
:10A37000583211466039104606F020FB2C4A103244
:10A3800011460839084618380DF083FC284A284839
:10A390001032114612F07CF9254A383211464839FC
:10A3A000084668300DF030FC214A18321146203141
:10A3B000084648380DF06DFC1D4A183211463831F8
:10A3C000104606F0FBFA1A4960310846483807F093
:10A3D0001FFA174A203211464031084628380DF03E
:10A3E00058FC134A283211461839084610300DF02F
:10A3F00050FC0F4A283211462039104606F0DEFA8A
:10A400000B4A483211465839084630300DF041FCAD
:10A410000748483012F00CF9054A3032114628310D
:10A42000084610380DF035FC07B0F0BD00408F40F5
:10A43000D8E8010870B50D4604000CD0207800283B
:10A4400009D029462046FDF72AFF0028204603D0E0
:10A4500003F0FCFEF0E7002070BD10B50EF012F91D
:10A46000002010BDF0B5594E0546308885B0042156
:10A470000843308000F04EFF0028FBD02C212846F6
:10A48000FDF7FCFE0446421B294604A8FDF7A5FE85
:10A490000027684647744E480078002803D004A976
:10A4A0004CA005F07BF82C212046FDF7E7FE441C6C
:10A4B000417868460173477345480078002803D007
:10A4C00003A949A005F06AF82C212046FDF7D6FE25
:10A4D00000282DD02C212046FDF7D0FE441C284614
:10A4E000FDF7D6FE4019001B401C002811DD284650
:10A4F000FDF7CEFE4019001B401C0A2809DA284649
:10A50000FDF7C6FE4019021B21466846521CFDF7A6
:10A5100064FE2846FDF7BCFE4019001B6946401842
:10A5200047702B480078002802D035A005F036F897
:10A53000012238A104A8FDF7D3FE00280ED0012285
:10A5400035A104A8FDF7CCFE002812D0012233A1CA
:10A5500004A8FDF7C5FE002816D02DE030A009F0B4
:10A5600007FD03A9FDF79BFE002825D003A92CA019
:10A5700020E02EA009F0FCFC03A9FDF790FE0028C6
:10A580001AD003A929A015E02BA009F0F1FC03A91A
:10A59000FDF785FE002803D003A927A012F066F975
:10A5A00027A009F0E5FC6946FDF779FE002803D0F5
:10A5B000694623A012F05AF930880421884330807C
:10A5C0000CF084FD002005B0F0BD0000020000206A
:10A5D000A8000020444542554720493A207479702C
:10A5E000653A25730D0A0000444542554720493A13
:10A5F000207374617475733A25730D0A00000000AE
:10A60000444542554720493A2076616C75653A25A4
:10A61000730D0A0032000000330000003500000016
:10A620007761726E6C6F7762617474007761726EBD
:10A63000757267656E7400007761726E6F76657211
:10A6400073706565640000000020704710B50DF060
:10A65000BFFE002010BD000010B5044600201149C7
:10A66000C04348601049552008700F4864212030CD
:10A67000FDF7CCFD2046FDF70BFE0A2809D9204640
:10A68000FDF706FE0246084821462030FDF7A5FDED
:10A6900005E00548532205492030FDF79EFD0020C6
:10A6A00010BD0000A80000208C070020C4F20108A3
:10A6B000F7B5002506462F4668E004F0D9FC0446AD
:10A6C0002B0004F0BFFF05041225394A5D00002C61
:10A6D00055DD1F2C53D20298002851D02246314616
:10A6E0002D48FDF7BEFD2C4835E0002C0DDD1F2C5C
:10A6F0000BD20298002843D027482246314620300A
:10A70000FDF7AFFD2448203025E02348203011E03C
:10A71000002C0DDD1F2C0BD20298002830D01E48D3
:10A72000224631464030FDF79CFD1B48403012E088
:10A7300019484030077023E0002C20DD1F2C1ED26A
:10A74000029800281CD01448224631466030FDF79C
:10A7500088FD11486030075512E0002C0FDD072CF2
:10A760000DD20298002808D00B48224631460838FE
:10A77000FDF777FD0848083807550020FEBD632522
:10A78000304604F065FC6D1C0646EDB2002E01D08B
:10A79000632D92D30120FEBDB8000020F8B5174DFF
:10A7A00006466878002807D02878002802D014A030
:10A7B00004F0F4FE0120F8BD64200DF0B5FD012089
:10A7C000164C6870208804273843208000F0A2FDD2
:10A7D0000028FBD012A009F0CBFB3146FDF75FFD4E
:10A7E000002803D031460EA012F040F82088B8436C
:10A7F00020800CF06BFC00206870F8BDA8000020E1
:10A80000444542554720493A20474E435F534554FB
:10A8100020495320444F4E450D0A000002000020FD
:10A820007761726E73686F636B000000002A04D05A
:10A83000034801880822114301800020704700006E
:10A84000020000200020704710B50EF0A9FF002084
:10A8500010BD0020704710B50FF050FA002010BD59
:10A8600010B50EF0B1FF002010BD10B50DF024FEA4
:10A87000002010BD10B50DF027FE002010BD0020F7
:10A880007047000070B51546040027D004F0F0FBB7
:10A890000D2806D30B2212A12046FDF721FD00282A
:10A8A00003D0204604F0D4FBEEE720460A2205211F
:10A8B0000B300DF0AFFA01460C4A0F3991420DD81A
:10A8C000002D09D00A4BC1179A68DC6842404C4001
:10A8D000224301D0D9609860002070BD012070BD76
:10A8E00054696D6546696C7465723D00010E000027
:10A8F000C0220020002070470020704770B50E4C29
:10A900000646208804252843208000F003FD002807
:10A91000FBD00AA009F02CFB3146FDF7C0FC002853
:10A9200003D0314605A011F0A1FF2088A843208064
:10A930000CF0CCFB002070BD0200002074696D6536
:10A940007A6F6E650000000010B50DF0C5FD0020A7
:10A9500010BD000070B51646040016D0002914D0B2
:10A9600000F0F4FC05460AA1204611F053FE2946EA
:10A9700011F050FE08A111F04DFE314611F04AFED3
:10A98000214603F06FFC002070BD012070BD000067
:10A990002446525245542C002C00000010B5002AC9
:10A9A00001D0012010BD1A68FFF7D4FF10BD0000D0
:10A9B00070B50446002A1BD1002C19D0002917D0ED
:10A9C00000F0C4FC05460BA1204611F023FE2946E9
:10A9D00011F020FE09A111F01DFE094911F01AFE27
:10A9E00008A111F017FE214603F03CFC002070BDC9
:10A9F000012070BD2446525245542C002C0000000A
:10AA0000F4E401082C2C477073476174652054727C
:10AA100061636B65724F6E652C4657547261636B50
:10AA200065722C0070B51E460546002A28D1002DFF
:10AA300026D0002924D000F089FC044611A1284624
:10AA400011F0E8FD214611F0E5FD10A111F0E2FD45
:10AA5000316811F0DFFD0EA111F0DCFD0BA111F04A
:10AA6000D9FD122109F0C4F8002809D0094800785E
:10AA7000002803D0294608A004F090FD002070BDF6
:10AA8000012070BD2446525245542C002C00000079
:10AA90002C200000A8000020444542554720493A98
:10AAA000204747525F506F6C6C506F736974696FC9
:10AAB0006E2025730D0A000000207047FEB51E466B
:10AAC0000446002A7ED1002C7CD00029FCD000F066
:10AAD0003DFC054692A1204611F09CFD294611F04F
:10AAE00099FD91A111F096FD316811F093FD8FA1B0
:10AAF00011F090FD8CA111F08DFD05468CA009F0A0
:10AB000037FA0146284611F085FD87A111F082FD34
:10AB1000054689A009F02CFA0146284611F07AFD75
:10AB200081A111F077FD054685A009F021FA0146C3
:10AB3000284611F06FFD7CA111F06CFD054681A047
:10AB400009F016FA0146284611F064FD76A111F0CD
:10AB500061FD05467DA009F00BFA0146284611F07B
:10AB600059FD71A111F056FD05467AA009F000FAD1
:10AB70000146284611F04EFD6BA111F04BFD054634
:10AB800076A009F0F5F90146284611F043FD66A1CB
:10AB900011F040FD054673A009F0EAF90146284688
:10ABA00011F038FD60A111F035FD05466FA009F0E8
:10ABB000DFF90146284611F02DFD5BA111F02AFDB9
:10ABC0006CA100E0A9E011F025FD57A111F022FDD4
:10ABD000054669A009F0CCF90146284611F01AFD96
:10ABE00068A111F017FD054667A009F0C1F90146FB
:10ABF000284611F00FFD4CA111F00CFD67A111F0DA
:10AC000009FD49A111F006FD64A111F003FD46A163
:10AC100011F000FD054662A009F0AAF90146284698
:10AC200011F0F8FC40A111F0F5FC52A111F0F2FC7A
:10AC30003DA111F0EFFC59A111F0ECFC3AA111F08B
:10AC4000E9FC054659A009F093F90146284611F0A0
:10AC5000E1FC35A111F0DEFC054657A009F088F9AA
:10AC60000146284611F0D6FC2FA111F0D3FC054671
:10AC700053A009F07DF90146284611F0CBFC2AA12A
:10AC800011F0C8FC054650A009F072F901462846AB
:10AC900011F0C0FC24A111F0BDFC05464DA009F047
:10ACA00067F90146284611F0B5FC1FA111F0B2FC6E
:10ACB00005464BA009F05CF90146284611F0AAFCB4
:10ACC00019A111F0A7FC35A111F0A4FC16A111F0F7
:10ACD000A1FC054609F0BCF8024644A1684604F010
:10ACE0006DFC6946284611F095FC0FA111F092FC0D
:10ACF0000546002000900190029009F0CDF8024630
:10AD00003AA1684604F05AFC6946284611F082FCD4
:10AD1000214603F0A7FA0020FEBD0120FEBD000081
:10AD20002446525245542C002C0000002C200000D8
:10AD30006970616464720000706F727400000000DA
:10AD4000736F7300736F733100000000736F7332A1
:10AD500000000000736F73330000000061706E6EBE
:10AD6000616D650061706E757365720061706E7003
:10AD70006173730031000000726570696E746572F2
:10AD800076616C003B0000006163636F666672650C
:10AD900070696E74657276616C00000030000000AE
:10ADA0007761726E73686F636B0000007761726E1B
:10ADB0006C6F7762617474007761726E6F76657222
:10ADC00073706565640000007761726E7572676507
:10ADD0006E7400007761726E636972636C65000067
:10ADE00074696D657A6F6E6500000000256400006F
:10ADF000F8B50646FDF74CFA04460A2819DD2A2163
:10AE00003046FDF73BFA050013D0A91BE01E814236
:10AE10000FD110220221681C0CF0FCFFC7B20020E9
:10AE20002870211F701C0DF026F8B84201D10020B7
:10AE3000F8BD1120F8BD00000748002108E0426875
:10AE4000002A04D0D16042681160426891601030DD
:10AE50008268002AF3D1704704E5010800B595B077
:10AE60001DA16846FDF733FA1FA16846FDF7D9F921
:10AE70001E496846FDF7D5F91BA16846FDF7D1F9D3
:10AE80001BA16846FDF7CDF917A16846FDF7C9F982
:10AE900018496846FDF7C5F913A16846FDF7C1F9E1
:10AEA00013A16846FDF7BDF90FA16846FDF7B9F992
:10AEB00011496846FDF7B5F90BA16846FDF7B1F9F0
:10AEC0000E496846FDF7ADF900231A460C4968465D
:10AED00009F096FB15B000BD41542B51495245472E
:10AEE0004150503D0000000022000000B80000204A
:10AEF0002C000000D8000020F800002098E601088F
:10AF00003075000000B595B023A16846FDF7DFF964
:10AF100025A16846FDF785F924A16846FDF781F96A
:10AF200023496846FDF77DF920A16846FDF779F9C8
:10AF30001DA16846FDF775F91CA16846FDF771F97A
:10AF40001C496846FDF76DF918A16846FDF769F9D7
:10AF500015A16846FDF765F914A16846FDF761F98A
:10AF600015496846FDF75DF910A16846FDF759F9E6
:10AF70000DA16846FDF755F90AA16846FDF751F99C
:10AF80000E496846FDF74DF900231A460C496846FC
:10AF900009F036FB15B000BD41542B5149435347CE
:10AFA000503D312C310000002C0000002200000038
:10AFB000B8000020D8000020F800002098E6010822
:10AFC0003075000010B500231A46024902A009F0AE
:10AFD00017FB10BD60EA000041542B514941435416
:10AFE0000D0A000010B500231A46024902A009F01C
:10AFF00007FB10BD60EA000041542B514941435406
:10B000003D310D0A0000000070B57D2424010A21A5
:10B010000FA009F0EFFA124D28460AF019F90320A3
:10B02000E873254605E028460DF07EF9FF3C913C8B
:10B030000BD000200BF088F80A49FDF7FEF8002835
:10B04000F1D0002C01D0002070BD012070BD0000A7
:10B0500041542B514944454143540D0A000000001E
:10B06000280900201702002010B500231A460249C3
:10B0700002A009F0C5FA10BD409C000041542B51BC
:10B080004944454143543D310D0A000070B57D24CB
:10B0900024010A210FA009F0ADFA124D28460AF04A
:10B0A000D7F80320E873104D05E028460DF03CF971
:10B0B000FF3C913C0BD000200BF046F80B49FDF70C
:10B0C000BCF80028F1D0002C01D0002070BD012078
:10B0D00070BD000041542B5149434C4F53450D0A5C
:10B0E0000000000028090020881300000E02002044
:10B0F00010B500231A46024902A009F081FA10BDDA
:10B100003075000041542B5149434C4F53453D315C
:10B110000D0A0000F0B51FB486B0119D109C10F010
:10B12000F9F806460F462046294610F0F3F8044683
:10B130000D4632463B46FDF7CDFA01910290139938
:10B14000129810F0E7F8039100900999089810F010
:10B15000E1F8039B009AFDF7B7FA0022D243FDF70E
:10B16000A1FB11F0E1F8012300229B070FF01AF96F
:10B17000039100902046294606F010F904460491F8
:10B180003046394606F00AF92246049BFDF7AAFA32
:10B19000039B009AFDF7A6FA04460D460022D2430F
:10B1A00001990298FDF77EFB11F0BEF80123002201
:10B1B0009B070FF0F7F822462B46FDF7E1F911F057
:10B1C000D9F905F0EBFC0122FDF76CFB0122920797
:10B1D000024BFDF787FA0BB0F0BD0000A6545841B2
:10B1E00010B500212030C1724B20C0010BF0D0FE01
:10B1F000044802F06EF908F051F905200DF094F8BA
:10B2000010BD0000101100200020704770B50D46E1
:10B21000044620221A49303010F09EF80020608445
:10B2200009F0EEF80A200DF07FF809F00BF9284636
:10B230000BF0AEFE134802F04CF9134C002805D079
:10B240002078002802D011A004F0A8F90D4802F0DF
:10B25000D7F9002805D02078002802D015A004F0E6
:10B260009DF909490122891D064802F0A1FB002829
:10B2700005D02078002802D017A004F08FF970BD07
:10B280002022002010110020F805002044454255DE
:10B290004720493A20206770732048414C5F554150
:10B2A00052545F4465496E6974206572726F720D05
:10B2B0000A000000444542554720493A2020677063
:10B2C000732048414C5F554152545F496E69742068
:10B2D0006572726F720D0A00444542554720493A23
:10B2E00020206770732048414C5F554152545F5293
:10B2F0006563656976655F4954206572726F720D8A
:10B300000A0000000248012100794840704700000F
:10B31000F80500200348C07A002801D000207047BB
:10B3200001207047E0220020014610B50548806CDE
:10B33000002805D00023044A12F0B0FD012800D0F7
:10B34000002010BD28090020881300000048704725
:10B3500074090020F8B5514C4F4F0A26276409F0B4
:10B3600065FD032503E07D20C0000CF0DDFF2846CD
:10B370006D1EEDB20028F6D14A484949016000250A
:10B380008560C560E12105614902856141600C214C
:10B3900041610BF09BFEE57309F0D6F909F038FF27
:10B3A0000725FF20F5300CF0BFFF7D2109013E4845
:10B3B00009F020F9002868D13B48173009F012F94C
:10B3C000002862D134481C3809F00CF900285CD1FF
:10B3D00036A009F007F93448113009F003F90028C4
:10B3E00017D10AF0B1FE35A103F018FE00903448E1
:10B3F0000078002803D033A0009904F0CFF800981B
:10B40000002805D00D2234A1FCF76AFF00280DD0DA
:10B41000276437A009F0E6F8206C006A80472248CC
:10B420002A3009F0DFF8002804D02EE01A48243032
:10B430002064EEE71848963809F0D4F8002824D1A3
:10B4400019481E3009F0CEF800281ED112488A385B
:10B4500009F0C8F8206C406909F0C4F8002814D13C
:10B460000AF072FE15A103F0D9FD009000280CD05F
:10B47000FCF70EFF172808D2084800994C30FCF75B
:10B4800026FF10F01FF9002604E028466D1EEDB2DD
:10B49000002886D13046F8BD08E8010828090020B8
:10B4A000004C0040A01000209EE6010841542B49AA
:10B4B00050523D3131353230300D0A004F4B0000D3
:10B4C00084010020444542554720493A206974656B
:10B4D0006D3A25730D0A00005265766973696F6EC7
:10B4E0003A204D333546415230314130380000006A
:10B4F000617473303D320D0A00000000F8B5054656
:10B5000004464035287D0026012808D001202875F2
:10B51000206881688907890F01290ED101E0022086
:10B52000F8BD0168C90708D0A06D20210843A065B7
:10B530000126002028753046F8BDA16DFF2201329A
:10B54000914302221143A1658168920711438160F2
:10B5500000F012FD07460EE000F00EFDC01B0A28A9
:10B5600009D9A06D0221884310210843A06500205D
:10B5700028750120F8BD206880680028ECDBA06DEC
:10B5800080088000401CA065D3E70000F8B506469F
:10B590000D464036317D01290DD0012131750168FC
:10B5A0008A68520709D5816D2022114381650020E8
:10B5B00030750120F8BD0220F8BD174B6A68D80528
:10B5C00047109A42154C8A6A2B6812D05B035B0BBA
:10B5D0001A438A622968490305D5A1680143A1601D
:10B5E0000A20FEF747F92868800312D5A06838437F
:10B5F0000EE05B035B0B9A438A622968490302D51C
:10B60000A1688143A1602868800302D5A068B8437F
:10B61000A06000203075F8BD011000000027014037
:10B62000806D70470068006C7047000070B50400C2
:10B6300006D0A06D264600254036002802D006E040
:10B64000012070BDE5653575204600F0D1F8A06D8C
:10B65000C00603D421688868400705D5A06D102175
:10B660000843A0653575EBE7A06DFF2201329043DA
:10B6700002221043A06588688207920F5948012A68
:10B6800002D10A68D2072BD1032362699B079A4231
:10B6900005D05B429A4202D05B009A4209D10A6906
:10B6A000920092080A6121680A6963691A430A6173
:10B6B0000CE00A69920092080A6181680F229204E4
:10B6C0009143816081686269114381602168CA6821
:10B6D00018239A43CA602168CA68A3691A43CA60DA
:10B6E000816801225206914381608168A26C5206F2
:10B6F0001143816020688168C90004D481680122F7
:10B700001207114381602068C168374A1140C16047
:10B71000216A606A022923D000210843A16AA26B32
:10B720004903520011430843216C0843616C8903AB
:10B730000843E16CC90308432168CA681043C86024
:10B74000206B0146FF39C23905D0616B084321687F
:10B75000CA681043C860E06A0121012802D00BE0EA
:10B760000421DAE7A06A002823D0A06D202210432C
:10B77000A065E06D0843E0656068012820681FD07F
:10B780000169C90703D001694908490001612068BE
:10B790004169C908C900416120684169E2691143F2
:10B7A0004161E565A06D80088000401CA065002017
:10B7B00070BD2068C26801231B041A43C260DBE726
:10B7C00002690A4B1A40026120680269A36826696F
:10B7D0001A43E36833431A430261206802690A434B
:10B7E0000261D4E7002701401902FEFF03FCFF7F3E
:10B7F00000B50C4887B0C26A04210A43C262C26A1B
:10B800000A400592426B43151A434263032001909C
:10B810000020009102906946034800F0DFFA07B06B
:10B8200000BD00000010024000080050F8B50446BA
:10B83000C06B254640350E4608280BD02068C068EE
:10B84000C00709D0A06D20210843A06500202875FD
:10B850000120F8BD082700E00C2700F08DFB0090C8
:10B8600011E0701C0FD0002E05D000F085FB009970
:10B87000401AB04207D9A06D04210843A0650020FA
:10B8800028750320F8BD206800683842E9D0A06D13
:10B89000012149020843A0652068C16809058A0F93
:10B8A0000C21002A1AD1A26A002A17D102681207B5
:10B8B00014D5826853070122002B08DB43688B43B1
:10B8C0004360A06D130298431043A06506E0A06D8D
:10B8D00020231843A065E06D1043E065606C0028EC
:10B8E00001D1206801600020F8BD000070B5044659
:10B8F000216800208968490721D425464035297DE3
:10B9000001291CD001212975E16C012904D02046B0
:10B91000FDF7C2FF002811D1A16D0A4A1140FF2294
:10B9200001321143A1650021E165297522681C21BE
:10B93000116021688A6804231A438A6070BD02205E
:10B9400070BD0000FEF1FFFFF8B504469D48016898
:10B950009C4A9C4E9B4F0832206813041C3630379B
:10B96000904201D108221EE0B04201D180221AE0AB
:10B97000B84202D10122D20215E0924A44329042EA
:10B9800002D10122D2030EE08E4A5832904201D1F8
:10B990001A4608E08B4A6C32904202D10122D2054D
:10B9A00001E00122D20625461140203500293BD076
:10B9B0000168090738D5016808229143016081496F
:10B9C00020680831884201D108201EE0B04201D130
:10B9D00080201AE0B84202D10120C00215E0794966
:10B9E0004431884202D10120C0030EE0754958312C
:10B9F000884201D1184608E072496C31884202D170
:10BA00000120C00501E00120C0066E494860A06B1E
:10BA100001210843A0630420687100202871616B34
:10BA2000002901D02046884766480168654A206899
:10BA300008321315904201D104221EE0B04201D118
:10BA400040221AE0B84201D11A4616E05D4A44325B
:10BA5000904202D1012292030FE05A4A583290429A
:10BA600002D10122920408E0564A6C32904202D17F
:10BA70000122920501E001229206114238D00168AC
:10BA8000490735D50168890603D4026804218A4331
:10BA900002604C4920680831884201D104201EE030
:10BAA000B04201D140201AE0B84201D1184616E058
:10BAB00044494431884202D1012080030FE04149CA
:10BAC0005831884202D10120800408E03D496C31A0
:10BAD000884202D10120800501E001208006394919
:10BAE000486005206871216B002901D020468847F5
:10BAF00034480168334A206808325315904201D116
:10BB000002221EE0B04201D120221AE0B84201D147
:10BB10001A4616E02B4A4432904202D101225203C7
:10BB20000FE0284A5832904202D10122520408E024
:10BB3000244A6C32904202D10122520501E00122D6
:10BB4000520611423CD00168890739D5016889063F
:10BB500003D401680222914301601A492068083128
:10BB6000884201D102201EE0B04201D120201AE01B
:10BB7000B84201D1184616E012494431884202D138
:10BB8000012040030FE00F495831884202D10120C3
:10BB9000400408E00B496C31884202D10120400585
:10BBA00001E00120400607494860A06BA063012026
:10BBB000687100202871E16A002901D02046884779
:10BBC000F8BD00000000024031B500F0D5F9044690
:10BBD00000F0D2F90099001B8842F9D338BD00006B
:10BBE00070B5074D04462846FEF7B8F9002805D180
:10BBF0000449486120602846FEF7B0F970BD000096
:10BC000050C300003824002003484168012211433A
:10BC1000416000207047000000200240F8B5124D3E
:10BC20000746287C14460E46012807D001202874B8
:10BC30000E48FEF793F9002802D012E00220F8BD6A
:10BC400000206861022F04D0012F04D0002F04D0FF
:10BC500004E0346002E0348000E034700348FEF712
:10BC60007DF900212974F8BD3824002050C300005C
:10BC700005484168C90705D00449C1600449C1604D
:10BC8000002070470120704700200240EFCDAB89B3
:10BC90000504030201484069704700003824002071
:10BCA000F0B5002362E001229A4014460A405CD0BD
:10BCB00006685F000325BD40AE43AC460660DD0864
:10BCC000AD002D182E6AAE465D07EF0E0F25BD4064
:10BCD000AE4375462E6286686546AE43866045680B
:10BCE000A5434560C4686546AC43C4609D08214CCB
:10BCF000AD002D19AF689C07260F0F24B440A44651
:10BD00003C4005273F07B84201D1002719E01A4FF0
:10BD1000B84201D1012714E0184FB84201D10227DF
:10BD20000FE0174FB84201D103270AE0154FB84280
:10BD300001D1042705E0144FB84201D1052700E0E6
:10BD40000627B740A74210D1AE686446A643AE604E
:10BD50000E4C256895432560656895436560A56828
:10BD60009543A560E5689543E5605B1C0A46DA40AB
:10BD700099D1F0BD000001400004005000080050BF
:10BD8000000C005000100050001C00500004014046
:10BD9000012110B54903884203D0102801D00128A1
:10BDA0000BD1064801680422114301600448008851
:10BDB000400602D406200FF0D5FF10BD00700040F1
:10BDC0000200002010B504494A69024202D04861CD
:10BDD000FFF7DEFF10BD000000040140F8B50023AE
:10BDE0000124A7E027469F403A4070D04D68022DBD
:10BDF00001D0122D14D1DD08AD002D1800952D6A4B
:10BE00005E07AC46F50E0F26AE46AE406546B5431E
:10BE1000AC460E697546AE4065462E43009D2E62C7
:10BE20004D68012D05D0022D03D0112D01D0122D0A
:10BE300016D185680326AC465D00AE46AE40654629
:10BE4000B543AC46CE687546AE4065462E43866027
:10BE500046680D79BE43ED06ED0F9D4035434560C4
:10BE600006685F000325BD40AE46AE430D79B4467B
:10BE7000AE07B60FBE4065462E430660C6687546DF
:10BE8000AE438D68BD403543C5604D68ED0050D56B
:10BE90002B4D6E6B26436E639E082A4DB6007519B6
:10BEA000AC46AD689E07360F0F27B740BD43052748
:10BEB0003F07B84201D100271AE0234FB84201D111
:10BEC000012715E0214FB84202D1022710E030E0EF
:10BED0001F4FB84201D103270AE01E4FB84201D1DB
:10BEE000042705E01C4FB84201D1052700E00627D2
:10BEF000B7402F436546AF60184D2E684F68964394
:10BF0000FF0300D516432E606E684F689643BF034B
:10BF100000D516436E60AE684F689643FF0200D5A9
:10BF20001643AE60EE684F689643BF0200D51643D5
:10BF3000EE605B1C0A681546DD4000D052E7F8BD94
:10BF400000100240000001400004005000080050B2
:10BF5000000C005000100050001C00500004014074
:10BF60000069084000D001207047002A01D081619B
:10BF70007047816270470000014800687047000008
:10BF80001006002070B502462032537D022B27D0C8
:10BF9000537D122B24D0537D222B21D0537D322B65
:10BFA0001ED0537D422B1BD0137D012B18D00123B3
:10BFB000137502245475046825689D432560046840
:10BFC00025681E03B5432560046825680D43256078
:10BFD000006801681943016053750020107570BD39
:10BFE000022070BD70B5040012D00221204620301E
:10BFF00005464175206801684908490001602046EE
:10C0000000F0CCF90021A16369752975084670BD5F
:10C01000012070BD10B501688A69D243D3050122A1
:10C02000002B08DB0B68DB431B0604D4836B134334
:10C0300083631302CB6101688B69DB435B0509D421
:10C040000B68DB431B0605D4836B082423438363FF
:10C05000E301CB6101688B69DB439B0509D40B6865
:10C06000DB431B0605D4836B022423438363230233
:10C07000CB61816B002903D035210A5400F092F87E
:10C0800010BD70B50546006881692C46C943890713
:10C090002034002913DA8169C94309060FD5816963
:10C0A000C94349060BD58169C943890607D581690A
:10C0B000C943C90603D58169C943090709D4016881
:10C0C0007A20884305D1607D322802D1284601F0CC
:10C0D00089FF28688169C94389070FD58169C943E8
:10C0E00009060BD58169C943490607D58169C9434A
:10C0F000890603D58169C943C9060CD40168722039
:10C10000884308D1607D122802D0607D522802D178
:10C11000284601F085FE28688169C943490713D57F
:10C120008169C94309060FD58169C94349060BD501
:10C130008169C943890607D58169C943C90603D501
:10C140008169C94309070AD40068C0434006C00E8C
:10C1500005D1607D422802D1284601F0F9FE286809
:10C160008169C94349070FD58169C94309060BD5C0
:10C170008169C943490607D58169C943890603D541
:10C180008169C943C9060CD401687420884308D169
:10C19000607D222802D0607D622802D1284601F00D
:10C1A000ADFD70BD10B504480078002802D003A092
:10C1B00003F0F4F910BD0000200200204445425570
:10C1C0004720493A20206932632063616C6C6261C8
:10C1D000636B206572726F720D0A0000806B70478E
:10C1E0002030407D7047000070B5040006D0254621
:10C1F0002035687D0026002802D005E0012070BDB2
:10C200002E75204600F0E6F8022068752068016867
:10C210004908490001600F216068090688432168C8
:10C220000861206882680121C9038A438260A0688E
:10C23000002807D0E268012A01D0212189020843A1
:10C2400021688860E068022802D121688002486085
:10C25000206841680C4A11434160616920690843C4
:10C26000A169090208432168C860216AE06908439E
:10C27000216808602068026801210A430260A66301
:10C280006975002070BD0000008000027047704793
:10C29000F8B5054604462035687D012838D1002AC6
:10C2A00018D0002B16D020688069C04300042FD519
:10C2B000287D01282CD001202875222068750026B1
:10C2C000A6636262638509208002FF2B04D9FF22E6
:10C2D000228504E00120F8BD2385FF2B08D1228DA3
:10C2E000638D9A4204D2FF2201231B06009004E0D2
:10C2F0000090208D0123C2B25B06204601F0C2FEF1
:10C300002E7520680168F422114301600020F8BDF9
:10C310000220F8BDF8B5054604462035687D0128A1
:10C3200038D1002A18D0002B16D020688069C0436D
:10C3300000042FD5287D01282CD00120287512203B
:10C3400068750026A6636262638501204003FF2BA7
:10C3500004D9FF22228504E00120F8BD2385FF2BAC
:10C3600008D1228D638D9A4204D2FF2201231B063D
:10C37000009004E00090208D0123C2B25B062046AD
:10C3800001F080FE2E7520680168F22211430160E1
:10C390000020F8BD0220F8BD7047704710B50C486A
:10C3A000826A012149050A438262826A8A43826263
:10C3B0000524411524072046FFF772FC012189025C
:10C3C0002046FFF76DFC172000F06EF810BD00004E
:10C3D0000010024030B58FB008200590400209904F
:10C3E00005A800F0B9F81948C26A01210A43C262DF
:10C3F000C26A0A400D92C26A0A43C262C26A0A4015
:10C400000D92826B4B051A438263401500901220F7
:10C41000019003200525029106242D07039069460B
:10C4200004942846FFF7DAFC012080020090694658
:10C4300004942846FFF7D2FC02220021172000F0C6
:10C4400047F8172000F03AF80FB030BD0010024056
:10C450007047704702480168491C0160704700003E
:10C460001006002010B506480168022291430160C1
:10C47000032000F007F800F016F8002010BD0000BF
:10C480000020024010B5044600F0BCF97D21C9002F
:10C49000FBF766FE01F004F800222146501E00F072
:10C4A00017F8002010BD7047C106C90E0120884052
:10C4B000014908607047000080E100E0C106C90E34
:10C4C00001208840014908607047000000E100E059
:10C4D00010B501F099FE10BDBFF34F8F044903481A
:10C4E000C860BFF34F8F00BFFDE700000400FA05EE
:10C4F00000ED00E0094B1A689208920002431A60AE
:10C500000748026904239A430261012903D040BF0E
:10C5100020BF20BF704730BF704700000070004050
:10C5200000ED00E00A4B1A689208920002431A607C
:10C5300008480369042213430361012906D040BF60
:10C5400020BF20BF016991430161704730BFF9E707
:10C550000070004000ED00E0F8B504460078534D4F
:10C56000800660D5514E403E31680327A0693F05E3
:10C57000024639403A40914208D08003800F032898
:10C5800004D13068800301D50120F8BDB06B0121D2
:10C5900009070843B06346480168821511430160EA
:10C5A000FFF7EAFC009005E0FFF7E6FC0099401A6F
:10C5B000642823D83E480068C005F5D528690321C2
:10C5C0000904A26908400A4090422CD028692A69CF
:10C5D00088430121C9040A432A612A698A432A61DE
:10C5E000286180050FD5FFF7C7FC009008E0FFF732
:10C5F000C3FC0099411A2F48814201D90320F8BD9C
:10C6000028698005F3D5A0698103890F032946D0E5
:10C610003068B8433060296903200004A26981436F
:10C620000240114329612078C00705D0E86861689D
:10C63000800880000843E8602078800705D5E86816
:10C640000C218843A1680843E8602078400706D59C
:10C65000E868032189028843E1680843E86020789C
:10C66000000706D5E86803210903884321690843C8
:10C67000E8602088C00506D5E868032109048843DE
:10C6800061690843E8602078000606D5E868032160
:10C6900089048843E1690843E8600020F8BD3168F7
:10C6A0003840B94301433160B5E700004010024013
:10C6B0000070004088130000F8B505464E480E464D
:10C6C0000068C007C00FB0420AD24B480168490851
:10C6D0004900314301600068C007C00FB0426FD10C
:10C6E0002878464C800705D5E068F0218843A96882
:10C6F0000843E0602878C00752D06868022817D045
:10C70000002818D02168032818D04907002957DAD3
:10C71000E168890889000143E160FFF72DFC696841
:10C720000746022912D003291CD0002926D032E066
:10C7300021688903EAE721688905E7E78901E5E7D8
:10C74000FFF71AFCC11B2E48814222D8E06800077F
:10C75000800F0228F4D123E0FFF70EFCC11B28480C
:10C76000814216D8E0680007800F0328F4D117E053
:10C77000FFF702FCC11B224881420AD8E06800078B
:10C78000800FF5D10CE0FFF7F7FBC11B1C4881427D
:10C7900001D90320F8BDE0680007800F0128F2D11D
:10C7A00015480168C907C90FB1420BD30168490890
:10C7B0004900314301600068C007C00FB04201D09A
:10C7C0000120F8BD2878400706D5E0680721090256
:10C7D0008843E9680843E0602878000707D5E068E7
:10C7E0000721C90288432969C9000843E060032082
:10C7F000FFF748FE0020F8BD002002400010024074
:10C800008813000010B500F031F80549C968054AE1
:10C810000906090F515CC8400349086010BD0000BB
:10C820000010024050EB01081406002010B5FFF77D
:10C83000E9FF0449C968044A4905490F515CC840E9
:10C8400010BD00000010024050EB010810B5FFF7CA
:10C85000D9FF0449C968044A8904490F515CC8409A
:10C8600010BD00000010024050EB010810B51A4A3C
:10C870005068D3680004410F0C200340174805D0CE
:10C88000042B06D0082B0BD00C2B0BD0491C884056
:10C8900010BD1068C00601D5114810BD114810BD6B
:10C8A000114810BDD068D1688002104B000F185C91
:10C8B0000902D368890F01242404491C234204D1AE
:10C8C0001268D20603D5064A02E0074A00E0054A8C
:10C8D0005043FBF745FC10BD0010024000800000F3
:10C8E00000093D000024F400001BB70070EB0108B4
:10C8F000FEB504460078E64DC0074DD0E868000755
:10C90000800F022807D0E8680007800F032809D1AC
:10C91000E868C00306D5286880033DD56068002814
:10C9200075D039E0012062680004824203D1296891
:10C930000143296014E0052301211B0489049A4264
:10C940002A6805D182432A602A680A432A60EEE7F2
:10C9500082432A602A68024000922868884328603F
:10C96000606800280CD0FFF707FB064604E0FFF7DD
:10C9700003FB801B64287DD828688003F7D50BE073
:10C98000FFF7FAFA064604E0FFF7F6FA801B642880
:10C99000F1D828688003F7D42078800740D5E8686C
:10C9A0001F270007800F3F02012807D0E868000713
:10C9B000800F032809D1E868C00306D4286840071F
:10C9C00017D5E068012822D113E0E1680920002989
:10C9D00016D02A6882430A432A60FFF7CDFA06463A
:10C9E00004E0FFF7C9FA801B0228C4D82868400772
:10C9F000F7D568682169B8430902084368600FE009
:10CA0000296881432960FFF7B7FA064605E09DE0F3
:10CA1000FFF7B2FA801B0228ADD828684007F7D488
:10CA200020789C4FC0064BD5E8680007800F09D0DE
:10CA3000A0690028286835D038432860FFF79CFAA1
:10CA400006461DE02868800502D5A06900287DD033
:10CA50006868072149038843216A08436860686859
:10CA6000217F0002000A0906084368600320FFF7DF
:10CA700009FD25E092E0FFF77FFA801B022887D8A6
:10CA800028688005F7D56868072149038843216A2B
:10CA9000084368606868217F0002000A09060843AD
:10CAA00068600DE0B8432860FFF766FA064604E0C8
:10CAB000FFF762FA801B022870D828688005F7D437
:10CAC0002078754E000724D560690028306910D0A1
:10CAD000012108433061FFF74FFA009005E0FFF7AE
:10CAE0004BFA0099401A022858D830698007F6D5C9
:10CAF0000FE0400840003061FFF73EFA009005E08B
:10CB0000FFF73AFA0099401A022847D8306980079F
:10CB1000F6D42078400771D5002002900190A86BD0
:10CB2000C00006D4A86B012109070843A8630120AF
:10CB300002905A480068C00515D458480168394326
:10CB4000016001200190FFF717FA00E09EE00090DD
:10CB500005E0FFF711FA0099401A64281ED84F48E3
:10CB60000068C005F5D5A068B84202D130693843E5
:10CB70000CE001218902002803D005221202904214
:10CB80000DD03069B8433061306988433061A068A6
:10CB9000002816D0FFF7F0F900900EE06FE0306942
:10CBA000B8433061306908433061DFE7FFF7E4F9EB
:10CBB0000099411A3A48814261D830698005F5D51B
:10CBC0000DE0FFF7D9F9009006E0FFF7D5F90099DD
:10CBD000411A3348814252D830698005F5D4019812
:10CBE000002803D02D480168B9430160029800284D
:10CBF00004D0A96B012000078143A963606A002863
:10CC000042D0E9680907890F03293FD0012636067B
:10CC10000228286805D0B0432860FFF7ADF9044624
:10CC20002FE0B0432860FFF7A7F9074604E0FFF7BD
:10CC3000A3F9C01B022822D828688001F7D4216BF1
:10CC4000E06AEA680843A16AFD231B049A43114382
:10CC50000843E860286830432860FFF78DF90446F0
:10CC600004E0FFF789F9001B022808D82868800132
:10CC7000F7D509E0FFF780F9001B022801D903204E
:10CC8000FEBD28688001F5D40020FEBD0120FEBD58
:10CC900000100240000100004010024000700040FF
:10CCA0008813000070B50A4801680422114301602E
:10CCB0008415084D21462846FFF752F9002805D073
:10CCC000002221462846FFF750F970BD0122F8E7FF
:10CCD000007000400004005010B504460068C068B1
:10CCE000400509D52046FFF7DDFF2068C168802296
:10CCF0001140054A8918C1600120044900054861B6
:10CD000001202034607010BD7FFBFFFF0004014054
:10CD1000F8B5044602202646203670702168CA20E5
:10CD20004862216853204862204601F0A7FBFF2794
:10CD3000002842D12168086021682748486020689F
:10CD400081684907490F8160FFF716F905460BE036
:10CD5000FFF712F9411B7D20C000814204D92068F1
:10CD6000476203207070F8BD2068C0684007EFD5A7
:10CD7000206881680025856021681848486121681D
:10CD8000174808612068C561206805622068C5628F
:10CD90002068C56320684564206885642068C56094
:10CDA000206805642068C5642068806880060AD40D
:10CDB000204600F0CFF9002805D020684762042003
:10CDC00070700120F8BD20684762204600F0ACF882
:10CDD000757035700020F8BD01210000FFFF0000D4
:10CDE000FF007F0010B500680B464068C021C943B2
:10CDF00001400002000ECC04D870E40E5C708C067A
:10CE0000A40E0904490F9C701970002A0AD101F080
:10CE1000EDFAD870587801F0E9FA5870987801F076
:10CE2000E5FA9870002010BD30B50B460168896A9C
:10CE30005960016809694904490C996000680468EF
:10CE40000F482146014088024D04800E18706D0E77
:10CE500049065D70490E99706102490E40242140D7
:10CE6000D970002A0AD101F0C1FA1870587801F07F
:10CE7000BDFA5870987801F0B9FA9870002030BD6A
:10CE80007F7F7F0070B5040005D025462035687887
:10CE9000002802D006E0012070BD00202870204646
:10CEA00000F04CF8022068702168CA2048622168AE
:10CEB00053204862204601F0E1FAFF210028206853
:10CEC00003D0416204206870E5E78268154B1A4080
:10CED0008260226890686368A669184323693343B7
:10CEE000184390602268E068106120680269238915
:10CEF0001B041A4302612068C26880239A43C260FF
:10CF00002068C26C92089200C264E26960690243C0
:10CF10002068C36C1A43C2642068416201206870B3
:10CF2000002070BDBFFF8FFF0348016901229204FA
:10CF300091430161704700004010024000B595B078
:10CF400004200090002009900590FF2001300290FD
:10CF50006846FFF7CDFC002801D0FCF765FF2020D4
:10CF60000D90C00213900DA8FFF7F6FA002801D02B
:10CF7000FCF75AFF0748016901229204114301613D
:10CF800000220F210220FFF7A3FA0220FFF796FAF2
:10CF900015B000BD40100240F8B5054604462035E6
:10CFA00028780B46012815D00120287002206870CF
:10CFB0005878002A10D001F019FA987801F016FA82
:10CFC000D8789E78000406435878197800024903FF
:10CFD000084316E00220F8BDC10603D5EF21084042
:10CFE0000A305870D87801F009FA0604587801F030
:10CFF00005FA00020643987801F000FA0643187813
:10D00000400306432168CA204862216853204862D1
:10D01000204601F033FA0027002811D110480640BD
:10D02000206846602068C16880229143C160206802
:10D03000806880060CD4204600F08CF8002807D0C9
:10D040002168FF204862042068702F700120F8BD1D
:10D050002168FF204862012068702F700020F8BD11
:10D060003FFFFF00F8B506460446203630780D46EF
:10D0700001280ED001203070022070702068002737
:10D080008068002A07D040061AD5287801F0AEF94A
:10D0900017E00220F8BD400600D4EF70287801F0B8
:10D0A000ADF90204687801F0A9F900020243A878FA
:10D0B00001F0A4F90243E8780004024300920BE077
:10D0C000EF702978A878090408436978EA7809029A
:10D0D00012041143084300902168CA204862216865
:10D0E00053204862204601F0C9F900281FD1184991
:10D0F0000098084021680860206881680122920435
:10D10000914381602969E868084321688A6810436F
:10D1100088602068C16880229143C160206880686F
:10D1200080060CD4204600F015F8002807D02168AE
:10D13000FF2048620420707037700120F8BD21681C
:10D14000FF2048620120707037700020F8BD000099
:10D150007F7F7F0070B504460068C168A0229143BC
:10D16000C160FEF709FF7D260546F60006E0FEF7E2
:10D1700003FF401BB04201D9032070BD2068C06886
:10D180008006F4D5002070BD70B5040012D00221D5
:10D190002046403005464174206801684022914392
:10D1A0000160204600F0B2F80021616569742974BD
:10D1B000084670BD012070BD0149022048607047DB
:10D1C0002002002038B501684A68D243520609D4CB
:10D1D0008A68D243D20705D18A68D243520601D564
:10D1E000816C08E04A68D243120606D48A68D243AA
:10D1F000920702D4C16C884738BD4A68D243920670
:10D20000FAD48A68D243D20606D4426D02231A4366
:10D2100042651022D2438A6001688A680123D243A2
:10D220009206002A08DB426D1A4342658A68009222
:10D230000A684024A2430A6001688A68D2435406FF
:10D2400002464032002C09DB547C122C06D0446D7F
:10D2500004252C434465CC688C6800948C68E443B6
:10D26000E40505D4446D08252C4344658C6800947E
:10D27000446D002CC0D04C68E025AC434C60537426
:10D28000FFF79AFF38BD70B5040006D0254640353B
:10D29000687C0026002802D005E0012070BD2E74B5
:10D2A000204600F059F80220687420680168402286
:10D2B00091430160A168606822690843E1681143F5
:10D2C0000843616901220843A169520211400843E1
:10D2D000E1690843216A0843A16A0843216808609C
:10D2E000A0690421000C0840616A08432168486075
:10D2F0002168E06A08612068C16992009143C161B8
:10D30000666501206874002070BD000070B500687B
:10D310000E49884218D10E48816A0124A403214392
:10D320008162816AA14381620A4D61102846FEF73D
:10D33000B7FC21462846FEF7B3FC61002846FEF7FD
:10D34000AFFC1A20FFF7B0F870BD000000380040B5
:10D35000001002400004005070B500681F4986B0FC
:10D36000884239D11E48C26A02210A43C262C26A97
:10D370000A400592C26A0A43C262C26A0A40059222
:10D38000C26A0A43C262C26A0A400592826B4D03B6
:10D390002A438263080300900320124E01910291F8
:10D3A00000240390694604943046FEF717FD694651
:10D3B000304600950494FEF711FD68000090694620
:10D3C00004943046FEF70AFD002201211A20FFF7DF
:10D3D0007FF81A20FFF772F806B070BD00380040E1
:10D3E00000100240000400507047000070B5044671
:10D3F0004034657C012D09D04568EE1FFD3E40D1CB
:10D400008568002D3DD1657C222D3AD1002936D08A
:10D41000002A34D0002B32D0257C012D31D00125BB
:10D420002574657C222D01D0322565740025456563
:10D43000154EC66401638386C38614498263816482
:10D440008387C3870121826A49038A4207D1026820
:10D4500013688B431360026813680B431360016801
:10D460004A68E0231A434A60257400680168490647
:10D4700003D40168402211430160002070BD0120E7
:10D4800070BD022070BD0000B9E90008EDE500089C
:10D4900070470000014901204860704720020020C9
:10D4A000094910B5401E884201D9012010BD074C22
:10D4B00060610321081F00F0A7FE0020A061072083
:10D4C0002061002010BD0000FFFFFF0000E000E031
:10D4D000704770B5040018D002212046603006461F
:10D4E00041722068016849084900016020680025F0
:10D4F00005602068456020688560204600F0B4F82B
:10D50000E56675723572002070BD012070BD7047F0
:10D5100070B504460068C1692546C9070126603513
:10D52000002907D00168C90504D50662E06E3043C2
:10D53000E0666E722068C16904228B070221002B0D
:10D5400007DA8368DB0704D00162E06E1043E0660F
:10D550006E722068C3695B0707D58368DB0704D058
:10D560000262E06E0843E0666E722068C1690907D6
:10D5700008D58168C90705D008210162E06E08431B
:10D58000E0666E72E06E002802D02046FFF7BFFF13
:10D590002068C169C90209D58168490206D50121FF
:10D5A000090501626E722046FFF792FF2068C1698B
:10D5B000890605D50068800602D5204601F0F8FDF1
:10D5C0002068C169090605D50068000602D5204615
:10D5D00001F042FF2168C86940060DD50868400681
:10D5E0000AD50A68204640239A430A60697A32299C
:10D5F00003D06E7200F0EBFA70BD22216972F9E778
:10D6000070B5040005D025466035687A002802D040
:10D6100006E0012070BD00202872204600F08AF844
:10D6200002206872206801684908490001602046AC
:10D6300001F008FE606A002802D0204601F029FDB2
:10D64000206841680922D2029143416020688168C4
:10D650002A22914381602068016801221143016000
:10D66000204601F07BFD70BD70B500682B4A052493
:10D670002B492407904211D18A6A012040040243B9
:10D680008A628A6A82438A6204212046FEF708FB86
:10D6900008212046FEF704FB1C2011E0214A224D00
:10D6A000904210D18A6AA80202438A628A6A82433F
:10D6B0008A6208212846FEF7F3FA1021284613E073
:10D6C000FEF7F2FE70BD194A904211D18A6A01201C
:10D6D000C00402438A628A6A82438A620121204628
:10D6E000FEF7DEFA02212046FEF7DAFA0E20E7E71F
:10D6F0000F4A9042E6D18A6A0120800402438A627E
:10D700008A6A82438A6201122846FEF7C9FA012119
:10D71000C9022846FEF7C4FA1D20D1E700440040A4
:10D72000001002400050004000040050004C004037
:10D7300000480040F0B55B4E03685B4801210425BA
:10D740000224032287B0B34227D1C36A0B43C362CA
:10D75000C36A0B400593C36A0B43C362C36A0B40A1
:10D760000593836B4E0433438363019402AB0095AE
:10D7700026C30524240769462046FEF72FFB082010
:10D780000090694604952046FEF728FB03220021FD
:10D790001C20FEF79DFE1C2027E0444F0626BB42BE
:10D7A00027D1C36A2343C362C36A23400593C36A74
:10D7B0002343C362C36A23400593836B01252D0570
:10D7C0002B43836308200194009002AB46C3384C7E
:10D7D00069462046FEF702FB102000906946049639
:10D7E0002046FEF7FBFA04222AE0FEF767FE07B0A8
:10D7F000F0BD304FBB4229D1C36A0B43C362C36A39
:10D80000DB07DB0F0593C36A0B43C362C36ADB0705
:10D81000DB0F0593836B0125ED042B43836302AB80
:10D820000194009146C305252D0769462846FEF759
:10D83000D5FA6946284604960094FEF7CFFA0522E9
:10D8400000210E20FEF744FE0E20CEE71A4EB34212
:10D85000CDD1C36A2343C362C36A23400593C36A1D
:10D860002343C362C36A23400593836B0126B60436
:10D870003343836330120194009002AB26C30C4CF7
:10D8800069462046FEF7AAFAF01100906946049511
:10D890002046FEF7A3FA012200211D20FEF718FE04
:10D8A0001D20A2E70044004000100240005000404C
:10D8B00000040050004C004000480040FFB5064600
:10D8C00004466036707A81B00F46012802D0707A23
:10D8D000122868D1002F1BD0002A19D0307A0128D5
:10D8E00061D0012030720020E066707A122812D0D8
:10D8F00022207072254640352A836A830122A0685F
:10D900001203FF2190420AD12069002805D026E0A9
:10D91000012005B0F0BD3220EBE724480AE07F2269
:10D92000002817D001210907884204D12069002866
:10D9300013D03F20A883A88B0090688B0022401E44
:10D94000688320212046049B01F0BDFD002808D0FB
:10D950000320DEE72069002801D0AA83EBE7A98332
:10D96000E9E70120A1680003814202D12069002873
:10D9700010D02068416A0098014039707F1C688B84
:10D980000028DAD1707A32280BD001207072002082
:10D990003072BEE72068406A009908403880BF1C9A
:10D9A000EDE71220F2E70220B3E70000FF010000DC
:10D9B00030B5034660335C7A012C02D05C7A122CBD
:10D9C00044D1002914D0002A12D01C7A012C3DD059
:10D9D00001241C724165014640310A834A832503B4
:10D9E0008268FF24AA4207D10269002A02D029E0F6
:10D9F000012030BD164A0AE07F25002A1DD00124EF
:10DA00002407A24204D10269002A19D03F228A8346
:10DA10000021C1665A7A122A16D022225A7202684E
:10DA20001468FF2501352C431460197200680168E1
:10DA3000202211430160002030BD0269002A01D07C
:10DA40008D83E5E78C83E3E73222E7E7022030BDF0
:10DA5000FF01000010B50446012210492046FFF7DF
:10DA6000A7FF0028F8D10D480D4A2168401E9142B9
:10DA700003D1407806F08AFE10BD0A4A914203D1D4
:10DA8000407806F0D5FB10BD074A914202D0074A04
:10DA90009142F8D140780EF027FA10BD2102002003
:10DAA000004C00400050004000440040004800404E
:10DAB000FFB5054604466035687A81B00E460128F8
:10DAC00002D0687A22284ED1002E1DD0002A1BD009
:10DAD000287A012847D0012028720020E066687A61
:10DAE000222814D012206872274640373A827A8260
:10DAF000788A0022401E788280212046049B01F013
:10DB0000E2FC00281CD104E0012005B0F0BD322069
:10DB1000E9E70120A1680003814202D120690028C1
:10DB200010D0216830788862761C788A0028DFD18E
:10DB3000002240212046049B01F0C5FC002808D0AB
:10DB40000320E2E730882168C005C00D8862B61C5A
:10DB5000EBE7687A322804D001206872002028722E
:10DB6000D3E72220F9E70220CFE730B50346603340
:10DB70005C7A012C02D05C7A222C26D1002920D09C
:10DB8000002A1ED01C7A012C1FD001241C72C164F3
:10DB9000014640310A824A820021C1665A7A222A0D
:10DBA00011D012225A7202681468FF2501352C43E5
:10DBB000146019720068016880221143016000201E
:10DBC00030BD012030BD3222ECE7022030BD70476D
:10DBD00010B50446007C01281BD0012020740220CF
:10DBE0006074204600F042F820680168090A0902C2
:10DBF0007F31016020684168890A89027F31416074
:10DC000020688168490849008160002060742074A0
:10DC100010BD022010BD70B5040004D0607C00254A
:10DC2000002802D005E0012070BD2574204600F0D8
:10DC300029F8207C012817D001212174022060746A
:10DC4000A26860681043226853685B0A5B0218434D
:10DC5000506020680268E368D209D2011A4302606A
:10DC600061742574002070BD022070BD0448826A72
:10DC7000C1140A438262826A8A438262704700004A
:10DC8000001002400248816BC21411438163704747
:10DC90000010024000680268D209D2010A43026003
:10DCA0000020704710B5017C01290DD001210174BD
:10DCB0000222427402681368802423431360417473
:10DCC00000210174084610BD022010BDFEE710B50A
:10DCD000FEF7C8FB00F098FFFCF77AF800F0E4F9D3
:10DCE00009F06AF9012010BD10B50348FEF7C9F923
:10DCF0000148FEF78FF910BDB0080020F8B50546C1
:10DD000004462035287D012814D00121297520687A
:10DD100082690026D2435207002A0DDB416A606AFD
:10DD2000421C62620170208D401E2085608D401E65
:10DD3000608570E00220F8BD8269D243130640225C
:10DD4000002B21DB218D00291AD1618D002917D0EC
:10DD500040688105608D890DFF28009606D99304DF
:10DD6000FF22204600F08EF9FF2007E0608D01239E
:10DD7000C2B25B06204600F085F9608D20854AE03E
:10DD80002E75A06B104342E08369DB435B0608D429
:10DD9000618D0029F4D14168012292031143416051
:10DDA00039E082690423D24397061022002F26DB34
:10DDB0008769FF43FF0603D4C261A06B1843A063C9
:10DDC00020680268F4239A43026022682020D06110
:10DDD00020684268114B1A404260A06B002802D0B4
:10DDE00069752E7514E0687D697562282E75204668
:10DDF00002D0FEF74BFA0EE0FEF7CEFA0BE0816997
:10DE0000C943C90607D4C2612E75A06B1843A0632D
:10DE10002046FEF7C7F92E750020F8BD00E800FE89
:10DE2000F8B5054604462035287D012814D0012187
:10DE30002975206882690026D2439207002A0DDBEB
:10DE4000616A4A1C626209788162208D401E2085C9
:10DE5000608D401E608576E00220F8BD8269D24365
:10DE600013064022002B21DB218D00291AD1618D60
:10DE7000002917D040688105608D890DFF28009624
:10DE800006D99304FF22204600F0FCF8FF2007E0AB
:10DE9000608D0123C2B25B06204600F0F3F8608D6E
:10DEA000208550E02E75A06B104348E08369DB436A
:10DEB0005B0608D4618D0029F4D1416801229203E8
:10DEC000114341603FE082690423D2439706102248
:10DED000002F2CDB8769FF43FF0603D4C261A06BD0
:10DEE0001843A06320680268F2239A430260226804
:10DEF0002020D06120684268144B1A40426020689C
:10DF00008269D243D20700D0C161A06B002802D041
:10DF100069752E7514E0687D697552282E75204646
:10DF200002D0FEF7B4F90EE0FEF737FA0BE0816994
:10DF3000C943C90607D4C2612E75A06B1843A063FC
:10DF40002046FEF72FF92E750020F8BD00E800FEF0
:10DF500070B504462034217D012912D0012222759A
:10DF600001688B690025DB43DB06002B0BDB1022ED
:10DF7000CA612575816B042211438163FEF712F992
:10DF80002DE0022070BD8B69DB431B0702D4082003
:10DF9000C86124E08B69DB435B070BD44A6A416AA2
:10DFA0004B1C43620A70018D491E0185418D491E3B
:10DFB000418514E08B69DB439B0610D40B68FE2679
:10DFC000B3430B6001684B680126F60333434B6093
:10DFD00003682021D96162752575FEF739FA257528
:10DFE000002070BD70B504462034217D012915D074
:10DFF0000122227501688B690025DB43DB06002BBB
:10E0000010DB438D1022002BCA6109D0816B0422E2
:10E01000114381632575FEF7C5F82FE0022070BD1E
:10E0200025752BE08B69DB431B0702D40820C861F0
:10E0300024E08B69DB439B0611D40B68FE26B343B7
:10E040000B6001684B680126F60333434B6003689D
:10E050002021D96162752575FEF7FBF90EE08A690A
:10E06000D24392070AD4428D002A07D0426A531C39
:10E07000436212788A62418D491E418525750020D0
:10E0800070BD000070B50568049C68688905890D3D
:10E090001204044E11431943304021430143696087
:10E0A00070BD0000009800FC38B520481E49016092
:10E0B00000248460C460E1210461490284614160FC
:10E0C0000C214161FFF705FA194D002805D0287889
:10E0D000002802D017A001F061FA1448FFF790FA67
:10E0E000002805D02878002802D01CA001F056FA9C
:10E0F0002348C26A04210A43C262C06A8D020840F2
:10E100000090204801210560846041600321C160C6
:10E110001D4C01462046FDF761FE0122294620469E
:10E12000FDF723FF38BD000000480040F01100203B
:10E1300004000020444542554720493A20206C7095
:10E140005561727448616E646C65204465496E69FE
:10E1500074206572726F720D0A00000044454255CA
:10E160004720493A20206C705561727448616E6492
:10E170006C6520496E6974206572726F720D0A00B9
:10E18000001002408C06002000080050FFB500245B
:10E1900081B01D4616460F462046FAF737FC00D2DE
:10E1A0003C4631462046FAF731FC00D23446294637
:10E1B0002046FAF72BFC00D22C460198046005B0EB
:10E1C000F0BD70478307FF22DB0E9A408907090ED6
:10E1D000994000280BDA0007000F08388308084828
:10E1E0009B001818C36993430B43C36170478308AE
:10E1F00004489B001B181868904308431860704738
:10E2000000ED00E000E400E08307FF22DB0E9A400F
:10E210008907090E994000280BDA0007000F08381B
:10E22000830808489B001818C36993430B43C361D4
:10E230007047830804489B001B18186890430843E4
:10E240001860704700ED00E000E400E0002806D010
:10E250000178401C0029FBD10178002900D1002061
:10E260007047000070B50C462A210170451C291B1F
:10E27000601C891E09F0FFFD01460222284609F0B4
:10E2800049F902A10EF0C6F9001B70BD0D0A00008D
:10E2900070B50E4C208840218843208000200C4D12
:10E2A000C043286205F03EFF08F0F2FF0EF08EF941
:10E2B000FFF70DFD2878002802D006A001F06EF9C6
:10E2C000208880210843208070BD000002000020CB
:10E2D00004000020444542554720493A2077616BAD
:10E2E0006575700D0A000000704710B500210160CF
:10E2F00001210020FEF7FEF810BD0000F3B5002458
:10E3000081B0074626465AE000F0B2FE0546002CD2
:10E3100004D0012C2BD0022C35D04AE0062D1DD183
:10E320003846FCF765FD002818D12A4626A1384654
:10E33000F9F7D6FF00280ED02A4625A13846F9F76E
:10E34000CFFF002809D02A4623A13846F9F7C8FF95
:10E35000002802D002E0224E00E0224E0121384681
:10E3600007F088FF2049002E88702AD021E0002D78
:10E3700027D0FCF7EBFF01462A463846F9F7B0FFF5
:10E3800000281ED115E0002D1BD00246314638462C
:10E3900005F0B4FE040014D0384600F059FE00F039
:10E3A00057FEA3682146029A9847002809D12046C3
:10E3B000FEBD384600F04CFE641C0746E4B2002F58
:10E3C000A2D10020FEBD0000244652524554000058
:10E3D000244652434D440000244652534553000006
:10E3E00064E6010804E50108A800002001090A22EA
:10E3F00000075143000F4018C0B27047002102E0EF
:10E400000A38C0B2491C0A28FAD20907090E084383
:10E410007047000070B50E490E48002412C07F21DD
:10E42000016084600461FF21446141600838FEF7A7
:10E4300029FD094D002807D02878002802D007A020
:10E4400001F0ACF8AC7670BD0120A87670BD00007C
:10E4500000280040E01200200400002044454255FE
:10E460004720493A202048414C5F5254435F496E4F
:10E470006974206572726F720D0A000070B50446EF
:10E480000068C168490613D40021C943C160FDF783
:10E4900073FD7D260546F60006E0FDF76DFD401B89
:10E4A000B04201D9032070BD2068C0684006F4D591
:10E4B000002070BD0148807E7047000004000020ED
:10E4C00010B50248FEF708FC10BD0000E012002065
:10E4D0001FB586B068460699C175079941750899B8
:10E4E0008175002205A91948FEF756FD184C002831
:10E4F00004D0207800281ED016A01AE008A80179C0
:10E500006846017008A841796846417008A8817979
:10E51000684681700021C17003910A4604916946E2
:10E520000A48FEF79FFD0028207807D0002802D077
:10E5300011A001F033F8FF200AB010BD002802D06E
:10E5400016A001F02BF80120F6E70000E0120020F1
:10E5500004000020444542554720493A20204841C4
:10E560004C5F5254435F5365744461746520657217
:10E57000726F720D0A000000444542554720493A27
:10E58000202048414C5F5254435F53657454696D79
:10E5900065206572726F720D0A0000004445425595
:10E5A0004720493A202048414C5F5254435F53650D
:10E5B0007444617465206F6B0D0A000000B587B06C
:10E5C000002269460448FEF72FFC002205A90248F4
:10E5D000FEF708FC07B000BDE012002010B50248AD
:10E5E000FEF7F0FD10BD00008812002010B5026893
:10E5F000C368816BD268002B0CD00A80816B891CA8
:10E600008163C18F491E0904090CC18701D100F043
:10E6100029F910BD4B1C83630A70F2E7FEB5012790
:10E6200014460D4606463F03002239460F48FDF7C3
:10E630009CFC032168460170290C4170290A8170F5
:10E64000C570042201A900F0B5F804E0A52000F08F
:10E65000C3F83070761C2046641EA4B20028F5D1A1
:10E66000012239460148FDF780FCFEBD0004005040
:10E6700010B51648144901603821C1610122426178
:10E6800000218160C16001620222416202618162F7
:10E690000721C16211028161FF2105314160FEF74E
:10E6A00073FD002801D00AA005E00848FEF7EBFD45
:10E6B000002803D00EA000F071FF10BD0122002140
:10E6C00013480DF005FF10BD0038004088120020EF
:10E6D000444542554720493A2048414C5F535049F0
:10E6E0005F4465496E6974206661696C0D0A0000BB
:10E6F000444542554720493A2048414C5F535049D0
:10E700005F496E6974206661696C0D0A0000000043
:10E710007C390020FEB514460D46064600F08EF802
:10E7200001273F03002239461048FDF71EFC022155
:10E7300068460170290C4170290A8170C570042255
:10E7400001A900F037F803E0307800F045F8761CB6
:10E750002046641EA4B20028F6D10122394603489F
:10E76000FDF703FC00F050F8FEBD0000000400506F
:10E770007CB5044600F062F801250D4E2D03002201
:10E7800029463046FDF7F1FB202168460170210C37
:10E790004170210A8170C470042201A900F00AF8B6
:10E7A000012229463046FDF7E0FB00F02DF87CBD44
:10E7B0000004005010B5064C0023236013460A469F
:10E7C00001460448FEF712FE20680028FCD010BD68
:10E7D000240200208812002011B581B00020694673
:10E7E000074C0870206001236A4601A90548FEF71E
:10E7F000FDFD20680028FCD0684600781CBD0000A4
:10E80000240200208812002070B501240A4D240340
:10E81000002221462846FDF7A8FB0520FFF7DCFF74
:10E82000A520FFF7D9FFC007FAD1012221462846CB
:10E83000FDF79BFB70BD00000004005070B5012483
:10E84000074D2403002221462846FDF78EFB0620B3
:10E85000FFF7C2FF012221462846FDF786FB70BD67
:10E8600000040050F8B504460020694608800125E0
:10E87000A06A6D032026A8422AD10A230022012182
:10E88000204600F0BDF8002802D0606D304360657E
:10E890002068C06869460880088801220A2311465A
:10E8A000204600F0ADF8002802D0606D304360656E
:10E8B00020688168C943C9060AD4616D02221143E8
:10E8C00061650168A943016020680168294301600E
:10E8D0002068426840218A43426020684268D243EF
:10E8E00012061BD54268B24342606068C21FFD3AFF
:10E8F0000AD1A0684A02904202D00A01904203D194
:10E90000206802688A430260626D2046012140301F
:10E91000002A04D041742046FEF74EFCF8BD427C2C
:10E920004174322A204602D0FEF75EFDF8BDFEF7A4
:10E93000B1FDF8BD38B504460A230022022100F0DB
:10E940005FF82025002802D0606D284360652068AC
:10E95000416880229143416020684168C94349066B
:10E960001ED54168A94341600A2301228021204627
:10E9700000F046F8002802D0606D28436065A0686A
:10E98000002803D12068C16880680090626D20462D
:10E9900001214030002A04D041742046FEF70CFCCF
:10E9A00038BD427C4174322A204602D0FEF770FD09
:10E9B00038BDFEF76FFD38BD10B5C3680268016B46
:10E9C000002B18D00988D160016B891C0163C18EAE
:10E9D000491E0904090CC1860CD10122816A520327
:10E9E000914205D101680A6801231B031A430A609A
:10E9F000FFF7A0FF10BD4B1C03630978D160E6E769
:10EA0000F8B51D4616460F460446FDF7B5FA3146E1
:10EA100026464036009000291ED043E0681C1BD0DB
:10EA2000002D05D0FDF7A8FA0099401AA84213D985
:10EA300020684168E02291434160206802684021DB
:10EA40008A43026023E021680A6882430A602168E1
:10EA50000A6802430A601FE02068816838468843DC
:10EA6000DCD124E0681C1DD0002D06D0FDF784FA0F
:10EA700001460098081AA84214D920684268E0218B
:10EA80008A4342602068016840229143016001206E
:10EA9000A16A40038142D6D00120707400203074F6
:10EAA0000320F8BD2068816838468843DAD000200A
:10EAB000F8BD0A780270401C491C002AF9D1704741
:10EAC00070470000F8B5154E154D074604090CD0E7
:10EAD000304603E03220FDF777F82846FDF774F85A
:10EAE0002046641EE4B20028F4D13C07240F012C18
:10EAF00002D00ED9304605E032200BE03220FDF77F
:10EB000063F82846FDF760F82046641EE4B200284A
:10EB1000F4D13046FDF758F8F8BD0000E8030000D6
:10EB2000F401000010B500F003F800F0D9F810BDB2
:10EB3000F8B5074672B60409124E134D0FD0304691
:10EB400003E01E20FDF740F82846FDF73DF820467B
:10EB5000641EE4B20028F4D12846FDF735F83C07DE
:10EB6000240F0ED02846FDF72FF82046641EE4B28D
:10EB7000002803D01E20FDF727F8F3E73046FDF705
:10EB800023F8F8BDE8030000F401000010B505F01B
:10EB900037FC06F019F902F0BFFD08F09FFD10A048
:10EBA00005F0E6F9012211A1F9F79AFB002806D138
:10EBB0000F48806A0F49884201D905F083FC01F0B3
:10EBC0007DFE0DF04FFB0C48816B02049143816385
:10EBD00001210846FDF7A6FCFFF75AFB10BD000017
:10EBE0007761726E73686F636B0000003100000024
:10EBF000040000208F0200000010024010B5FDF755
:10EC000029FC09F09EFB10BD10B592B014210DA88F
:10EC1000F9F7FCFA34216846F9F7F8FA1848826BDC
:10EC200001040A438263174A13680324E402A343DE
:10EC3000C4141B191360826B8A4382630120009005
:10EC4000000401900A900220099040040B900001FA
:10EC50000C906846FDF74CFE002800D0FEE70F2020
:10EC60000D9003200E9000200F9010901190012124
:10EC70000DA8FDF721FD002800D0FEE712B010BD61
:10EC800000100240007000401048016882151143D6
:10EC90000160C1680E4A1140C16001680D4A11400F
:10ECA000016081684908490081600168012292047D
:10ECB00091430160C168FD2212049143C1600021AB
:10ECC0000161064904488860704700000010024056
:10ECD0000C40FF88F6FFF6FE0080000800ED00E023
:10ECE00010B572B6FDF7F8FB62B610BD30B595B041
:10ECF0007D2424012C4D2DA16846F9F7E8FA2EA1B8
:10ED00006846F9F78EFA2DA16846F9F78AFA2AA122
:10ED10006846F9F786FA2AA16846F9F782FA26A129
:10ED20006846F9F77EFA27496846F9F77AFA22A188
:10ED30006846F9F776FA22A16846F9F772FA22498D
:10ED40006846F9F76EFA21496846F9F76AFA2049E8
:10ED5000684605F04FFC284606F07AFA0320E8736F
:10ED6000650005E0284609F0DFFAFF3C913C07D03A
:10ED7000002007F0E9F91749F9F75FFA0028F1D008
:10ED800014487F380078002806D0002007F0DCF90E
:10ED9000014611A000F002FC002C02D0002015B0AA
:10EDA00030BD0120FBE700002809002041542B5111
:10EDB000494F50454E3D0000220000005443500092
:10EDC0002C00000018010020B000002098E6010887
:10EDD0003075000003020020444542554720493A5F
:10EDE0002025730D0A000000F0B57D2495B02401A4
:10EDF0002546584E58A16846F9F769FA5AA168465F
:10EE0000F9F70FFA59A16846F9F70BFA58A16846C5
:10EE1000F9F707FA55A16846F9F703FA52A16846CF
:10EE2000F9F7FFF951A16846F9F7FBF9514968462E
:10EE3000F9F7F7F94DA16846F9F7F3F94AA16846E1
:10EE4000F9F7EFF94C496846F9F7EBF946A168463E
:10EE5000F9F7E7F949A16846F9F7E3F9484968463F
:10EE6000F9F7DFF94749684605F0C4FB304606F07C
:10EE7000EFF90327F77305E0204609F055FAFF3D47
:10EE8000913D09D0002007F05FF93F49F9F7D5F926
:10EE90000028F1D0002D58D1FCF72AF950216846FE
:10EEA000F9F7B4F92CA16846F9F711FA2EA16846D2
:10EEB000F9F7B7F92DA16846F9F7B3F92CA168461F
:10EEC000F9F7AFF929A16846F9F7ABF926A1684629
:10EED000F9F7A7F925A16846F9F7A3F92549684686
:10EEE000F9F79FF921A16846F9F79BF91EA1684639
:10EEF000F9F797F920496846F9F793F91AA1684696
:10EF0000F9F78FF91DA16846F9F78BF91C49684696
:10EF1000F9F787F91B49684605F06CFB304606F0A7
:10EF200097F97D25F7736D0105E0284609F0FCF996
:10EF3000FF3C913C0CD0002007F006F91249F9F78C
:10EF40007CF90028F1D0002C02D0002015B0F0BDD3
:10EF50000120FBE72809002041542B51494F50451F
:10EF60004E3D312C310000002C000000220000003A
:10EF70005443500018010020B0000020302C310014
:10EF800098E6010830750000E801002010B50A4835
:10EF90000221C17309A006F09DFB0B4809F0C4F9DA
:10EFA0000AA10B48F9F73DF906F094FBFF20F53074
:10EFB00009F0BAF910BD00002809002041542B5176
:10EFC0004953454E440D0A00B80B00001A1B0000BF
:10EFD0008C0E002010B50A480221C17309A006F06A
:10EFE00079FB7D20C00009F09FF90AA10A48F9F7D2
:10EFF00018F906F06FFBFF20F53009F095F910BD08
:10F000002809002041542B514953454E443D310DB0
:10F010000A0000001A1B00008C0E002070B50025AD
:10F020000E46044600280CD10EE031462046F9F782
:10F0300036F9002808D025462846FFF707F90400CE
:10F0400004D020780028F0D1284670BD0025FBE7C9
:10F05000002803D10AE0401C2C2904D0002141568D
:10F060000029F8D102E00178002900D10020704782
:10F07000011E0CD00278002A04D108E04278401C1E
:10F08000002A02D0D2B22C2AF8D1401A70470020B0
:10F09000704710B5818CC90707D001684A68012301
:10F0A0005B049A43836A1A434A60818C890707D5B7
:10F0B00001684A6801231B049A43C36A1A434A60E1
:10F0C000818C490707D501684A6801239B049A434C
:10F0D000036B1A434A60818C090707D501684A68A7
:10F0E0000123DB039A43436B1A434A60818CC906B0
:10F0F00007D50268916801231B039943836B194369
:10F100009160818C890607D501688A6801235B03B9
:10F110009A43C36B1A438A60818C490612D50368EF
:10F120005A6801210905046C8A4322435A60026C23
:10F130008A4207D10268516803235B059943436CF7
:10F1400019435160818C090607D501684A6801237B
:10F15000DB04806C9A4302434A6010BD70B50446DC
:10F1600000680068114D000708D501212B460022D8
:10F170004905204600F0A7F900280CD12068006856
:10F1800040070AD501212B4600228905204600F0C0
:10F190009AF9002801D0032070BD0021204660307C
:10F1A0000172E16601214172002070BDF05500003E
:10F1B00070B50246403201466031938B4C7A222C66
:10F1C00004D04C7A322C01D0022070BD0125846815
:10F1D0002D03AC4202D10469002C0DD00468646A8E
:10F1E0001C40436D5D1C45651C70538B5B1E1B04EE
:10F1F0001B0C538309D021E00568446D6D6A1D40E6
:10F200002580436D9B1C4365EFE70268D3699B062D
:10F21000FCD413682024A34313604A7A322A0FD007
:10F2200002681368E400A3431360026893685B08F4
:10F230005B00936001224A72FEF70CFC002070BD57
:10F240001222F8E7F8B504462669A368E769334354
:10F25000666900203E4325683343734A2E680146A1
:10F26000724F3E401E432E6025686B6803263603AE
:10F27000B343E66833436B602568A369954201D0C8
:10F28000266A3343AE680B273F02BE431E43AE607F
:10F29000674E2568674BB5420CD1DB689B079B0F17
:10F2A00006D0012B3AD0022B36D0032B20D11EE002
:10F2B00001201DE0604EB5420AD1DB680C263340C8
:10F2C00016D0042B2AD0082B26D00C2B10D10EE000
:10F2D00095420DD1DE6803239B021E4008D0012316
:10F2E0009B02F61A1AD0F61A16D09E4200D10820B8
:10F2F000504E403E954247D1002811D0022817D0E9
:10F3000004282CD0082829D16068F9F707FB0246A9
:10F310000B46002049491CE00220E9E70420E7E70A
:10F320006068F9F7FBFA05460E46FDF77FFA1DE027
:10F330003068C006606806D5F9F7F0FA02460B4659
:10F3400000203F4905E0F9F7E9FA02460B460020A4
:10F350003C49F9F72FFAF9F713FBE860F8BD60684C
:10F36000F9F7DCFA05460E46FDF780FAF9F7D6FA0A
:10F370000822F9F797FA2A463346F9F71BFAF9F704
:10F38000FFFA2168C860F8BD0122E369D203934205
:10F3900027D1030000F056F90906090C161C1616B1
:10F3A00016211600FDF742FA14E0FDF74FFA11E0BE
:10F3B00030686168C00601D5234800E02348F8F7AB
:10F3C000CFFE81B20A0912010807400F1043D8E7A7
:10F3D000FDF74CFA40006168F1E701200004616824
:10F3E000EDE7030000F02EF909070A0D06170606DF
:10F3F000061D0600C7E7FDF719FA0EE0FDF726FA2D
:10F400000BE030686168C00601D5114800E0114882
:10F41000F8F7A6FEA1E7FDF729FA6168F8F7A0FE64
:10F42000AFE710466168F3E700480040F369FFEF7B
:10F43000003801404010024000440040000060419C
:10F440008084CE418084EE4100127A000048E801B9
:10F4500000093D000024F400014660314A7A122A76
:10F4600004D0497A322901D0022070470146403148
:10F470004A8A002A12D0012382681B039A4202D1D1
:10F480000269002A15D0C26C531CC364006812784C
:10F490008262488A401E48820020704701680A68DC
:10F4A00080239A430A60006801684022114301608A
:10F4B000F2E7C26C03681288D205D20D9A62C26C60
:10F4C000921CC264E5E7F8B51D4616460F46044691
:10F4D000FCF752FD3146264660360090002916D0D2
:10F4E00041E0681C13D0002D06D0FCF745FD014615
:10F4F0000098081AA8420AD920680168802291431E
:10F500000160206801682022914301601AE02068B0
:10F51000C16938468843E4D12AE0681C23D0002D15
:10F5200006D0FCF729FD01460098081AA8421AD90E
:10F5300020680168802291430160206802682021D0
:10F540008A43026020680168FF2201329143016012
:10F55000206881684908490081600120707200209C
:10F5600030720320F8BD2068C16938468843D4D082
:10F570000020F8BD10B50248FDF7CAFF10BD00001D
:10F580008011002010B50448FDF7C2FF024870301A
:10F59000FDF7BEFF10BD0000A01000200FB410B595
:10F5A00003A9044B044A029800F0C8FC10BC08BC34
:10F5B00004B01847B13B0108840600200FB410B511
:10F5C00004A9074B02AA039800F0B8FC044602A95C
:10F5D000002001F04FF8204610BC08BC04B01847CA
:10F5E000750601082021020C01D010211046020AE4
:10F5F00001D010460839020901D01046091F8208BF
:10F6000001D01046891E420801D0881E7047081A92
:10F610007047F0B4040C8BB2264682B25E430D0CE8
:10F620001046370C5843360480190021794116469C
:10F630006E43370C36048019794126466E4389198A
:10F64000F0BC704730B47446641E2578641CAB422D
:10F6500000D21D46635D5B00E31830BC1847000014
:10F660004900CA020243100000D004204A0D01D014
:10F6700001221043044A490D914201D1022108435D
:10F68000012800D105207047FF070000004870479F
:10F6900088060020F7B596B014460021A160D1601D
:10F6A000179909914D00CD496D088D4205DC1799D8
:10F6B00061602060002019B0F0BDC949C94E8D427B
:10F6C00038DAD32709997F050029C74A17993346A5
:10F6D00017DDF8F7F9FFB54206D0C44AC44BF8F776
:10F6E000F3FF6160206009E03A46C14BF8F7ECFF98
:10F6F000C04AC14BF8F7E8FF61602060012019B0F3
:10F70000F0BDF8F73DFFB54206D0B84AB84BF8F760
:10F7100037FF6160206009E03A46B54BF8F730FFEB
:10F72000B44AB54BF8F72CFF616020600020C0435D
:10F7300019B0F0BDB1498D42179977DC49004908ED
:10F740000746AF4AAF4B0491F8F7CCFF0022AE4B0F
:10F75000F8F716FFF9F7F0F80A90F9F7CBF8A24A94
:10F76000334603910290F8F7BDFF3A46049BF8F741
:10F77000B1FF06460F469D4A9D4B03990298F8F744
:10F78000B1FF2A0D01250C9232463B46F8F7A2FF45
:10F7900061602060032D39D04800410D0C98401A5B
:10F7A000690169181139814230DA98492801794490
:10F7B00008960D9008180497436802680399029808
:10F7C000F8F790FF02460B460791069004990898B7
:10F7D000F8F77AFF06460F46049B089AF8F77AFF77
:10F7E000079B069AF8F770FF0591894904907944C0
:10F7F0000D984018C368826803990298F8F772FF61
:10F80000059B049AF8F760FF6D1CBDE70998002876
:10F8100009DA01226068D207504060600A9819B086
:10F820004042F0BD02E00A9819B0F0BD0903012280
:10F83000090B12050E908918179810914000754910
:10F84000400D40184111C006C00E0D9113902021AB
:10F85000081A149000200690052507901398002898
:10F860000D980CD0401982006B4878448758139942
:10F870008F40101841681498C1400F4304E04019AC
:10F88000810066487844475810993846FFF7C1FE12
:10F8900006460A9138460E99FFF7BBFE8A190A9B65
:10F8A0008A4201D2012100E00021C9188C46AF0034
:10F8B000694679188B684E68C318834201D20120CB
:10F8C00000E0002096193618002802D0964202D98E
:10F8D00003E0964201D2012000E0002062461218A7
:10F8E0004E6068468B60C25128466D1E0028B5DC0C
:10F8F0000121029849074018800F1390029805993A
:10F900008000039E049D0B91F8F7F4FF07463046F4
:10F910000891F9F703F81D22D243F8F7C3FF1090BE
:10F920000F912846F8F7FAFF3D22D243F8F7BAFFC5
:10F930000E900D910B98F8F7F1FF5D22D243F8F786
:10F94000B1FF0B910C900D9B0E9AF8F719FE0F9BCF
:10F95000109AF8F715FE3A46089BF8F711FE0025B5
:10F960000E463A462846089BF8F7AEFE0F9B109AC3
:10F97000F8F7AAFE0D9B0E9AF8F7A6FE0B9B0C9AC1
:10F98000F8F7A8FE264A274BF8F7ACFE07460D917C
:10F99000254A264B31462846F8F7A4FE3A460D9BE9
:10F9A000F8F7EEFD0F4615220C9092061D4B3146DE
:10F9B0002846F8F797FE3B460C9AF8F7E1FD179AB0
:10F9C000002A05DA139A524213920122D2075140BB
:10F9D00061602060139819B0F0BD0000FB21E93F81
:10F9E0007CD90240FB21F93F000040543163621A88
:10F9F00061B4D03D7370032E8A19A33BFB213941BA
:10FA000083C8C96D305FE43F0000E03F26F6000088
:10FA1000E6F500000BFCFFFF9AF5000080F5000002
:10FA2000182D4454FB21F93D3326A611460B113CF9
:10FA3000F0B51FB44E00F9207608800584B00F465B
:10FA4000864204DA0498F8F777FF002838D0049A41
:10FA50003B4610461946F8F745FE044602462C4838
:10FA60000D460B460621784400F05CF822462B46F2
:10FA7000F8F738FE019100903946079B069A0498E2
:10FA8000F8F730FE0746029120462946019B009A6E
:10FA9000F8F728FE3A46029BF8F716FE07460022C2
:10FAA0000091D24320462946F8F7FCFE194A9642B7
:10FAB0000ADA3A46009BF8F707FE0022164B23E0CD
:10FAC0000020154909B0F0BD144A964202DD002419
:10FAD000134D03E001225205B51A002422462B469D
:10FAE000F8F7F2FD0646019122462B4600200A490E
:10FAF000F8F7EAFD0D4604463A463046009B019968
:10FB0000F8F7E2FD22462B46F8F7E4FD09B0F0BD18
:10FB100036F300003333D33F0000F03F0000E93FED
:10FB20000000D23FF8B504464F1EC800083821181F
:10FB300015461E46086849683A4606239A4310D07F
:10FB40002A463346F8F7CEFD3A46D200083AA318C3
:10FB50001A687F1E5B68F8F713FD06223B46934345
:10FB6000EED1022F23D0042F11D0062F2FD12A46F9
:10FB70003346F8F7B7FDE36AA26AF8F701FD2A46B3
:10FB80003346F8F7AFFD636A226AF8F7F9FC2A46B4
:10FB90003346F8F7A7FDE369A269F8F7F1FC2A46B6
:10FBA0003346F8F79FFD63692269F8F7E9FC2A46B6
:10FBB0003346F8F797FDE368A268F8F7E1FC2A46B8
:10FBC0003346F8F78FFD63682268F8F7D9FCF8BD73
:10FBD000F0B51FB4054648000C46F92140088905D8
:10FBE00086B088420BDA28462146FFF739FD042803
:10FBF00001D100F089F8284621460BB0F0BD2A4615
:10FC0000234610461946F8F76DFD06460F462A466C
:10FC10002346F8F767FD00902548019132463B46A0
:10FC200005217844FFF77EFF029010980391002889
:10FC300029D0204A204B01990098F8F753FD0490F1
:10FC4000059168460FC8F8F74DFD0022019100901C
:10FC5000D24309990898F8F725FE019B009AF8F716
:10FC600033FD32463B46F8F73DFD099B089AF8F70D
:10FC70002BFD059B049AF8F727FD2A462346F8F743
:10FC800029FD0BB0F0BD0B4630463946029AF8F715
:10FC900029FD084A084BF8F773FC019B009AF8F716
:10FCA00021FD2A462346F8F76BFC0BB0F0BD00009F
:10FCB0007AF20000495555555555C5BF002210B57B
:10FCC000134610460149F8F775FD10BD0000F03FDE
:10FCD00010B50122F8F7E6FD10BD10B5F8F750FC9D
:10FCE00010BD002210B5134610461146F8F762FD0C
:10FCF00010BD000010B50721024A00200907F8F7DF
:10FD0000D1FD10BD01030000034A10B5002011070A
:10FD1000F8F7C8FD10BD000001FDFFFF01480068B5
:10FD2000704700008806002002E008C8121F08C1C2
:10FD3000002AFAD170477047002001E001C1121F6C
:10FD4000002AFBD17047000001490860704700009D
:10FD500088060020F0B51FB484B007980699020DFC
:10FD6000014314D04A484B491018484305140F98D2
:10FD700001280E981CD0281A401C0024464E4749E2
:10FD8000009401910290002814DA474227E00F986E
:10FD9000012443A3012808D0002104980F9A84600D
:10FDA0000360C260416009B0F0BD0E98C143F4E742
:10FDB0004042E2E7074612E0F80707D02246334602
:10FDC00001990098F8F78EFC019100902246334685
:10FDD00010461946F8F786FC04460E467F10002FA1
:10FDE000EAD10298019B0028009A0799069802DA46
:10FDF000F8F778FC01E0F8F7DDFC04460E46002237
:10FE0000284BF8F7EFFD03D80020C043014607E078
:10FE10000022254B20463146F8F7B2FBF9F722F8CD
:10FE2000102409E0002C0ADB0A220023F8F702FE66
:10FE3000059B30321A55641E02460A43F2D1112244
:10FE4000641C059B121B1C190F9B012B03D0012363
:10FE500008430ED10AE0084304D011200E90002080
:10FE60000F9084E70E98151A6D1E0BE00E988242D3
:10FE700002DD00236D1C03E0824201DA00236D1EC7
:10FE8000002BEED004980F998260C16030C08AE7E1
:10FE900001FCFFFF104D0000000024400000F03F77
:10FEA000300000000000F0430000E03F30380A2836
:10FEB00001D20120704700207047000070B588B063
:10FEC0000025144604AB03AA0695062906D0082986
:10FED0000DD009290BD00A2913D108E00193009213
:10FEE00005AB0FA208F07AF803280FD009E006AEA0
:10FEF00001930092029605AB0CA208F06FF804285B
:10FF000004D00020C043C0B208B070BD0598207373
:10FF1000039860730498A073E5730020F3E7000072
:10FF200025326425326425326400000025326425C0
:10FF300032642532642E256400000000FFB597B0BE
:10FF40000646002518E2252877D100242746FD49DA
:10FF5000049400E00443761C32780120203A90405B
:10FF60000842F7D130782A280ED002223078014694
:10FF70003039092916D804990A23594330394018D1
:10FF80001443761C0490F1E7189802C80491189065
:10FF9000002904DA0120400304434842049002206F
:10FFA0000443761C30782E2814D104200443707842
:10FFB000761C2A2809D11898761C80C8189009E068
:10FFC0000A214F43303FC719761C3078014630393B
:10FFD0000929F5D930786C2810D006DC4C281AD0C5
:10FFE00068280ED06A2817D104E0742813D07A2824
:10FFF00012D110E00120400504430CE00121090565
:020000040801F1
:1000000001E0032109050C437178814203D10120ED
:1000100000052418761C761C3078119066280BD0C9
:1000200013DC58287DD009DC00287BD04528F6D089
:100030004628F4D047281AD1A5E118E0632835D026
:10004000642870D0652812D19DE170286CD008DC3E
:100050006728F1D069287BD06E280DD06F2806D193
:10006000BAE073282ED0752871D0782859D01A9A02
:10007000199990476D1C7EE16002400F022809D05B
:1000800003280DD00428189801680DD00D60001DBC
:10009000189070E11898EA1701680D604A60F6E759
:1000A000189801680D80F2E70D70F0E718986A461D
:1000B00001781172001D18900020507202A8009063
:1000C000012005E0189802C8189000200091C04354
:1000D00061070DD5002101E00199491C0191B94248
:1000E00012DA8142F8DB009A515C0029F4D10BE06E
:1000F000002101E00199491C01918142FADB019A3A
:100100000099895C0029F5D1019904981A9B471A36
:1001100021463846199A00F097FA01994019451876
:100120000BE04FE02CE113E04EE0009800990078DE
:10013000491C00911A9A199990470198401E019004
:10014000401CF2D1214638461A9B199A10E137E03B
:100150000A200021009001916002410F022907D07E
:10016000189A01CA1892C2179446032908D00AE0C7
:100170001898C01DC108C90005C91891944607E028
:1001800000B2C2179446042902D140B2C1178C466E
:1001900000226146944506DA0A4600214042914118
:1001A0008C462D2102E0210504D52B216A461173CE
:1001B000012103E0E10701D02021F7E7029155E09A
:1001C0000A200AE0102008E01020009000210420FE
:1001D00004430191082703E00820002101910090C9
:1001E0006002410F022907D0189A01CA1892002212
:1001F0009446032908D008E01898C01DC108C9001A
:1002000005C91891944603E080B2042900D1C0B218
:1002100000210291210729D51199702906D0009A51
:100220001021019B4A401A4305D00EE040216A4646
:100230001173012108E06146014306D030216A466E
:1002400011731199517302210291009A0821019BA7
:100250004A401A430AD16146014301D1610705D5DD
:1002600030216A46117301217F1E0291119958298C
:1002700004D035A10E910DA90D910DE037A1F9E73C
:100280006146019B009AF8F7D5FB0E9B8C469B5C60
:100290000D9A521E0D92137061460143F0D10D98D4
:1002A00005A9081A20300190600703D50120000439
:1002B000844300E001270198874201DD381A00E0FD
:1002C0000020019900904118029809180498401ADA
:1002D0000490E00306D421461A9B199A049800F072
:1002E000B3F94519002706E003A81A9AC05D1999C9
:1002F00090476D1C7F1C02988742F5DBE0030CD50C
:1003000021461A9B199A049800F09EF9451904E0B9
:100310001A9A3020199990476D1C0099481E009038
:100320000029F5DC08E00D980D990078491C0D9125
:100330001A9A199990476D1C0199481E019000293D
:10034000F1DC63E1092801003031323334353637CE
:100350003839616263646566000000003031323311
:1003600034353637383941424344454600000000B1
:1003700000F05AF94519761C3078002800D0E2E5E3
:1003800028461BB0F0BD600700D406271898C01D92
:10039000C108C90048680A680831C30FDB07189113
:1003A000190001D09CA108E0210501D59BA104E022
:1003B000E10701D09AA100E09AA1430011985B08DF
:1003C000109165280CD006DC452809D046281DD0A0
:1003D000472841D141E0662818D067283CD13CE04D
:1003E0000021112F01DB112000E0781C0191009009
:1003F00008A911A8FFF7AEFC139905910021119AE5
:1004000015927F1C12980197009150E00120C007BF
:1004100003900120019008A9009711A8FFF79AFC0A
:10042000139A149905920022119B00921298159329
:10043000059A0192002901D0104602E0791C40186B
:100440000190381A01D5019804E04042401E009006
:10045000781C0190C01B029043E0012F00DA0127B5
:100460000021112F01DD112000E03846019100909C
:1004700008A911A8FFF76EFC13990591119A0021A4
:10048000129815920091019721070CD40599B94251
:1004900001DB019900E00191012904DD159A491E53
:1004A000515C302906D0B84201DA011D05DA01217C
:1004B000029115E00199491EEDE7002805DC00993D
:1004C000411800910199091A03E0019A411C9142D7
:1004D00000DD01910099401A401C02900120C007E4
:1004E0000390200706D402990198814202DB002084
:1004F000C043029000206946C87707AF01210398E6
:100500000337C907884224D0022011902B20129073
:10051000039800280CDA404203902D20129007E047
:100520000A210398F7F71CFE30317F1E03903970C3
:100530001199481E11900029F2DC03980028EFD190
:10054000791E129808703078202108404530BF1E6F
:10055000387006A8C01BC01D0390109800780028B2
:1005600000D00120019941180298C017091803987A
:1005700009180498401A401E0490E00306D421464E
:100580001A9B199A049800F05FF8451910980078A2
:10059000002803D01A9A199990476D1CE00324D5BE
:1005A00021461A9B199A049800F04EF845191CE050
:1005B0000098002807DB00990598884203DD15980C
:1005C000405C199901E0199930201A9A90470098D7
:1005D0006D1C401C00900298401E0290002804D11F
:1005E0001A9A2E20199990476D1C0199481E019066
:1005F0000029DDDC05E038781A9A7F1C19999047AC
:100600006D1C0399481E03900029F4DC21461A9BB7
:10061000199A0498ACE600002D0000002B000000A1
:100620002000000000000000F8B5044600251E462A
:100630001746880404D405E039462020B0476D1CD5
:10064000641EF9D52846F8BDFFB50446002581B0E3
:100650001E46C80301D5302700E02027880404D5B2
:1006600005E038460399B0476D1C641EF9D528464D
:1006700005B0F0BD0A68531C0B6010707047000095
:1006800010B50446FAF73EFE00280BD00BF084FBB1
:10069000074801464031042C07D00B22CA72FAF7F2
:1006A00043FE10BD0BF078FB10BD0C22F6E70000F6
:1006B00090090020F8B504463C48C26A04210A4368
:1006C000C262C06A0025084000903949102021C14B
:1006D00003200D604860374F08393846FBF77EFB32
:1006E000354E052C05DA10213846FBF739FC30551C
:1006F000F8BD052CFCD1304C30780127303C002867
:1007000006D0A7700020315C01290DD0A5700FE044
:1007100067700020315C002901D0657008E0401C42
:1007200040B20528F6DB03E0401C40B20528EADBB6
:100730006078E178884317D02078002802D01FA085
:10074000FEF72CFF207E002802D02CA0FEF726FF0B
:10075000012108460BF0E4FA257167700520FFF7C8
:100760008FFF6570E77000E06570A078217988439D
:1007700017D02078002802D030A0FEF70FFF207E8F
:10078000002802D03DA0FEF709FF012100200BF058
:10079000C7FAE570A7700420FFF772FFA5702771F4
:1007A00000E0A57035603571F8BD00000010024012
:1007B0008C060020000800503400002044454255BB
:1007C0004720493A202A2A2A2A2A2A2A2A2A2A2A51
:1007D0002A2A2A2A2A2A414343204F4E2045564599
:1007E0004E542A2A2A2A2A2A2A2A2A2A2A2A2A2A1B
:1007F0002A2A2A2A2A2A0D0A0000000044454255C6
:100800004720493A202A2A2A2A2A2A2A2A2A2A2A10
:100810002A2A2A2A2A2A414343204F4E205445534C
:1008200054204F4B2A2A2A2A2A2A2A2A2A2A2A2AC2
:100830002A2A2A2A2A2A2A2A0D0A00004445425531
:100840004720493A202A2A2A2A2A2A2A2A2A2A2AD0
:100850002A2A2A2A2A2A414343204F46462045561F
:10086000454E542A2A2A2A2A2A2A2A2A2A2A2A2A7F
:100870002A2A2A2A2A2A2A0D0A000000444542551B
:100880004720493A202A2A2A2A2A2A2A2A2A2A2A90
:100890002A2A2A2A2A2A414343204F4646205445E1
:1008A0005354204F4B2A2A2A2A2A2A2A2A2A2A2A19
:1008B0002A2A2A2A2A2A2A2A2A0D0A0000B510489A
:1008C00087B0C26A04210A43C262C26A0A40059222
:1008D000416B0122114341631020009009480190AF
:1008E0000020029069460848FBF778FA072108467D
:1008F000FDF768FC0720FBF7E1FD07B000BD000035
:1009000000100240000021100008005010B5FDF753
:10091000DEF900280FD006F007FD104C00280BD0A0
:100920000FA113A00BF0A2FF0BF0EEFB012002F0D1
:10093000BDFD0120607010BD2078002802D00EA0FF
:10094000FEF72CFE00F05AFE0028EFD12078002898
:10095000ECD011A0FEF722FEE8E700000000002026
:1009600074653130312D76312E342E300000000088
:1009700076657273696F6E00444542554720493A67
:100980002063726561746520636F6E6620746162B6
:100990006C650D0A00000000444542554720493A65
:1009A0002063726561746520636F6E662074616296
:1009B0006C65206661696C0D0A000000F7B582B0B5
:1009C000064600251DE00024AF0015E003980068EE
:1009D000C159E000009008180CC83068C15900984F
:1009E000091803C9F7F7CCFD049A1268D359009A85
:1009F0009A1803C2641CE4B27079A042E6D86D1C58
:100A0000EDB23079A842DED805B0F0BD7CB5002546
:100A1000044600954DA0019503F0AAFA4EA1F7F700
:100A20003EFC002821D0009548A0019503F0A0FAD3
:100A3000F7F72EFC054645A003F09AFA01462A4630
:100A40006846F7F7CAFB68462E21F7F717FC451CE6
:100A50006846F7F7F1FC21784018182868460DDB46
:100A6000F7F7EAFC2178183816E0207801460831BB
:100A7000182901D3103835E021707CBDF7F7DCFC74
:100A80002178C842684604D5F7F7D6FC217818309B
:100A900002E0F7F7D1FC2178401820706846F7F79C
:100AA000CBFC0028284629DDF7F7C6FC3C2148434B
:100AB0000A21F7F76BFB617840183C28284613DBC6
:100AC000F7F7BAFC3C2148430A21F7F75FFB61784E
:100AD0003C38401860702078401CC0B22070182844
:100AE000CBD3183820707CBDF7F7A6FC3C214843D7
:100AF0000A21F7F74BFB6178401825E0F7F79CFCDB
:100B00003C2148430A21F7F741FB6178081A28463F
:100B100011D5F7F791FC3C2148430A21F7F736FB42
:100B20006178081A3C3060702078002801D0401E9F
:100B3000D8E71720D6E7F7F77FFC3C2148430A2186
:100B4000F7F724FB6178081A60707CBD74696D65E5
:100B50007A6F6E6500000000300000000E49CA7A0E
:100B600008464030002A01D0406870470A7B002ABE
:100B700001D0C06870474A7B002A01D040697047A5
:100B80008A7B002A01D0C0697047C97B002901D047
:100B9000406A70470068704704000020F0B50446C2
:100BA0004F008E488FB07F080D460D91874228DB9D
:100BB0004042381820430CD08948874203DC8742E2
:100BC00018D1002C16D020462946FFF781F80FB027
:100BD000F0BD844A844B20462946F7F783FD07463B
:100BE0000E46824A824B20462946F7F77BFD3A465D
:100BF000334649E00120FFF7A7F8FFF772F80FB07E
:100C0000F0BD7C48874243DAF920800587420BDA41
:100C100020462946FEF724FD042801D1FFF774F889
:100C2000204629460FB0F0BD22462B4610462946E5
:100C3000F7F758FD064602466F480F460B46062159
:100C40007844FEF76FFF32463B46F7F74BFD0690C0
:100C50006A48079132463B4604217844FEF762FF1A
:100C600032463B46F7F73EFD00225C4BF7F788FC27
:100C700002460B4607990698F7F79CFD22462B463D
:100C8000F7F730FD22462B46F7F77AFC0FB0F0BDA0
:100C90002046524C6900490800222346F7F71AFD06
:100CA0000022D243F7F7FEFD0546024654480E46A1
:100CB0000B4606217844FEF735FF2A463346F7F700
:100CC00011FD06904F4807912A4633460421784487
:100CD000FEF728FF2A463346F7F704FD0022234695
:100CE000F7F74EFC05910490284631460BF042FC84
:100CF000089045480C46874219DB059B049A0799E2
:100D00000698F7F757FD02460B4621460898F7F775
:100D1000E9FC2346089AF7F733FC0122F7F7C2FDF6
:100D2000304A314BF7F7D0FC304A314B4AE00027CC
:100D30003A460B460898F7F723FC3A4623460A91B1
:100D40000E9010461946F7F7CDFC2A463346F7F7C2
:100D5000C1FC0A9B0E9AF7F72DFD05460E46059B32
:100D6000049A07990698F7F725FD0091049001224F
:100D700028463146F7F796FD1A4A1B4BF7F7AAFCAF
:100D80000E460546012221460898F7F78BFD009B89
:100D9000049AF7F7A7FC2A463346F7F795FC054671
:100DA0000E46012238462146F7F77CFD0F4C174FBF
:100DB00022463B46F7F78EFC2A463346F7F78AFC75
:100DC00022463B46F7F786FC0D9A002A00DD5DE7D8
:100DD0000122D20751400FB0F0BD00000000F03FEB
:100DE0000000F07F075C143326A6913C182D445474
:100DF000FB21F93F0000E03FFCDF000012E00000B3
:100E000088DF00009EDF00003333EF3FFB21E93F26
:100E100070B505461A480088C00718D0194C2046FE
:100E20004D300646F7F734FA01463046F7F7EEF94B
:100E30002846F7F72DFA024629463046F7F7CDF94E
:100E400009214B2001552046FAF76EFA70BD112298
:100E50000DA12846F7F744FA002807D011220FA168
:100E60002846F7F73DFA002802D004E010A000E081
:100E70001F48FEF793FB1F49284603F0BBFB70BDDC
:100E8000020000209009002041542B514155444C50
:100E90004F4F503D312C300D0A00000041542B5172
:100EA0004155444C4F4F503D302C300D0A0000004E
:100EB000444542554720493A202A2A2A2A2A2A2AE2
:100EC0002A2A2A2A2A2A2A2A2A2A415544494F4CC0
:100ED0004F4F502054455354202A2A2A2A2A2A2A7E
:100EE0002A2A2A2A2A2A2A2A2A2A2A2A2A0D0A00C9
:100EF000B0F301081027000030B583B00446FEF7B8
:100F00000DFF0546002000900246019021466846EC
:100F1000F7F747FE2846FEF717FF0199009803B040
:100F200030BD000070B50B4C08214B200155204608
:100F30004D300546F7F7ACF901462846F7F766F954
:100F40000A2205A12846F7F748F92046FAF7ECF9F6
:100F500070BD000090090020426174746572794C84
:100F60006F77000070B50D460446F7F7BCFC0646E7
:100F70000D4802F0FFFE0C48017C0120491E88400C
:100F8000A04206DDF7F7A4FC04463146F7F7B2FAB3
:100F900005E0F7F79DFC04463146F7F7AFFA214626
:100FA000F7F7B0FA286070BD980800200EB50B481E
:100FB0000B4B016F0022491C0167994200D902675F
:100FC000009201920292026F06A16846FEF7F6FABD
:100FD0006946092001F002FB0EBD000040230020FD
:100FE0007F969800256400003EB50546184C06F033
:100FF00007FA00282BD08034E06E7D214019C9000B
:10100000E066F7F7ADF8002817DDA16E7D2209181C
:10101000A166D200E16E5043081AE0660D49A06E49
:10102000884201D90020A06602460BA16846FEF75F
:10103000C5FA69460B2006F065FD084800780028CF
:1010400005D0294606A0A36EE26EFEF7A7FA3EBDC4
:10105000C02200207F96980025640000F80500203B
:10106000444542554720493A2064697374616E6370
:1010700065203D2025642C206D6C5F6D6574657264
:1010800073203D2025642C206D696C6561676520A7
:101090003D2025640D0A000070B50446FF30FF3086
:1010A000002202300271521EC262204606F090FDFC
:1010B000002801D0032070BDFF20FF30005B1049E5
:1010C000884201D0022070BD20463730F7F717F96B
:1010D0003621095D000208430A4D0002A8420AD0E9
:1010E00020465330F7F70BF94034A17C0002084347
:1010F0000002A84201D1002070BD012070BD000097
:1011000055AA000000464154F0B50022FF30184BAC
:10111000FF30144602300C2555435E59002E0CD08A
:101120000768BE420AD1ED186E688768BE4205D1D5
:101130002D89C688B54204D000E00124521C042A3F
:10114000E9D3042A02D000290FD105E0002C0AD1EE
:10115000022908D01220F0BD0C204243D01840894B
:10116000C11FF93901D00020F0BD1020F0BD0000F2
:101170004039002030B50021054B0C460C224A4373
:101180009D58854200D19C50491C0429F6D330BD9E
:1011900040390020FF3010B5FF300230446A00684B
:1011A000241DFF30FF3002308278480A1146F6F7DE
:1011B000D7FF02CC002904D0884204D3401A241D52
:1011C000F7E7002010BD2168081810BD10B50848C9
:1011D00001F02AFA002808D006480078002802D03A
:1011E00005A0FEF7DBF9002010BD012010BD0000B6
:1011F000F41F002060020020444542554720493A30
:1012000020665F636C6F7365206661696C0D0A0010
:10121000FF30FF3002304269891E921E8A4201D897
:10122000002070478278806A4A4310187047000097
:1012300001490870704700006002002010B53F218E
:1012400020200CF0E9FB652830D0092121200CF08A
:10125000E3FB65282AD0402122200CF0DDFB652825
:1012600024D0002123200CF0D7FB65281ED00021BC
:1012700024200CF0D1FB652818D0022125200CF089
:10128000CBFB652812D0102132200CF0C5FB65285D
:101290000CD0002133200CF0BFFB652806D02A219A
:1012A00030200CF0B9FB652800D0002010BD0000F4
:1012B000F0B5144691B002460B46012535A16846AB
:1012C000FEF77CF96E2C05D04E2C03D0732C01D088
:1012D000532C1FD1684601880185002608A8867214
:1012E00000A9092205A80231F6F777FF684646777C
:1012F0000AA8FFF701FE0E900F9105A8FFF7FCFD6D
:101300000022254BF7F756FA06460F46732C0AD0F3
:10131000532C08D0772C09D0652C07D0572C05D03A
:10132000452C03D024E00025ED4321E0032269464B
:101330000AA8F6F752FF002608A8C67200A90922DB
:1013400005A80331F6F749FF684646770AA8FFF774
:10135000D3FD0E900F9105A8FFF7CEFD00220E4B96
:10136000F7F728FA06460F46772CDCD0572CDAD050
:1013700032463B460F990E98F7F702F906460C469F
:101380002846F7F7B7FA32462346F7F7ABF911B01C
:10139000F0BD00002566000000004E4000B54A0088
:1013A000224B520887B09A4202DC0022134625E005
:1013B0001F4B9A4208D1002808D10120FEF7C4FC37
:1013C000FEF78FFC07B000BD9A4203DBFEF780FCFE
:1013D00007B000BD02AAFEF75DF98107890F0BD0A7
:1013E000012001290ED0022916D0009002A80FC8B2
:1013F000FEF7EEFB07B000BD02A80FC8FEF718FB12
:1014000007B000BD009002A80FC8FEF7E1FB012263
:10141000D207514007B000BD02A80FC8FEF708FB75
:101420000122D207514007B000BD0000FB21E93F77
:101430000000F07FF3B581B0019C0F46FF34FF340C
:101440000234002906D0019802F0A6FD022809D234
:101450000120FEBDE668002E02D06069B04207D8C8
:10146000012605E0411CF4D061698142F1D83E4675
:10147000354660696D1CA84202D80225022E0BD3A6
:101480002946019802F088FD002807D0411CE0D0D1
:101490000128DED0B542ECD10020FEBD114A29461C
:1014A000019809F03AFE002808D1002F0BD02A46F7
:1014B0003946019809F031FE002804D001280DD0EA
:1014C00001252846FEBDE5602069411CF9D0401E7B
:1014D00020616079012108436071F2E70025ED4346
:1014E000EFE70000FFFFFF0FF3B581B002990C6832
:1014F00000E0641C21782F29FBD05C29F9D0FF3053
:10150000FF30023085690B222021284606F0F2FACE
:101510000020014608228E469446225C401C202A68
:101520003BD92F2A39D05C2A37D02E2A01D0E64564
:101530000BD36346082B3FD12E2A3DD10822964675
:101540000B2289069446090EE7E7802A05D3032378
:101550001943254B9A18803A127824A3164600E0C6
:101560005B1C1F78002F02D0B742F9D124E013464C
:10157000413B192B02D80223194308E01346613B73
:10158000192B04D8012319433246203AD2B27346AC
:10159000EA547246521C9646BFE723180298202A46
:1015A000036001D8042000E000207246002A03D026
:1015B0002A78E52A02D003E00620FEBD05222A7023
:1015C0006246082A01D18906090E8A07920F012A6C
:1015D00001D1102210430907890F012901D10821E7
:1015E0000843E8720020FEBD7AEB0108222A2B2C6A
:1015F0003A3B3C3D3E3F5B5D7C7F0000F8B51F4EB3
:1016000000273446103C26E033216068F6F7FEFDE3
:101610001B48BD0043591BA132686068FDF7CEFF2F
:10162000174841597068FDF744FA7F1C6068F6F767
:101630002FFE616805462C224A550D22481942703A
:101640000A228270AA1CA068F6F7C7FDA06840199C
:10165000801C0C36A06030680028D5D10B48FF21D3
:10166000F531A06002F038F9002805D0FF21F631ED
:101670000648F6F7CBFD0120F8BD000070020020FF
:10168000D803002025733D2573000000C41B0020F3
:1016900010B501460A22084801F0D4FB002808D002
:1016A00006480078002802D005A0FDF777FF00204B
:1016B00010BD012010BD0000F41F002060020020BA
:1016C000444542554720493A20637265617465205C
:1016D0006661696C0D0A000070B50B4C08214B2047
:1016E000015520464D300546F6F7D2FD0146284605
:1016F000F6F78CFD092205A12846F6F76EFD204677
:10170000F9F712FE70BD0000900900204375744483
:10171000657465637400000010B50648FCF758FA5C
:10172000002806D004480078002802D003A0FDF766
:1017300035FF10BD601200202002002044454255B4
:101740004720493A202048414C5F575744475F445F
:1017500065496E6974206572726F720D0A0000002F
:1017600010B5401E042815D20C210B4A484383189B
:101770005989CC1FF93C07D0002901D0491E89B2F4
:101780005981002902D003E00021F9E7002111501E
:10179000002010BD022010BD403900200EB50020F1
:1017A0000090019002900A21684602F095F8FFF738
:1017B000B3FFFDF795FA0EBD0EB500200090019025
:1017C00002900A21684602F087F80EBD10B501F0BC
:1017D00025FD002808D005480078002802D004A084
:1017E000FDF7DCFE002010BD012010BD60020020CE
:1017F000444542554720493A20665F756E6C696ED4
:101800006B2073697A65206661696C0D0A000000BF
:10181000F3B585B0054606980AF0D8FA00246AE0C8
:10182000A000296800900858E700C11903C90022E8
:101830001346F7F7C3F821D1601CC6B20BE0286845
:10184000B10040580022C11903C91346F7F7B6F892
:1018500004D1761CF6B22879B042F0D82879B0428B
:1018600002D1002007B0F0BD3246214628460AF0DA
:1018700037FF3246214606980AF032FF2968009861
:1018800008581F49C0190CC80020F6F793FF0646F8
:1018900002460B460091214628460AF0D9F9324605
:1018A0002146009B06980AF0D3F900261EE0B442B8
:1018B0001AD02868B10040580122C0190168406858
:1018C000D207504002910390009101902246314688
:1018D00028460AF0E9FA03990298019100902246FD
:1018E000314606980AF0E0FA761CF6B22879B04242
:1018F000DDD8641CE4B22879A04291D80120B1E778
:101900000000F03FF8B5C41DFF34FA34E6880F46F6
:10191000761C3004000C35D02069002832D0310705
:101920006CD1401C2061E168002924D0374B20682D
:1019300032091B5C5B1E1A4260D102F02DFB05468A
:10194000012823D9681C3BD08521206889000958CB
:10195000A9424DD8002F15D0E168FFF76BFD0500B7
:1019600012D0012D12D0681C2AD020680AF00CFF7A
:10197000002825D10CE02068FF30FF3002300089BC
:10198000B0423BD80420F8BD0720F8BD0220F8BDC6
:10199000012252020021206806F0ACF82946206896
:1019A000FFF736FC2168FF31FF3102310027C862A2
:1019B00010E00121017120680AF0E6FE002801D044
:1019C0000120F8BD2068FF30FF300230C16A491C99
:1019D0007F1CC1622068FF30FF3002308178B9423D
:1019E000E7D82168FF31FF310231C96AC91BC162E2
:1019F000E56029462068FFF70BFC2061E68031078F
:101A00002068C90D401860610020F8BD0202000086
:101A100070B50546EC1D0420FF340E46FA3423E071
:101A2000206806F0D5F8002823D1626911780029D2
:101A300016D0D27A9206920EE5290AD02E2908D025
:101A40000F2A06D0DF210A40082A0BD00021B1421C
:101A500011D000212846FFF755FF002804D008E0E8
:101A6000042006E00121F2E721690029D8D10028ED
:101A700001D00021216170BD70B50446002100F045
:101A800058F8002814D1E51DFF35FA352969286872
:101A900006F09EF800280BD168690078E5280AD086
:101AA000002808D001212046FFF72CFF0028EDD0A8
:101AB00004280AD00AE0FF34FF3402342169206888
:101AC00006F086F8050003D012E0072005460FE077
:101AD00020220021606906F00DF80B22A1696069DF
:101AE00006F000F820680121FF30FF30023001715C
:101AF000284670BD70B5C41DFF34FA34E18800F08B
:101B000018F8050013D12169206806F061F8050076
:101B10000DD120220021606905F0ECFF6169E5200C
:101B2000087020680121FF30FF3002300171284623
:101B300070BD70B5C41DFF34FA34E180A3680D4652
:101B4000012B3AD02068FF30FF30023041699942C2
:101B500033D9002B05D10178032905D1436A002B25
:101B600002D08078060113E00189A94225D9406A94
:101B700014E002F011FA0346401C1CD0022B1CD3C7
:101B80002068FF30FF3002304069984215D9AD1B04
:101B90002068B5421946ECD2FFF73AFBE360002813
:101BA0000BD029090818206129072068C90D4018A1
:101BB0006061002070BD012070BD022070BD00007A
:101BC00010B5094900220B5C002B0AD101220A54EE
:101BD0000A18800040184068127A01681046884749
:101BE0000246104610BD00007039002030B4054C8C
:101BF00023188000001940681B7A04691846A4461F
:101C000030BC60477039002030B4054D04462819B7
:101C1000A40064196468007AA468A44630BC6047D4
:101C200070390020044A1118800080184068097A31
:101C300042680846104700007039002030B4054D56
:101C400004462819A40064196468007AE468A4466C
:101C500030BC604770390020FFB5A1B0044617467C
:101C60001546342101A8F6F7D1FA14211BA8F6F77E
:101C7000CDFA02F017F906462300FDF7E3FC0C0746
:101C8000407EC7FDFCFBFAF95EF8F73F3A2130468B
:101C9000F6F7F4FA00286FD0441C3A212046F6F7F4
:101CA000EDFA0028F7D0021B214601A8F6F795FAB5
:101CB0003A212046F6F7E2FA0028ECD0441C3A21FB
:101CC0002046F6F7DBFA0028E5D0021B21461BA8C8
:101CD000F6F783FA01A8F6F7DBFA002807D01BA86D
:101CE000F6F7D6FA002802D01BAB01AA01E0F9A34F
:101CF000FAA2FDA10EA8FDF761FC00246AE13A21D9
:101D00003046F6F7BBFA0028C5D0821B314601A841
:101D1000F6F763FA01A8F6F7BBFA002802D0FBA396
:101D200001AA04E0FAA002F023F9F8A30246FAA1FE
:101D30000EA8FDF743FCFE4C4CE13A213046F6F785
:101D40009DFA0028A7D0821B314601A8F6F745FA74
:101D500001A8F6F79DFA002802D0ECA301AA04E03E
:101D6000EBA002F005F9E9A30246EBA10EA8FDF7EE
:101D700025FCEF4C0F342DE176E13A213046F6F7A1
:101D80007DFA002887D03A21401CF6F777FA002820
:101D900088D03A21401CF6F771FA00288DD03A21FC
:101DA000401CF6F76BFA002887D0441C2046F6F753
:101DB0006FFA0246214601A8F6F70FFA01A8F6F7D6
:101DC00067FA002819D0DBA11BA8F6F72AFA01A9A7
:101DD000F6F727FA034601AAD8A10EA8FDF7EEFBF5
:101DE0002021DC48F6F712FA01A8F6F751FA02466C
:101DF00001A9D848F6F735FA05E0D7A3D7A2CFA1B5
:101E00000EA8FDF7DBFBCA4C1B34E3E03A21304659
:101E1000F6F734FA002895D03A21401CF6F72EFA4E
:101E200000288FD03A21401CF6F728FA002889D0E4
:101E30003A21401CF6F722FA0028A3D0401C0446A1
:101E4000F6F726FA0246214601A8F6F7C6F901A8D8
:101E5000F6F71EFA002819D001AAC3A10EA8FDF7B3
:101E6000ADFB2021BB48F6F7D1F906E082E00AE19C
:101E700004E1DAE0BDE051E013E001A8F6F708FA6A
:101E8000024601A9B348F6F7ECF904E0B3A2B6A103
:101E90000EA8FDF793FBA64C273420460A3000908D
:101EA00098E03A213046F6F7E9F90028B3D03A2114
:101EB000401CF6F7E3F90028ADD03A21401CF6F7B4
:101EC000DDF90028A7D03A21401CF6F7D7F9002801
:101ED000A1D0441C2046F6F7DBF90246214601A8B2
:101EE000F6F77BF901A8F6F7D3F9002812D001AB79
:101EF000A2A2A3A10EA8FDF761FB20219548F6F749
:101F000085F901A8F6F7C4F9024601A99148F6F748
:101F1000A8F9F2E691A399A299A1EBE63A213046FD
:101F2000F6F7ACF9002888D03A21401CF6F7A6F95C
:101F30000028BBD03A21401CF6F7A0F90028B5D004
:101F4000401C04463A21F6F799F90028AED0021B4E
:101F5000214601A8F6F741F901A8F6F799F90028FA
:101F600005D08DA101A8F6F75CF9024600E08BA22E
:101F700094A17FE03A213046F6F780F9002874D02A
:101F80003A21401CF6F77AF900286ED03A21401C1D
:101F9000F6F774F9002868D0441C3A212046F6F779
:101FA0006DF9002861D0021B214601A8F6F715F94A
:101FB00001A8F6F76DF9002805D077A101A8F6F77A
:101FC00030F9024600E075A283A10EA8FDF7F6FAEB
:101FD000574C4934854E002D61D031460EA802F091
:101FE00009FB002855D0824806F09EF924982D1A46
:101FF000F1E73A213046F6F741F9002835D0441C84
:102000003A212046F6F73AF900282ED0021B214645
:1020100001A8F6F7E2F801A8F6F73AF9002801D08E
:1020200001AA00E02DA273A124E03A213046F6F780
:1020300025F9002819D03A21401CF6F71FF900288D
:1020400013D0441C3A212046F6F718F900280CD08A
:10205000021B214601A8F6F7C0F801A8F6F718F907
:10206000002805D001AA04E0FFE7012025B0F0BD5B
:1020700018A265A10EA8FDF7A1FA3EE667A10EA879
:10208000FDF79CFA39E669A001F072FF024669A1EA
:10209000F0E7229803F0DCF822980321C173002CAA
:1020A00015D03D46684E05E0304606F03DF92498CF
:1020B0002D1A0DD0002004F047F82146F6F7BDF8A0
:1020C0000028F1D0002004F03FF80099BEE0CDE0F8
:1020D000C1E0000031323334353600006669726D7C
:1020E000776172650000000041542B514654504303
:1020F00046473D226163636F756E74222C222573FF
:10210000222C222573220D0A00000000323100002B
:10211000646F6D61696E000041542B514654504FFD
:1021200050454E3D222573222C25730D0A000000D8
:10213000AC01002052414D3A0000000041542B51A7
:102140004654504745543D222573222C22257322A4
:102150000D0A00008C07002052414D3A7465313061
:10216000312E62696E00000041542B514654504795
:1021700045543D222573220D0A00000052414D00B6
:1021800041542B514654504346473D342C222F2571
:10219000732F2573220D0A002F0000002F76617225
:1021A0002F7777772F747261636B65725F737276C6
:1021B0002F66696C655F7372762F6669726D7761E1
:1021C00072652F0041542B51465450504154483DA4
:1021D000222573220D0A000041542B5146545043CE
:1021E00057443D222573220D0A00000060EA0000DA
:1021F0008813000041542B51465450555345523DCD
:10220000222573220D0A000041542B514654505090
:102210004153533D222573220D0A000041542B5196
:10222000494647434E543D300D0A000061706E6EC2
:10223000616D650041542B5149435347503D312C4A
:10224000222573220D0A000010270000F5F7F5FF84
:10225000002800D028E708480078002806D0002091
:1022600003F072FF014605A0FDF798F9002D01D09B
:102270000020FBE60220F9E6840100204445425597
:102280004720493A2067736D546F6B656E284E5531
:102290004C4C293A25730D0A00000000F3B581B0BB
:1022A0000C460868F5F7F4FF854D064600272868B8
:1022B000F5F7EEFFB04209D16868002806D029681A
:1022C00032462068F6F70CF800287DD002227DA166
:1022D0002068F6F705F8002877D002227AA1206856
:1022E000F5F7FEFF0028F7D0072278A12068F5F760
:1022F000F7FF00286AD0042276A12068F5F7F0FFE6
:102300000028F7D0072275A12068F5F7E9FF00281B
:102310006CD0062273A12068F5F7E2FF00287ED07A
:10232000072272A12068F5F7DBFF00287AD004228B
:1023300070A12068F5F7D4FF002878D004226FA19F
:102340002068F5F7CDFF002872D001226DA120682A
:10235000F5F7C6FF00286ED001226BA12068F5F7C3
:10236000BFFF00286CD0012268A12068F5F7B8FFF4
:1023700000286AD0012266A12068F5F7B1FF002885
:1023800068D0012263A12068F5F7AAFF002866D073
:102390000F2261A12068F5F7A3FF002866D00E2266
:1023A00061A12068F5F79CFF002866D04448001F13
:1023B000017800291FD00770012002F0A9FA01203E
:1023C00001F0AAFF012002E016E01AE01EE00BF087
:1023D0001DFB012002F00EF8012005F077FB012023
:1023E00002F0D4F80120FEF723FF01E014E016E02C
:1023F00051A0FDF7D3F8FEBD6A68214601989047C9
:1024000056E02146019809F0FFFD51E0022009F055
:10241000A9FC4DE006E00AE009F076FE48E0FCF792
:102420005FFC45E0FFF7BAF942E001E003E001207C
:1024300001F06CFF3CE02146019809F0F5FD37E022
:102440002146019809F056FD32E02146019809F035
:1024500095FD2DE0012002F09FF846A003E0012049
:1024600002F09AF848A0FEF7D3FC21E0F8F76EFFDF
:1024700001464AA0FDF792F81AE0002002F048FA5F
:10248000002001F049FF00200BF0C0FA002001F00D
:10249000B1FF002005F01AFB002002F077F80020C1
:1024A000FEF7C6FE002001F031FF3EA0FDF776F8F2
:1024B0000D2008F0B1FE0A2008F0AEFEFEBD0000BF
:1024C000A000002041540000617400007374616E2C
:1024D0006462790073746F700000000073636F6E44
:1024E000666967007265626F6F74000064636F6E87
:1024F000666967006F677073000000006367707340
:1025000000000000740000003100000032000000F4
:102510006D00000063000000656E67696E6565729E
:102520002067657420736E00656E67696E656572FD
:1025300020656E7465720000444542554720493A53
:10254000202A2A2A2A2A2A2A2A2A2A2A2A2A2A2AF5
:102550002A2A4E4F524D414C204D4F44452A2A2A9B
:102560002A2A2A2A2A2A2A2A2A2A2A2A2A2A2A2ACB
:102570002A0D0A0041542B514155444C4F4F503DB8
:10258000312C300D0A00000041542B514155444C70
:102590004F4F503D302C300D0A000000736E3D252A
:1025A000730D0A006F6B0D0A00000000094901203D
:1025B0000968002901D0002070470749CA69002A2C
:1025C000F9D1044A896828321268491E8A42F3D137
:1025D00002207047042500201806002070B50D4623
:1025E0000E4C0F214B20015520464D300646F5F785
:1025F0004FFE01463046F5F709FE002D05D028466E
:10260000F5F746FE0246294601E0042204A13046C1
:10261000F5F7E3FD2046F8F787FE70BD900900202E
:102620004E554C4C0000000010B5044600F0A2FDD1
:1026300000280ED120460BF0CFF9002809D1FF3435
:10264000FF340234A06AFFF78BF8002801D1002183
:10265000216010BDF3B585B00D4605980BF0BCF9AF
:10266000009000287ED1059CFF34FF340234E079CD
:10267000002877D1606A002878D0691C2DD0E068E6
:10268000A84200D20546A560002D56D0691E0598C7
:10269000FEF780FD6061226801461046FEF7B8FD36
:1026A00000287DD021686D1EFF31FF3102318B780B
:1026B0006A0A5B1E1A4015182089C005E5D0A26978
:1026C000AA42E2D0A07940063FD548780123059977
:1026D000FFF7B4FA002877D133E002C802910190E5
:1026E00021690226002920D00027B61C03910D463F
:1026F0007F1C206801F050FC0146012850D9481C7D
:1027000062D06D1CA942F2D00298864206D8019888
:1027100007600198039A4260083001902068FF30FA
:10272000FF30023040698842DED8606A0660029855
:10273000864203D8019800210160BAE01120009080
:10274000B7E0A079BF210840A07120680123FF30C5
:10275000FF30023040782A460599FFF755FA0028E5
:1027600032D101E085E001E0A561A2E0E068A84285
:1027700003D2A179890700D40546A0680190002002
:102780000290A060002D5CD020680390FF30FF30E5
:102790000230807846020198002816D0314600E0C9
:1027A00065E0681EF5F7DCFC074601983146401EDF
:1027B000F5F7D6FC874208D30198711E401E884366
:1027C000A0602D1A61690DE065E02169002908D13A
:1027D0000398FEF72FFE0146012848D0481C5AD026
:1027E0002161616100291DD12BE0A079800720685B
:1027F00005D5FEF71FFE010004D1354614E001F0B7
:10280000CBFB0146481C46D0012930D92068FF3057
:10281000FF3002304069884229D96161A06880197F
:10282000AD1BA060B542E0D8A0684019A060E805E3
:1028300007D02068FEF7ECFC002818D0690A0818B9
:1028400002902089C0052BD0A2690298824227D02D
:10285000A079400613D520680123FF30FF300230F5
:1028600040780599FFF7EAF9002814D103E0022027
:10287000E07107B0F0BDA079BF210840A0712068C9
:102880000123FF30FF3002304078029A0599FFF7AC
:10289000BBF9002802D00120E071EAE70298A061AC
:1028A000E168A068884204D9E060A079202108434B
:1028B000A0710098DDE70000F7B590B011981546BB
:1028C000012802D9132013B0F0BD10A801F0CCFBF1
:1028D000002801DA0B20F6E7FE4A810051580691E4
:1028E00000290CD0FF31FF31002202310A70C0B242
:1028F0000390FFF765F9C10703D00320E3E70C203D
:10290000E1E7400701D50A20DDE702AA012103988B
:10291000FFF76CF900287DD1029980297AD31198AC
:10292000002801D0002000E03F200190081A02900A
:102930000090681E054201D1002D10D17D210901B2
:102940000098F5F70DFC0021E34A00E0491C4B001C
:10295000D35A8342FAD84800DF4916310D5A012074
:102960004002854200D36D0A002D10D0802D00D981
:10297000802529460098F5F7F3FBD84901278842BE
:1029800000D30227D649884203D3032724E0012538
:10299000EFE7032F20D0012F26D04000001DFF308D
:1029A000FF300130400A0126079020200D90019849
:1029B00080190C90079940180D99441801986119D5
:1029C000091A0098814249D804AA03210398FFF705
:1029D0000DF9002815D10DE0C24980004018400AC9
:1029E000202607900020E1E741004018401C4008E5
:1029F000C01CD4E70498002803D00121C9038842F1
:102A000001D90120049001466018401E491E8843E8
:102A1000001B00E0E6E00490032F13D0079908188C
:102A20000790029C0798A11B091A0D98081A2946BD
:102A3000F5F796FB0F90022F09D0032F0BD0012F33
:102A400015D01AE00C99361808180C90E9E7A3493C
:102A5000884203D311E0A249884201D20E2032E716
:102A60000C200590119800280FD0F02048E001209C
:102A70000004844201D20120F3E7012000048442D3
:102A800001D20420EDE70620EBE7012252020021EB
:102A9000069805F02FF8069C0120FF34BF346070C3
:102AA000A0700020E07005982071FE2060710299EE
:102AB000019840188C49F5F753FB82083F210A43DF
:102AC0000490A271E071217200206072A072E07225
:102AD00002982073010A6173010CA173000EE07368
:102AE00006985521FF30E1308177AA21C177012373
:102AF000002206990398FFF7A1F8002872D1F82068
:102B0000069C0590012252020021204604F0F2FFAB
:102B10000B2276A1204604F0E5FF0023E372022099
:102B200020736573A673300AE07301202074032FAD
:102B30000CD040026074000AA074012102980904BC
:102B4000884205D2E074000A20750AE00020F1E70F
:102B5000214620310870020A4A70020C8A70000E69
:102B6000C870059860753F20207600206076FF21B0
:102B7000A176E076019820770198000A60770198A5
:102B8000000CA0770198000EE07701F06BFA802628
:102B90000490032F27D021462031C871020A0A72FF
:102BA000020C4A72000E88720798A07507981322CB
:102BB000000AE0750E712920887120464EA12B3045
:102BC00004F090FF2646FF365520E136B077AA2064
:102BD000F07701232146019A0398FFF72FF8002888
:102BE0008CD12AE0EEE021464031C870020A0A7119
:102BF000020C4A71000E887120462030079A02713B
:102C0000079A0023120A4271079A120C8271079ADE
:102C1000120EC2710222027343738373C3730122C3
:102C20000274437406228274C3740E702920887063
:102C30001322204635A14730C2E7032F06D1019A5F
:102C400001232146921D0398FEF7F8FF0C980122FC
:102C5000089052020021204604F04CFFFF20059905
:102C6000C0430491032F0FD0012F00D12C480843FB
:102C7000049020700498000A60700498000CA07002
:102C80000498000EE07015E001430491217004984F
:102C9000000A60700498000CA0700498000EE070A8
:102CA000FF2020716071A071E07120726072A072CB
:102CB0000F20E072089A0123501C089021460398C7
:102CC000FEF7BCFF00287DD10122520200212046E0
:102CD00028E000007C060020FAEB0108F60F000057
:102CE000F6FF000007020000C13E0000EBFE904D21
:102CF00053444F53352E30004E4F204E414D45200A
:102D00002020204641542020202020004E4F204EDD
:102D1000414D4520202020464154333220202000C0
:102D200000FFFF0004F0E6FE01200BE0089A0123FB
:102D3000501C089021460398FEF780FF00284ED1D2
:102D40000498401C0146049007988142EED3032F5B
:102D500000D00D9D089A0123501C0890214603982D
:102D6000FEF76CFF00283AD16D1EF3D1032F2ED150
:102D70005220207060706121A1704122E2707220A7
:102D800030717071B271F1710F980123401E307271
:102D9000010A7172010CB172000EF07202203073E0
:102DA00000207073B073F0735520B077AA20F077CD
:102DB000019A2146521C0398FEF740FF0123214649
:102DC000019A00E00BE0D21D0398FEF737FF0022C6
:102DD00011460398FEF70AFF002800D173E5012091
:102DE00071E50000F7B582B003980090684601F0E5
:102DF0003BF9002802DA0B2005B0F0BD104E85002B
:102E000074590027002C06D02046FEF7B3F9FF3492
:102E1000FF34023427700298002802D001214902B1
:102E20000F547051002802D00498012801D00020CE
:102E3000E2E7002203A902A800F0FEFBDCE70000A5
:102E40007C060020F7B5FFB08FB000280FD0C61D5C
:102E5000FF36D7060021FA36FF0E7A08316052009D
:102E60008FA983A800F0E8FB040004D0BBE0092090
:102E70007FB012B0F0BD8BA8899003A88F9900F0A5
:102E800033FE889D04000CD1002D03D0780803D0B8
:102E9000012102E0062404E0002103A8FEF734F932
:102EA0000446F806400F63D0002C1AD0042C12D12F
:102EB00000204F4902E0401C042804D20C22424367
:102EC0008A58002AF7D1042804D003A8FEF7D4FDBD
:102ED000044600E0122408200743889D002C0AD0F5
:102EE00081E0E87A1121084201D007247BE07807CD
:102EF00001D5082477E0380749D501F0B3F8A87365
:102F0000010AE973010C2974000E68740020E8724C
:102F100028776877A877E8772946839804F03CFB00
:102F200002900021284609F049FB83990120FF31D6
:102F3000FF31023108710298002826D08398029947
:102F4000FF30FF300230C06A0190839808F00CFC1B
:102F5000040048D183990298FF31FF31401E0231AD
:102F6000C8600199839804F033FE04000BD03AE066
:102F7000002C38D1E87AC10601D5042433E0B90722
:102F800001D5C007B1D1380701D520200743839868
:102F9000FF30FF300230C06A3562F061780801D03E
:102FA000012100E0002103A803F0F4FEB062002834
:102FB0001BD0B7710027F7712946839804F0ECFA0B
:102FC000306128461D30F5F79AF9297FB760000275
:102FD000B76108437762F06083983060FF30FF305C
:102FE0000230C088B080204642E70224FBE70000A0
:102FF00040390020FFB589B002910C980021016092
:10300000154609980AF0E8FC002812D1099CFF3403
:10301000FF340234E07900280BD1A079C00707D033
:10302000E168A0680127081A854200D9054699E0A1
:1030300007200DB0F0BDA168C80578D14C4B2068C1
:103040004A0A1B5C5B1E1A401606360E12D1002976
:1030500006D0626A002A05D00998FEF79BF804E0C2
:10306000206902E0616900F097FF022820D3411C2B
:1030700057D0606161692068FEF7CAF8002817D050
:1030800080190090680A049029D021683218FF3115
:10309000FF3102318878824201D9801B0490487840
:1030A000049B009A0299FEF7AFFD002839D102E097
:1030B0000220E071BDE7A07940060DD5A169009816
:1030C000081A0499884207D241020298012208187E
:1030D0005202099904F006FD0498460236E0A269FE
:1030E0000098824221D0A07940060ED520680123A5
:1030F000FF30FF30023040780999FEF79FFD00282D
:103100000FD1A079BF210840A07120680123FF30B2
:10311000FF3002304078009A0999FEF775FD0028CB
:1031200003D0E771012084E701E00098A0612089C5
:103130000121C005C00D49020E1AAE4200D92E462B
:10314000099932464118029804F0CCFC0298801983
:103150000290A0688019A0600C98006881190C98F2
:10316000AD1B0160002D00D065E7002061E7000085
:103170000202000070B505460AF02EFC002814D1AA
:10318000EC1DFF34FA34A1798A060ED5480611D514
:1031900020680123FF30FF30023040782946A269C1
:1031A000FEF74CFD002801D0012070BDA079BF21A1
:1031B0000840A071E169206804F00AFD0028F4D1FC
:1031C000256A2021E87A0843E872207B2877A089C5
:1031D000000A6877E068000CA877E068000EE877DE
:1031E0002846216909F0EAF900F03CFFA875010AB8
:1031F000E975010C2976000E68760020A874E87441
:10320000A079DF210840A07120680121FF30FF3044
:1032100002300171206809F06DFA70BD71B5FFB020
:10322000FFB095B0FFA90122503180A800F004FA48
:10323000002817D1FFA844308690FFA86E46016D84
:10324000304600F051FC00280CD102213046FDF739
:103250005BFF002806D1859D002D07D0E87AC007C6
:1032600006D007207FB07FB016B070BD0620F9E70A
:103270002946809804F090F9040019D0E87AC00635
:1032800016D5112288AD52013146284604F02AFC99
:10329000FFA9CC6202212846FEF74BFC0028E1D1B1
:1032A00000212846FEF7B4FB0028DAD00428D9D143
:1032B0003046FEF71FFC0028D4D1002C05D0214653
:1032C000809808F051FA0028CCD1809809F012FAC1
:1032D000C8E70000FFB583B00191069800210160A6
:1032E000154603980AF078FB00280AD1039CFF34A6
:1032F000FF340234E079002803D1A079800702D49A
:10330000072007B0F0BDA06801274119814272D3A0
:10331000ABE0A168C8056FD15B4B2268480A9B5C93
:103320005B1E18400606360E1CD1002906D0606AC6
:10333000002808D00398FDF72DFF08E02069002839
:1033400007D1002100E061691046FEF773F80028FC
:1033500051D0012837D0411C63D060612169002918
:1033600000D12061A07940060FD520680123FF30ED
:10337000FF3002304078A2690399FEF75FFC002815
:103380004FD1A079BF210840A07161692068FDF785
:103390003FFF002817D080190290680A00902CD0B7
:1033A00032182068FF30FF30023081788A4201D91C
:1033B000891B00914078009B029A0199FEF73EFC20
:1033C00000282ED102E00220E0719AE7A16902985C
:1033D000081A009988420BD241020198012209186B
:1033E0005202039804F07EFBA079BF210840A0712F
:1033F000009846022DE03BE018E0A1690298814266
:1034000012D0E168A06888420ED220680123FF3004
:10341000FF3002304078029A0399FEF7F5FB00284E
:1034200002D0E77101206CE70298A0612089012198
:10343000C005C00D49020E1AAE4200D92E460399AE
:1034400032464018019904F04DFBA0794021084311
:10345000A071019880190190A0688019A060069859
:10346000006881190698AD1B0160002D00D050E75F
:10347000E168A068884200D9E060A0792021084373
:10348000A07100203DE7000002020000FF22D205EB
:10349000D14201D3120251400160704710B5024879
:1034A000F6F700FD10BD00006C02002070B5054667
:1034B00003F0B2FE22492348F6F7CEFC204C0C3C28
:1034C000002804D02078002829D01FA025E0002261
:1034D0001B492448FFF786FC002804D020780028E8
:1034E0001DD021A019E026A000F042FD28A1F4F78C
:1034F000D6FE00281ED12078002802D025A0FCF797
:103500004DF80122520200210D48FFF7D5F900289D
:10351000207806D0002802D02BA0FCF73FF800202E
:1035200070BD002802D035A0FCF738F841A114A0E6
:1035300009F09CF9002D01D000F062FF012070BD60
:103540006C02002028EC0108444542554720493AC6
:10355000204C696E6B447269766572206661696C95
:103560000D0A0000C41D0020444542554720493A39
:1035700020665F6D6F756E74206661696C0D0A0060
:103580006770737468726573686F6C640000000024
:1035900032000000444542554720493A20665F6D9D
:1035A0006B6673207374617274202A2A2A2A2A2A6D
:1035B0002A2A2A2A2A2A2A2A2A2A2A2A2A2A2A2A6B
:1035C0002A2A2A2A0D0A0000444542554720493A32
:1035D00020665F6D6B6673206661696C2A2A2A2AF1
:1035E0002A2A2A2A2A2A2A2A2A2A2A2A2A2A2A2A3B
:1035F0002A2A2A2A2A2A2A0D0A000000444542556E
:103600004720493A20665F6D6B667320737563636C
:103610006573732A2A2A2A2A2A2A2A2A2A2A2A2A3D
:103620002A2A2A2A2A2A2A2A2A2A2A2A2A2A0D0A37
:103630000000000033000000F0B505468FB0002008
:1036400028601746084600F00FFD060002D50B2043
:103650000FB0F0BD9A49B0000C58002C15D02C606A
:10366000E51DFF35FA352878002804D06878FEF784
:10367000D9FAC1070BD000202870F0B26870FEF7AD
:103680009FFAC10709D00320E2E70C20E0E7002FF2
:1036900001D0400705D40020DAE7002F03D040070F
:1036A00001D50A20D4E7002631462046FDF7F4FC78
:1036B000012826D130010719FF37BF373879002894
:1036C00007D038460930F4F71AFE0102387A014370
:1036D00000E00021B20009A8761C8150042EE9D335
:1036E0000027B90009A84658002E06D031462046CA
:1036F000FDF7D2FC002801D10AE002207F1C042F34
:10370000EFD3032802D000287CD101E001209FE7FD
:10371000E01C0690217BE27A08021043C11FFF39AA
:10372000FA396FD1E08A002807D120462530F4F716
:10373000E6FD2421095D00020843A8610D90217C6B
:10374000E970012901D002295CD141430491677BD2
:10375000AF70002F56D0781E074253D1A17C627CF7
:10376000080210432881089000074BD10698417C3D
:10377000027C0802104307D120462130F4F7BFFD38
:103780002021095D00020843E1890391002939D015
:10379000049A8A180899090951180691884231D368
:1037A000401A3946F4F7DCFC00282BD045490127A4
:1037B000884200D302274449884200D30327801C53
:1037C00068610E90EE6103983018286206997118AE
:1037D000A962032F18D00899002913D00499401822
:1037E00068620E98022F1ED04100401841080E98C2
:1037F000C007C00F0818FF30FF3001300D99400A94
:10380000814212D20D2023E708980028FAD12046E1
:103810002D30F4F774FD2C21095D00020843686225
:103820000E988000E7E74000E5E70020C0432861EC
:10383000E86080206871032F36D1208E012833D1B3
:10384000711C204604F0C4F900282DD16871FF20B6
:10385000FF30005B1D49884226D1601CF4F74FFD04
:103860002178000208431A4988421DD12046FF30C2
:10387000E630F4F744FD2646FF36E13631790002A2
:103880000843144988420FD130460930F4F737FD18
:10389000317A00020843286130460D30F4F72FFDDD
:1038A000317B00020843E86005482F70001F018843
:1038B000491C0180E9802046FDF75CFCEBE6000036
:1038C0007C060020F60F0000F6FF000055AA00005D
:1038D0005252614172724161F8B50D4606460027A9
:1038E00000F0D4FA002801D0FDF716FFF8F7C0F970
:1038F0002D48F8F775F92D4C002807D0F8F7CAF9CC
:103900000146207800284CD029A013E026486060AA
:1039100019E0F05DA060A26802207F1C6168F8F7E2
:103920007DF9002809D0F8F7B5F90146207800287C
:1039300037D028A0FBF732FE33E060682E49001D27
:103940006060884201D2AF42E3D9F8F75DF91648CA
:1039500060600020E060284F0EE061680A68A260A5
:10396000325CA3689A4202D0E268521CE260091DF0
:10397000401C6160B94201D2A842EED900F086FA3B
:10398000002803D003F084FC08F020FEE068002843
:1039900005D02078002804D0E16818A0CAE70120EB
:1039A000F8BD0020F8BD0000000C0808E405002068
:1039B000444542554720493A2044415441454550E9
:1039C000524F4D204552415345204641494C2025F8
:1039D000780D0A00444542554720493A2044415455
:1039E00041454550524F4D20464C41534820464199
:1039F000494C2025780D0A00FF1708084445425518
:103A00004720493A204D656D6F727950726F677229
:103A1000616D5374617475732025640D0A00000094
:103A2000F8B54A002B4B520DD6182B4A0C460546CA
:103A3000142E2BDA002E12DA284BF4F7A1FD002207
:103A40001346F4F7CFFF40D2002C02DB00242546BA
:103A50003BE060004008284337D0214C14E0214F60
:103A60000B46F7403B402B4331D01C4BF4F788FD0D
:103A700000221346F4F7B6FF27D2002C03DA012008
:103A80000005F0400419BC4300251EE0332E1EDC67
:103A900033460027143BFF43DF40384217D00F4B1B
:103AA000F4F718FE00221346F4F79CFF0DD2002C09
:103AB0000ADA142E0CD03420811B012088404019D2
:103AC000A84200D2641C0546BD4321462846F8BDE5
:103AD000641CF9E701FCFFFF9C7500883CE4377E1D
:103AE0000000F0BFFFFF0F00F3B581B0029801782E
:103AF0002F2901D05C2901D1401C0290019C002596
:103B0000FF34FF340234A56002980078202805D2E3
:103B100000210198FEF70DF86561FEBD02A901982C
:103B2000FDF7E2FC0028F8D1019800210090FEF793
:103B300000F8002826D1009DFF35FF3502352969A0
:103B4000286804F045F800281CD169690A78002A21
:103B500005D0CA7A12070FD40A26AA6903E0042006
:103B600010E0761E06D30B781778491C521CDB1B1D
:103B7000F7D001E0002B05D000210098FDF7C2FE30
:103B80000028DCD0A1690028C97A05D00428C4D156
:103B90004907C2D40520FEBD4907FCD46169C87A33
:103BA000C006F7D5206803F0F7FCA060B6E7000078
:103BB00013B50B4C0122234669460A48F9F778FFF2
:103BC0000028F7D10848007805E02346012269461D
:103BD0000648F9F76DFF0028F7D100981CBD0000DA
:103BE000FFFF0000801100209C000020F011002049
:103BF000F8B5564C30260546012902D000F02EF9C2
:103C0000044603CC00221346083CF4F7D7FE02D149
:103C1000392006550BE003CC00221346083CF4F78C
:103C2000E1FE01D24E2100E053213920015500224E
:103C30001346E168A068F4F7C1FE02D13A200655A8
:103C40000BE000221346E168A068F4F7CBFE01D236
:103C5000452100E057213A20015503CC083C49009A
:103C6000490804F011F903C4616820684900490853
:103C7000083C04F009F9E160A060062700970CCC2D
:103C80002846083CF6F760F825462035697E017025
:103C90002C2646700097801CE368A268F6F754F85B
:103CA000A97E01704670012700970CCD801C083D4D
:103CB000F6F74AF8009763692269F6F745F8009726
:103CC000E369A269F6F740F80222216B03F0EAFBF0
:103CD000E16A0222491C03F0E5FB7D22A16A120180
:103CE000914200DD891A022203F0DCFB0670297D77
:103CF0000222401C03F0D6FB697D022203F0D2FBB6
:103D0000A97D022203F0CEFB11A108F083FC04463A
:103D1000FCF724FF0146204608F07CFC0DA108F0CA
:103D200079FC044600F052F80146204608F072FC87
:103D300008A108F06FFC044608F0FEF90146204691
:103D400008F068FC0449FAF78DFAF8BD90090020E4
:103D50002C312C002C0000008C0E00200121C90603
:103D60004868034AD0619061096881F30888004778
:103D70008401002070B50F4C0646A078002813D1AE
:103D80000125A57018210C48F4F740FA0A490B48A0
:103D90000D604D60886010220A610948C860642285
:103DA0004A61E903A180E080182203493046F4F714
:103DB00014FA70BD5801002010090020FF3F0000D8
:103DC000FFFF000010B507F0DFFA10BD10B5142199
:103DD0000848F4F71BFA0848806A08494843032159
:103DE0000902F4F7BDF9024605A10248FBF7E6FB1C
:103DF000004810BDBE06002004000020E02E000098
:103E0000766F6C746167653D2564000010B50A210A
:103E10000848F4F7FBF90848806A08494843032139
:103E20000902F4F79DF9024605A10248FBF7C6FB1B
:103E3000004810BDD206002004000020E02E000043
:103E40002564000001491520085670470400002031
:103E50000148006F7047000040230020044910B55E
:103E60004022881AF4F7B9F90148403810BD000023
:103E7000F82300200148407870470000F805002032
:103E800001484078704700008401002001484078D4
:103E900070470000000000200148806E704700005D
:103EA0004023002000487047AC07002000487047BE
:103EB000B91D0020004870479801002010B5024845
:103EC000FCF7A6FF10BD000004E7010870B5124D15
:103ED00004462A78002A03D0014610A0FBF75EFBB7
:103EE00022212046F4F7CAF9401C04462221F4F7A7
:103EF000C5F9064614211048F4F788F9321B21460B
:103F00000D48F4F76AF92878002803D00A490BA075
:103F1000FBF744FB70BD0000A8000020444542555B
:103F20004720493A20676574536D734E756D62651D
:103F3000722025730D0A0000780700204445425581
:103F40004720493A206E756D6265723A25730D0AF5
:103F5000000000000248407CC00700D001207047EC
:103F600028090020014840787047000060020020C6
:103F700070B50546074C05E02846F4F790F900288F
:103F800005D00C3421680029F6D1002070BD60688E
:103F900070BD000070020020F0B585B00C460746E9
:103FA00002290ED3FE1DFF36FA367069A04208D9E9
:103FB00000253078ED43012807D002282ED00328B1
:103FC0003CD00125284605B0F0BD600800190090DE
:103FD000316A400A0918384603F0FAFD0028F1D189
:103FE0000098C005C00D385C03900098401C0090FC
:103FF000316A400A0918384603F0EAFD0028E1D189
:1040000000980399C005C00D385C00020843E10721
:1040100001D00509D6E705052D0DD3E7306A210A41
:104020004118384603F0D4FD0028CBD12006C00D3E
:10403000C019417800780D020543C3E7306AE109F1
:104040004118384603F0C4FD0028BBD16006C00DFE
:10405000C419601CF4F753F92178000208430501E4
:104060002D09AFE70020704710B5044600202268F4
:10407000C043002A13D0114600E0491C0B78212BC5
:104080000ED33A2BF9D11378521C303B0A2B06D2AF
:104090008A4204D1002B02D1491C1846216010BD70
:1040A000002010BD70B5054604F0AAF80748C468A2
:1040B00007480078002803D0214606A0FBF76EFAD7
:1040C0002846FDF783F8204670BD0000F42100204B
:1040D00060020020444542554720493A204D794628
:1040E000696C652E6673697A653A25640D0A00006D
:1040F0000149022008567047A800002070B51546F7
:104100000C46064606E02A463046F4F7E9F8002851
:1041100005D0103421680029F5D1002070BD20465B
:1041200070BD0000F0B53C4C87B0E06A0426304317
:10413000E062E06A002530400590201500900120E3
:10414000032701AAA1C269463448F7F747FE0122B6
:1041500091023248F7F709FFE06A01210843E06263
:10416000E06A01950840059080200090052069468E
:10417000039702950007F7F731FE05200122802101
:104180000007F7F7F2FEE16A02200143E162E16A0B
:104190000195014005910120009003970295694621
:1041A0001F48F7F71BFE012211461D48F7F7DDFEF9
:1041B000E06A3043E062E06A0195304005902020DB
:1041C00000906946039702951448F7F707FE01220D
:1041D00020211248F7F7C9FEE06A3043E062E06A46
:1041E00001953040059001200090694603970295A3
:1041F0000A48F7F7F3FDE06A3043E062E06A0195B0
:1042000030400590102000906946039702950348BE
:10421000F7F7E4FD07B0F0BD0010024000080050C1
:104220000004005010B5F6F7F1FF012010BD0000AA
:1042300070B5354D41B22C4620342173E07A002808
:1042400038D0E27A284600268038022A16D0E27A50
:10425000062A13D0E27A012A3DD0E27A042A3AD023
:10426000E27A052A26D12A8C531C9BB22B848154D6
:10427000032B1FD1017824293BD040E02A8C7E2AD1
:1042800019D8242902D002E0012018E02E842A8CBB
:10429000237B511C89B2298483546A8C002A14D050
:1042A0008A420ED1184829688038F4F719F8002896
:1042B00001D16E8470BDE07A062820D0E4E7E07278
:1042C00070BD207B0A28F6D070BD227B0A2AFBD164
:1042D00046540320F3E72429F6D12E84227B0121C2
:1042E00029840270E07A042801D00220E7E7052043
:1042F000E5E74178472902D18078502801D0042091
:10430000DDE70620DBE70000C02200200149C8707D
:1043100070470000F8050020014908707047000050
:10432000F805002030B50E4887B0C26A01210A4363
:10433000C262C06A0C0208400094059000200290FE
:104340000320052501912D07039069462846F7F7BC
:1043500045FD012221462846F7F707FE07B030BD8C
:104360000010024030B50E4887B0C26A01210A43EE
:10437000C262C06A0C0208400094059000200290BE
:104380000320052501912D07039069462846F7F77C
:1043900025FD002221462846F7F7E7FD07B030BD8E
:1043A0000010024030B5124887B0C26A01210A43AA
:1043B000C262C06A0C02084000940590002002907E
:1043C0000320052501912D07039069462846F7F73C
:1043D00005FD21462846F7F7C3FD002806D0002238
:1043E00021462846F7F7C1FD07B030BD0122F7E7A7
:1043F000001002400149087070470000A80000202A
:1044000030B50E4887B0C26A04210A43C262C06A4E
:104410000C020840009405900120019000200290B9
:104420000320074D039069462846F7F7D7FC002282
:1044300021462846F7F799FD07B030BD001002402D
:104440000008005030B50E4887B0C26A04210A4304
:10445000C262C06A0C0208400094059001200190DD
:10446000002002900320074D039069462846F7F785
:10447000B5FC012221462846F7F777FD07B030BD8D
:10448000001002400008005070B505460C4620356B
:104490000CE00A2C05D30A2003F046FF0A3CA4B224
:1044A00004E0641EA4B2012003F03EFFE87A032872
:1044B00001D0002CEDD1E87A032801D0002070BD96
:1044C000012070BD00B5104887B0C26A04210A43BC
:1044D000C262C26A0A400592416B012211434163E4
:1044E0005003009009480190002002906946084856
:1044F000F7F774FC06210720F9F764FE0720F7F7A9
:10450000DDFF07B000BD00000010024000002110D8
:104510000008005070B58AB018216846F3F776FE9F
:104520006846FFF727FC17490120C8610020FFF704
:1045300049FC0646652823D00120FFF743FC0546C9
:1045400065281DD00220FFF73DFC0446652817D0E2
:1045500006A93046FCF706FD07A92846FCF702FD30
:1045600008A92046FCF7FEFC074B0698D86007997F
:104570001961089A5A61F5F71FFB00200AB070BD57
:104580006520FBE7EC080020580100200149087075
:1045900070470000580100200149C87170470000B1
:1045A0008401002010B504460D4800F01BF80028D7
:1045B00012D101F0C9FD0A490B31F5F73BFF002884
:1045C0000CD0002001F0C0FD05491831F5F732FF8D
:1045D000002801D00C20E074E07C10BD0B20FAE72D
:1045E000D4E6010810B50023FF211A46F53100F08A
:1045F00007F810BD10B500231A4600F001F810BDF1
:10460000FFB5164C002581B016460746002809D094
:10461000E5731800606001D0F3F73AFEA060002E49
:1046200004D004E02846E57405B0F0BD0C4E2046E9
:10463000266000F00DFE384601F04CF80023606C57
:104640001946029A09F058FB012801D0E57301E0F0
:1046500001F060FD01F0B8FCE07CE5E728090020EE
:104660009BE60108F8B50446407C0025C0070028F9
:1046700058D1206C00688047022802D1204600F003
:1046800065F9204600F034FE00F0E6FA002802D07A
:104690001020E074F8BD204601F0BCFD0227234E37
:1046A000002818D1206C80688047002813D1206C26
:1046B000C068804700280ED1206C00698047002820
:1046C00009D11B48FFF78EFF002804D119A0FFF77E
:1046D00089FF00280DD0F068401CF0601848C57CA8
:1046E000206C40688047206C00688047002815D007
:1046F00018E0607C012108436074E573204600F0F7
:10470000A7FDE7730E48E5740621A830F560C17275
:104710000C48018820221143018004E0204600F06B
:1047200097FDE773E574E07CF8BD0000840100208C
:1047300023E70108617473303D300D0A000000006A
:10474000280900200200002010B50E4886B0C26A79
:1047500002210A43C262C06A0B4C08400590402007
:1047600000900020019002900320039069462046AB
:10477000F7F734FB002240212046F7F7F6FB06B09E
:1047800010BD00000010024000040050F8B55B4C62
:1047900040B220740D2865D000250A2800D1257468
:1047A000E07B012806D0554F2037022864D000282E
:1047B0005ED098E010216156002906D0E26A606A56
:1047C00090422FD30920E0743FE0A16A606A8142E1
:1047D00038D0411C616205702168A06AF3F75FFD63
:1047E000002817D04649A06AF3F759FD002815D0D4
:1047F0000B224449A06AF3F773FD00280ED041490B
:104800000B220C31A06AF3F76BFD002806D0606A1A
:10481000A06217E0606A0570E57416E0606A0570D2
:104820000120D0E7421C626201706168002909D052
:10483000626AA06A131AA268934203D1F3F750FD8B
:10484000002810D0E07C02280CD0E5730095694662
:10485000606C09F0AEFB0098002803D001202A49C3
:1048600000074860F8BD606A411C61620570D1E7CD
:10487000FFF770FB002836D0244E3079002805D091
:104880001020205624280BD02B2809D03571102158
:104890006156384606F066FD207C2A2806D008E0DE
:1048A00035710021384606F05DFDF0E7F078401CD8
:1048B000F070F07800280AD0401CC0B2F0700428D4
:1048C00000D004D9F5700021384606F04BFD1020C9
:1048D0002056202803D03E28C4D100210AE0307998
:1048E000401C3071F8BDE07B0328FBD110216156DC
:1048F0000029F7D0384606F035FDF8BD280900201C
:10490000A9E60108C0E7010800ED00E084010020ED
:1049100001490870704700008401002010B502466C
:1049200005A10948FAF74AFE0023FF211A46F5318E
:104930000548FFF765FE10BD41542B434D47443DEC
:1049400025640D0A000000008C0E002010B50446FE
:10495000407C4008400060747D20C00003F0E4FC0F
:104960000023104A104911A0FFF74AFE002804D086
:104970000F48FFF737FE00280ED1206C40688047B3
:10498000206C00688047FF20F53003F0CDFC204606
:1049900000F06CF9002804D000F016FA204601F06F
:1049A000E3FB10BDE1E70108102700002B2B2B00D3
:1049B0009EE60108F8B5FF250027022658489135E4
:1049C0007D242401009002E0204603F0ADFC304637
:1049D000761EF6B2002808D02B4622460820009901
:1049E000FDF73AF90700EFD101E0002F7ED1012653
:1049F00007E0204603F098FC3046761EF6B2002809
:104A000008D02B4622460A200099FDF725F9070019
:104A1000EFD101E0002F6CD1012607E0204603F022
:104A200083FC3046761EF6B2002808D02B4622467C
:104A300006200099FDF710F90700EFD101E0002FE3
:104A400057D1012607E0204603F06EFC3046761E63
:104A5000F6B2002808D06423224607200099FDF70B
:104A6000FBF80700EFD101E0002F42D1012607E05B
:104A7000204603F059FC3046761EF6B2002808D0D6
:104A80006423224609200099FDF7E6F80700EFD1DC
:104A900001E0002F2DD1012607E0204603F044FC61
:104AA0003046761EF6B2002808D064232246042041
:104AB0000099FDF7D1F80700EFD101E0002F18D1E0
:104AC000184803F031FC012607E0204603F02CFCD7
:104AD0003046761EF6B2002809D02B462246052025
:104AE0000099FDF7B9F80700EFD104E001E0002FCD
:104AF00001D03846F8BD012607E0204603F014FC3B
:104B00003046761EF6B2002807D0642322460320E2
:104B10000099FDF7A1F80500EFD12846F8BD000087
:104B20002809002088130000F8B5FF250027022679
:104B30002A4891357D242401009002E0204603F0AC
:104B4000F3FB3046761EF6B2002808D02B462246EC
:104B500000200099FDF780F80700EFD101E0002F59
:104B60003AD1012607E0204603F0DEFB3046761EF0
:104B7000F6B2002808D02B46224601200099FDF706
:104B80006BF80700EFD101E0002F25D1012607E0E7
:104B9000204603F0C9FB3046761EF6B2002808D046
:104BA0002B4622460B200099FDF756F80700EFD15F
:104BB00005E0002F10D102E0204603F0B5FB30469F
:104BC000761EF6B2002807D0C8232246022000999C
:104BD000FDF742F80700EFD13846F8BD280900205C
:104BE000FEB500258581044685730220E0732046CA
:104BF00020300F460E46019028E0A07B3E4601285B
:104C000007D0A089FF21FF31884209D30120A0737A
:104C100012E06846007800280ED1A573A5810BE04C
:104C2000694600228A560146401C0A4BA0815A540C
:104C3000002A01D10020FEBD6946019806F07AFBEA
:104C40000028DAD1052003F06FFB761F002EF3D188
:104C50000220FEBD8C0E002003480078002801D001
:104C600000207047012070471801002070B50446ED
:104C7000407CF721084060741B48FFF7B3FC002814
:104C800030D101F061FA18492231F5F7D3FB0E2536
:104C9000002807D101F058FA13493831F5F7CAFB5B
:104CA000002812D010484330FFF79CFC002807D1A1
:104CB00001F04AFA0C494F31F5F7BCFB002810D03F
:104CC000607C0821084360740CE0002001F03CFA8D
:104CD00005492D31F5F7AEFB002802D00D20E07418
:104CE00000E0E574E07C70BD67E7010830B50E4870
:104CF00087B0C26A02210A43C262C06A0C0208403D
:104D00000094059001200190002002900320074D9F
:104D1000039069462846F7F761F8012221462846A4
:104D2000F7F723F907B030BD00100240000400502F
:104D300030B50E4887B0C26A02210A43C262C06A17
:104D40000C02084000940590012001900020029080
:104D50000320074D039069462846F7F73FF80022E5
:104D600021462846F7F701F907B030BD0010024090
:104D70000004005030B5124887B0C26A02210A43CD
:104D8000C262C06A0C0208400094059001200190A4
:104D90000020029003200B4D039069462846F7F748
:104DA0001DF821462846F7F7DBF8002806D0002238
:104DB00021462846F7F7D9F807B030BD0122F7E7BA
:104DC0000010024000040050F0B5174887B0C16AD7
:104DD00001242143C162C06A25032040009505904B
:104DE0000026032701AAD0C2052069460007F6F76E
:104DF000F5FF0520002229460007F7F7B6F8E5027F
:104E000001AA0095D0C2052069460007F6F7E6FF23
:104E10000520002229460007F7F7A7F8FF20F53004
:104E200003F082FA07B0F0BD00100240F0B52F4C3D
:104E300087B0E06A04273843E062E06A0025384022
:104E40000590601500900120032601AA61C2694601
:104E50002748F6F7C3FF012251022548F7F785F8E6
:104E6000E16A02200143E162E16A00970140214FBB
:104E7000059101950396029569463846F6F7AEFF0F
:104E8000012204213846F7F770F8E06A012108434F
:104E9000E062E06A0C030840052700943F07059094
:104EA00001956946039602953846F6F797FF012269
:104EB00021463846F7F759F86410012001AA0094FA
:104EC00061C269463846F6F789FF00222146384616
:104ED000F7F74BF87D20C00003F026FA01222146A7
:104EE0003846F7F742F807B0F0BD00000010024066
:104EF0000008005000040050F8B50446864801251B
:104F000000780F46002802D084A0FAF747FB8C4EA9
:104F1000002F01D08B4901E07D21C9002046FFF719
:104F20005FFE002802D0002F5ED1F8BD8648F3F75F
:104F3000AFF900286FD0072284A18348F3F7D0F996
:104F40000028F7D0122283A17F48F3F7C9F900287F
:104F500042D0102284A17C48F3F7C2F900283BD04C
:104F6000092286A17848F3F7BBF9002834D005223E
:104F700085A17548F3F7B4F900282DD0102284A13B
:104F80007148F3F7ADF9002826D0052285A16E48B7
:104F9000F3F7A6F9002828D0052284A16A48F3F780
:104FA0009FF9002838D05C48817800290CD0002176
:104FB000817063480921C9013C30F3F727F90021CA
:104FC000614801F057F9002504227AA15E48F3F701
:104FD00087F9002827D030E04F48007800285FD0BC
:104FE000594976A0FAF7DAFA5AE02C215648F3F735
:104FF00045F95549421A4848891D1430921FF3F764
:1050000030F94548007800288FD0434971A0143109
:10501000FAF7C4FAF8BD7BE04B48FEF757FF3E486D
:105020000121817074E046480921C9013C30F3F741
:10503000EDF86E48FBF7ECFE002507226C4942486C
:10504000F3F74EF90028E5D007226A493E48F3F706
:1050500047F90028DED0072267493B48F3F740F9BB
:10506000002821D0112265493748F3F739F9002883
:1050700043D007225F493448F3F732F90028C9D0FA
:105080005A490822CB313048F3F72AF9002807D0D3
:1050900056490E22EC312C48F3F722F90028B9D1F9
:1050A0002046FFF753FCB5E701212748F9F726F919
:1050B000034604202249F072403900200B64486402
:1050C000180015D0DF68002F12D0012251021E48AF
:1050D000B847002806D12046FFF738FC1A4948A0F7
:1050E00000F0D2F80320F07215484038F6F71CF9AA
:1050F0000027002D00D00FE78CE7A07C401CC0B239
:10510000A074022804D3607C042108436074C7E7BC
:10511000002D00D0FCE67DE7840100204445425587
:105120004720493A2067736D50726F636573734807
:105130006F7374526573706F6E73650D0A000000B3
:10514000D0090020983A00008C0E00202B514955C0
:1051500052433A002B51495552433A202270647011
:1051600064656163742200002B4350494E3A204E1F
:105170004F542052454144590000000053454E44CD
:10518000204641494C0000004552524F5200000059
:105190002B51495552433A2022636C6F7365642248
:1051A000000000002B4353513A0000002B434D54A4
:1051B0003A00000052494E47000000004445425565
:1051C0004720493A2067736D4275666665202573EE
:1051D0000D0A0000444542554720493A207369674B
:1051E0006E616C3A25730D0A000000000DE701089E
:1051F000DAE40108EAE40108E2E40108C8E401088D
:10520000222B3133373730383230333233220000FB
:1052100030B50E4887B0C16A01221143C162C06A2D
:10522000D4031040009405900020019002900320C8
:1052300005252D07039069462846F6F7CFFD002285
:1052400021462846F6F791FE07B030BD0010024017
:1052500010B504460020E0732046094A0949203071
:1052600006F07AF80220E074002301221946606CEF
:1052700008F042FD0128F7D00120E07310BD0000C6
:105280007C0400000C0A002010B588B00C460246D1
:105290000EA16846FAF792F97D2110A300220901B8
:1052A0006846FFF7ADF900280BD10DA12046F2F7B3
:1052B000B8FF0C49FFF79EF9002802D00AA000F0C1
:1052C00009FA0A48C07C08B010BD000041542B43C5
:1052D0004D47573D25730D0A000000003E20000099
:1052E0001A000000204E00001B00000028090020CA
:1052F00010B504462348FFF775F900283BD1214833
:105300004430FFF76FF9002835D11E482030FFF7F1
:1053100069F900282FD10021204600F065F8002807
:1053200029D10121204600F05FF8002823D1164C36
:105330002088C006800F1ED114A0FFF753F916A0D5
:10534000FFF750F920881021084320801648007884
:10535000002802D015A0FAF721F91B4C1BA11D480B
:1053600007F058F9214607F055F91BA107F052F94B
:105370001849F8F777FFFEF7BBFE022801D1F9F7CD
:10538000AFFC10BD17E701080200002041542B4379
:105390005343413F0D0A000041542B435343533DB7
:1053A0002247534D220D0A008401002044454255F6
:1053B0004720493A2053656E6420494E4954205392
:1053C0004D530D0A0000000074090020244652438A
:1053D0004D442C008C0E00202C5F496E6974534D97
:1053E000532C2C3000000000F3B589B00020064695
:1053F0000490074602900998FFF72AFF09990220B6
:10540000C8738B4800F066F9F5F716FD89480288E5
:1054100008218A43028000E18748F2F739FF002F14
:1054200041D00027002EF6D1002810D082480A99DA
:10543000F8F764FF03000A9811D0002812D0DC6846
:10544000002CE8D0012200200499A047E5E00A984A
:105450000028E0D104980028DDD00646DDE00028D1
:10546000D9D1F7E758680028D5D002990029D2D0C1
:10547000C16800290ED00468029A9442EAD2491CFD
:105480008268C16059680298086059680498886009
:105490000492DFE70121C1605968029808605968E9
:1054A00004988860B9E00028B5D0644800780028E6
:1054B0000BD0614962A0FAF771F8604800780028C3
:1054C00003D0314664A0FAF769F869A15A48F2F7A7
:1054D000E6FE002807D0062266A15748F2F700FF33
:1054E000002898D111E0002E0DD03046FFF716FAB3
:1054F000002800D17AE77D21090160A0FFF77AF842
:1055000001200BB0F0BD0020FBE70127002E7DD16C
:1055100000200446029048480390F9F7A9FD0BE0EB
:10552000F9F7A6FD0546002C06D0022C0ED0042C5F
:105530002CD0052C60D145E0082888DB3E480A22A3
:105540000521801D02F066FC049055E0002D01D07D
:10555000142D04D94D484EA10968016577E74B48E1
:1055600014215030F2F752FE48482A465030039931
:10557000F2F777FE45490020503148552F48007812
:10558000002839D044A0FAF709F835E0002D33DDC2
:1055900007A906A80191009005AB46A229460398E9
:1055A00002F01CFD032838D10598FF216E310A381E
:1055B000484306990C225143401807994018414925
:1055C000484318E0002D17DD07A906A801910090B7
:1055D00005AB3DA22946039802F000FD0328BDD18A
:1055E000059818214843069940183C2148430799DB
:1055F0004118029808180290641CE4B2062C08D2E4
:105600000398F9F725FD0390002800E005E087D115
:1056100001E0062C01D0042CA0D17D2109010998BC
:10562000FFF7DEFA002800D1F6E6022069E7000065
:105630004BE70108020000208C0E002084010020AE
:10564000444542554720493A2067736D4275666666
:1056500065722025730D0A00444542554720493A9A
:1056600020736D7344656C6574652025640D0A00B4
:105670004F4B00002B434D474C3A000041542B4305
:105680004D47443D312C340D0A000000A80900208C
:105690006E756C6C00000000444542554720493A45
:1056A0002067736D53656E64657244412025730DE8
:1056B0000A000000222532642F2532642F2532642F
:1056C00000000000805101002532643A2532643A1E
:1056D0002532640070B50D4C05462078002803D0B3
:1056E00029460BA0F9F75AFF2846F2F7D1FD82B2FE
:1056F00029460B48F8F739FA002805D02078002809
:1057000002D008A0F9F74AFF70BD00008401002014
:10571000444542554720493A2025730D0A000000B0
:10572000A0100020444542554720493A2020677385
:105730006D53656E64206572726F720D0A00000011
:1057400010B588B00C4602460EA16846F9F736FF40
:105750007D2110A3002209016846FEF751FF0028B1
:105760000BD10DA12046F2F75CFD0C49FEF742FF7C
:10577000002802D00AA0FFF7ADFF0A48C07C08B09D
:1057800010BD000041542B434D47533D2225732249
:105790000D0A00003E2000001A000000204E00000C
:1057A0001B00000028090020F1B582B00020009005
:1057B00002980126407CF74F400704D52120F9F7D5
:1057C00081F90F20FEBD3C464034E17A052939D0ED
:1057D000F048F14D4D300190092949D00298FEF76B
:1057E00041FF002802D0E07A002879D0EA4800780A
:1057F000002803D0E17AE9A0F9F7D0FEE54DE07A80
:105800001C3DF14E01286CD011286BD00C286AD0B9
:105810000B2869D00D2868D00E2867D00F2866D0D5
:10582000102873D0082872D0022871D0062870D0B2
:10583000396C12260191002903D003286AD004286C
:1058400069D04EE3786C002811D00298FFF77EF8FB
:105850003B6C002B08D0DC68002C05D001225102E3
:10586000DA48A047002802D1786CFFF757F846E3E2
:10587000D748F2F70DFD02460198D5490090F2F79E
:105880002FFD002848D0D2480930F2F701FDD04959
:10589000024609310098F2F723FD002875D0CC4864
:1058A0005838F2F7F5FCCA49024658390098F2F721
:1058B00017FD00286ED0C6481230F2F7E9FCC44943
:1058C000024612310098F2F70BFD002867D02878C5
:1058D000002803D0BFA00099F9F760FE112207E06D
:1058E00001E38CE0A1E0A2E0B2E0C4E0DAE0F2E0A3
:1058F000BFA10098F2F7F4FC00286BD01122C1A1DF
:105900000098F2F7EDFC002866D068E0E7E0EAE0F6
:105910003AE256E26BE28AE27D210901AC48FEF7E9
:1059200069FE002827D100F00FFCBBA1F9F776FB38
:10593000009000281FD02C21F2F7A0FC00281AD0DC
:105940002C210098F2F79AFC401C2C210090F2F7D1
:1059500095FC00280FD02C210098F2F78FFC401CFA
:105960002C210090F2F78AFC002804D1ABA1AE48AC
:10597000009AF9F723FE2878002834D0AA49ABA072
:10598000F9F70CFE2FE000E004E091480930FFF742
:10599000A1FE28E07D218E480901583821E08C487D
:1059A0007D2109011230FEF725FE00280ED100F0FE
:1059B000CBFB99A1F9F732FB002807D001F026FDB7
:1059C000002803D082485838FBF722FA02990220B7
:1059D000C87308E09BA000E0AA48F9F7DFFDAA49D8
:1059E0000098FEF707FE0020E0723846F5F79CFCB1
:1059F0000298FFF72DFC02990220C8737FE2A3A151
:105A0000724806F007FE294606F004FEA1A106F042
:105A100001FEE17AFEF7ECF80090002804DD308802
:105A2000FF21013108433080ACE112261CE297A12E
:105A3000664806F0EFFD294606F0ECFD95A106F05C
:105A4000E9FDE17AFEF7D4F80021009008460FE066
:105A50008EA15E4806F0DEFD294606F0DBFD8DA135
:105A600006F0D8FDE17AFEF7C3F80090002101208E
:105A700006F056F986E185A1544806F0CBFD29468B
:105A800006F0C8FD83A106F0C5FD054601210020F2
:105A900006F08AF9E17A2846FEF7AAF8002100907C
:105AA000084615E079A1494806F0B4FD294606F0FC
:105AB000B1FD78A106F0AEFD05460121084606F0CD
:105AC00073F9E17A2846FEF793F80090002101204F
:105AD00006F06AF956E1019801F0A6F901E2019891
:105AE00001F05CFBFDE169A1384806F093FD294611
:105AF00006F090FD6CA106F08DFD05460198092287
:105B00006DA10646F2F7ECFB002823D00A226DA116
:105B10003046F2F7E5FB002822D009226CA130467E
:105B2000F2F7DEFB002821D00D226CA13046F2F7FF
:105B3000D7FB002820D009226CA13046F2F7D0FB19
:105B400000281FD005226CA13046F2F7C9FB0028BF
:105B50001ED0FEE00121002006F0EEF868A0F6E07D
:105B60000121084606F0E8F868A0F0E001210220D3
:105B700006F0E2F86AA0EAE00121032006F0DCF872
:105B80006BA0E4E00121042006F0D6F86CA0DEE072
:105B9000DCE00000900900208401002044454255CB
:105BA0004720493A202A2A2A2A2A2A2A2A2A2A2A1D
:105BB0002A2A2A2A7461736B2D3E436F6D6D616EC4
:105BC000642025640D0A0000020000208C0E0020D5
:105BD000FBE60108444542554720493A2074617369
:105BE0006B2D3E436F6E74656E743A25730D0A001B
:105BF00041542B514155444C4F4F503D312C300DA9
:105C00000A00000041542B514155444C4F4F503D28
:105C1000302C300D0A0000004F4B0000766F6C7482
:105C20006167653D257300008C1000204445425596
:105C30004720493A2062617474566F6C743A257338
:105C40000D0A0000444542554720493A202A2A2A95
:105C50002A2A2A2A2A2A2A2A2A2A2A2A2A2A415562
:105C600044494F4C4F4F502054455354202A2A2A20
:105C70002A2A2A2A2A2A2A2A2A2A2A2A2A2A2A2A84
:105C80002A0D0A00B0F301081027000024465243F1
:105C90004D442C002C5F53656E644D6573736167D2
:105CA000652C202C000000002C5F416C61726D4956
:105CB0006E666F2C202C0000536F73427574746FE6
:105CC0006E000000426174746572794C6F77000059
:105CD0004375744465746563740000004F766572A3
:105CE00053706565645761726E00000053686F639E
:105CF0006B5761726E0000004163634F6E000000DD
:105D0000736F7320616C61726D0000006261747466
:105D10006572796C6F7720616C61726D00000000B4
:105D200063757464657465637420616C61726D0081
:105D30006F766572737065656420616C61726D0069
:105D400073686F636B20616C61726D006DA005F00C
:105D50003FFDE17A2846FDF74BFF00210090084601
:105D600005F0EAFF0021012005F0E6FF00210220F6
:105D700005F0E2FF0021032005F0DEFF00210420F2
:105D800005F0DAFF12266CE0FEF720F8009060497B
:105D9000604806F03FFC294606F03CFC5EA106F098
:105DA00039FC009906F036FC5A49F8F75BFA009086
:105DB000002804DD3088FF210131084330800026AF
:105DC0004FE057A0FEF7D4F8064657A1514806F019
:105DD00021FC294606F01EFC57A106F01BFC3146AB
:105DE00006F018FC4B49F8F73DFA0090E7E7CD685C
:105DF0000846002D09D003460022012149024548EA
:105E0000A847002801D101200090796C002928D0F2
:105E10000198406800281FD00198C568002D20D047
:105E2000034601220020A847002815D019E043A10D
:105E3000384806F0EFFB294606F0ECFB2C210170F8
:105E40000199401C096806F0E5FB3249F8F70AFAA7
:105E50000090786C002804D00520E0723846F5F7F1
:105E600063FA009800283CD0FEF774F8002827D089
:105E70007D20C00002F058FA0298006C80698047CB
:105E80003D6C002D3BD0E07A032838D12DA1286845
:105E9000F2F705FA002805D02DA12868F2F7FFF9DE
:105EA00000282CD12C480078002803D02BA029688A
:105EB000F9F774FB344802F037FAF8F711FF1EE0E7
:105EC000E07A02281BD0062819D023480078002841
:105ED00002D02EA0F9F762FB0E4935A007F014FEA0
:105EE0000DE012260BE0E8680A2804D33C21F2F703
:105EF00037F9002902D13846F5F716FA1026304650
:105F0000FEBD00004163634F6E20616C61726D00E5
:105F10008C5C01088C0E00202C5F50696E672C0091
:105F200076657273696F6E002446524C494E2C4957
:105F30004D45492C000000002C000000244652452D
:105F400052522C005F5265636F766572000000004C
:105F50005F5265736574000084010020444542551A
:105F60004720493A202A2A2A2A2A2A2A2A2A2A2A59
:105F70002A2A2A2A636D642D3E436F6D6D616E641B
:105F80002025730D0A000000881300004445425587
:105F90004720493A202A2A2A2A2A2A2A2A2A2A2A29
:105FA0002A2A2A2A777269746566696C650D0A0067
:105FB0006C6F636174696F6E2E74787400000000FA
:105FC00000487047F809002070B52848284CC17C6B
:105FD0002078E2791043002910D0012912D002293B
:105FE0003CD003293ED0002802D022A0F9F7D6FAEF
:105FF000E079002801D00020E07170BD0028F7D0C2
:1060000022A0F3E7002802D024A0F9F7C7FA002065
:1060100000F09AF80125002817D0002000F094F82D
:1060200023A1F2F73CF9002811D0002000F08CF8F1
:1060300023A1F2F734F90028DAD0002000F084F828
:1060400023A1F2F72CF90028D2D0A571D0E724487B
:1060500000880006F9D402F09FF8C9E70028C7D0ED
:1060600020A0C3E70028C3D024A0BFE72809002050
:1060700084010020444542554720493A20556E6B23
:106080006E6F776E20455F3F0D0A00004445425514
:106090004720493A20455F4F4B0D0A004445425581
:1060A0004720493A20455F4552524F520D0A0000A1
:1060B0002B434D45204552524F523A20313000007B
:1060C0002B434D53204552524F523A20363900004F
:1060D0002B434D45204552524F523A203134000057
:1060E00002000020444542554720493A20455F546C
:1060F000494D454F55540D0A000000004445425596
:106100004720493A20455F53454E445F4552524F20
:10611000520D0A0010B5002000F016F8010007D05B
:1061200004480278C079024302D003A0F9F736FA96
:1061300010BD000084010020444542554720493AE3
:106140002025730D0A000000002808D00178401CAB
:106150000029FBD10178002900D1002070470148B7
:10616000F8E700000C0A0020F8B50646407C002441
:106170004008400070740A25224F35E0F8F7B0FD62
:1061800032E0FEF721FEF5F7E5F8002808D02620DA
:10619000F8F798FCFEF718FE384602F0C5F818E04C
:1061A000304600F037F800280AD0F07C0B280BD0DE
:1061B0000E280BD00D2819D00C2820D0252006E061
:1061C0003046FFF795F8F8BD232000E02420F8F7CB
:1061D00079FC6D1ED5D1641CFEF7F6FD384602F041
:1061E000A3F80A25052CC9DC6D1ECAE706A0FEF738
:1061F000F9F97D20C00002F097F82920E7E7282070
:10620000E5E70000881300004154234D4F4E490D2F
:106210000A000000F8B57D260A24360105467710ED
:106220000CE02846FEF7BEF9E87C002811D00228D1
:106230001ED00C280BD0304602F076F82046641EA3
:10624000E4B20028EDD1E87C002802D010E0384606
:10625000F2E7052407E0304602F066F82046641EA7
:10626000E4B2002804D02846FEF700FD0028F2D151
:10627000E87CF8BDF0B5F94E04463078A1B00D4683
:10628000002803D02146F6A0F9F788F96F4620468A
:10629000F1F7FEFF64287DD2F5F758F8014638463D
:1062A00006F0B8F9F2A106F0B5F9214606F0B2F908
:1062B0000422F2A12046F2F713F800286BD0042242
:1062C000F0A12046F2F70CF80028F7D00422EFA145
:1062D0002046F2F705F800287DD00422EDA12046E3
:1062E000F1F7FEFF0028F7D00322ECA12046F1F7DA
:1062F000F7FF002870D00322E9A12046F1F7F0FF54
:106300000028F7D00722E7A12046F1F7E9FF00288F
:106310007ED00722E5A12046F1F7E2FF0028F7D062
:106320000E22E4A12046F1F7DBFF002871D00E22F7
:10633000E4A12046F1F7D4FF0028F7D00F22E5A111
:106340002046F1F7CDFF00287ED00F22E1A12046A4
:10635000F1F7C6FF0028F7D00622E2A12046F1F7A8
:10636000BFFF002871D00622E0A12046F1F7B8FF58
:106370000028F7D00722DFA12046F1F7B1FF00285F
:106380007DD00722DDA12046F1F7AAFF0028F7D033
:10639000072201E005E109E1DAA12046F1F7A0FFBB
:1063A00000286DD00722D9A12046F1F799FF0028D7
:1063B000F7D00A22D7A12046F1F792FF00287DD01E
:1063C0000A22D7A12046F1F78BFF0028F7D003223D
:1063D000D6A1204601E0EDE0F0E0F1F781FF0028D2
:1063E0006DD00322D2A12046F1F77AFF0028F7D022
:1063F0000622D0A12046F1F773FF00287ED00622A6
:10640000CEA12046F1F76CFF0028F7D0082201E06A
:10641000D8E0DBE0CBA12046F1F762FF00286ED088
:106420000822CBA12046F1F75BFF0028F7D0092214
:10643000CAA12046F1F754FF00287DD00922C7A148
:106440002046F1F74DFF01E0C4E0C8E00028F4D099
:106450000722C5A12046F1F743FF00286DD007228F
:10646000C3A12046F1F73CFF0028F7D00822C2A1C3
:106470002046F1F735FF00287DD0082201E0B2E088
:10648000B6E0C0A12046F1F72BFF0028F4D0092286
:10649000BFA12046F1F724FF00286DD00922BFA13B
:1064A0002046F1F71DFF0028F7D00622BEA12046A6
:1064B000F1F716FF002877D0062201E09DE0A1E069
:1064C000BBA12046F1F70CFF0028F4D00922BAA1A5
:1064D0002046F1F705FF002867D00922B9A1204620
:1064E000F1F7FEFE0028F7D00622B9A12046F1F709
:1064F000F7FE002872D00622B7A101E086E08AE00C
:106500002046F1F7EDFE002868D00C22B4A1204609
:10651000F1F7E6FE00286FD00C22B5A12046F1F776
:10652000DFFE002868D00822B5A12046F1F7D8FE8A
:1065300000286FD0082201E071E074E0B0A120468D
:10654000F1F7CEFE002865D00122B0A12046F1F778
:10655000C7FE00286FD00122ADA12046F1F7C0FE92
:10656000002868D00522ABA12046F1F7B9FE00282B
:1065700072D0052201E05AE05EE0A8A12046F1F7C2
:10658000AFFE002868D00722A6A12046F1F7A8FE9A
:10659000002862D00722A5A12046F1F7A1FE00281D
:1065A0005BD0002021B0F0BD4AE04DE0204603F072
:1065B000FFF94AE1201D02F065F846E1E01C03F016
:1065C00003F942E1E01D02F01FFA3EE1204602F02D
:1065D0005DFD3AE1204602F0DBFC36E138E0204682
:1065E00002F002FB31E1204602F008FCC4B22DE1CA
:1065F000204603F057FE28E11CE120460A3002F055
:10660000BDFD22E1684602F07FF91EE1684602F016
:10661000D3F91AE112E1684602F0A8FB15E16846D9
:1066200002F05CFB11E1684603F09AF90DE168465F
:1066300003F06EF909E105E1204603F04FFD04E1A6
:10664000204603F0C3FD00E1684602F0ABFEFCE02B
:10665000684603F009FDF8E0FCE004E1A800002032
:10666000444542554720493A2025730D0A00000051
:106670002C737563636573732C000000536F733A5A
:1066800000000000736F733A0000000041706E2C30
:106690000000000061706E2C0000000049702C00AA
:1066A00069702C00446F6D61696E2C00646F6D61C0
:1066B000696E2C006F6E726570696E7465727661BA
:1066C0006C2C00004F6E726570696E746572766135
:1066D0006C2C00006F6666726570696E7465727608
:1066E000616C2C0067756172642C000047756172E3
:1066F000642C00006C6F776261742C004C6F7762C1
:1067000061742C00757267656E742C005572676534
:106710006E742C006F76657273706565642C000072
:106720004F76657273706565642C000061726D0050
:1067300041726D0064697361726D00004469736138
:10674000726D000069676B696C6C6F6E0000000011
:1067500049676B696C6C6F6E0000000069676B695C
:106760006C6C6F6666000000736972656E6F6E0018
:10677000536972656E6F6E00736972656E6F6666DF
:1067800000000000536972656E6F666600000000CD
:1067900074696D657A6F6E652C00000054696D65D3
:1067A0007A6F6E652C00000075706461746500007E
:1067B0005570646174650000706172616D65746527
:1067C00072000000506172616D65746572000000B6
:1067D0007374617475730000537461747573000091
:1067E000656E67696E65686F7572732C00000000D6
:1067F000456E67696E65686F7572732C00000000E6
:106800006D696C656167652C000000004300000045
:106810006300000052657365740000007265736563
:1068200074000000466163746F727900666163747E
:106830006F727900204602F08DF906E0204602F0E2
:1068400059FB02E0684602F029FE04462846204330
:1068500019D01CE0002D04D169463548FEF770FFC1
:106860000EE002209EE6002D03D0204602F098FFA5
:10687000F7E769462E48FEF763FF204602F090FFD7
:10688000F8F72EFA51E069462948FEF759FF002D26
:106890004BD0002C49D13078002805D0FFF790FB71
:1068A000014624A0F8F77AFEFFF78AFB04222AA10A
:1068B000F1F716FD00281AD0FFF782FBFDF706FB63
:1068C0003078002803D01A4925A0F8F767FE6946FA
:1068D0001748FEF735FFFFF773FB1421F1F796FC1D
:1068E000FFF76EFB04221CA1F1F777FC1DE022A04C
:1068F000FDF73EFBF1F7CCFC04461FA0FDF738FB8B
:10690000224615A1F1F7ECFC00280ED01AA0FDF7E5
:106910002FFB0F2219A1F1F7E3FC002805D016A0E8
:10692000FDF726FB6946FEF70BFF01203AE6000063
:1069300078070020444542554720493A2067736D47
:1069400053656E64657244416E756D626572282987
:106950002025730D0A0000006E756C6C00000000AD
:10696000444542554720493A20737A4E756D626519
:10697000722025730D0A0000736F730030303836B3
:10698000313330303030303030303000F8B5002620
:10699000304F31A001F034FC002808D02EA004F0C4
:1069A0003DFE45B2002D03DC2BA0FAF70FFCF8BD2D
:1069B00000200090FDF77AFA00242B4906E0025DE2
:1069C000A319CA54025D0A2A07D0641CAC42F6DB44
:1069D0000098761900282ED01FE0244D2869001950
:1069E000401C28612878002808D01F48F1F750FC87
:1069F00002461D4B1EA02969F8F7D0FD1A48F1F791
:106A000047FC2969081A05F065F917480021A21901
:106A100010184170386C806980470FA0FAF7D6FBD8
:106A20000DA0FDF73FFB114909698842BFD10AA0BB
:106A3000FAF7CCFEF8BD0D4C206941192161207890
:106A4000002802D019A0F8F7A9FD206905F042F945
:106A5000A4E70000280900206C6F636174696F6E01
:106A60002E747874000000008C0E00208401002039
:106A7000444542554720493A207365656B73697AEE
:106A8000653A2564207374726C656E2867736D4275
:106A90007566666572293A25642067736D4275666E
:106AA0006665722025730D0A0000000044454255BA
:106AB0004720493A207365656B73697A653A2564A6
:106AC0000D0A000070B51B4C0546216808281BD034
:106AD000092D2CD00A2D0DD00D2D0BD07F2908D2D9
:106AE00004F09AFB2146206880390D542068401C30
:106AF000206070BD002904D001200F4A0E2950707B
:106B0000F7D204F06FF970BD0029FCD009480022CB
:106B100081380A542068401E2060284604F07CFB1F
:106B2000202004F079FB284604F076FB70BD00F0CD
:106B300005F870BD5C0700209C000020FEB5002019
:106B4000364C009005460746606035480068F1F70E
:106B50009FFB0646F80001900AE03149019822683F
:106B600008582E498039F1F7BBFB00281BD0761E50
:106B7000002EF2DC009800281BD02079C007C00F3F
:106B80003FD0274D2868F1F783FB2368C21A286895
:106B9000C118224880381818F1F71FFB2868F1F750
:106BA00077FB20602DE001206168B84001436160FF
:106BB000E3E7012825D92079C007C00F0DD00D20AB
:106BC00004F02AFB0A2004F027FB154D286805F085
:106BD00043FE2868F1F75CFB05462079C007C00F2B
:106BE0000FD00F4E3068F1F753FBA84209D120684F
:106BF00031680A4B09182A1A803BC018F1F7EDFAE0
:106C000025600D2004F008FB0A2004F005FB04F0C9
:106C1000E9F80248803805F01FFEFEBD5C07002041
:106C2000A00000200246064810B501464031072A60
:106C300004D00E22CA72F4F777FB10BD0D22F9E7DB
:106C400090090020F8B52E4FF96A02200143F9623D
:106C5000F96A2C4C014000910025012665602660F0
:106C60000320A560E06021462748F5F7B7F8F96AE8
:106C700004200143F962F96A244F01400091202069
:106C800021C40320256060601E493846F5F7A6F848
:106C900001211D48F5F764F91D4C002808D0257224
:106CA00020213846F5F75CF9002815D0E571F8BDCC
:106CB0002078002802D01748F8F770FC207E0028C2
:106CC00002D015A0F8F76AFC207A002802D107202C
:106CD000FFF7A8FF2672E3E72078002802D01D48BE
:106CE000F8F75CFC207E002802D01BA0F8F756FCC9
:106CF000E079002802D10820FFF794FFE671F8BD83
:106D0000001002408C0600200004005000080050D3
:106D10000400002060EF0108444542554720493AED
:106D2000202A2A2A2A2A2A2A2A2A2A2A2A2A2A2ACD
:106D30002A2A494E2D2054455354204F4B2A2A2AA3
:106D40002A2A2A2A2A2A2A2A2A2A2A2A2A2A2A2AA3
:106D50002A0D0A000CEF0108444542554720493AE4
:106D6000202A2A2A2A2A2A2A2A2A2A2A2A2A2A2A8D
:106D70002A2A494E2B2054455354204F4B2A2A2A65
:106D80002A2A2A2A2A2A2A2A2A2A2A2A2A2A2A2A63
:106D90002A0D0A00F0B5C31D0022FF33FA33214843
:106DA0001C680C2555434659A64208D12D186E681B
:106DB0009F68BE4203D12D89DE88B54202D0521CA5
:106DC000042AEED3042A15D1002202E0521C042A20
:106DD00004D20C2555434559002DF7D1042A11D072
:106DE0000C25554344512C189E686660DB8823812E
:106DF00000236381002907D00C21514309184989D8
:106E0000002907D00020F0BD0C2151430918498901
:106E1000491C01E0FF2101310C2353431818418123
:106E2000501CF0BD4039002070B50546094CF1F703
:106E300003FB8034216F88420AD10748007800287C
:106E400002D006A0F8F7AAFB29460BA006F05CFECC
:106E500070BD0000C0220020F805002044454255C6
:106E60004720493A2067632D3E656E67696E486F1B
:106E700075722025640D0A0065682E747874000010
:106E800070B536A0FDF774F8F1F702FA054633A0A5
:106E9000FDF76EF801462A463248F1F7E2F931482B
:106EA0000024445530A0FDF763F8F1F7F1F90546E9
:106EB0002DA0FDF75DF801462A482A462030F1F75B
:106EC000D0F928482030445529A0FDF751F8F1F7B2
:106ED000DFF9054626A0FDF74BF8014621482A4672
:106EE0004030F1F7BEF91F484030445522A0FDF76D
:106EF0003FF8F1F7CDF905461FA0FDF739F8014637
:106F000018482A466030F1F7ACF91648603044550D
:106F10001BA0FDF72DF8F1F7BBF9054618A0FDF70A
:106F200027F801460F482A460838F1F79AF90D4824
:106F30000838445514A0FDF71BF8F1F7A9F90546E8
:106F400011A0FDF715F8014606482A468030F1F7F2
:106F500088F904488030445570BD000061706E6E41
:106F6000616D6500B800002061706E757365720018
:106F700061706E70617373006970616464720000A7
:106F8000706F727400000000646F6D61696E0000C4
:106F90000749084A0B68934208D00A6048600020FD
:106FA0008860C860086188610C20486170470000F3
:106FB000101100200050004010B5FDF783FA1E4864
:106FC0001C4901601D4941603E2181600121C16071
:106FD000002101618161FF22C16142610162F5F717
:106FE00001F8174C002804D0207800280CD015A0F8
:106FF00008E01148F5F7F8F8002807D020780028B5
:1070000002D018A0F8F7CAFA652010BD00210A487E
:10701000F4F7B8FFFAF712F96528207803D00028B2
:1070200006D018A002E0002802D01FA0F8F7B6FA98
:10703000012010BD00540040B00800202E11B10006
:1070400058010020444542554720493A2048414CC8
:107050005F4932435F4465496E6974206572726F9F
:10706000720D0A00444542554720493A2048414C98
:107070005F4932435F496E6974206572726F720DA9
:107080000A000000444542554720493A20636F6E8C
:10709000666967206773656E736F722073756363CB
:1070A0006573730D0A000000444542554720493A74
:1070B00020636F6E666967206773656E736F7220F9
:1070C0006661696C7572650D0A00000010B51348A1
:1070D000F6F7FFF9124C002805D02078002802D0DE
:1070E00010A0F8F75BFA0D48F6F78AFA002805D0E9
:1070F0002078002802D015A0F8F750FA084901229C
:1071000009310648F6F754FC002805D020780028FD
:1071100002D017A0F8F742FA10BD0000A01000201E
:1071200084010020444542554720493A2020677396
:107130006D2048414C5F554152545F4465496E692A
:1071400074206572726F720D0A000000444542554A
:107150004720493A202067736D2048414C5F5541D4
:1071600052545F496E6974206572726F720D0A0025
:10717000444542554720493A202067736D204841D5
:107180004C5F554152545F526563656976655F494E
:1071900054206572726F720D0A00000070B50546CA
:1071A0000C4CF1F749F98034A16E884211D10A4C98
:1071B0002078002809D009A0F8F7F0F920780028F5
:1071C00003D029460CA0F8F7E9F9294610A006F0EB
:1071D0009BFC70BDC0220020F805002044454255AC
:1071E0004720493A2067632D3E6D696C656167658C
:1071F0002025640D0A000000444542554720493AC5
:10720000206D696C656167652025730D0A000000BB
:107210006D6C2E7478740000F0B587B0FDF712F92C
:10722000184CE16A02200143E162E16AC5020140B3
:10723000032005910390012600276A46E0C26946B3
:107240001148F4F7CBFD012229460F48F4F78DFED3
:10725000E16A04200143E162E16A44020140032043
:10726000059103906A46094DD0C269462846F4F755
:10727000B5FD012221462846F4F777FEF7F7F8F925
:1072800007B0F0BD0010024000040050000800509C
:1072900010B5114C2069400008D57D204001F4F75D
:1072A00093FC20690121C905084320610C480B4962
:1072B0000160FF21813141607F218160C160F6F76B
:1072C000AAFC002806D007480078002802D006A0B3
:1072D000F8F764F910BD000040100240002C004097
:1072E0006012002020020020444542554720493AC0
:1072F000202048414C5F575744475F496E697420CE
:107300006572726F720D0A0010B50022036806E004
:10731000940019514479E4006118521CD2B20479E6
:107320009442F5D810BD000030B5FF219BB0F53177
:10733000294804F043F9042228A12748F0F7D0FF98
:10734000002806D12448F0F7A3FFFF21913188429D
:1073500002D200201BB030BD224833214068F0F734
:1073600055FF34216846F0F751FF34210DA8F0F79E
:107370004DFF194C1AE06A461BA12046F0F7CAFFE0
:107380001BA12046F0F759FF04460DAA19A1401C85
:10739000F0F7C0FF134D103505E06946F0F77FFFA9
:1073A000002807D00C3528680028F6D1002CE2D13F
:1073B0000120CFE7A9686868F0F728FF0DA9686881
:1073C000F7F777FB0DA12046F0F737FF841C342137
:1073D0006846F0F71BFFE9E7C41B00206961703DB8
:1073E0000000000060020020255B5E3D5D000000A3
:1073F0003D000000255B5E2C5D0000002C000000BD
:107400000148C078704700000400002030B585B006
:107410002221F0F733FF002823D0401C054622210B
:10742000F0F72CFF00281CD0441B601E132807D245
:10743000224629466846F0F7D0FE002069460855E6
:1074400009480078002803D0694608A0F8F7A6F894
:107450000DA0FCF78DFD6946F0F7EFFE002800D087
:10746000012005B030BD0000A80000204445425571
:107470004720493A206973536F734E756D62657288
:107480002025730D0A000000736F7300202807D0B9
:10749000092805D00D2803D00A2801D00020704704
:1074A00001207047F7B50A460646044600271546F0
:1074B0000A212846F0F76AFE02460A205043291A9C
:1074C00013487F1C0818C07B2070641CFFB2002A80
:1074D000EDD130200299002906D08F4204D27F1CC2
:1074E0002070FFB2641CF5E7002D02DA2D20207019
:1074F000641C00202070601E05E001783278027064
:107500003170401E761C8642F7D32046FEBD000037
:1075100040EA0108F0B505460024CE170B46360FA9
:10752000F11809110E019E1B13A7F619F67B0670C0
:10753000641C401CE4B20029EFD13021002A06D09F
:10754000944204D2641C0170E4B2401CF6E7002BA4
:1075500002DA2D210170401C002201460270401EFB
:1075600005E002782B7803702A70401E6D1C85425E
:10757000F7D30846F0BD0000464544434241393840
:1075800037363534333231303132333435363738BB
:1075900039414243444546000246FF32C87EFF322D
:1075A0008B7E0232000212781843032A05D14A7DED
:1075B0000B7D1102194309040843704710B503F00D
:1075C000EFFB0C480088400601D500F041F8F3F7C6
:1075D00099FE002808D0FCF7C5FEFCF7BBFC00288C
:1075E00005D0FDF7C7FB10BDFCF7DCFEF5E7FDF7A6
:1075F0009FFB10BD0200002010B5044603F0D0FB35
:1076000012480088400601D500F022F8F3F77AFE10
:107610002146814301D0FCF7A5FEF3F773FE20431A
:107620000ED0FCF79FFEFCF795FC204201D0FDF741
:107630007FFBFCF78FFCA04305D0FDF757FB10BD87
:10764000FCF770FEEFE7FDF773FB10BD02000020B2
:10765000F0B5204C87B0E16A02200143E162E16AA3
:10766000C6010140032000960125002705910390E3
:107670000297019569461848F4F7B0FB012231469C
:107680001548F4F772FC60156946A1C10320039008
:1076900069461148F4F7A2FB012251020E48F4F7A3
:1076A00064FCE06A2843E062E06A009628400590A6
:1076B000032005242407039002970195694620467C
:1076C000F4F78CFB012231462046F4F74EFC07B05C
:1076D000F0BD00000010024000040050F0B585B07D
:1076E00000240125AD02019402946946D548009515
:1076F0000394F4F773FB019402946946D148009512
:107700000394F4F76BFB0420009001940294694603
:107710000394CD48F4F762FB052001940294694676
:10772000000700950394F4F759FB6F0105200194BD
:1077300002946946000700970394F4F74FFB10206A
:1077400000900194029469460394BE48F4F746FB06
:10775000022000900194029469460394BA48F4F719
:107760003DFB0126019402946946B74800960394B4
:10777000F4F734FB042000900194029469460394CA
:10778000B248F4F72BFB082000900194029469465C
:107790000394AD48F4F722FB2801009005200194E2
:1077A0000294694603940007F4F718FBE800009080
:1077B000052001940294694603940007F4F70EFB38
:1077C0006810009005200194029469460394000714
:1077D000F4F704FBA8100090052001940294694678
:1077E00003940007F4F7FAFA019402946946964864
:1077F00000970394F4F7F2FA0194029469469248D0
:1078000000950394F4F7EAFA68000090019402945A
:10781000694603948C48F4F7E1FA6800009005206B
:1078200001940294694603940007F4F7D7FAA8007C
:10783000009001940294694603948348F4F7CEFAC9
:10784000E800009001940294694603947E48F4F79E
:10785000C5FA2801009001940294694603947A487D
:10786000F4F7BCFA2801009001940294694603944D
:107870007448F4F7B3FA019402946946714800978A
:107880000394F4F7ABFA01940294694670480096A9
:107890000394F4F7A3FA022000900194029469463D
:1078A00003946B48F4F79AFA052001940294694610
:1078B000000700960394F4F791FA02200090052047
:1078C00001940294694603940007F4F787FA68105C
:1078D000009001940294694603945B48F4F77EFAA1
:1078E000A810009001940294694603945648F4F756
:1078F00075FA8020009001940294694603945248DE
:10790000F4F76CFA40270194029469464E480097B8
:107910000394F4F763FA0420009005200194029484
:10792000694603940007F4F759FA082000900520EF
:1079300001940294694603940007F4F74FFA10206B
:107940000090052001940294694603940007F4F71F
:1079500045FA1020009001940294694603943A4835
:10796000F4F73CFA202000900194029469460394B5
:107970003548F4F733FA052001940294694600076C
:1079800000970394F4F72AFA8020009005200194D0
:107990000294694603940007F4F720FA01940294D4
:1079A0006946284800950394F4F718FAA800009057
:1079B000052001940294694603940007F4F70EFA37
:1079C0006810009001940294694603941D48F4F7EE
:1079D00005FAA8100090019402946946039419488E
:1079E000F4F7FCF9E8000090032001906946029446
:1079F0001448F4F7F3F904200090019402946946C6
:107A000003941048F4F7EAF90194029469460D488A
:107A100000960394F4F7E2F92020009005200194E9
:107A20000294694603940007F4F7D8F9A80000907F
:107A300001940294694603940248F4F7CFF905B023
:107A4000F0BD00000008005000040050000C005081
:107A5000001C005008B5002069460870C8230122A8
:107A60000C48F5F72BFF032801D1F6F71DFB6846FC
:107A7000017800290CD07F290AD207480078002815
:107A800002D006A0F7F78AFD6846007804F02CFAC9
:107A900008BD0000F01100200400002044454255BC
:107AA0004720493A206C705561727448616E646C6D
:107AB000652025630D0A0000034900204880F8F77F
:107AC00025FF04F08BFEFEE700000020014908704E
:107AD000704700000000002001460020842900D0EB
:107AE000C81C704703E00B780370401C491C521EF1
:107AF000F9D27047C9B201E00170401C521EFBD29E
:107B00007047000070B50D460C4C10214B200155FC
:107B100020464D300646F0F7BBFB01463046F0F7F5
:107B200075FB2846F0F7B4FB024629463046F0F7CD
:107B300054FB2046F3F7F8FB70BD000090090020CD
:107B4000F8B54B00002801D0012400E000240125F5
:107B50001C436D05EC4202D951601060F8BD1A4C0F
:107B60005B0D1C19CB0F0027DB07142C16DA002C39
:107B700002DA17605360F8BD144D0646E5400C4626
:107B80002C40044305D00B46AB43176053603A4684
:107B900017E01660516019463846F8BD332C05DCF5
:107BA0000025ED43143CE540284204D151601060AB
:107BB00019463846F8BD0346AB43136051601A4678
:107BC0000B46F0F781FDF8BD01FCFFFFFFFF0F0042
:107BD000F8B5C41DFF340746FA34E06A0E460025A6
:107BE000B0420FD0384604F0CFFD05000AD16078CE
:107BF000012332463946FAF707F8002801D06E1EF5
:107C00000125E6622846F8BDF7B5074684B016465A
:107C1000002002903179814239D9002430E0029865
:107C200033688000039000211B58E00000900A4652
:107C3000181806C00D461EE00598A10000684058BF
:107C4000E9008C4660440CC83968039808586146BE
:107C5000411803C9F0F746FD3368039A9A58009B10
:107C60000192D3180CCBF0F78BFC009B019AD21831
:107C700003C26D1CEDB27879A842DDD8641CE4B271
:107C80007079A042CBD80298401CC0B2C1E707B0BF
:107C9000F0BDF7B584B016460020009031798142DE
:107CA00036D900252DE00099336889000020019124
:107CB0005958EF000246C91905C104461BE0059852
:107CC0000168A0000858C0190CC804980168019800
:107CD0000858E100411803C9F0F704FD3368019A20
:107CE0009A580292D3190CCBF0F74AFC029AD21997
:107CF00003C2641CE4B204984079A042DFD86D1C32
:107D0000EDB27079A842CED80098401CC0B2C4E74A
:107D100007B0F0BDF3B500268BB00F463C49049682
:107D20000A96012034463546019609960591089039
:107D30005EE00B98007806900B98401C0B9008981A
:107D4000002804D006982D280CD0202850D009985F
:107D5000002825D0F0F72EFA01680698085C202844
:107D600005D027E00020089001200A9040E0002084
:107D7000089006983038F0F7BDFD059B049AF0F79F
:107D800019FD22462B46F0F7FBFB04460D46002268
:107D90001F4B05990498F0F7A5FC0591049027E086
:107DA000F0F708FA01680698085C202807D00698C2
:107DB0002E2819D000263446354601961AE00020B8
:107DC000089006983038F0F795FD0690079100224C
:107DD0000F4B30460199F0F785FC079B069AF0F7A8
:107DE000CFFB0646019103E0002008900120099096
:107DF0007F1E9ED222462B4630460199F0F7C0FBEB
:107E00000A9A002A02D00122D20751400DB0F0BDDB
:107E100000002440F7B50746002482B00E462046F5
:107E200000901EE03D787F1C202D0BD02D2D0BD017
:107E3000F0F7C0F90068405D2028049806D01028AB
:107E400008D010E0761C0CE00120E9E74443303D07
:107E5000641906E02846F0F7BAF9C0B221013738B4
:107E60000C18761EDED20098002802D0604205B0C1
:107E7000F0BD2046FBE70246002002E013785840A0
:107E8000521C491EFAD270477CB56A46FFF758FE6D
:107E90000022084BF0F726FC04460D460022064B54
:107EA00001990098F0F71EFC22462B46F0F768FB7C
:107EB0007CBD000000004E4000005940FEB5104C53
:107EC00006460F4600222346F0F774FC6A46FFF789
:107ED00037FE009801992346002204460D46F0F72C
:107EE00001FC32463B46F0F7F5FB0022054BF0F76C
:107EF00061FC22462B46F0F743FB03B0F0BD0000C7
:107F00000000594000004E40F0B591B00F46060009
:107F100014462DD0002C2BD040211046F0F776F9D6
:107F200020463C30411E0B910C90103822462032E6
:107F3000011D0A920890083A06920E30254628350F
:107F400023460791421E0995103305930490283962
:107F5000801E02920391009001940DAB12A239464B
:107F6000304600F03BF80D2804D00E2802D00BE07C
:107F7000C046C0460DA8F0F78BF901462A460DA869
:107F8000F7F79CFF002802D0002011B0F0BDA06AD6
:107F90005A2803DA7D2109014018A062E06A401ED8
:107FA000E0620120F1E70000244750524D432C25A8
:107FB000732C25632C25662C25632C25662C2563C4
:107FC0002C25662C25662C253264253264253264E6
:107FD0002C25662C25632C25632A00000FB4F0B5F0
:107FE0000446451887B001200490002000900190BD
:107FF0000690039005900FA80290BEE00498012817
:1080000006D002280ED0032811D0042806D11CE087
:10801000252F04D02078641CB84229D1AAE0022080
:108020000490A7E000200090032001960490F0F750
:10803000C1F80068C05D20284FD00198864204D95D
:10804000311A0A22FFF7E6FE009000982646002823
:108050000BD10E980178632901D0432909D12178E9
:108060004278914205D0012000903418AC420AD9E0
:108070008CE04178002905D02A1B3046F0F71DF925
:10808000040000D12C46AC427DD801200490059814
:10809000401C0590A01B00900E980178632912D017
:1080A00008DC43290FD0452929D0472927D0532957
:1080B00035D113E0652922D0662920D067291ED04A
:1080C00073292CD10AE0029880C8029000980028F9
:1080D00023D0002F23D0307838704BE0029880C82E
:1080E00002900098002818D0002F18D00246314680
:1080F0003846F0F772F80099002078543AE0029878
:1081000080C802900098002807D0002F07D00146B1
:108110003046FFF7FFFD03C72CE0002F2AD102985D
:1081200080C80290002F25D00098002822D069290D
:108130000AD004DC582912D0642927D104E075291B
:108140000BD0782922D10AE001460A223046FFF7F7
:1081500061FE042206A9069009E00A2200E010222E
:1081600001463046FFF756FE042203A90390384625
:10817000F0F733F80E98401C0E900E9E3778002FC3
:1081800004D0AC4200E001E000D237E7059807B028
:10819000F0BC08BC04B0184710B5074C2078002884
:1081A00002D006A0F7F7FAF901202074134800F076
:1081B000BBF80220206210BD040000204445425557
:1081C0004720493A202A2A2A2A2A2A2A2A2A2A2AD7
:1081D0002A2A2A2A2A2A6E6F73696D636172645F84
:1081E000736C6565702A2A2A2A2A2A2A2A2A2A2AA8
:1081F0002A2A2A2A2A2A2A2A2A0D0A008813000053
:1082000010B5014611220848FAF71CFE002808D0D4
:1082100006480078002802D005A0F7F7BFF9002033
:1082200010BD012010BD0000F41F002060020020DE
:10823000444542554720493A20665F6F70656E207D
:108240006661696C0D0A000010B514A000F030F8EA
:10825000144C002811A01AD003F0E0F9FBF726FE19
:10826000F0F7EAF820670DA0F8F7B0FF0EA000F0D5
:108270001FF800280CA00DD003F0D0F9FBF716FE74
:10828000F0F7DAF8A06608A0F8F7A0FF10BDF9F73C
:10829000FFF9E8E7F9F7FCF9F5E7000065682E74E7
:1082A00078740000402300206D6C2E7478740000F8
:1082B00070B50D4C05462278002A03D001460BA06C
:1082C000F7F76CF9132229461048FAF7BBFD00288E
:1082D00007D02078002802D00DA0F7F75FF9002022
:1082E00070BD012070BD0000600200204445425571
:1082F0004720493A20665F6F70656E2066696C653D
:108300006E616D652025730D0A000000F41F0020CA
:10831000444542554720493A20665F6F70656E209C
:108320006661696C0D0A000010B5002800D10120BB
:1083300005F0D0F8002010BD10B505F04DF9002073
:1083400010BD10B505F056FF012801D005F09CFCCA
:1083500010BD30B50446082085B00D46205EFFF7FD
:10836000BBFB002104AA0291019203910090208A94
:108370002B4682B22168606805F07EFE012802D09B
:10838000002005B030BD0498FBE7000070B50B4C31
:1083900008214B20015520464D300546EFF778FF68
:1083A00001462846EFF732FF0D2205A12846EFF7D8
:1083B00014FF2046F2F7B8FF70BD000090090020BE
:1083C0004F76657253706565645761726E00000088
:1083D000F1B5294886B00078002803D027A0069977
:1083E000F7F7DCF82EA0FBF7C3FD01222FA1EFF772
:1083F00077FF002839D12E4CE06A01252843E0623E
:10840000E06A002628400590202003276A46E1C242
:10841000052069460007F3F7E1FC012223A1069835
:10842000EFF75EFF002822D0002205202021000760
:10843000F3F79BFDE16A04200143E162E16A8401F4
:10844000014005916846F0C01A4D69462846F3F789
:10845000C5FC012215A10698EFF742FF002808D0BD
:10846000002221462846F3F780FD07B0F0BD012227
:10847000DBE70122F5E70000A80000204445425553
:108480004720493A204675656C4369726375697483
:10849000436F6E74726F6C2025730D0A000000002C
:1084A0007761726E73686F636B00000031000000CB
:1084B000001002400008005010B5044603F058FCBC
:1084C0002046FEF7B1FC10BD10B5044603F05AFC7F
:1084D0002046FEF763FE10BDFEB54A4E05463078D5
:1084E000002803D0294648A0F7F758F850480188DB
:1084F000042211430180F2F70DFF0028FBD02C214C
:108500002846EFF7BBFE002878D0471C3B212846C1
:10851000EFF7B4FE002871D0C41B601E092824D2D6
:10852000224639466846EFF758FE0020694608554E
:108530003078002802D03FA0F7F730F843A0FBF7CF
:1085400017FD6946EFF7ABFE00280ED06846EFF73F
:1085500073FF0A2809DB69463CA004F087F9FF2075
:10856000F530FFF7E1FE03F017FC3B213846EFF74B
:1085700085FE441C2846EFF78BFE4019001B00289F
:1085800037DD2846EFF784FE4019001B0A2830DA51
:108590002846EFF77DFE4019021B21466846521C13
:1085A000EFF71BFE3078002803D069462AA0F6F7C3
:1085B000F5FF2846EFF76CFE4019011B68460918C5
:1085C000002048702AA0FBF7D3FC6946EFF767FE4E
:1085D00000280ED06846EFF72FFF3C2809DB6946DC
:1085E00023A004F043F9FF20F530FFF79DFE03F0D0
:1085F000D3FB0F48028804218A430280FEF766FD00
:10860000FEBD0000A8000020444542554720493ADD
:108610002070617273655F576F726B4D6F64655F39
:1086200073657474696E672025730D0A000000007D
:1086300002000020444542554720493A206F6E749D
:10864000696D653A25730D0A000000007265706956
:108650006E74657276616C00444542554720493A14
:10866000206F666674696D653A25730D0A00000017
:108670006163636F6666726570696E746572766158
:108680006C000000F0B5884C0646208889B00427AD
:1086900038432080F2F73EFE0028FBD02C213046E4
:1086A000EFF7ECFD050036D13046EFF7F1FD00287D
:1086B00029D03046EFF7ECFD00282CD03046EFF7FC
:1086C000E7FD1E2827D23046EFF7E2FD024631468D
:1086D0006846EFF782FD3046EFF7DAFD6946002283
:1086E0000A5472480078002802D071A0F6F756FFAD
:1086F00074A0FBF73DFC6946EFF7D1FD00286DD073
:10870000694670A068E02088B8432080FEF7DEFC50
:10871000012009B0F0BDA81B0890401E1D281CD2E6
:1087200031466846089AEFF758FD089900206A46D6
:1087300050545E480078002803D011465CA0F6F73C
:108740002DFF60A0FBF714FC6946EFF7A8FD002899
:1087500003D069465BA004F089F86D1C2C212846E3
:10876000EFF78CFD0890002839D13046EFF790FDE7
:108770008019A842C3D03046EFF78AFD8019401B0C
:1087800000282CDD3046EFF783FD8019401B1E28A2
:1087900025DA3046EFF77CFD8019421B29466846F2
:1087A000EFF71BFD3046EFF773FD8019421B68465B
:1087B000002181543D480078002803D0694643A039
:1087C000F6F7ECFE46A0FBF7D3FB6946EFF767FD33
:1087D000002862D0694642A004F048F85DE008989D
:1087E000401B0890401E1D281CD229466846089A46
:1087F000EFF7F3FC089900206A4650542B480078A4
:10880000002803D0114631A0F6F7C8FE34A0FBF7CC
:10881000AFFB6946EFF743FD002803D0694630A05F
:1088200004F024F82C212846EFF728FD002834D046
:10883000451C3046EFF72CFD8019401B00282CDD2D
:108840003046EFF725FD8019401B1E2825DA3046FB
:10885000EFF71EFD8019421B29466846521CEFF7B0
:10886000BCFC3046EFF714FD8019411B684609181F
:10887000002048700D480078002803D069461AA0EF
:10888000F6F78CFE1EA0FBF773FB6946EFF707FDBA
:10889000002802D069461AA09EE72088B8432080AD
:1088A000FEF714FC002034E702000020A80000209E
:1088B000444542554720493A2061706E3A25730D70
:1088C0000A00000061706E6E616D6500444542559E
:1088D0004720493A20757365723A25730D0A0000E6
:1088E00061706E7573657200444542554720493A80
:1088F0002070617373776F72643A25730D0A0000FC
:1089000061706E706173730070B50E4C2088042521
:1089100028432080F2F7FEFC0028FBD00AA0FBF7DA
:1089200027FB0CA1EFF7BBFC002803D009A106A090
:1089300003F09CFF2088A8432080FEF7C7FB00209F
:1089400070BD0000020000207761726E73686F6373
:108950006B00000031000000F0B50026154C91B00E
:10896000274635468037109616E0605DFEF78EFD8F
:10897000002801D0002E0DD0605DFEF787FD002895
:1089800008D11098002805D16019B20069461090EE
:108990008850761C6D1CEDB23868A842E5D80020DE
:1089A0006055002E03DD69463046F9F777FC11B0BB
:1089B000F0BD0000DC06002070B50E4C20880425B8
:1089C00028432080F2F7A6FC0028FBD00AA0FBF782
:1089D000CFFA0CA1EFF763FC002803D009A106A091
:1089E00003F044FF2088A8432080FEF76FFB00209F
:1089F00070BD0000020000207761726E73686F63C3
:108A00006B00000030000000F0B5414C06462088A5
:108A100089B0042108432080F2F77CFC0028FBD0B9
:108A20002C213046EFF72AFC070004D13046EFF73F
:108A30002FFC002863D0BD1B681E13281AD22A46BB
:108A400031466846EFF7C9FB002069464855314872
:108A50000078002802D030A0F6F7A0FD34A0FBF784
:108A600087FA6946EFF71BFC002803D0694630A05F
:108A700003F0FCFE2C213846EFF700FC002835D02F
:108A8000451C3046EFF704FC8019401B00282DDD03
:108A90003046EFF7FDFB8019401B0A2826DA3046E6
:108AA000EFF7F6FB8019421B29466846521CEFF788
:108AB00094FB3046EFF7ECFB8019411B6846091820
:108AC0000020487013480078002803D069461AA097
:108AD000F6F764FD1DA0FBF74BFA6946EFF7DFFBE5
:108AE000002803D0694619A003F0C0FE20880421A5
:108AF00088432080FEF7EAFA002009B0F0BD218803
:108B0000042081432180FEF7E1FA0120F5E700000F
:108B100002000020A8000020444542554720493A61
:108B200020646F6D61696E3A25730D0A00000000C4
:108B3000646F6D61696E0000444542554720493AB3
:108B400020706F72743A25730D0A0000706F727492
:108B5000000000003EB505462C21EFF78FFB0028F2
:108B600034D02C212846EFF789FB401C04462C21E9
:108B7000EFF784FB002829D12846EFF789FB40193D
:108B8000001B401C0A2821DA2846EFF781FB401918
:108B9000001B401C1AD42846EFF77AFB4019021B31
:108BA00021466846521CEFF718FB09480078002858
:108BB00003D0694607A0F6F7F1FC684603F0D8F841
:108BC00069460920F9F70AFD00203EBD01203EBD9F
:108BD000A8000020444542554720493A20656820B6
:108BE00025730D0A00000000FEB52E4C07462088B4
:108BF000042630432080F2F78DFB0028FBD02C2187
:108C00003846EFF73BFB002838D0451C3846EFF7D5
:108C10003FFBC019401B00283DDD3846EFF738FB0D
:108C2000C019401B052836DA3846EFF731FBC0196A
:108C3000421B29466846521CEFF7CFFA3846EFF739
:108C400027FBC019401B6946401800214170164897
:108C50000078002803D0694614A0F6F79FFC022292
:108C600017A16846EFF73CFB00280ED0032215A1A0
:108C70006846EFF735FB002809D00CE02088B043A8
:108C80002080FEF723FA0120FEBD0FA100E00FA116
:108C90000FA003F0EBFD2088B0432080FEF716FA0A
:108CA0000020FEBD02000020A800002044454255DF
:108CB0004720493A2067756172643A25730D0A00AE
:108CC0006F6E00006F66660031000000300000002B
:108CD0007761726E73686F636B000000F0B587B0E8
:108CE0001CA0FBF745F901221DA1EFF7F9FA0028B6
:108CF00002D0012007B0F0BD1A4CE06A01252843DC
:108D0000E062E06A002628400590202003276A469A
:108D1000E1C2052069460007F3F760F8052000224C
:108D200020210007F3F721F9E16A04200143E16201
:108D3000E16A8401014005916846F0C00A4D694628
:108D40002846F3F74BF8002221462846F3F70DF9A1
:108D50000020CFE77761726E73686F636B0000006D
:108D6000310000000010024000080050F0B587B04C
:108D70001CA0FBF7FDF801221DA1EFF7B1FA0028B6
:108D800002D0012007B0F0BD1A4CE06A012528434B
:108D9000E062E06A002628400590202003276A460A
:108DA000E1C2052069460007F3F718F80520012203
:108DB00020210007F3F7D9F8E16A04200143E162BA
:108DC000E16A8401014005916846F0C00A4D694698
:108DD0002846F3F703F8012221462846F3F7C5F8A1
:108DE0000020CFE77761726E73686F636B000000DD
:108DF000310000000010024000080050FEB52E4C6B
:108E000007462088042630432080F2F783FA0028A2
:108E1000FBD02C213846EFF731FA002845D0451C0D
:108E20003846EFF735FAC019401B00283DDD3846BB
:108E3000EFF72EFAC019401B052836DA3846EFF74F
:108E400027FAC019421B29466846521CEFF7C5F99C
:108E50003846EFF71DFAC019401B6946401800213B
:108E6000417016480078002803D0694614A0F6F730
:108E700095FB022218A16846EFF732FA002807D0C6
:108E8000032216A16846EFF72BFA002802D005E06E
:108E900013A100E013A114A003F0E8FC2088B04364
:108EA0002080FEF713F90020FEBD2088B04320800B
:108EB000FEF70CF90120FEBD02000020A8000020F2
:108EC000444542554720493A206C6F776261743AB5
:108ED00025730D0A000000006F6E00006F666600CB
:108EE00031000000300000007761726E6C6F7762B5
:108EF000617474003EB50546FAF7B0FF2C21284690
:108F0000EFF7BCF9002834D02C212846EFF7B6F94A
:108F1000401C04462C21EFF7B1F9002829D128463E
:108F2000EFF7B6F94019001B401C0A2821DA284641
:108F3000EFF7AEF94019001B401C1AD42846EFF792
:108F4000A7F94019021B21466846521CEFF745F964
:108F500009480078002803D0694608A0F6F71EFBF0
:108F6000684602F00FFF69460A20FEF7CBFD00209D
:108F70003EBD01203EBD0000A800002044454255F2
:108F80004720493A206D6C2025730D0A000000002F
:108F9000FEB52F4D06462888042738432880F2F76F
:108FA000B9F90028FBD02C213046EFF767F90028EB
:108FB00047D0441C3046EFF76BF98019001B00289E
:108FC00038DD3046EFF764F98019001B0A2831DAE2
:108FD0003046EFF75DF98019021B21466846521CA6
:108FE000EFF7FBF83046EFF753F98019001B69469D
:108FF00040180021417017480078002803D06946C6
:1090000015A0F6F7CBFA1CA0FAF7B2FF6946EFF706
:1090100046F900280ED06846EFF70EFA3C2809DB27
:10902000694615A003F022FCFF20F530FFF77CF91C
:1090300002F0B2FE2888B8432880FEF747F80020E7
:10904000FEBD2888B8432880FEF740F80120FEBD09
:1090500002000020A8000020444542554720493A1C
:10906000206F6666726570696E74657276616C3ABF
:1090700025730D0A000000006163636F6666726508
:1090800070696E74657276616C000000FEB52F4DDC
:1090900006462888042738432880F2F73BF9002841
:1090A000FBD02C213046EFF7E9F8002847D0441CCC
:1090B0003046EFF7EDF88019001B002838DD304608
:1090C000EFF7E6F88019001B0A2831DA3046EFF78F
:1090D000DFF88019021B21466846521CEFF77DF825
:1090E0003046EFF7D5F88019001B6946401800217B
:1090F000417017480078002803D0694615A0F6F79C
:109100004DFA1BA0FAF734FF6946EFF7C8F80028BC
:109110000ED06846EFF790F90A2803DB694614A0E1
:1091200003F0A4FBFF20F530FFF7FEF802F034FE59
:109130002888B8432880FDF7C9FF0020FEBD288895
:10914000B8432880FDF7C2FF0120FEBD02000020C9
:10915000A8000020444542554720493A206F6E72CE
:109160006570696E74657276616C3A25730D0A00DC
:10917000726570696E74657276616C00F0B5744CDE
:109180000646208887B0042738432080F2F7C2F8CB
:109190000028FBD02C213046EFF770F80090002813
:1091A00054D13046EFF774F8002826D03046EFF758
:1091B0006FF800284AD03046EFF76AF8052845D204
:1091C0003046EFF765F80246314601A8EFF705F89B
:1091D0003046EFF75DF801A900220A545D48007897
:1091E000002802D05CA0F6F7D9F9022260A101A8FC
:1091F000EFF776F8002808D015E02088B8432080E3
:10920000FDF764FF012007B0F0BD5AA0FAF7B0FEE9
:1092100001225CA1EFF764F8002804D059A155A001
:1092200003F024FB12E0032257A101A8EFF758F83E
:1092300000280BD14FA0FAF79BFE012253A1EFF7B4
:109240004FF8002802D051A14AA077E00098851B72
:10925000681E042838D22A46314601A8EEF7BDFF21
:10926000002001A948553B480078002802D03AA0C8
:10927000F6F794F902223EA101A8EFF731F8002891
:109280000DD13CA0FAF774FE01223EA1EFF728F8B9
:10929000002804D03BA137A003F0E8FA14E0032231
:1092A00039A101A8EFF71CF800280DD131A0FAF779
:1092B0005FFE012235A1EFF713F8002804D033A197
:1092C0002CA003F0D3FA40E02C210098EEF7D6FF53
:1092D000002835D0451C3046EEF7DAFF8019401BD8
:1092E00000282DDD3046EEF7D3FF8019401B0A28F9
:1092F00026DA3046EEF7CCFF8019421B294603A838
:10930000521CEEF76AFF3046EEF7C2FF8019401B91
:1093100003A94118002048700E480078002803D0A7
:1093200003A91BA0F6F73AF914A0FAF721FE03A946
:10933000EEF7B5FF002803D003A910A003F096FABA
:109340002088B8432080FDF7C1FE00205BE70000C5
:1093500002000020A8000020444542554720493A19
:10936000206F76657273706565643A25730D0A0027
:109370006F6E00007761726E6F76657273706565EF
:1093800064000000310000006F66660030000000DD
:10939000444542554720493A2073706565643A2533
:1093A000730D0A00F1B58AB01DA0FAF7E1FD039034
:1093B0001EA0FAF7DDFD02901EA0FAF7D9FD0746C0
:1093C0001EA0FAF7D5FD06461EA0FAF7D1FD0190C2
:1093D0001EA0FAF7CDFD00901EA0FAF7C9FD0546C4
:1093E0001FA0FAF7C5FD04461EA0FAF7C1FD0890BC
:1093F000F1F7ACFF02460298069003990791059792
:10940000019900980391009402900496019517A188
:10941000089B0A98F6F7D2F800200BB0F0BD0000C8
:10942000726570696E74657276616C0061706E70E1
:109430006173730061706E757365720061706E6E3A
:10944000616D6500706F7274000000006970616486
:109450006472000074696D657A6F6E6500000000CB
:10946000736F730076657273696F6E0025732C0DD0
:109470000A25732C0D0A25732C0D0A25732C0D0A51
:1094800025732C0D0A25732C0D0A25732C0D0A2526
:10949000732C0D0A25732C0D0A257300F1B590B0BD
:1094A0003025FAF7DBFC06680446002241681346C3
:1094B0003046EFF783FA02D1392005550BE003CC93
:1094C00000221346083CEFF78DFA01D24E2100E04E
:1094D00053213920015500221346E168A068EFF7B7
:1094E0006DFA02D13A2005550BE000221346E168DF
:1094F000A068EFF777FA01D2452100E057213A2022
:10950000015503CC083C49004908FEF7BDFC03C4E3
:109510006168206849004908083CFEF7B5FCE16035
:10952000A06056480078002804D00CCC54A0083C19
:10953000F6F734F8256866680022574B284631460E
:10954000EFF738F9FAF76CFA07460022524B03910D
:10955000EFF7C8F82A463346EFF7BCF800224F4B26
:10956000EFF728F93A46039BEFF70AF80191E7680D
:10957000A66805460022484B39463046EFF71AF9EF
:10958000FAF74EFA0022444B03910290EFF7AAF843
:109590003B463246EFF79EF80022404BEFF70AF9C0
:1095A000039B029AEEF7ECFF06460F46002208A93D
:1095B0003B48F3F739FC00220EA93948F3F712FCB7
:1095C00008A8F7F723FA2034607E4E2802D05328EB
:1095D00027D004E0A07E452801D0572810D0F1F70D
:1095E000B5FE02460696019805900797049508A8CF
:1095F0008378417800786C460BC42AA32BA125E020
:10960000F1F7A4FE02460696019805900797049587
:1096100008A88378417800786C460BC421A332A156
:1096200014E0A07E452817D05728D8D1F1F78EFE38
:1096300002460696019805900797049508A8837836
:10964000417800786C460BC416A336A11098F5F744
:10965000B5FF002011B0F0BDF1F778FE0246069686
:10966000019805900797049508A8837841780078B9
:109670006C460BC40BA33BA1E8E70000A800002048
:10968000444542554720493A20726D632D3E6C6136
:10969000742025660D0A00000000594000004E406D
:1096A000E0120020746531303300000025732C6314
:1096B0002C25732C253032643A253032643A25301B
:1096C00032642C68747470733A2F2F7777772E6713
:1096D0006F6F676C652E636F6D2F6D6170733F7177
:1096E0003D25662C2566000025732C632C25732CE4
:1096F000253032643A253032643A253032642C68A1
:10970000747470733A2F2F7777772E676F6F676C4B
:10971000652E636F6D2F6D6170733F713D25662CF3
:109720002D25660025732C632C25732C253032647F
:109730003A253032643A253032642C687474707380
:109740003A2F2F7777772E676F6F676C652E636F71
:109750006D2F6D6170733F713D2D25662C2D256633
:109760000000000025732C632C25732C25303264F7
:109770003A253032643A253032642C687474707340
:109780003A2F2F7777772E676F6F676C652E636F31
:109790006D2F6D6170733F713D2D25662C25660020
:1097A00070B5084C2088042528432080F1F7B2FDCD
:1097B0000028FBD0F8F700F82088A8432080FDF7A8
:1097C00085FC70BD02000020F0B5414C06462088A3
:1097D00085B0042108432080F1F79CFD0028FBD0D0
:1097E0002C213046EEF74AFD070004D13046EEF753
:1097F0004FFD002863D0BD1B681E13281AD22A46CD
:1098000031466846EEF7E9FC002069464855314884
:109810000078002802D030A0F5F7C0FE33A0FAF798
:10982000A7FB6946EEF73BFD002803D069462FA051
:1098300003F01CF82C213846EEF720FD002835D027
:10984000451C3046EEF724FD8019401B00282DDD15
:109850003046EEF71DFD8019401B0A2826DA3046F7
:10986000EEF716FD8019421B29466846521CEEF79A
:10987000B4FC3046EEF70CFD8019411B6846091810
:109880000020487013480078002803D0694619A0CA
:10989000F5F784FE1CA0FAF76BFB6946EEF7FFFCB8
:1098A000002803D0694618A002F0E0FF20880421B8
:1098B00088432080FDF70AFC002005B0F0BD218818
:1098C000042081432180FDF701FC0120F5E7000021
:1098D00002000020A8000020444542554720493A94
:1098E0002069703A25730D0A0000000069706164F8
:1098F00064720000444542554720493A20706F7217
:10990000743A25730D0A0000706F72740000000035
:1099100038B5002002F054FA0E48C26A04210A4306
:10992000C262C06A8C01084000900B4801210460AB
:109930004160002181600321C160084D0146284635
:10994000F2F74CFA002221462846F2F70EFB0020DF
:1099500038BD0000001002406407002000080050DD
:1099600038B5012002F02CFA0E48C26A04210A43DD
:10997000C262C06A8C01084000900B48012104605B
:109980004160002181600321C160084D01462846E5
:10999000F2F724FA012221462846F2F7E6FA0020DF
:1099A00038BD00000010024064070020000800508D
:1099B000F0B5B04F0546387887B0002803D0294667
:1099C000ADA0F5F7EBFDB14C2088042108432080C1
:1099D000F1F7A0FC0028FBD028463A21EEF74EFC18
:1099E00000287DD0401C06462C21EEF747FC0028BD
:1099F00077D02C213046EEF741FC801B06900F28D3
:109A00001BDA0246314601A8EEF7E7FB0699002073
:109A100001AA50543878002803D011469CA0F5F7CD
:109A2000BDFDA0A0FAF7A4FA01A9EEF738FC0028C2
:109A300003D001A99BA002F019FF3A213046EEF7AE
:109A40001DFC00287ED03A213046EEF717FC401C62
:109A50002C210090EEF712FC002873D02C210098E6
:109A6000EEF70CFC0099461A0F2E18DA324601A8C0
:109A7000EEF7B3FB002001A988553878002802D002
:109A800089A0F5F78BFD8DA0FAF772FA01A9EEF720
:109A900006FC002803D001A988A002F0E7FE3A21C5
:109AA0000098EEF7EBFB00284CD03A210098EEF737
:109AB000E5FB401C06462C21EEF7E0FB002846D0D3
:109AC0002C213046EEF7DAFB801B06900F281EDAB9
:109AD0000246314601A8EEF780FB002001AA01E012
:109AE00027E097E0069950543878002803D01146B3
:109AF00074A0F5F753FD78A0FAF73AFA01A9EEF74A
:109B0000CEFB002803D001A973A002F0AFFE3A21DA
:109B10003046EEF7B3FB002874D03A213046EEF71A
:109B2000ADFB401C06463A21EEF7A8FB00283BD0CF
:109B300008E02188042081432180FDF7C7FA012035
:109B400007B0F0BD21880420814321805EE02846D3
:109B5000EEF79EFB4019801B401C0F28F2DA2846C6
:109B6000EEF796FB4019821B314601A8521CEEF716
:109B700034FB2846EEF78CFB4019811B01A809181D
:109B8000002048703878002803D001A94DA0F5F7CF
:109B900005FD51A0FAF7ECF901A9EEF780FB0028CA
:109BA000D0D001A94CA061E02846EEF771FB401926
:109BB000801B401C0F28C5DA2846EEF769FB4019C8
:109BC000821B314601A8521CEEF707FB2846EEF730
:109BD0005FFB4019811B01A80918002048703878E4
:109BE000002803D001A93EA0F5F7D8FC41A0FAF760
:109BF000BFF901A9EEF753FB0028A3D001A93DA0AE
