Component: ARM Compiler 5.06 update 1 (build 61) Tool: armlink [4d35a8]

==============================================================================

Section Cross References

    stm32l0xx_nucleo.o(i.ADCx_Init) refers to stm32l0xx_hal_adc.o(i.HAL_ADC_GetState) for HAL_ADC_GetState
    stm32l0xx_nucleo.o(i.ADCx_Init) refers to stm32l0xx_hal_gpio.o(i.HAL_GPIO_Init) for HAL_GPIO_Init
    stm32l0xx_nucleo.o(i.ADCx_Init) refers to stm32l0xx_hal_adc.o(i.HAL_ADC_Init) for HAL_ADC_Init
    stm32l0xx_nucleo.o(i.ADCx_Init) refers to stm32l0xx_nucleo.o(.bss) for .bss
    stm32l0xx_nucleo.o(i.BSP_JOY_GetState) refers to stm32l0xx_hal_adc.o(i.HAL_ADC_Start) for HAL_ADC_Start
    stm32l0xx_nucleo.o(i.BSP_JOY_GetState) refers to stm32l0xx_hal_adc.o(i.HAL_ADC_PollForConversion) for HAL_ADC_PollForConversion
    stm32l0xx_nucleo.o(i.BSP_JOY_GetState) refers to stm32l0xx_hal_adc.o(i.HAL_ADC_GetValue) for HAL_ADC_GetValue
    stm32l0xx_nucleo.o(i.BSP_JOY_GetState) refers to stm32l0xx_nucleo.o(.bss) for .bss
    stm32l0xx_nucleo.o(i.BSP_JOY_Init) refers to stm32l0xx_nucleo.o(i.ADCx_Init) for ADCx_Init
    stm32l0xx_nucleo.o(i.BSP_JOY_Init) refers to stm32l0xx_hal_adc_ex.o(i.HAL_ADCEx_Calibration_Start) for HAL_ADCEx_Calibration_Start
    stm32l0xx_nucleo.o(i.BSP_JOY_Init) refers to stm32l0xx_hal_adc.o(i.HAL_ADC_ConfigChannel) for HAL_ADC_ConfigChannel
    stm32l0xx_nucleo.o(i.BSP_JOY_Init) refers to stm32l0xx_nucleo.o(.bss) for .bss
    stm32l0xx_nucleo.o(i.BSP_JOY_Init) refers to stm32l0xx_nucleo.o(.data) for .data
    stm32l0xx_nucleo.o(i.BSP_LED_Init) refers to stm32l0xx_hal_gpio.o(i.HAL_GPIO_Init) for HAL_GPIO_Init
    stm32l0xx_nucleo.o(i.BSP_LED_Init) refers to stm32l0xx_hal_gpio.o(i.HAL_GPIO_WritePin) for HAL_GPIO_WritePin
    stm32l0xx_nucleo.o(i.BSP_LED_Init) refers to stm32l0xx_nucleo.o(.constdata) for .constdata
    stm32l0xx_nucleo.o(i.BSP_LED_Init) refers to stm32l0xx_nucleo.o(.data) for .data
    stm32l0xx_nucleo.o(i.BSP_LED_Off) refers to stm32l0xx_hal_gpio.o(i.HAL_GPIO_WritePin) for HAL_GPIO_WritePin
==============================================================================

Removing Unused input sections from the image.

    Removing stm32l0xx_nucleo.o(.rev16_text), (4 bytes).
    Removing stm32l0xx_nucleo.o(.revsh_text), (4 bytes).
    Removing stm32l0xx_nucleo.o(i.ADCx_Init), (124 bytes).
    Removing stm32l0xx_nucleo.o(i.BSP_GetVersion), (8 bytes).
    Removing stm32l0xx_nucleo.o(i.BSP_JOY_GetState), (128 bytes).
    Removing stm32l0xx_nucleo.o(i.BSP_JOY_Init), (40 bytes).
    Removing stm32l0xx_nucleo.o(i.BSP_LED_Init), (76 bytes).
    Removing stm32l0xx_nucleo.o(i.BSP_LED_Off), (32 bytes).
    Removing stm32l0xx_nucleo.o(i.BSP_LED_On), (32 bytes).
    Removing stm32l0xx_nucleo.o(i.BSP_LED_Toggle), (28 bytes).
    Removing stm32l0xx_nucleo.o(i.BSP_PB_GetState), (28 bytes).
    Removing stm32l0xx_nucleo.o(i.BSP_PB_Init), (192 bytes).
    Removing stm32l0xx_nucleo.o(i.LCD_Delay), (8 bytes).
    Removing stm32l0xx_nucleo.o(i.LCD_IO_Init), (100 bytes).
    Removing stm32l0xx_nucleo.o(i.LCD_IO_WriteData), (52 bytes).
    Removing stm32l0xx_nucleo.o(i.LCD_IO_WriteMultipleData), (116 bytes).
    Removing stm32l0xx_nucleo.o(i.LCD_IO_WriteReg), (52 bytes).
    Removing stm32l0xx_nucleo.o(i.SD_IO_CSState), (28 bytes).
==============================================================================

Image Symbol Table

    Local Symbols

    Symbol Name                              Value     Ov Type        Size  Object(Section)

    ../clib/../cmprslib/zerorunl2.c          0x00000000   Number         0  __dczerorl2.o ABSOLUTE
    ../clib/microlib/ctype/ctype.c           0x00000000   Number         0  iscntrl_o.o ABSOLUTE
    ../clib/microlib/ctype/ctype.c           0x00000000   Number         0  isdigit_o.o ABSOLUTE
    ../clib/microlib/ctype/ctype.c           0x00000000   Number         0  ctype_o.o ABSOLUTE
    ../clib/microlib/ctype/ctype.c           0x00000000   Number         0  isalnum_o.o ABSOLUTE
    ../clib/microlib/ctype/ctype.c           0x00000000   Number         0  ctype_c.o ABSOLUTE
    ../clib/microlib/ctype/ctype.c           0x00000000   Number         0  isspace_c.o ABSOLUTE
    ../clib/microlib/ctype/ctype.c           0x00000000   Number         0  ispunct_o.o ABSOLUTE
    ../clib/microlib/ctype/ctype.c           0x00000000   Number         0  isprint_o.o ABSOLUTE
    ../clib/microlib/ctype/ctype.c           0x00000000   Number         0  isspace_o.o ABSOLUTE
    ../clib/microlib/ctype/ctype.c           0x00000000   Number         0  islower_o.o ABSOLUTE
    ../clib/microlib/ctype/ctype.c           0x00000000   Number         0  isgraph_o.o ABSOLUTE
    ../clib/microlib/ctype/ctype.c           0x00000000   Number         0  isxdigit_o.o ABSOLUTE
    ../clib/microlib/ctype/ctype.c           0x00000000   Number         0  isupper_o.o ABSOLUTE
    ../clib/microlib/ctype/ctype.c           0x00000000   Number         0  isalpha_o.o ABSOLUTE
    ../clib/microlib/ctype/ctype.c           0x00000000   Number         0  isblank_o.o ABSOLUTE
    ../clib/microlib/ctype/toupper.c         0x00000000   Number         0  toupper.o ABSOLUTE
    ../clib/microlib/division.c              0x00000000   Number         0  idiv.o ABSOLUTE
    ../clib/microlib/division.c              0x00000000   Number         0  uidiv.o ABSOLUTE
    ../clib/microlib/division.c              0x00000000   Number         0  uldiv.o ABSOLUTE
    ../clib/microlib/errno.c                 0x00000000   Number         0  errno.o ABSOLUTE
    ../clib/microlib/init/entry.s            0x00000000   Number         0  entry10a.o ABSOLUTE
    ../clib/microlib/init/entry.s            0x00000000   Number         0  entry7b.o ABSOLUTE
    ../clib/microlib/init/entry.s            0x00000000   Number         0  entry7a.o ABSOLUTE
    ../clib/microlib/init/entry.s            0x00000000   Number         0  entry.o ABSOLUTE
    ../clib/microlib/init/entry.s            0x00000000   Number         0  entry9b.o ABSOLUTE
    ../clib/microlib/init/entry.s            0x00000000   Number         0  entry5.o ABSOLUTE
    ../clib/microlib/init/entry.s            0x00000000   Number         0  entry10b.o ABSOLUTE
    ../clib/microlib/init/entry.s            0x00000000   Number         0  entry11b.o ABSOLUTE
    ../clib/microlib/init/entry.s            0x00000000   Number         0  entry2.o ABSOLUTE
    ../clib/microlib/init/entry.s            0x00000000   Number         0  entry8b.o ABSOLUTE
    ../clib/microlib/init/entry.s            0x00000000   Number         0  entry8a.o ABSOLUTE
    ../clib/microlib/init/entry.s            0x00000000   Number         0  entry9a.o ABSOLUTE
    ../clib/microlib/init/entry.s            0x00000000   Number         0  entry11a.o ABSOLUTE
    ../clib/microlib/longlong.c              0x00000000   Number         0  llsshr.o ABSOLUTE
    ../clib/microlib/longlong.c              0x00000000   Number         0  llshl.o ABSOLUTE
    ../clib/microlib/longlong.c              0x00000000   Number         0  llmul.o ABSOLUTE
    ../clib/microlib/longlong.c              0x00000000   Number         0  llushr.o ABSOLUTE
    ../clib/microlib/malloc/malloc.c         0x00000000   Number         0  malloc.o ABSOLUTE
    ../clib/microlib/malloc/malloc.c         0x00000000   Number         0  mallocr.o ABSOLUTE
    ../clib/microlib/malloc/malloc.c         0x00000000   Number         0  malloca.o ABSOLUTE
    ../clib/microlib/malloc/malloc.c         0x00000000   Number         0  mallocra.o ABSOLUTE
    ../clib/microlib/malloc/mvars.c          0x00000000   Number         0  mvars.o ABSOLUTE
    ../clib/microlib/printf/printf.c         0x00000000   Number         0  printf7.o ABSOLUTE
    ../clib/microlib/printf/printf.c         0x00000000   Number         0  printf8.o ABSOLUTE
    ../clib/microlib/printf/printf.c         0x00000000   Number         0  printf2.o ABSOLUTE
    ../clib/microlib/printf/printf.c         0x00000000   Number         0  printfb.o ABSOLUTE
    ../clib/microlib/printf/printf.c         0x00000000   Number         0  printfa.o ABSOLUTE
    ../clib/microlib/printf/printf.c         0x00000000   Number         0  printf3.o ABSOLUTE
    ../clib/microlib/printf/printf.c         0x00000000   Number         0  printf4.o ABSOLUTE
    ../clib/microlib/printf/printf.c         0x00000000   Number         0  printf5.o ABSOLUTE
    ../clib/microlib/printf/printf.c         0x00000000   Number         0  printf6.o ABSOLUTE
    ../clib/microlib/printf/printf.c         0x00000000   Number         0  printf1.o ABSOLUTE
    ../clib/microlib/printf/printf.c         0x00000000   Number         0  printf0.o ABSOLUTE
    ../clib/microlib/printf/stubs.s          0x00000000   Number         0  stubs.o ABSOLUTE
    ../clib/microlib/stdio/streams.c         0x00000000   Number         0  stdout.o ABSOLUTE
    ../clib/microlib/stdlib/abort.c          0x00000000   Number         0  abort.o ABSOLUTE
    ../clib/microlib/stdlib/rand.c           0x00000000   Number         0  rand.o ABSOLUTE
    ../clib/microlib/string/memchr.c         0x00000000   Number         0  memchr.o ABSOLUTE
    ../clib/microlib/string/memcmp.c         0x00000000   Number         0  memcmp.o ABSOLUTE
    ../clib/microlib/string/memcpy.c         0x00000000   Number         0  memcpya.o ABSOLUTE
    ../clib/microlib/string/memcpy.c         0x00000000   Number         0  memcpyb.o ABSOLUTE
    ../clib/microlib/string/memset.c         0x00000000   Number         0  memseta.o ABSOLUTE
    ../clib/microlib/string/strcat.c         0x00000000   Number         0  strcat.o ABSOLUTE
    ../clib/microlib/string/strchr.c         0x00000000   Number         0  strchr.o ABSOLUTE
    ../clib/microlib/string/strcmp.c         0x00000000   Number         0  strcmp.o ABSOLUTE
    ../clib/microlib/string/strcpy.c         0x00000000   Number         0  strcpy.o ABSOLUTE
    ../clib/microlib/string/strlen.c         0x00000000   Number         0  strlen.o ABSOLUTE
    ../clib/microlib/string/strncmp.c        0x00000000   Number         0  strncmp.o ABSOLUTE
    ../clib/microlib/string/strncpy.c        0x00000000   Number         0  strncpy.o ABSOLUTE
    ../clib/microlib/string/strstr.c         0x00000000   Number         0  strstr.o ABSOLUTE
    ../clib/microlib/stubs.s                 0x00000000   Number         0  iusefp.o ABSOLUTE
    ../clib/microlib/unhosted.c              0x00000000   Number         0  uread4.o ABSOLUTE
    ../clib/scanf.c                          0x00000000   Number         0  _scanf.o ABSOLUTE
    ../clib/scanf.c                          0x00000000   Number         0  scanf_fp.o ABSOLUTE
    ../clib/scanf.c                          0x00000000   Number         0  __0sscanf.o ABSOLUTE
    ../clib/scanf.c                          0x00000000   Number         0  strtol.o ABSOLUTE
    ../clib/scanf.c                          0x00000000   Number         0  _sgetc.o ABSOLUTE
    ../clib/scanf.c                          0x00000000   Number         0  _strtoul.o ABSOLUTE
    ../clib/scanf.c                          0x00000000   Number         0  _chval.o ABSOLUTE
    ../clib/scanf.c                          0x00000000   Number         0  atoi.o ABSOLUTE
    ../clib/scanf.c                          0x00000000   Number         0  _scanf_str.o ABSOLUTE
    ../clib/scanf.c                          0x00000000   Number         0  scanf_char.o ABSOLUTE
    ../clib/scanf.c                          0x00000000   Number         0  strtod.o ABSOLUTE
    ../fplib/microlib/d2f.c                  0x00000000   Number         0  d2f.o ABSOLUTE
    ../fplib/microlib/fpadd.c                0x00000000   Number         0  fadd.o ABSOLUTE
    ../fplib/microlib/fpadd.c                0x00000000   Number         0  dadd.o ABSOLUTE
    ../fplib/microlib/fpdiv.c                0x00000000   Number         0  ddiv.o ABSOLUTE
    ../fplib/microlib/fpdiv.c                0x00000000   Number         0  fdiv.o ABSOLUTE
    ../fplib/microlib/fpepilogue.c           0x00000000   Number         0  fepilogue.o ABSOLUTE
    ../fplib/microlib/fpepilogue.c           0x00000000   Number         0  depilogue.o ABSOLUTE
    ../fplib/microlib/fpfix.c                0x00000000   Number         0  dfixul.o ABSOLUTE
    ../fplib/microlib/fpfix.c                0x00000000   Number         0  dfixi.o ABSOLUTE
    ../fplib/microlib/fpfix.c                0x00000000   Number         0  dfixui.o ABSOLUTE
    ../fplib/microlib/fpflt.c                0x00000000   Number         0  dflti.o ABSOLUTE
    ../fplib/microlib/fpflt.c                0x00000000   Number         0  ffltui.o ABSOLUTE
    ../fplib/microlib/fpflt.c                0x00000000   Number         0  fflti.o ABSOLUTE
    ../fplib/microlib/fpflt.c                0x00000000   Number         0  dfltui.o ABSOLUTE
    ../fplib/microlib/fpflt.c                0x00000000   Number         0  dfltul.o ABSOLUTE
    ../fplib/microlib/fpmul.c                0x00000000   Number         0  dmul.o ABSOLUTE
    ../fplib/microlib/fpscalb.c              0x00000000   Number         0  dscalb.o ABSOLUTE
    ../fplib/microlib/fpsqrt.c               0x00000000   Number         0  dsqrt.o ABSOLUTE
    ../mathlib/acos.c                        0x00000000   Number         0  acos_x.o ABSOLUTE
    ../mathlib/acos.c                        0x00000000   Number         0  acos.o ABSOLUTE
    ../mathlib/asin.c                        0x00000000   Number         0  asin_x.o ABSOLUTE
    ../mathlib/asin.c                        0x00000000   Number         0  asin.o ABSOLUTE
    ../mathlib/atan.c                        0x00000000   Number         0  atan_x.o ABSOLUTE
    ../mathlib/atan.c                        0x00000000   Number         0  atan.o ABSOLUTE
    ../mathlib/atan2.c                       0x00000000   Number         0  atan2.o ABSOLUTE
    ../mathlib/atan2.c                       0x00000000   Number         0  atan2_x.o ABSOLUTE
    ../mathlib/atof.c                        0x00000000   Number         0  atof.o ABSOLUTE
    ../mathlib/ceil.c                        0x00000000   Number         0  ceil.o ABSOLUTE
    ../mathlib/cos.c                         0x00000000   Number         0  cos.o ABSOLUTE
    ../mathlib/cos.c                         0x00000000   Number         0  cos_x.o ABSOLUTE
    ../mathlib/cos_i.c                       0x00000000   Number         0  cos_i.o ABSOLUTE
    ../mathlib/dunder.c                      0x00000000   Number         0  dunder.o ABSOLUTE
    ../mathlib/floor.c                       0x00000000   Number         0  floor.o ABSOLUTE
    ../mathlib/fpclassify.c                  0x00000000   Number         0  fpclassify.o ABSOLUTE
    ../mathlib/modf.c                        0x00000000   Number         0  modf.o ABSOLUTE
    ../mathlib/poly.c                        0x00000000   Number         0  poly.o ABSOLUTE
    ../mathlib/pow.c                         0x00000000   Number         0  pow_x.o ABSOLUTE
    ../mathlib/pow.c                         0x00000000   Number         0  pow.o ABSOLUTE
    ../mathlib/qnan.c                        0x00000000   Number         0  qnan.o ABSOLUTE
    ../mathlib/rred.c                        0x00000000   Number         0  rred.o ABSOLUTE
    ../mathlib/sin.c                         0x00000000   Number         0  sin_x.o ABSOLUTE
    ../mathlib/sin.c                         0x00000000   Number         0  sin.o ABSOLUTE
    ../mathlib/sin_i.c                       0x00000000   Number         0  sin_i_x.o ABSOLUTE
    ../mathlib/sin_i.c                       0x00000000   Number         0  sin_i.o ABSOLUTE
    ../mathlib/sqrt.c                        0x00000000   Number         0  sqrt.o ABSOLUTE
    ../mathlib/sqrt.c                        0x00000000   Number         0  sqrt_x.o ABSOLUTE
    ../mathlib/tan.c                         0x00000000   Number         0  tan.o ABSOLUTE
    ../mathlib/tan.c                         0x00000000   Number         0  tan_x.o ABSOLUTE
    ../mathlib/tan_i.c                       0x00000000   Number         0  tan_i_x.o ABSOLUTE
    ../mathlib/tan_i.c                       0x00000000   Number         0  tan_i.o ABSOLUTE
    ..\..\..\..\Drivers\BSP\STM32L071RZ_Nucleo\spi_flash.c 0x00000000   Number         0  spi_flash.o ABSOLUTE
    ..\..\..\..\Drivers\BSP\STM32L0xx_Nucleo\stm32l0xx_nucleo.c 0x00000000   Number         0  stm32l0xx_nucleo.o ABSOLUTE
    ..\..\..\..\Drivers\STM32L0xx_HAL_Driver\Src\stm32l0xx_hal.c 0x00000000   Number         0  stm32l0xx_hal.o ABSOLUTE
    ..\..\..\..\Drivers\STM32L0xx_HAL_Driver\Src\stm32l0xx_hal_adc.c 0x00000000   Number         0  stm32l0xx_hal_adc.o ABSOLUTE
    ..\..\..\..\Drivers\STM32L0xx_HAL_Driver\Src\stm32l0xx_hal_adc_ex.c 0x00000000   Number         0  stm32l0xx_hal_adc_ex.o ABSOLUTE
    ..\..\..\..\Drivers\STM32L0xx_HAL_Driver\Src\stm32l0xx_hal_comp.c 0x00000000   Number         0  stm32l0xx_hal_comp.o ABSOLUTE
    ..\..\..\..\Drivers\STM32L0xx_HAL_Driver\Src\stm32l0xx_hal_cortex.c 0x00000000   Number         0  stm32l0xx_hal_cortex.o ABSOLUTE
    ..\..\..\..\Drivers\STM32L0xx_HAL_Driver\Src\stm32l0xx_hal_crc.c 0x00000000   Number         0  stm32l0xx_hal_crc.o ABSOLUTE
    ..\..\..\..\Drivers\STM32L0xx_HAL_Driver\Src\stm32l0xx_hal_crc_ex.c 0x00000000   Number         0  stm32l0xx_hal_crc_ex.o ABSOLUTE
    ..\..\..\..\Drivers\STM32L0xx_HAL_Driver\Src\stm32l0xx_hal_cryp.c 0x00000000   Number         0  stm32l0xx_hal_cryp.o ABSOLUTE
    ..\..\..\..\Drivers\STM32L0xx_HAL_Driver\Src\stm32l0xx_hal_cryp_ex.c 0x00000000   Number         0  stm32l0xx_hal_cryp_ex.o ABSOLUTE
    ..\..\..\..\Drivers\STM32L0xx_HAL_Driver\Src\stm32l0xx_hal_dac.c 0x00000000   Number         0  stm32l0xx_hal_dac.o ABSOLUTE
    ..\..\..\..\Drivers\STM32L0xx_HAL_Driver\Src\stm32l0xx_hal_dac_ex.c 0x00000000   Number         0  stm32l0xx_hal_dac_ex.o ABSOLUTE
    ..\..\..\..\Drivers\STM32L0xx_HAL_Driver\Src\stm32l0xx_hal_dma.c 0x00000000   Number         0  stm32l0xx_hal_dma.o ABSOLUTE
    ..\..\..\..\Drivers\STM32L0xx_HAL_Driver\Src\stm32l0xx_hal_flash.c 0x00000000   Number         0  stm32l0xx_hal_flash.o ABSOLUTE
    ..\..\..\..\Drivers\STM32L0xx_HAL_Driver\Src\stm32l0xx_hal_flash_ex.c 0x00000000   Number         0  stm32l0xx_hal_flash_ex.o ABSOLUTE
    ..\..\..\..\Drivers\STM32L0xx_HAL_Driver\Src\stm32l0xx_hal_flash_ramfunc.c 0x00000000   Number         0  stm32l0xx_hal_flash_ramfunc.o ABSOLUTE
    ..\..\..\..\Drivers\STM32L0xx_HAL_Driver\Src\stm32l0xx_hal_gpio.c 0x00000000   Number         0  stm32l0xx_hal_gpio.o ABSOLUTE
    ..\..\..\..\Drivers\STM32L0xx_HAL_Driver\Src\stm32l0xx_hal_i2c.c 0x00000000   Number         0  stm32l0xx_hal_i2c.o ABSOLUTE
    ..\..\..\..\Drivers\STM32L0xx_HAL_Driver\Src\stm32l0xx_hal_i2c_ex.c 0x00000000   Number         0  stm32l0xx_hal_i2c_ex.o ABSOLUTE
    ..\..\..\..\Drivers\STM32L0xx_HAL_Driver\Src\stm32l0xx_hal_i2s.c 0x00000000   Number         0  stm32l0xx_hal_i2s.o ABSOLUTE
    ..\..\..\..\Drivers\STM32L0xx_HAL_Driver\Src\stm32l0xx_hal_irda.c 0x00000000   Number         0  stm32l0xx_hal_irda.o ABSOLUTE
    ..\..\..\..\Drivers\STM32L0xx_HAL_Driver\Src\stm32l0xx_hal_iwdg.c 0x00000000   Number         0  stm32l0xx_hal_iwdg.o ABSOLUTE
    ..\..\..\..\Drivers\STM32L0xx_HAL_Driver\Src\stm32l0xx_hal_lcd.c 0x00000000   Number         0  stm32l0xx_hal_lcd.o ABSOLUTE
    ..\..\..\..\Drivers\STM32L0xx_HAL_Driver\Src\stm32l0xx_hal_lptim.c 0x00000000   Number         0  stm32l0xx_hal_lptim.o ABSOLUTE
    ..\..\..\..\Drivers\STM32L0xx_HAL_Driver\Src\stm32l0xx_hal_pcd.c 0x00000000   Number         0  stm32l0xx_hal_pcd.o ABSOLUTE
    ..\..\..\..\Drivers\STM32L0xx_HAL_Driver\Src\stm32l0xx_hal_pcd_ex.c 0x00000000   Number         0  stm32l0xx_hal_pcd_ex.o ABSOLUTE
    ..\..\..\..\Drivers\STM32L0xx_HAL_Driver\Src\stm32l0xx_hal_pwr.c 0x00000000   Number         0  stm32l0xx_hal_pwr.o ABSOLUTE
    ..\..\..\..\Drivers\STM32L0xx_HAL_Driver\Src\stm32l0xx_hal_pwr_ex.c 0x00000000   Number         0  stm32l0xx_hal_pwr_ex.o ABSOLUTE
    ..\..\..\..\Drivers\STM32L0xx_HAL_Driver\Src\stm32l0xx_hal_rcc.c 0x00000000   Number         0  stm32l0xx_hal_rcc.o ABSOLUTE
    ..\..\..\..\Drivers\STM32L0xx_HAL_Driver\Src\stm32l0xx_hal_rcc_ex.c 0x00000000   Number         0  stm32l0xx_hal_rcc_ex.o ABSOLUTE
    ..\..\..\..\Drivers\STM32L0xx_HAL_Driver\Src\stm32l0xx_hal_rng.c 0x00000000   Number         0  stm32l0xx_hal_rng.o ABSOLUTE
    ..\..\..\..\Drivers\STM32L0xx_HAL_Driver\Src\stm32l0xx_hal_rtc.c 0x00000000   Number         0  stm32l0xx_hal_rtc.o ABSOLUTE
    ..\..\..\..\Drivers\STM32L0xx_HAL_Driver\Src\stm32l0xx_hal_rtc_ex.c 0x00000000   Number         0  stm32l0xx_hal_rtc_ex.o ABSOLUTE
    ..\..\..\..\Drivers\STM32L0xx_HAL_Driver\Src\stm32l0xx_hal_smartcard.c 0x00000000   Number         0  stm32l0xx_hal_smartcard.o ABSOLUTE
    ..\..\..\..\Drivers\STM32L0xx_HAL_Driver\Src\stm32l0xx_hal_smartcard_ex.c 0x00000000   Number         0  stm32l0xx_hal_smartcard_ex.o ABSOLUTE
    ..\..\..\..\Drivers\STM32L0xx_HAL_Driver\Src\stm32l0xx_hal_smbus.c 0x00000000   Number         0  stm32l0xx_hal_smbus.o ABSOLUTE
    ..\..\..\..\Drivers\STM32L0xx_HAL_Driver\Src\stm32l0xx_hal_spi.c 0x00000000   Number         0  stm32l0xx_hal_spi.o ABSOLUTE
    ..\..\..\..\Drivers\STM32L0xx_HAL_Driver\Src\stm32l0xx_hal_tim.c 0x00000000   Number         0  stm32l0xx_hal_tim.o ABSOLUTE
    ..\..\..\..\Drivers\STM32L0xx_HAL_Driver\Src\stm32l0xx_hal_tim_ex.c 0x00000000   Number         0  stm32l0xx_hal_tim_ex.o ABSOLUTE
    ..\..\..\..\Drivers\STM32L0xx_HAL_Driver\Src\stm32l0xx_hal_tsc.c 0x00000000   Number         0  stm32l0xx_hal_tsc.o ABSOLUTE
    ..\..\..\..\Drivers\STM32L0xx_HAL_Driver\Src\stm32l0xx_hal_uart.c 0x00000000   Number         0  stm32l0xx_hal_uart.o ABSOLUTE
    ..\..\..\..\Drivers\STM32L0xx_HAL_Driver\Src\stm32l0xx_hal_uart_ex.c 0x00000000   Number         0  stm32l0xx_hal_uart_ex.o ABSOLUTE
    ..\..\..\..\Drivers\STM32L0xx_HAL_Driver\Src\stm32l0xx_hal_usart.c 0x00000000   Number         0  stm32l0xx_hal_usart.o ABSOLUTE
    ..\..\..\..\Drivers\STM32L0xx_HAL_Driver\Src\stm32l0xx_hal_wwdg.c 0x00000000   Number         0  stm32l0xx_hal_wwdg.o ABSOLUTE
    ..\..\..\..\Middlewares\Third_Party\FatFs\src\diskio.c 0x00000000   Number         0  diskio.o ABSOLUTE
    ..\..\..\..\Middlewares\Third_Party\FatFs\src\drivers\flash_diskio.c 0x00000000   Number         0  flash_diskio.o ABSOLUTE
    ..\..\..\..\Middlewares\Third_Party\FatFs\src\ff.c 0x00000000   Number         0  ff.o ABSOLUTE
    ..\..\..\..\Middlewares\Third_Party\FatFs\src\ff_gen_drv.c 0x00000000   Number         0  ff_gen_drv.o ABSOLUTE
    ..\..\..\..\Middlewares\Third_Party\FatFs\src\option\syscall.c 0x00000000   Number         0  syscall.o ABSOLUTE
    ..\..\..\..\Middlewares\Third_Party\FatFs\src\option\unicode.c 0x00000000   Number         0  unicode.o ABSOLUTE
    ..\..\..\..\Middlewares\Third_Party\FreeRTOS\Source\CMSIS_RTOS\cmsis_os.c 0x00000000   Number         0  cmsis_os.o ABSOLUTE
    ..\..\..\..\Middlewares\Third_Party\FreeRTOS\Source\list.c 0x00000000   Number         0  list.o ABSOLUTE
    ..\..\..\..\Middlewares\Third_Party\FreeRTOS\Source\portable\MemMang\heap_4.c 0x00000000   Number         0  heap_4.o ABSOLUTE
    ..\..\..\..\Middlewares\Third_Party\FreeRTOS\Source\portable\RVDS\ARM_CM0\port.c 0x00000000   Number         0  port.o ABSOLUTE
    ..\..\..\..\Middlewares\Third_Party\FreeRTOS\Source\queue.c 0x00000000   Number         0  queue.o ABSOLUTE
    ..\..\..\..\Middlewares\Third_Party\FreeRTOS\Source\tasks.c 0x00000000   Number         0  tasks.o ABSOLUTE
    ..\..\..\..\Middlewares\Third_Party\FreeRTOS\Source\timers.c 0x00000000   Number         0  timers.o ABSOLUTE
    ..\..\..\..\Middlewares\Third_Party\nmealib\src\context.c 0x00000000   Number         0  context.o ABSOLUTE
    ..\..\..\..\Middlewares\Third_Party\nmealib\src\generate.c 0x00000000   Number         0  generate.o ABSOLUTE
    ..\..\..\..\Middlewares\Third_Party\nmealib\src\generator.c 0x00000000   Number         0  generator.o ABSOLUTE
    ..\..\..\..\Middlewares\Third_Party\nmealib\src\gmath.c 0x00000000   Number         0  gmath.o ABSOLUTE
    ..\..\..\..\Middlewares\Third_Party\nmealib\src\info.c 0x00000000   Number         0  info.o ABSOLUTE
    ..\..\..\..\Middlewares\Third_Party\nmealib\src\parse.c 0x00000000   Number         0  parse.o ABSOLUTE
    ..\..\..\..\Middlewares\Third_Party\nmealib\src\parser.c 0x00000000   Number         0  parser.o ABSOLUTE
    ..\..\..\..\Middlewares\Third_Party\nmealib\src\sentence.c 0x00000000   Number         0  sentence.o ABSOLUTE
    ..\..\..\..\Middlewares\Third_Party\nmealib\src\time.c 0x00000000   Number         0  time.o ABSOLUTE
    ..\..\..\..\Middlewares\Third_Party\nmealib\src\tok.c 0x00000000   Number         0  tok.o ABSOLUTE
    ..\Src\common.c                          0x00000000   Number         0  common.o ABSOLUTE
    ..\Src\config_file.c                     0x00000000   Number         0  config_file.o ABSOLUTE
    ..\Src\debug.c                           0x00000000   Number         0  debug.o ABSOLUTE
    ..\Src\eeprom.c                          0x00000000   Number         0  eeprom.o ABSOLUTE
    ..\Src\geofence.c                        0x00000000   Number         0  geofence.o ABSOLUTE
    ..\Src\gps.c                             0x00000000   Number         0  gps.o ABSOLUTE
    ..\Src\gpsOne.c                          0x00000000   Number         0  gpsone.o ABSOLUTE
    ..\Src\gsensor.c                         0x00000000   Number         0  gsensor.o ABSOLUTE
    ..\Src\gsm.c                             0x00000000   Number         0  gsm.o ABSOLUTE
    ..\Src\hardware.c                        0x00000000   Number         0  hardware.o ABSOLUTE
    ..\Src\kalman.c                          0x00000000   Number         0  kalman.o ABSOLUTE
    ..\Src\main.c                            0x00000000   Number         0  main.o ABSOLUTE
    ..\Src\matrix.c                          0x00000000   Number         0  matrix.o ABSOLUTE
    ..\Src\ring_buffer.c                     0x00000000   Number         0  ring_buffer.o ABSOLUTE
    ..\Src\stm32l0xx_hal_msp.c               0x00000000   Number         0  stm32l0xx_hal_msp.o ABSOLUTE
    ..\Src\stm32l0xx_it.c                    0x00000000   Number         0  stm32l0xx_it.o ABSOLUTE
    ..\Src\system_stm32l0xx.c                0x00000000   Number         0  system_stm32l0xx.o ABSOLUTE
    ..\Src\utility.c                         0x00000000   Number         0  utility.o ABSOLUTE
    ..\Src\work.c                            0x00000000   Number         0  work.o ABSOLUTE
    ..\\..\\..\\..\\Drivers\\BSP\\STM32L071RZ_Nucleo\\spi_flash.c 0x00000000   Number         0  spi_flash.o ABSOLUTE
    ..\\..\\..\\..\\Drivers\\BSP\\STM32L0xx_Nucleo\\stm32l0xx_nucleo.c 0x00000000   Number         0  stm32l0xx_nucleo.o ABSOLUTE
    ..\\..\\..\\..\\Drivers\\STM32L0xx_HAL_Driver\\Src\\stm32l0xx_hal.c 0x00000000   Number         0  stm32l0xx_hal.o ABSOLUTE
    ..\\..\\..\\..\\Drivers\\STM32L0xx_HAL_Driver\\Src\\stm32l0xx_hal_adc.c 0x00000000   Number         0  stm32l0xx_hal_adc.o ABSOLUTE
    ..\\..\\..\\..\\Drivers\\STM32L0xx_HAL_Driver\\Src\\stm32l0xx_hal_adc_ex.c 0x00000000   Number         0  stm32l0xx_hal_adc_ex.o ABSOLUTE
    ..\\..\\..\\..\\Drivers\\STM32L0xx_HAL_Driver\\Src\\stm32l0xx_hal_comp.c 0x00000000   Number         0  stm32l0xx_hal_comp.o ABSOLUTE
    ..\\..\\..\\..\\Drivers\\STM32L0xx_HAL_Driver\\Src\\stm32l0xx_hal_cortex.c 0x00000000   Number         0  stm32l0xx_hal_cortex.o ABSOLUTE
    ..\\..\\..\\..\\Drivers\\STM32L0xx_HAL_Driver\\Src\\stm32l0xx_hal_crc.c 0x00000000   Number         0  stm32l0xx_hal_crc.o ABSOLUTE
    ..\\..\\..\\..\\Drivers\\STM32L0xx_HAL_Driver\\Src\\stm32l0xx_hal_crc_ex.c 0x00000000   Number         0  stm32l0xx_hal_crc_ex.o ABSOLUTE
    ..\\..\\..\\..\\Drivers\\STM32L0xx_HAL_Driver\\Src\\stm32l0xx_hal_dma.c 0x00000000   Number         0  stm32l0xx_hal_dma.o ABSOLUTE
    ..\\..\\..\\..\\Drivers\\STM32L0xx_HAL_Driver\\Src\\stm32l0xx_hal_flash.c 0x00000000   Number         0  stm32l0xx_hal_flash.o ABSOLUTE
    ..\\..\\..\\..\\Drivers\\STM32L0xx_HAL_Driver\\Src\\stm32l0xx_hal_flash_ex.c 0x00000000   Number         0  stm32l0xx_hal_flash_ex.o ABSOLUTE
    ..\\..\\..\\..\\Drivers\\STM32L0xx_HAL_Driver\\Src\\stm32l0xx_hal_flash_ramfunc.c 0x00000000   Number         0  stm32l0xx_hal_flash_ramfunc.o ABSOLUTE
    ..\\..\\..\\..\\Drivers\\STM32L0xx_HAL_Driver\\Src\\stm32l0xx_hal_gpio.c 0x00000000   Number         0  stm32l0xx_hal_gpio.o ABSOLUTE
    ..\\..\\..\\..\\Drivers\\STM32L0xx_HAL_Driver\\Src\\stm32l0xx_hal_i2c.c 0x00000000   Number         0  stm32l0xx_hal_i2c.o ABSOLUTE
    ..\\..\\..\\..\\Drivers\\STM32L0xx_HAL_Driver\\Src\\stm32l0xx_hal_i2c_ex.c 0x00000000   Number         0  stm32l0xx_hal_i2c_ex.o ABSOLUTE
    ..\\..\\..\\..\\Drivers\\STM32L0xx_HAL_Driver\\Src\\stm32l0xx_hal_i2s.c 0x00000000   Number         0  stm32l0xx_hal_i2s.o ABSOLUTE
    ..\\..\\..\\..\\Drivers\\STM32L0xx_HAL_Driver\\Src\\stm32l0xx_hal_irda.c 0x00000000   Number         0  stm32l0xx_hal_irda.o ABSOLUTE
    ..\\..\\..\\..\\Drivers\\STM32L0xx_HAL_Driver\\Src\\stm32l0xx_hal_iwdg.c 0x00000000   Number         0  stm32l0xx_hal_iwdg.o ABSOLUTE
    ..\\..\\..\\..\\Drivers\\STM32L0xx_HAL_Driver\\Src\\stm32l0xx_hal_lcd.c 0x00000000   Number         0  stm32l0xx_hal_lcd.o ABSOLUTE
    ..\\..\\..\\..\\Drivers\\STM32L0xx_HAL_Driver\\Src\\stm32l0xx_hal_lptim.c 0x00000000   Number         0  stm32l0xx_hal_lptim.o ABSOLUTE
    ..\\..\\..\\..\\Drivers\\STM32L0xx_HAL_Driver\\Src\\stm32l0xx_hal_pcd.c 0x00000000   Number         0  stm32l0xx_hal_pcd.o ABSOLUTE
    ..\\..\\..\\..\\Drivers\\STM32L0xx_HAL_Driver\\Src\\stm32l0xx_hal_pwr.c 0x00000000   Number         0  stm32l0xx_hal_pwr.o ABSOLUTE
    ..\\..\\..\\..\\Drivers\\STM32L0xx_HAL_Driver\\Src\\stm32l0xx_hal_pwr_ex.c 0x00000000   Number         0  stm32l0xx_hal_pwr_ex.o ABSOLUTE
    ..\\..\\..\\..\\Drivers\\STM32L0xx_HAL_Driver\\Src\\stm32l0xx_hal_rcc.c 0x00000000   Number         0  stm32l0xx_hal_rcc.o ABSOLUTE
    ..\\..\\..\\..\\Drivers\\STM32L0xx_HAL_Driver\\Src\\stm32l0xx_hal_rcc_ex.c 0x00000000   Number         0  stm32l0xx_hal_rcc_ex.o ABSOLUTE
    ..\\..\\..\\..\\Drivers\\STM32L0xx_HAL_Driver\\Src\\stm32l0xx_hal_rng.c 0x00000000   Number         0  stm32l0xx_hal_rng.o ABSOLUTE
    ..\\..\\..\\..\\Drivers\\STM32L0xx_HAL_Driver\\Src\\stm32l0xx_hal_rtc.c 0x00000000   Number         0  stm32l0xx_hal_rtc.o ABSOLUTE
    ..\\..\\..\\..\\Drivers\\STM32L0xx_HAL_Driver\\Src\\stm32l0xx_hal_rtc_ex.c 0x00000000   Number         0  stm32l0xx_hal_rtc_ex.o ABSOLUTE
    ..\\..\\..\\..\\Drivers\\STM32L0xx_HAL_Driver\\Src\\stm32l0xx_hal_smartcard.c 0x00000000   Number         0  stm32l0xx_hal_smartcard.o ABSOLUTE
    ..\\..\\..\\..\\Drivers\\STM32L0xx_HAL_Driver\\Src\\stm32l0xx_hal_smartcard_ex.c 0x00000000   Number         0  stm32l0xx_hal_smartcard_ex.o ABSOLUTE
    ..\\..\\..\\..\\Drivers\\STM32L0xx_HAL_Driver\\Src\\stm32l0xx_hal_smbus.c 0x00000000   Number         0  stm32l0xx_hal_smbus.o ABSOLUTE
    ..\\..\\..\\..\\Drivers\\STM32L0xx_HAL_Driver\\Src\\stm32l0xx_hal_spi.c 0x00000000   Number         0  stm32l0xx_hal_spi.o ABSOLUTE
    ..\\..\\..\\..\\Drivers\\STM32L0xx_HAL_Driver\\Src\\stm32l0xx_hal_tim.c 0x00000000   Number         0  stm32l0xx_hal_tim.o ABSOLUTE
    ..\\..\\..\\..\\Drivers\\STM32L0xx_HAL_Driver\\Src\\stm32l0xx_hal_tim_ex.c 0x00000000   Number         0  stm32l0xx_hal_tim_ex.o ABSOLUTE
    ..\\..\\..\\..\\Drivers\\STM32L0xx_HAL_Driver\\Src\\stm32l0xx_hal_uart.c 0x00000000   Number         0  stm32l0xx_hal_uart.o ABSOLUTE
    ..\\..\\..\\..\\Drivers\\STM32L0xx_HAL_Driver\\Src\\stm32l0xx_hal_uart_ex.c 0x00000000   Number         0  stm32l0xx_hal_uart_ex.o ABSOLUTE
    ..\\..\\..\\..\\Drivers\\STM32L0xx_HAL_Driver\\Src\\stm32l0xx_hal_usart.c 0x00000000   Number         0  stm32l0xx_hal_usart.o ABSOLUTE
    ..\\..\\..\\..\\Drivers\\STM32L0xx_HAL_Driver\\Src\\stm32l0xx_hal_wwdg.c 0x00000000   Number         0  stm32l0xx_hal_wwdg.o ABSOLUTE
    ..\\..\\..\\..\\Middlewares\\Third_Party\\FatFs\\src\\diskio.c 0x00000000   Number         0  diskio.o ABSOLUTE
    ..\\..\\..\\..\\Middlewares\\Third_Party\\FatFs\\src\\drivers\\flash_diskio.c 0x00000000   Number         0  flash_diskio.o ABSOLUTE
    ..\\..\\..\\..\\Middlewares\\Third_Party\\FatFs\\src\\ff.c 0x00000000   Number         0  ff.o ABSOLUTE
    ..\\..\\..\\..\\Middlewares\\Third_Party\\FatFs\\src\\ff_gen_drv.c 0x00000000   Number         0  ff_gen_drv.o ABSOLUTE
    ..\\..\\..\\..\\Middlewares\\Third_Party\\FatFs\\src\\option\\syscall.c 0x00000000   Number         0  syscall.o ABSOLUTE
    ..\\..\\..\\..\\Middlewares\\Third_Party\\FatFs\\src\\option\\unicode.c 0x00000000   Number         0  unicode.o ABSOLUTE
    ..\\..\\..\\..\\Middlewares\\Third_Party\\FreeRTOS\\Source\\CMSIS_RTOS\\cmsis_os.c 0x00000000   Number         0  cmsis_os.o ABSOLUTE
    ..\\..\\..\\..\\Middlewares\\Third_Party\\FreeRTOS\\Source\\portable\\RVDS\\ARM_CM0\\port.c 0x00000000   Number         0  port.o ABSOLUTE
    ..\\Src\\common.c                        0x00000000   Number         0  common.o ABSOLUTE
    ..\\Src\\config_file.c                   0x00000000   Number         0  config_file.o ABSOLUTE
    ..\\Src\\debug.c                         0x00000000   Number         0  debug.o ABSOLUTE
    ..\\Src\\eeprom.c                        0x00000000   Number         0  eeprom.o ABSOLUTE
    ..\\Src\\geofence.c                      0x00000000   Number         0  geofence.o ABSOLUTE
    ..\\Src\\gps.c                           0x00000000   Number         0  gps.o ABSOLUTE
    ..\\Src\\gpsOne.c                        0x00000000   Number         0  gpsone.o ABSOLUTE
    ..\\Src\\gsensor.c                       0x00000000   Number         0  gsensor.o ABSOLUTE
    ..\\Src\\gsm.c                           0x00000000   Number         0  gsm.o ABSOLUTE
    ..\\Src\\hardware.c                      0x00000000   Number         0  hardware.o ABSOLUTE
    ..\\Src\\kalman.c                        0x00000000   Number         0  kalman.o ABSOLUTE
    ..\\Src\\main.c                          0x00000000   Number         0  main.o ABSOLUTE
    ..\\Src\\stm32l0xx_hal_msp.c             0x00000000   Number         0  stm32l0xx_hal_msp.o ABSOLUTE
    ..\\Src\\stm32l0xx_it.c                  0x00000000   Number         0  stm32l0xx_it.o ABSOLUTE
    ..\\Src\\system_stm32l0xx.c              0x00000000   Number         0  system_stm32l0xx.o ABSOLUTE
    ..\\Src\\utility.c                       0x00000000   Number         0  utility.o ABSOLUTE
    ..\\Src\\work.c                          0x00000000   Number         0  work.o ABSOLUTE
    cdcmple.s                                0x00000000   Number         0  cdcmple.o ABSOLUTE
    cdrcmple.s                               0x00000000   Number         0  cdrcmple.o ABSOLUTE
    cfcmple.s                                0x00000000   Number         0  cfcmple.o ABSOLUTE
    cfrcmple.s                               0x00000000   Number         0  cfrcmple.o ABSOLUTE
    dc.s                                     0x00000000   Number         0  dc.o ABSOLUTE
    handlers.s                               0x00000000   Number         0  handlers.o ABSOLUTE
    init.s                                   0x00000000   Number         0  init.o ABSOLUTE
    startup_stm32l073xx.s                    0x00000000   Number         0  startup_stm32l073xx.o ABSOLUTE
    RESET                                    0x08008000   Section      192  startup_stm32l073xx.o(RESET)
    .ARM.Collect$$$$00000000                 0x080080c0   Section        0  entry.o(.ARM.Collect$$$$00000000)
    .ARM.Collect$$$$00000001                 0x080080c0   Section        4  entry2.o(.ARM.Collect$$$$00000001)
    .ARM.Collect$$$$00000004                 0x080080c4   Section        4  entry5.o(.ARM.Collect$$$$00000004)
    .ARM.Collect$$$$00000008                 0x080080c8   Section        0  entry7b.o(.ARM.Collect$$$$00000008)
    .ARM.Collect$$$$0000000A                 0x080080c8   Section        0  entry8b.o(.ARM.Collect$$$$0000000A)
    .ARM.Collect$$$$0000000B                 0x080080c8   Section        8  entry9a.o(.ARM.Collect$$$$0000000B)
    .ARM.Collect$$$$0000000D                 0x080080d0   Section        0  entry10a.o(.ARM.Collect$$$$0000000D)
    .ARM.Collect$$$$0000000F                 0x080080d0   Section        0  entry11a.o(.ARM.Collect$$$$0000000F)
    .ARM.Collect$$$$00002712                 0x080080d0   Section        4  entry2.o(.ARM.Collect$$$$00002712)
    __lit__00000000                          0x080080d0   Data           4  entry2.o(.ARM.Collect$$$$00002712)
    .emb_text                                0x080080d4   Section      112  port.o(.emb_text)
    .text                                    0x08008144   Section       28  startup_stm32l073xx.o(.text)
    .text                                    0x08008160   Section        0  uidiv.o(.text)
    .text                                    0x0800818c   Section        0  idiv.o(.text)
    .text                                    0x080081b4   Section        0  ctype_o.o(.text)
    .text                                    0x080081bc   Section        0  isspace_o.o(.text)
    .text                                    0x080081ce   Section        0  toupper.o(.text)
    .text                                    0x080081da   Section        0  memcpya.o(.text)
    .text                                    0x080081fe   Section        0  memseta.o(.text)
    .text                                    0x08008222   Section        0  strcat.o(.text)
    .text                                    0x0800823a   Section        0  strstr.o(.text)
    .text                                    0x08008262   Section        0  strncpy.o(.text)
    .text                                    0x0800827c   Section        0  strchr.o(.text)
    .text                                    0x08008290   Section        0  strlen.o(.text)
    .text                                    0x0800829e   Section        0  strcmp.o(.text)
    .text                                    0x080082ba   Section        0  memchr.o(.text)
    .text                                    0x080082ce   Section        0  strcpy.o(.text)
    .text                                    0x080082e0   Section        0  strncmp.o(.text)
    .text                                    0x080082fe   Section        0  uread4.o(.text)
    .text                                    0x08008314   Section        0  __0sscanf.o(.text)
    .text                                    0x08008350   Section        0  _scanf_str.o(.text)
    .text                                    0x08008438   Section        0  atoi.o(.text)
    .text                                    0x08008452   Section        0  fadd.o(.text)
    .text                                    0x08008504   Section        0  fdiv.o(.text)
    .text                                    0x08008580   Section        0  dadd.o(.text)
    .text                                    0x080086e4   Section        0  dmul.o(.text)
    .text                                    0x080087b4   Section        0  ddiv.o(.text)
    .text                                    0x080088a4   Section        0  dscalb.o(.text)
    .text                                    0x080088d0   Section        0  fflti.o(.text)
    .text                                    0x080088e6   Section        0  ffltui.o(.text)
    .text                                    0x080088f4   Section        0  dflti.o(.text)
    .text                                    0x0800891c   Section        0  dfltui.o(.text)
    .text                                    0x08008938   Section        0  dfixi.o(.text)
    .text                                    0x08008980   Section        0  dfixui.o(.text)
    .text                                    0x080089bc   Section       40  cdcmple.o(.text)
    .text                                    0x080089e4   Section       40  cdrcmple.o(.text)
    .text                                    0x08008a0c   Section       20  cfcmple.o(.text)
    .text                                    0x08008a20   Section       20  cfrcmple.o(.text)
    .text                                    0x08008a34   Section        0  uldiv.o(.text)
    .text                                    0x08008a94   Section        0  llshl.o(.text)
    .text                                    0x08008ab4   Section        0  llushr.o(.text)
    .text                                    0x08008ad6   Section        0  llsshr.o(.text)
    .text                                    0x08008afc   Section        0  scanf_char.o(.text)
    _scanf_char_input                        0x08008afd   Thumb Code    12  scanf_char.o(.text)
    .text                                    0x08008b28   Section        0  _sgetc.o(.text)
    .text                                    0x08008b6c   Section        0  strtod.o(.text)
    _local_sscanf                            0x08008b6d   Thumb Code    54  strtod.o(.text)
    .text                                    0x08008c10   Section        0  strtol.o(.text)
    .text                                    0x08008c80   Section        0  fepilogue.o(.text)
    .text                                    0x08008c80   Section        0  iusefp.o(.text)
    .text                                    0x08008d02   Section        0  depilogue.o(.text)
    .text                                    0x08008dc0   Section        0  dsqrt.o(.text)
    .text                                    0x08008e64   Section        0  dfixul.o(.text)
    .text                                    0x08008ea4   Section       36  init.o(.text)
    .text                                    0x08008ec8   Section        0  _scanf.o(.text)
    .text                                    0x08009200   Section        0  scanf_fp.o(.text)
    _fp_value                                0x08009201   Thumb Code   246  scanf_fp.o(.text)
    .text                                    0x0800954c   Section        0  _strtoul.o(.text)
    .text                                    0x080095f2   Section        0  llmul.o(.text)
    .text                                    0x0800966c   Section        0  _chval.o(.text)
    .text                                    0x0800968c   Section        0  dfltul.o(.text)
    .text                                    0x080096a8   Section        0  d2f.o(.text)
    .text                                    0x080096e0   Section        0  __dczerorl2.o(.text)
    i.ADC_Config                             0x08009738   Section        0  work.o(i.ADC_Config)
    i.ADC_DelayMicroSecond                   0x08009874   Section        0  stm32l0xx_hal_adc.o(i.ADC_DelayMicroSecond)
    ADC_DelayMicroSecond                     0x08009875   Thumb Code    28  stm32l0xx_hal_adc.o(i.ADC_DelayMicroSecond)
    i.ADC_Enable                             0x08009898   Section        0  stm32l0xx_hal_adc.o(i.ADC_Enable)
    ADC_Enable                               0x08009899   Thumb Code    96  stm32l0xx_hal_adc.o(i.ADC_Enable)
    i.ADC_Value                              0x080098fc   Section        0  work.o(i.ADC_Value)
    i.AudioCodec_M35                         0x08009ac8   Section        0  gsm.o(i.AudioCodec_M35)
    i.AudioCodec_UG35                        0x08009b18   Section        0  gsm.o(i.AudioCodec_UG35)
    i.Check_even                             0x08009bb8   Section        0  gsensor.o(i.Check_even)
    i.D2IToString                            0x08009d48   Section        0  gsm.o(i.D2IToString)
    i.D2I_6D                                 0x08009d80   Section        0  gsm.o(i.D2I_6D)
    i.DMA1_Channel1_IRQHandler               0x08009dc0   Section        0  stm32l0xx_it.o(i.DMA1_Channel1_IRQHandler)
    i.DebugInit                              0x08009dd0   Section        0  debug.o(i.DebugInit)
    i.EXTI0_1_IRQHandler                     0x08009e0c   Section        0  hardware.o(i.EXTI0_1_IRQHandler)
    i.EXTI4_15_IRQHandler                    0x08009e16   Section        0  hardware.o(i.EXTI4_15_IRQHandler)
    i.Error_Handler                          0x08009e28   Section        0  hardware.o(i.Error_Handler)
    i.FATFS_LinkDriver                       0x08009e58   Section        0  ff_gen_drv.o(i.FATFS_LinkDriver)
    i.FATFS_LinkDriverEx                     0x08009e64   Section        0  ff_gen_drv.o(i.FATFS_LinkDriverEx)
    i.FATFS_UnLinkDriver                     0x08009ea4   Section        0  ff_gen_drv.o(i.FATFS_UnLinkDriver)
    i.FATFS_UnLinkDriverEx                   0x08009eb0   Section        0  ff_gen_drv.o(i.FATFS_UnLinkDriverEx)
    i.FLASH_SetErrorCode                     0x08009ee4   Section        0  stm32l0xx_hal_flash.o(i.FLASH_SetErrorCode)
    FLASH_SetErrorCode                       0x08009ee5   Thumb Code   108  stm32l0xx_hal_flash.o(i.FLASH_SetErrorCode)
    i.FLASH_WaitForLastOperation             0x08009f5c   Section        0  stm32l0xx_hal_flash.o(i.FLASH_WaitForLastOperation)
    i.FLASH_initialize                       0x08009fdc   Section        0  flash_diskio.o(i.FLASH_initialize)
    i.FLASH_ioctl                            0x08009ff8   Section        0  flash_diskio.o(i.FLASH_ioctl)
    i.FLASH_read                             0x0800a034   Section        0  flash_diskio.o(i.FLASH_read)
    i.FLASH_status                           0x0800a048   Section        0  flash_diskio.o(i.FLASH_status)
    i.FLASH_write                            0x0800a060   Section        0  flash_diskio.o(i.FLASH_write)
    i.FilterAverageGet                       0x0800a074   Section        0  kalman.o(i.FilterAverageGet)
    i.FilterAverageInit                      0x0800a140   Section        0  kalman.o(i.FilterAverageInit)
    i.FilterAverageUpdate                    0x0800a14c   Section        0  kalman.o(i.FilterAverageUpdate)
    i.FilterKalmanGet                        0x0800a1a0   Section        0  kalman.o(i.FilterKalmanGet)
    i.FilterKalmanInit                       0x0800a1d0   Section        0  kalman.o(i.FilterKalmanInit)
    i.FilterKalmanUpdate                     0x0800a2fc   Section        0  kalman.o(i.FilterKalmanUpdate)
    i.FindToken                              0x0800a434   Section        0  utility.o(i.FindToken)
    i.GGC_APNSetting                         0x0800a45a   Section        0  gpsone.o(i.GGC_APNSetting)
    i.GGC_AlarmSetting                       0x0800a464   Section        0  gpsone.o(i.GGC_AlarmSetting)
    i.GGC_DeviceReset                        0x0800a648   Section        0  gpsone.o(i.GGC_DeviceReset)
    i.GGC_FuelCircuitControl                 0x0800a64c   Section        0  gpsone.o(i.GGC_FuelCircuitControl)
    i.GGC_FwUpdate                           0x0800a658   Section        0  gpsone.o(i.GGC_FwUpdate)
    i.GGC_GprsSettings                       0x0800a6b0   Section        0  gpsone.o(i.GGC_GprsSettings)
    i.GGC_Guard                              0x0800a79c   Section        0  gpsone.o(i.GGC_Guard)
    i.GGC_InitSMS                            0x0800a82c   Section        0  gpsone.o(i.GGC_InitSMS)
    i.GGC_PollPosition                       0x0800a844   Section        0  gpsone.o(i.GGC_PollPosition)
    i.GGC_Recover                            0x0800a848   Section        0  gpsone.o(i.GGC_Recover)
    i.GGC_Reset                              0x0800a852   Section        0  gpsone.o(i.GGC_Reset)
    i.GGC_SOSSetting                         0x0800a856   Section        0  gpsone.o(i.GGC_SOSSetting)
    i.GGC_ServerSetting                      0x0800a860   Section        0  gpsone.o(i.GGC_ServerSetting)
    i.GGC_SetInitialEnginer                  0x0800a86a   Section        0  gpsone.o(i.GGC_SetInitialEnginer)
    i.GGC_SetInitialMileage                  0x0800a874   Section        0  gpsone.o(i.GGC_SetInitialMileage)
    i.GGC_ShutDown                           0x0800a87e   Section        0  gpsone.o(i.GGC_ShutDown)
    i.GGC_StartTracking                      0x0800a884   Section        0  gpsone.o(i.GGC_StartTracking)
    i.GGC_StopTracking                       0x0800a8f4   Section        0  gpsone.o(i.GGC_StopTracking)
    i.GGC_Sync                               0x0800a8f8   Section        0  gpsone.o(i.GGC_Sync)
    i.GGC_TimeZone                           0x0800a8fc   Section        0  gpsone.o(i.GGC_TimeZone)
    i.GGC_WorkMode                           0x0800a948   Section        0  gpsone.o(i.GGC_WorkMode)
    i.GGR_Command                            0x0800a954   Section        0  gpsone.o(i.GGR_Command)
    i.GGR_General                            0x0800a99c   Section        0  gpsone.o(i.GGR_General)
    i.GGR_GprsSettings                       0x0800a9b0   Section        0  gpsone.o(i.GGR_GprsSettings)
    i.GGR_PollPosition                       0x0800aa24   Section        0  gpsone.o(i.GGR_PollPosition)
    i.GGR_SendMessage                        0x0800aab8   Section        0  gpsone.o(i.GGR_SendMessage)
    i.GGR_Sync                               0x0800aabc   Section        0  gpsone.o(i.GGR_Sync)
    i.GG_CheckCommand                        0x0800adf0   Section        0  gpsone.o(i.GG_CheckCommand)
    i.GG_ClearAllCounts                      0x0800ae38   Section        0  gpsone.o(i.GG_ClearAllCounts)
    i.GPRS_SET_M35                           0x0800ae5c   Section        0  gsm.o(i.GPRS_SET_M35)
    i.GPRS_SET_UG35                          0x0800af04   Section        0  gsm.o(i.GPRS_SET_UG35)
    i.GPRS_START_M35                         0x0800afc4   Section        0  gsm.o(i.GPRS_START_M35)
    i.GPRS_START_UG35                        0x0800afe4   Section        0  gsm.o(i.GPRS_START_UG35)
    i.GPRS_STOP_M35                          0x0800b008   Section        0  gsm.o(i.GPRS_STOP_M35)
    i.GPRS_STOP_UG35                         0x0800b068   Section        0  gsm.o(i.GPRS_STOP_UG35)
    i.GPRS_TCPCLOSE_M35                      0x0800b08c   Section        0  gsm.o(i.GPRS_TCPCLOSE_M35)
    i.GPRS_TCPCLOSE_UG35                     0x0800b0f0   Section        0  gsm.o(i.GPRS_TCPCLOSE_UG35)
    i.GetDistance                            0x0800b114   Section        0  gps.o(i.GetDistance)
    i.GpsDeInit                              0x0800b1e0   Section        0  gps.o(i.GpsDeInit)
    i.GpsGeneral_Init                        0x0800b208   Section        0  gps.o(i.GpsGeneral_Init)
    i.GpsInit                                0x0800b20c   Section        0  gps.o(i.GpsInit)
    i.GpsNoData                              0x0800b304   Section        0  gps.o(i.GpsNoData)
    i.Gps_Ignore                             0x0800b314   Section        0  gps.o(i.Gps_Ignore)
    i.GsmAddTask                             0x0800b328   Section        0  gsm.o(i.GsmAddTask)
    i.GsmIMEI                                0x0800b34c   Section        0  gsm.o(i.GsmIMEI)
    i.GsmInit                                0x0800b354   Section        0  gsm.o(i.GsmInit)
    i.HAL_ADCEx_Calibration_Start            0x0800b4fc   Section        0  stm32l0xx_hal_adc_ex.o(i.HAL_ADCEx_Calibration_Start)
    i.HAL_ADC_ConfigChannel                  0x0800b58c   Section        0  stm32l0xx_hal_adc.o(i.HAL_ADC_ConfigChannel)
    i.HAL_ADC_GetState                       0x0800b620   Section        0  stm32l0xx_hal_adc.o(i.HAL_ADC_GetState)
    i.HAL_ADC_GetValue                       0x0800b624   Section        0  stm32l0xx_hal_adc.o(i.HAL_ADC_GetValue)
    i.HAL_ADC_Init                           0x0800b62c   Section        0  stm32l0xx_hal_adc.o(i.HAL_ADC_Init)
    i.HAL_ADC_MspInit                        0x0800b7f0   Section        0  stm32l0xx_hal_msp.o(i.HAL_ADC_MspInit)
    i.HAL_ADC_PollForConversion              0x0800b82c   Section        0  stm32l0xx_hal_adc.o(i.HAL_ADC_PollForConversion)
    i.HAL_ADC_Start                          0x0800b8ec   Section        0  stm32l0xx_hal_adc.o(i.HAL_ADC_Start)
    i.HAL_DMA_IRQHandler                     0x0800b948   Section        0  stm32l0xx_hal_dma.o(i.HAL_DMA_IRQHandler)
    i.HAL_Delay                              0x0800bbc8   Section        0  stm32l0xx_hal.o(i.HAL_Delay)
    i.HAL_FLASHEx_DATAEEPROM_Erase           0x0800bbe0   Section        0  stm32l0xx_hal_flash_ex.o(i.HAL_FLASHEx_DATAEEPROM_Erase)
    i.HAL_FLASHEx_DATAEEPROM_Lock            0x0800bc08   Section        0  stm32l0xx_hal_flash_ex.o(i.HAL_FLASHEx_DATAEEPROM_Lock)
    i.HAL_FLASHEx_DATAEEPROM_Program         0x0800bc1c   Section        0  stm32l0xx_hal_flash_ex.o(i.HAL_FLASHEx_DATAEEPROM_Program)
    i.HAL_FLASHEx_DATAEEPROM_Unlock          0x0800bc70   Section        0  stm32l0xx_hal_flash_ex.o(i.HAL_FLASHEx_DATAEEPROM_Unlock)
    i.HAL_FLASH_GetError                     0x0800bc94   Section        0  stm32l0xx_hal_flash.o(i.HAL_FLASH_GetError)
    i.HAL_GPIO_DeInit                        0x0800bca0   Section        0  stm32l0xx_hal_gpio.o(i.HAL_GPIO_DeInit)
    i.HAL_GPIO_EXTI_Callback                 0x0800bd90   Section        0  hardware.o(i.HAL_GPIO_EXTI_Callback)
    i.HAL_GPIO_EXTI_IRQHandler               0x0800bdc4   Section        0  stm32l0xx_hal_gpio.o(i.HAL_GPIO_EXTI_IRQHandler)
    i.HAL_GPIO_Init                          0x0800bddc   Section        0  stm32l0xx_hal_gpio.o(i.HAL_GPIO_Init)
    i.HAL_GPIO_ReadPin                       0x0800bf60   Section        0  stm32l0xx_hal_gpio.o(i.HAL_GPIO_ReadPin)
    i.HAL_GPIO_WritePin                      0x0800bf6a   Section        0  stm32l0xx_hal_gpio.o(i.HAL_GPIO_WritePin)
    i.HAL_GetTick                            0x0800bf78   Section        0  stm32l0xx_hal.o(i.HAL_GetTick)
    i.HAL_I2CEx_ConfigAnalogFilter           0x0800bf84   Section        0  stm32l0xx_hal_i2c_ex.o(i.HAL_I2CEx_ConfigAnalogFilter)
    i.HAL_I2C_DeInit                         0x0800bfe4   Section        0  stm32l0xx_hal_i2c.o(i.HAL_I2C_DeInit)
    i.HAL_I2C_ER_IRQHandler                  0x0800c014   Section        0  stm32l0xx_hal_i2c.o(i.HAL_I2C_ER_IRQHandler)
    i.HAL_I2C_EV_IRQHandler                  0x0800c082   Section        0  stm32l0xx_hal_i2c.o(i.HAL_I2C_EV_IRQHandler)
    i.HAL_I2C_ErrorCallback                  0x0800c1a4   Section        0  hardware.o(i.HAL_I2C_ErrorCallback)
    i.HAL_I2C_GetError                       0x0800c1dc   Section        0  stm32l0xx_hal_i2c.o(i.HAL_I2C_GetError)
    i.HAL_I2C_GetState                       0x0800c1e0   Section        0  stm32l0xx_hal_i2c.o(i.HAL_I2C_GetState)
    i.HAL_I2C_Init                           0x0800c1e8   Section        0  stm32l0xx_hal_i2c.o(i.HAL_I2C_Init)
    i.HAL_I2C_MasterRxCpltCallback           0x0800c28c   Section        0  stm32l0xx_hal_i2c.o(i.HAL_I2C_MasterRxCpltCallback)
    i.HAL_I2C_MasterTxCpltCallback           0x0800c28e   Section        0  stm32l0xx_hal_i2c.o(i.HAL_I2C_MasterTxCpltCallback)
    i.HAL_I2C_Master_Receive_IT              0x0800c290   Section        0  stm32l0xx_hal_i2c.o(i.HAL_I2C_Master_Receive_IT)
    i.HAL_I2C_Master_Transmit_IT             0x0800c314   Section        0  stm32l0xx_hal_i2c.o(i.HAL_I2C_Master_Transmit_IT)
    i.HAL_I2C_MemRxCpltCallback              0x0800c398   Section        0  stm32l0xx_hal_i2c.o(i.HAL_I2C_MemRxCpltCallback)
    i.HAL_I2C_MemTxCpltCallback              0x0800c39a   Section        0  stm32l0xx_hal_i2c.o(i.HAL_I2C_MemTxCpltCallback)
    i.HAL_I2C_MspDeInit                      0x0800c39c   Section        0  stm32l0xx_hal_msp.o(i.HAL_I2C_MspDeInit)
    i.HAL_I2C_MspInit                        0x0800c3d4   Section        0  stm32l0xx_hal_msp.o(i.HAL_I2C_MspInit)
    i.HAL_I2C_SlaveRxCpltCallback            0x0800c450   Section        0  stm32l0xx_hal_i2c.o(i.HAL_I2C_SlaveRxCpltCallback)
    i.HAL_I2C_SlaveTxCpltCallback            0x0800c452   Section        0  stm32l0xx_hal_i2c.o(i.HAL_I2C_SlaveTxCpltCallback)
    i.HAL_IncTick                            0x0800c454   Section        0  stm32l0xx_hal.o(i.HAL_IncTick)
    i.HAL_Init                               0x0800c464   Section        0  stm32l0xx_hal.o(i.HAL_Init)
    i.HAL_InitTick                           0x0800c484   Section        0  stm32l0xx_hal.o(i.HAL_InitTick)
    i.HAL_MspInit                            0x0800c4a6   Section        0  stm32l0xx_hal.o(i.HAL_MspInit)
    i.HAL_NVIC_DisableIRQ                    0x0800c4a8   Section        0  stm32l0xx_hal_cortex.o(i.HAL_NVIC_DisableIRQ)
    i.HAL_NVIC_EnableIRQ                     0x0800c4bc   Section        0  stm32l0xx_hal_cortex.o(i.HAL_NVIC_EnableIRQ)
    i.HAL_NVIC_SetPriority                   0x0800c4d0   Section        0  stm32l0xx_hal_cortex.o(i.HAL_NVIC_SetPriority)
    i.HAL_NVIC_SystemReset                   0x0800c4d8   Section        0  stm32l0xx_hal_cortex.o(i.HAL_NVIC_SystemReset)
    i.HAL_PWR_EnterSLEEPMode                 0x0800c4f4   Section        0  stm32l0xx_hal_pwr.o(i.HAL_PWR_EnterSLEEPMode)
    i.HAL_PWR_EnterSTOPMode                  0x0800c524   Section        0  stm32l0xx_hal_pwr.o(i.HAL_PWR_EnterSTOPMode)
    i.HAL_RCCEx_PeriphCLKConfig              0x0800c558   Section        0  stm32l0xx_hal_rcc_ex.o(i.HAL_RCCEx_PeriphCLKConfig)
    i.HAL_RCC_ClockConfig                    0x0800c6b8   Section        0  stm32l0xx_hal_rcc.o(i.HAL_RCC_ClockConfig)
    i.HAL_RCC_GetHCLKFreq                    0x0800c804   Section        0  stm32l0xx_hal_rcc.o(i.HAL_RCC_GetHCLKFreq)
    i.HAL_RCC_GetPCLK1Freq                   0x0800c82c   Section        0  stm32l0xx_hal_rcc.o(i.HAL_RCC_GetPCLK1Freq)
    i.HAL_RCC_GetPCLK2Freq                   0x0800c84c   Section        0  stm32l0xx_hal_rcc.o(i.HAL_RCC_GetPCLK2Freq)
    i.HAL_RCC_GetSysClockFreq                0x0800c86c   Section        0  stm32l0xx_hal_rcc.o(i.HAL_RCC_GetSysClockFreq)
    i.HAL_RCC_OscConfig                      0x0800c8f0   Section        0  stm32l0xx_hal_rcc.o(i.HAL_RCC_OscConfig)
    i.HAL_RTCEx_WakeUpTimerEventCallback     0x0800cca4   Section        0  hardware.o(i.HAL_RTCEx_WakeUpTimerEventCallback)
    i.HAL_RTCEx_WakeUpTimerIRQHandler        0x0800ccd8   Section        0  stm32l0xx_hal_rtc_ex.o(i.HAL_RTCEx_WakeUpTimerIRQHandler)
    i.HAL_RTC_DeInit                         0x0800cd10   Section        0  stm32l0xx_hal_rtc.o(i.HAL_RTC_DeInit)
    i.HAL_RTC_GetDate                        0x0800cde4   Section        0  stm32l0xx_hal_rtc.o(i.HAL_RTC_GetDate)
    i.HAL_RTC_GetTime                        0x0800ce28   Section        0  stm32l0xx_hal_rtc.o(i.HAL_RTC_GetTime)
    i.HAL_RTC_Init                           0x0800ce84   Section        0  stm32l0xx_hal_rtc.o(i.HAL_RTC_Init)
    i.HAL_RTC_MspDeInit                      0x0800cf28   Section        0  stm32l0xx_hal_msp.o(i.HAL_RTC_MspDeInit)
    i.HAL_RTC_MspInit                        0x0800cf3c   Section        0  stm32l0xx_hal_msp.o(i.HAL_RTC_MspInit)
    i.HAL_RTC_SetDate                        0x0800cf98   Section        0  stm32l0xx_hal_rtc.o(i.HAL_RTC_SetDate)
    i.HAL_RTC_SetTime                        0x0800d064   Section        0  stm32l0xx_hal_rtc.o(i.HAL_RTC_SetTime)
    i.HAL_RTC_WaitForSynchro                 0x0800d154   Section        0  stm32l0xx_hal_rtc.o(i.HAL_RTC_WaitForSynchro)
    i.HAL_SPI_DeInit                         0x0800d188   Section        0  stm32l0xx_hal_spi.o(i.HAL_SPI_DeInit)
    i.HAL_SPI_ErrorCallback                  0x0800d1b8   Section        0  hardware.o(i.HAL_SPI_ErrorCallback)
    i.HAL_SPI_IRQHandler                     0x0800d1c4   Section        0  stm32l0xx_hal_spi.o(i.HAL_SPI_IRQHandler)
    i.HAL_SPI_Init                           0x0800d286   Section        0  stm32l0xx_hal_spi.o(i.HAL_SPI_Init)
    i.HAL_SPI_MspDeInit                      0x0800d30c   Section        0  stm32l0xx_hal_msp.o(i.HAL_SPI_MspDeInit)
    i.HAL_SPI_MspInit                        0x0800d358   Section        0  stm32l0xx_hal_msp.o(i.HAL_SPI_MspInit)
    i.HAL_SPI_RxCpltCallback                 0x0800d3e8   Section        0  stm32l0xx_hal_spi.o(i.HAL_SPI_RxCpltCallback)
    i.HAL_SPI_TransmitReceive_IT             0x0800d3ec   Section        0  stm32l0xx_hal_spi.o(i.HAL_SPI_TransmitReceive_IT)
    i.HAL_SPI_TxCpltCallback                 0x0800d490   Section        0  stm32l0xx_hal_spi.o(i.HAL_SPI_TxCpltCallback)
    i.HAL_SPI_TxRxCpltCallback               0x0800d494   Section        0  hardware.o(i.HAL_SPI_TxRxCpltCallback)
    i.HAL_SYSTICK_Config                     0x0800d4a0   Section        0  stm32l0xx_hal_cortex.o(i.HAL_SYSTICK_Config)
    i.HAL_UARTEx_WakeupCallback              0x0800d4d0   Section        0  stm32l0xx_hal_uart_ex.o(i.HAL_UARTEx_WakeupCallback)
    i.HAL_UART_DeInit                        0x0800d4d2   Section        0  stm32l0xx_hal_uart.o(i.HAL_UART_DeInit)
    i.HAL_UART_ErrorCallback                 0x0800d50e   Section        0  hardware.o(i.HAL_UART_ErrorCallback)
    i.HAL_UART_IRQHandler                    0x0800d510   Section        0  stm32l0xx_hal_uart.o(i.HAL_UART_IRQHandler)
    i.HAL_UART_Init                          0x0800d600   Section        0  stm32l0xx_hal_uart.o(i.HAL_UART_Init)
    i.HAL_UART_MspDeInit                     0x0800d668   Section        0  stm32l0xx_hal_msp.o(i.HAL_UART_MspDeInit)
    i.HAL_UART_MspInit                       0x0800d734   Section        0  stm32l0xx_hal_msp.o(i.HAL_UART_MspInit)
    i.HAL_UART_Receive                       0x0800d8bc   Section        0  stm32l0xx_hal_uart.o(i.HAL_UART_Receive)
    i.HAL_UART_Receive_IT                    0x0800d9b0   Section        0  stm32l0xx_hal_uart.o(i.HAL_UART_Receive_IT)
    i.HAL_UART_RxCpltCallback                0x0800da54   Section        0  hardware.o(i.HAL_UART_RxCpltCallback)
    i.HAL_UART_Transmit                      0x0800dab0   Section        0  stm32l0xx_hal_uart.o(i.HAL_UART_Transmit)
    i.HAL_UART_Transmit_IT                   0x0800db6a   Section        0  stm32l0xx_hal_uart.o(i.HAL_UART_Transmit_IT)
    i.HAL_UART_TxCpltCallback                0x0800dbce   Section        0  hardware.o(i.HAL_UART_TxCpltCallback)
    i.HAL_WWDG_DeInit                        0x0800dbd0   Section        0  stm32l0xx_hal_wwdg.o(i.HAL_WWDG_DeInit)
    i.HAL_WWDG_Init                          0x0800dc16   Section        0  stm32l0xx_hal_wwdg.o(i.HAL_WWDG_Init)
    i.HAL_WWDG_MspDeInit                     0x0800dc6c   Section        0  stm32l0xx_hal_msp.o(i.HAL_WWDG_MspDeInit)
    i.HAL_WWDG_MspInit                       0x0800dc84   Section        0  stm32l0xx_hal_msp.o(i.HAL_WWDG_MspInit)
    i.HAL_WWDG_Refresh                       0x0800dc94   Section        0  stm32l0xx_hal_wwdg.o(i.HAL_WWDG_Refresh)
    i.HAL_WWDG_Start                         0x0800dca4   Section        0  stm32l0xx_hal_wwdg.o(i.HAL_WWDG_Start)
    i.HardFault_Handler                      0x0800dccc   Section        0  stm32l0xx_it.o(i.HardFault_Handler)
    i.HardwareInit                           0x0800dcce   Section        0  main.o(i.HardwareInit)
    i.I2C1_IRQHandler                        0x0800dce8   Section        0  stm32l0xx_it.o(i.I2C1_IRQHandler)
    i.I2C_MasterReceive_ISR                  0x0800dcfc   Section        0  stm32l0xx_hal_i2c.o(i.I2C_MasterReceive_ISR)
    I2C_MasterReceive_ISR                    0x0800dcfd   Thumb Code   288  stm32l0xx_hal_i2c.o(i.I2C_MasterReceive_ISR)
    i.I2C_MasterTransmit_ISR                 0x0800de20   Section        0  stm32l0xx_hal_i2c.o(i.I2C_MasterTransmit_ISR)
    I2C_MasterTransmit_ISR                   0x0800de21   Thumb Code   300  stm32l0xx_hal_i2c.o(i.I2C_MasterTransmit_ISR)
    i.I2C_SlaveReceive_ISR                   0x0800df50   Section        0  stm32l0xx_hal_i2c.o(i.I2C_SlaveReceive_ISR)
    I2C_SlaveReceive_ISR                     0x0800df51   Thumb Code   148  stm32l0xx_hal_i2c.o(i.I2C_SlaveReceive_ISR)
    i.I2C_SlaveTransmit_ISR                  0x0800dfe4   Section        0  stm32l0xx_hal_i2c.o(i.I2C_SlaveTransmit_ISR)
    I2C_SlaveTransmit_ISR                    0x0800dfe5   Thumb Code   158  stm32l0xx_hal_i2c.o(i.I2C_SlaveTransmit_ISR)
    i.I2C_TransferConfig                     0x0800e084   Section        0  stm32l0xx_hal_i2c.o(i.I2C_TransferConfig)
    I2C_TransferConfig                       0x0800e085   Thumb Code    30  stm32l0xx_hal_i2c.o(i.I2C_TransferConfig)
    i.LpUartInit                             0x0800e0a8   Section        0  work.o(i.LpUartInit)
    i.Max3                                   0x0800e18c   Section        0  gsensor.o(i.Max3)
    i.NMI_Handler                            0x0800e1c2   Section        0  stm32l0xx_it.o(i.NMI_Handler)
    i.NVIC_SetPriority                       0x0800e1c4   Section        0  hardware.o(i.NVIC_SetPriority)
    NVIC_SetPriority                         0x0800e1c5   Thumb Code    60  hardware.o(i.NVIC_SetPriority)
    i.NVIC_SetPriority                       0x0800e208   Section        0  stm32l0xx_hal_cortex.o(i.NVIC_SetPriority)
    NVIC_SetPriority                         0x0800e209   Thumb Code    60  stm32l0xx_hal_cortex.o(i.NVIC_SetPriority)
    i.NextToken                              0x0800e24c   Section        0  utility.o(i.NextToken)
    i.NmeaAddChecksum                        0x0800e264   Section        0  utility.o(i.NmeaAddChecksum)
    i.Normal_Power_Run                       0x0800e290   Section        0  work.o(i.Normal_Power_Run)
    i.PostSleepProcessing                    0x0800e2e8   Section        0  main.o(i.PostSleepProcessing)
    i.PreSleepProcessing                     0x0800e2ea   Section        0  main.o(i.PreSleepProcessing)
    i.ProcessGpsGateCommand                  0x0800e2fc   Section        0  gpsone.o(i.ProcessGpsGateCommand)
    i.RTC_Bcd2ToByte                         0x0800e3ec   Section        0  stm32l0xx_hal_rtc.o(i.RTC_Bcd2ToByte)
    i.RTC_ByteToBcd2                         0x0800e3fc   Section        0  stm32l0xx_hal_rtc.o(i.RTC_ByteToBcd2)
    i.RTC_Config                             0x0800e414   Section        0  work.o(i.RTC_Config)
    i.RTC_EnterInitMode                      0x0800e47c   Section        0  stm32l0xx_hal_rtc.o(i.RTC_EnterInitMode)
    i.RTC_INIT_SUCCESS                       0x0800e4b4   Section        0  work.o(i.RTC_INIT_SUCCESS)
    i.RTC_IRQHandler                         0x0800e4c0   Section        0  stm32l0xx_it.o(i.RTC_IRQHandler)
    i.RTC_TIME                               0x0800e4d0   Section        0  work.o(i.RTC_TIME)
    i.RTC_TimeShow                           0x0800e5bc   Section        0  work.o(i.RTC_TimeShow)
    i.SPI2_IRQHandler                        0x0800e5dc   Section        0  stm32l0xx_it.o(i.SPI2_IRQHandler)
    i.SPI_2LinesRxISR                        0x0800e5ec   Section        0  stm32l0xx_hal_spi.o(i.SPI_2LinesRxISR)
    SPI_2LinesRxISR                          0x0800e5ed   Thumb Code    48  stm32l0xx_hal_spi.o(i.SPI_2LinesRxISR)
    i.SPI_FLASH_BufferRead                   0x0800e61c   Section        0  spi_flash.o(i.SPI_FLASH_BufferRead)
    i.SPI_FLASH_Init                         0x0800e670   Section        0  spi_flash.o(i.SPI_FLASH_Init)
    i.SPI_FLASH_PageWrite                    0x0800e714   Section        0  spi_flash.o(i.SPI_FLASH_PageWrite)
    i.SPI_FLASH_SectorErase                  0x0800e770   Section        0  spi_flash.o(i.SPI_FLASH_SectorErase)
    i.SPI_FLASH_SendBuff                     0x0800e7b4   Section        0  spi_flash.o(i.SPI_FLASH_SendBuff)
    i.SPI_FLASH_SendByte                     0x0800e7d8   Section        0  spi_flash.o(i.SPI_FLASH_SendByte)
    i.SPI_FLASH_WaitForWriteEnd              0x0800e808   Section        0  spi_flash.o(i.SPI_FLASH_WaitForWriteEnd)
    i.SPI_FLASH_WriteEnable                  0x0800e83c   Section        0  spi_flash.o(i.SPI_FLASH_WriteEnable)
    i.SPI_RxCloseIRQHandler                  0x0800e864   Section        0  stm32l0xx_hal_spi.o(i.SPI_RxCloseIRQHandler)
    SPI_RxCloseIRQHandler                    0x0800e865   Thumb Code   208  stm32l0xx_hal_spi.o(i.SPI_RxCloseIRQHandler)
    i.SPI_TxCloseIRQHandler                  0x0800e934   Section        0  stm32l0xx_hal_spi.o(i.SPI_TxCloseIRQHandler)
    SPI_TxCloseIRQHandler                    0x0800e935   Thumb Code   132  stm32l0xx_hal_spi.o(i.SPI_TxCloseIRQHandler)
    i.SPI_TxISR                              0x0800e9b8   Section        0  stm32l0xx_hal_spi.o(i.SPI_TxISR)
    SPI_TxISR                                0x0800e9b9   Thumb Code    72  stm32l0xx_hal_spi.o(i.SPI_TxISR)
    i.SPI_WaitOnFlagUntilTimeout             0x0800ea00   Section        0  stm32l0xx_hal_spi.o(i.SPI_WaitOnFlagUntilTimeout)
    SPI_WaitOnFlagUntilTimeout               0x0800ea01   Thumb Code   178  stm32l0xx_hal_spi.o(i.SPI_WaitOnFlagUntilTimeout)
    i.STRCPY                                 0x0800eab2   Section        0  config_file.o(i.STRCPY)
    i.SVC_Handler                            0x0800eac0   Section        0  port.o(i.SVC_Handler)
    i.ShowError                              0x0800eac4   Section        0  main.o(i.ShowError)
    i.ShowFatalError                         0x0800eb24   Section        0  main.o(i.ShowFatalError)
    i.ShowFatalErrorOnly                     0x0800eb30   Section        0  main.o(i.ShowFatalErrorOnly)
    i.Stop                                   0x0800eb8c   Section        0  work.o(i.Stop)
    i.SysTick_Handler                        0x0800ebfc   Section        0  stm32l0xx_it.o(i.SysTick_Handler)
    i.SystemClock_Config                     0x0800ec08   Section        0  main.o(i.SystemClock_Config)
    i.SystemInit                             0x0800ec88   Section        0  system_stm32l0xx.o(i.SystemInit)
    i.SystemRestart                          0x0800ece0   Section        0  main.o(i.SystemRestart)
    i.TCP_OPEN_M35                           0x0800ecec   Section        0  gsm.o(i.TCP_OPEN_M35)
    i.TCP_OPEN_UG35                          0x0800ede8   Section        0  gsm.o(i.TCP_OPEN_UG35)
    i.TCP_SEND_M35                           0x0800ef8c   Section        0  gsm.o(i.TCP_SEND_M35)
    i.TCP_SEND_UG35                          0x0800efd4   Section        0  gsm.o(i.TCP_SEND_UG35)
    i.TokenBefore                            0x0800f01c   Section        0  utility.o(i.TokenBefore)
    i.TokenNextComma                         0x0800f050   Section        0  utility.o(i.TokenNextComma)
    i.TokenSizeComma                         0x0800f070   Section        0  utility.o(i.TokenSizeComma)
    i.UART_AdvFeatureConfig                  0x0800f092   Section        0  stm32l0xx_hal_uart.o(i.UART_AdvFeatureConfig)
    i.UART_CheckIdleState                    0x0800f15c   Section        0  stm32l0xx_hal_uart.o(i.UART_CheckIdleState)
    i.UART_Receive_IT                        0x0800f1b0   Section        0  stm32l0xx_hal_uart.o(i.UART_Receive_IT)
    UART_Receive_IT                          0x0800f1b1   Thumb Code   148  stm32l0xx_hal_uart.o(i.UART_Receive_IT)
    i.UART_SetConfig                         0x0800f244   Section        0  stm32l0xx_hal_uart.o(i.UART_SetConfig)
    i.UART_Transmit_IT                       0x0800f458   Section        0  stm32l0xx_hal_uart.o(i.UART_Transmit_IT)
    UART_Transmit_IT                         0x0800f459   Thumb Code   110  stm32l0xx_hal_uart.o(i.UART_Transmit_IT)
    i.UART_WaitOnFlagUntilTimeout            0x0800f4c6   Section        0  stm32l0xx_hal_uart.o(i.UART_WaitOnFlagUntilTimeout)
    i.USART2_IRQHandler                      0x0800f574   Section        0  hardware.o(i.USART2_IRQHandler)
    i.USART4_5_IRQHandler                    0x0800f584   Section        0  hardware.o(i.USART4_5_IRQHandler)
    i.__0printf                              0x0800f59c   Section        0  printfa.o(i.__0printf)
    i.__0sprintf                             0x0800f5bc   Section        0  printfa.o(i.__0sprintf)
    i.__ARM_clz                              0x0800f5e4   Section        0  depilogue.o(i.__ARM_clz)
    i.__ARM_common_ll_muluu                  0x0800f612   Section        0  rred.o(i.__ARM_common_ll_muluu)
    i.__ARM_common_switch8                   0x0800f644   Section        0  work.o(i.__ARM_common_switch8)
    i.__ARM_fpclassify                       0x0800f660   Section        0  fpclassify.o(i.__ARM_fpclassify)
    i.__aeabi_errno_addr                     0x0800f68c   Section        0  errno.o(i.__aeabi_errno_addr)
    i.__ieee754_rem_pio2                     0x0800f694   Section        0  rred.o(i.__ieee754_rem_pio2)
    i.__kernel_cos                           0x0800fa30   Section        0  cos_i.o(i.__kernel_cos)
    i.__kernel_poly                          0x0800fb24   Section        0  poly.o(i.__kernel_poly)
    i.__kernel_sin                           0x0800fbd0   Section        0  sin_i.o(i.__kernel_sin)
    i.__mathlib_dbl_divzero                  0x0800fcbc   Section        0  dunder.o(i.__mathlib_dbl_divzero)
    i.__mathlib_dbl_infnan                   0x0800fcd0   Section        0  dunder.o(i.__mathlib_dbl_infnan)
    i.__mathlib_dbl_infnan2                  0x0800fcda   Section        0  dunder.o(i.__mathlib_dbl_infnan2)
    i.__mathlib_dbl_invalid                  0x0800fce2   Section        0  dunder.o(i.__mathlib_dbl_invalid)
    i.__mathlib_dbl_overflow                 0x0800fcf4   Section        0  dunder.o(i.__mathlib_dbl_overflow)
    i.__mathlib_dbl_underflow                0x0800fd08   Section        0  dunder.o(i.__mathlib_dbl_underflow)
    i.__read_errno                           0x0800fd1c   Section        0  errno.o(i.__read_errno)
    i.__scatterload_copy                     0x0800fd28   Section       14  handlers.o(i.__scatterload_copy)
    i.__scatterload_null                     0x0800fd36   Section        2  handlers.o(i.__scatterload_null)
    i.__scatterload_zeroinit                 0x0800fd38   Section       14  handlers.o(i.__scatterload_zeroinit)
    i.__set_errno                            0x0800fd48   Section        0  errno.o(i.__set_errno)
    i._fp_digits                             0x0800fd54   Section        0  printfa.o(i._fp_digits)
    _fp_digits                               0x0800fd55   Thumb Code   316  printfa.o(i._fp_digits)
    i._is_digit                              0x0800feac   Section        0  scanf_fp.o(i._is_digit)
    i._nmea_parse_time                       0x0800febc   Section        0  parse.o(i._nmea_parse_time)
    i._printf_core                           0x0800ff3c   Section        0  printfa.o(i._printf_core)
    _printf_core                             0x0800ff3d   Thumb Code  1754  printfa.o(i._printf_core)
    i._printf_post_padding                   0x08010628   Section        0  printfa.o(i._printf_post_padding)
    _printf_post_padding                     0x08010629   Thumb Code    32  printfa.o(i._printf_post_padding)
    i._printf_pre_padding                    0x08010648   Section        0  printfa.o(i._printf_pre_padding)
    _printf_pre_padding                      0x08010649   Thumb Code    44  printfa.o(i._printf_pre_padding)
    i._sputc                                 0x08010674   Section        0  printfa.o(i._sputc)
    _sputc                                   0x08010675   Thumb Code    10  printfa.o(i._sputc)
    i.accEvent                               0x08010680   Section        0  gsm.o(i.accEvent)
    i.acc_signal                             0x080106b4   Section        0  work.o(i.acc_signal)
    i.accon_INT                              0x080108bc   Section        0  hardware.o(i.accon_INT)
    i.action                                 0x0801090c   Section        0  main.o(i.action)
    i.add_matrix                             0x080109bc   Section        0  matrix.o(i.add_matrix)
    i.adjust_timezone_time                   0x08010a0c   Section        0  gpsone.o(i.adjust_timezone_time)
    i.alarm_state                            0x08010b5c   Section        0  work.o(i.alarm_state)
    i.asin                                   0x08010b9c   Section        0  asin.o(i.asin)
    i.atCommand                              0x08010e10   Section        0  gsm.o(i.atCommand)
    i.atof                                   0x08010ef8   Section        0  atof.o(i.atof)
    i.batterylowEvent                        0x08010f24   Section        0  gsm.o(i.batterylowEvent)
    i.calc_gvalue                            0x08010f64   Section        0  gsensor.o(i.calc_gvalue)
    i.calculate_whole_enginhour              0x08010fac   Section        0  gps.o(i.calculate_whole_enginhour)
    i.calculate_whole_mileage                0x08010fe8   Section        0  gps.o(i.calculate_whole_mileage)
    i.check_fs                               0x08011098   Section        0  ff.o(i.check_fs)
    check_fs                                 0x08011099   Thumb Code   102  ff.o(i.check_fs)
    i.chk_lock                               0x08011108   Section        0  ff.o(i.chk_lock)
    chk_lock                                 0x08011109   Thumb Code   102  ff.o(i.chk_lock)
    i.clear_lock                             0x08011174   Section        0  ff.o(i.clear_lock)
    clear_lock                               0x08011175   Thumb Code    28  ff.o(i.clear_lock)
    i.clmt_clust                             0x08011194   Section        0  ff.o(i.clmt_clust)
    clmt_clust                               0x08011195   Thumb Code    56  ff.o(i.clmt_clust)
    i.closeFile                              0x080111cc   Section        0  config_file.o(i.closeFile)
    i.clust2sect                             0x08011210   Section        0  ff.o(i.clust2sect)
    i.configFileDebugEnable                  0x08011230   Section        0  config_file.o(i.configFileDebugEnable)
    i.configReg                              0x0801123c   Section        0  gsensor.o(i.configReg)
    i.convert_lat_lng_string_to_double       0x080112b0   Section        0  gps.o(i.convert_lat_lng_string_to_double)
    i.cos                                    0x0801139c   Section        0  cos.o(i.cos)
    i.create_chain                           0x08011434   Section        0  ff.o(i.create_chain)
    create_chain                             0x08011435   Thumb Code   174  ff.o(i.create_chain)
    i.create_name                            0x080114e8   Section        0  ff.o(i.create_name)
    create_name                              0x080114e9   Thumb Code   256  ff.o(i.create_name)
    i.create_sw_conf_table                   0x080115fc   Section        0  config_file.o(i.create_sw_conf_table)
    i.createfile                             0x08011690   Section        0  config_file.o(i.createfile)
    i.cutdetectlowEvent                      0x080116d8   Section        0  gsm.o(i.cutdetectlowEvent)
    i.deInitWWDG                             0x08011718   Section        0  hardware.o(i.deInitWWDG)
    i.dec_lock                               0x08011760   Section        0  ff.o(i.dec_lock)
    dec_lock                                 0x08011761   Thumb Code    56  ff.o(i.dec_lock)
    i.delete_sw_conf                         0x0801179c   Section        0  config_file.o(i.delete_sw_conf)
    i.delete_sw_conf_noReset                 0x080117b8   Section        0  config_file.o(i.delete_sw_conf_noReset)
    i.deletefile                             0x080117cc   Section        0  config_file.o(i.deletefile)
    i.destructive_invert_matrix              0x08011810   Section        0  matrix.o(i.destructive_invert_matrix)
    i.dir_next                               0x08011904   Section        0  ff.o(i.dir_next)
    dir_next                                 0x08011905   Thumb Code   264  ff.o(i.dir_next)
    i.dir_read                               0x08011a10   Section        0  ff.o(i.dir_read)
    dir_read                                 0x08011a11   Thumb Code   104  ff.o(i.dir_read)
    i.dir_register                           0x08011a78   Section        0  ff.o(i.dir_register)
    dir_register                             0x08011a79   Thumb Code   124  ff.o(i.dir_register)
    i.dir_remove                             0x08011af4   Section        0  ff.o(i.dir_remove)
    dir_remove                               0x08011af5   Thumb Code    62  ff.o(i.dir_remove)
    i.dir_sdi                                0x08011b32   Section        0  ff.o(i.dir_sdi)
    dir_sdi                                  0x08011b33   Thumb Code   140  ff.o(i.dir_sdi)
    i.disk_initialize                        0x08011bc0   Section        0  diskio.o(i.disk_initialize)
    i.disk_ioctl                             0x08011bec   Section        0  diskio.o(i.disk_ioctl)
    i.disk_read                              0x08011c08   Section        0  diskio.o(i.disk_read)
    i.disk_status                            0x08011c24   Section        0  diskio.o(i.disk_status)
    i.disk_write                             0x08011c3c   Section        0  diskio.o(i.disk_write)
    i.doSendCommand                          0x08011c58   Section        0  gsm.o(i.doSendCommand)
    i.do_command                             0x0801229c   Section        0  debug.o(i.do_command)
    do_command                               0x0801229d   Thumb Code   546  debug.o(i.do_command)
    i.eTaskConfirmSleepModeStatus            0x080125ac   Section        0  tasks.o(i.eTaskConfirmSleepModeStatus)
    i.ehEvent                                0x080125dc   Section        0  gsm.o(i.ehEvent)
    i.f_close                                0x08012628   Section        0  ff.o(i.f_close)
    i.f_lseek                                0x08012654   Section        0  ff.o(i.f_lseek)
    i.f_mkfs                                 0x080128b8   Section        0  ff.o(i.f_mkfs)
    i.f_mount                                0x08012de4   Section        0  ff.o(i.f_mount)
    i.f_open                                 0x08012e44   Section        0  ff.o(i.f_open)
    i.f_read                                 0x08012ff4   Section        0  ff.o(i.f_read)
    i.f_sync                                 0x08013174   Section        0  ff.o(i.f_sync)
    i.f_unlink                               0x0801321c   Section        0  ff.o(i.f_unlink)
    i.f_write                                0x080132d4   Section        0  ff.o(i.f_write)
    i.fabs_g                                 0x0801348c   Section        0  gsensor.o(i.fabs_g)
    i.fatfsUnLink                            0x0801349c   Section        0  config_file.o(i.fatfsUnLink)
    i.fileSystem                             0x080134ac   Section        0  config_file.o(i.fileSystem)
    i.find_volume                            0x08013638   Section        0  ff.o(i.find_volume)
    find_volume                              0x08013639   Thumb Code   646  ff.o(i.find_volume)
    i.flash_eeprom                           0x080138d8   Section        0  eeprom.o(i.flash_eeprom)
    i.floor                                  0x08013a20   Section        0  floor.o(i.floor)
    i.follow_path                            0x08013ae8   Section        0  ff.o(i.follow_path)
    follow_path                              0x08013ae9   Thumb Code   198  ff.o(i.follow_path)
    i.fputc                                  0x08013bb0   Section        0  debug.o(i.fputc)
    i.frame                                  0x08013bf0   Section        0  gsm.o(i.frame)
    i.gJumpToApplication                     0x08013d5c   Section        0  gsm.o(i.gJumpToApplication)
    i.g_sensor_get_info                      0x08013d74   Section        0  gsensor.o(i.g_sensor_get_info)
    i.g_sensor_read                          0x08013dc4   Section        0  gsensor.o(i.g_sensor_read)
    i.getADCVolt                             0x08013dcc   Section        0  work.o(i.getADCVolt)
    i.getADCVolt_v                           0x08013e0c   Section        0  work.o(i.getADCVolt_v)
    i.getCutStatus                           0x08013e44   Section        0  work.o(i.getCutStatus)
    i.getEnginHour                           0x08013e50   Section        0  gps.o(i.getEnginHour)
    i.getGPRMCData                           0x08013e5c   Section        0  gps.o(i.getGPRMCData)
    i.getGpsSleep                            0x08013e74   Section        0  gps.o(i.getGpsSleep)
    i.getGsmSleep                            0x08013e80   Section        0  gsm.o(i.getGsmSleep)
    i.getMainActionDone                      0x08013e8c   Section        0  main.o(i.getMainActionDone)
    i.getMileage                             0x08013e98   Section        0  gps.o(i.getMileage)
    i.getOta                                 0x08013ea4   Section        0  gpsone.o(i.getOta)
    i.getReadData                            0x08013eac   Section        0  config_file.o(i.getReadData)
    i.getSigalQuality                        0x08013eb4   Section        0  gsm.o(i.getSigalQuality)
    i.getSignal                              0x08013ebc   Section        0  gsm.o(i.getSignal)
    i.getSmsNumber                           0x08013ecc   Section        0  gpsone.o(i.getSmsNumber)
    i.getTCPConState                         0x08013f54   Section        0  gsm.o(i.getTCPConState)
    i.getWriteFilepStatus                    0x08013f64   Section        0  config_file.o(i.getWriteFilepStatus)
    i.get_conf_elem                          0x08013f70   Section        0  config_file.o(i.get_conf_elem)
    i.get_fat                                0x08013f98   Section        0  ff.o(i.get_fat)
    i.get_fattime                            0x08014064   Section        0  diskio.o(i.get_fattime)
    i.get_ldnumber                           0x08014068   Section        0  ff.o(i.get_ldnumber)
    get_ldnumber                             0x08014069   Thumb Code    60  ff.o(i.get_ldnumber)
    i.getfilesize                            0x080140a4   Section        0  config_file.o(i.getfilesize)
    i.getresetIndex                          0x080140f0   Section        0  gpsone.o(i.getresetIndex)
    i.ggFindCommand                          0x080140fc   Section        0  gpsone.o(i.ggFindCommand)
    i.gpio_wakeup                            0x08014124   Section        0  work.o(i.gpio_wakeup)
    i.gpsCheckTypeInit                       0x08014224   Section        0  gps.o(i.gpsCheckTypeInit)
    i.gpsData                                0x08014230   Section        0  gps.o(i.gpsData)
    i.gpsDataLogEnable                       0x0801430c   Section        0  gps.o(i.gpsDataLogEnable)
    i.gpsDebugEnable                         0x08014318   Section        0  gps.o(i.gpsDebugEnable)
    i.gpsLedOff                              0x08014324   Section        0  work.o(i.gpsLedOff)
    i.gpsLedOn                               0x08014364   Section        0  work.o(i.gpsLedOn)
    i.gpsLedToggle                           0x080143a4   Section        0  work.o(i.gpsLedToggle)
    i.gpsOneDebugEnable                      0x080143f4   Section        0  gpsone.o(i.gpsOneDebugEnable)
    i.gpsPowerOff                            0x08014400   Section        0  gps.o(i.gpsPowerOff)
    i.gpsPowerOn                             0x08014444   Section        0  gps.o(i.gpsPowerOn)
    i.gpsWaitComplete                        0x08014488   Section        0  gps.o(i.gpsWaitComplete)
    i.gsensor_INT                            0x080144c4   Section        0  hardware.o(i.gsensor_INT)
    i.gsensor_detect                         0x08014514   Section        0  gsensor.o(i.gsensor_detect)
    i.gsenssorDebugEnable                    0x0801458c   Section        0  gsensor.o(i.gsenssorDebugEnable)
    i.gsmATDebugEnable                       0x08014598   Section        0  gsm.o(i.gsmATDebugEnable)
    i.gsmCheckPIN                            0x080145a4   Section        0  gsm.o(i.gsmCheckPIN)
    i.gsmCmd0                                0x080145e4   Section        0  gsm.o(i.gsmCmd0)
    i.gsmCmd1                                0x080145f4   Section        0  gsm.o(i.gsmCmd1)
    i.gsmCmd2                                0x08014600   Section        0  gsm.o(i.gsmCmd2)
    i.gsmConnectTCP                          0x08014664   Section        0  gsm.o(i.gsmConnectTCP)
    i.gsmDTRLow                              0x08014748   Section        0  gsm.o(i.gsmDTRLow)
    i.gsmData                                0x0801478c   Section        0  gsm.o(i.gsmData)
    i.gsmDebugEnable                         0x08014910   Section        0  gsm.o(i.gsmDebugEnable)
    i.gsmDeleteSMS                           0x0801491c   Section        0  gsm.o(i.gsmDeleteSMS)
    i.gsmDisconnectTCP                       0x0801494c   Section        0  gsm.o(i.gsmDisconnectTCP)
    i.gsmGetFileFTP_M35                      0x080149b4   Section        0  gsm.o(i.gsmGetFileFTP_M35)
    i.gsmGetFileFTP_UG35                     0x08014b28   Section        0  gsm.o(i.gsmGetFileFTP_UG35)
    i.gsmGetHostLine                         0x08014be0   Section        0  gsm.o(i.gsmGetHostLine)
    i.gsmHostUndefine                        0x08014c58   Section        0  gsm.o(i.gsmHostUndefine)
    i.gsmIsRegister                          0x08014c6c   Section        0  gsm.o(i.gsmIsRegister)
    i.gsmLedOff                              0x08014cec   Section        0  work.o(i.gsmLedOff)
    i.gsmLedOn                               0x08014d30   Section        0  work.o(i.gsmLedOn)
    i.gsmLedToggle                           0x08014d74   Section        0  work.o(i.gsmLedToggle)
    i.gsmPowerOff                            0x08014dc8   Section        0  gsm.o(i.gsmPowerOff)
    i.gsmPowerOn                             0x08014e2c   Section        0  gsm.o(i.gsmPowerOn)
    i.gsmProcessHostResponse                 0x08014ef8   Section        0  gsm.o(i.gsmProcessHostResponse)
    i.gsmRtsLow                              0x08015210   Section        0  gsm.o(i.gsmRtsLow)
    i.gsmRxFlush                             0x08015250   Section        0  gsm.o(i.gsmRxFlush)
    i.gsmSaveSMS                             0x08015288   Section        0  gsm.o(i.gsmSaveSMS)
    i.gsmScanSMS                             0x080152f0   Section        0  gsm.o(i.gsmScanSMS)
    i.gsmScanSMSInt                          0x080153e8   Section        0  gsm.o(i.gsmScanSMSInt)
    i.gsmSend                                0x080156d4   Section        0  gsm.o(i.gsmSend)
    i.gsmSendSMS                             0x08015740   Section        0  gsm.o(i.gsmSendSMS)
    i.gsmSendTaskCommand                     0x080157a8   Section        0  gsm.o(i.gsmSendTaskCommand)
    i.gsmSenderDAnumber                      0x08015fc0   Section        0  gsm.o(i.gsmSenderDAnumber)
    i.gsmShowError                           0x08015fc8   Section        0  gsm.o(i.gsmShowError)
    i.gsmShowResponse                        0x08016114   Section        0  gsm.o(i.gsmShowResponse)
    i.gsmToken                               0x08016148   Section        0  gsm.o(i.gsmToken)
    i.gsmWaitNetwork                         0x08016168   Section        0  gsm.o(i.gsmWaitNetwork)
    i.gsmWaitRegister                        0x08016214   Section        0  gsm.o(i.gsmWaitRegister)
    i.handleSmsCommand                       0x08016274   Section        0  gpsone.o(i.handleSmsCommand)
    i.handle_filedata                        0x0801698c   Section        0  gsm.o(i.handle_filedata)
    i.handle_input                           0x08016ac4   Section        0  debug.o(i.handle_input)
    handle_input                             0x08016ac5   Thumb Code   112  debug.o(i.handle_input)
    i.handle_tab                             0x08016b3c   Section        0  debug.o(i.handle_tab)
    handle_tab                               0x08016b3d   Thumb Code   224  debug.o(i.handle_tab)
    i.inEvent                                0x08016c24   Section        0  gsm.o(i.inEvent)
    i.in_signal                              0x08016c44   Section        0  work.o(i.in_signal)
    i.inc_lock                               0x08016d94   Section        0  ff.o(i.inc_lock)
    inc_lock                                 0x08016d95   Thumb Code   144  ff.o(i.inc_lock)
    i.initEH                                 0x08016e28   Section        0  gps.o(i.initEH)
    i.initGprsParameter                      0x08016e80   Section        0  gpsone.o(i.initGprsParameter)
    i.initGpsUartHandle                      0x08016f90   Section        0  gps.o(i.initGpsUartHandle)
    i.initGsensor                            0x08016fb8   Section        0  gsensor.o(i.initGsensor)
    i.initGsmUart                            0x080170cc   Section        0  gsm.o(i.initGsmUart)
    i.initML                                 0x0801719c   Section        0  gps.o(i.initML)
    i.initSpi                                0x08017218   Section        0  hardware.o(i.initSpi)
    i.initWWDG                               0x08017290   Section        0  hardware.o(i.initWWDG)
    i.init_matrix                            0x08017308   Section        0  matrix.o(i.init_matrix)
    i.init_sw_conf_table                     0x08017328   Section        0  config_file.o(i.init_sw_conf_table)
    i.isAccOn                                0x08017400   Section        0  work.o(i.isAccOn)
    i.isSosNumber                            0x0801740c   Section        0  gpsone.o(i.isSosNumber)
    i.is_whitespace                          0x0801748c   Section        0  debug.o(i.is_whitespace)
    is_whitespace                            0x0801748d   Thumb Code    24  debug.o(i.is_whitespace)
    i.itoa                                   0x080174a4   Section        0  utility.o(i.itoa)
    i.itoa16                                 0x08017514   Section        0  utility.o(i.itoa16)
    i.ld_clust                               0x08017598   Section        0  ff.o(i.ld_clust)
    ld_clust                                 0x08017599   Thumb Code    36  ff.o(i.ld_clust)
    i.led_state                              0x080175bc   Section        0  work.o(i.led_state)
    i.led_state_off                          0x080175f8   Section        0  work.o(i.led_state_off)
    i.ledoff                                 0x08017650   Section        0  work.o(i.ledoff)
    i.low_power_pins                         0x080176dc   Section        0  work.o(i.low_power_pins)
    i.lpUartReceiveHandle                    0x08017a54   Section        0  work.o(i.lpUartReceiveHandle)
    i.main                                   0x08017ab8   Section        0  main.o(i.main)
    i.mainOneDebugEnable                     0x08017acc   Section        0  main.o(i.mainOneDebugEnable)
    i.makeFreeRtosPriority                   0x08017ad8   Section        0  cmsis_os.o(i.makeFreeRtosPriority)
    makeFreeRtosPriority                     0x08017ad9   Thumb Code    12  cmsis_os.o(i.makeFreeRtosPriority)
    i.mem_cpy                                0x08017ae4   Section        0  ff.o(i.mem_cpy)
    mem_cpy                                  0x08017ae5   Thumb Code    16  ff.o(i.mem_cpy)
    i.mem_set                                0x08017af4   Section        0  ff.o(i.mem_set)
    mem_set                                  0x08017af5   Thumb Code    14  ff.o(i.mem_set)
    i.mlEvent                                0x08017b04   Section        0  gsm.o(i.mlEvent)
    i.modf                                   0x08017b40   Section        0  modf.o(i.modf)
    i.move_window                            0x08017bd0   Section        0  ff.o(i.move_window)
    move_window                              0x08017bd1   Thumb Code    56  ff.o(i.move_window)
    i.multiply_by_transpose_matrix           0x08017c08   Section        0  matrix.o(i.multiply_by_transpose_matrix)
    i.multiply_matrix                        0x08017c92   Section        0  matrix.o(i.multiply_matrix)
    i.nmea_atof                              0x08017d14   Section        0  tok.o(i.nmea_atof)
    i.nmea_atoi                              0x08017e14   Section        0  tok.o(i.nmea_atoi)
    i.nmea_calc_crc                          0x08017e76   Section        0  tok.o(i.nmea_calc_crc)
    i.nmea_degree2ndeg                       0x08017e88   Section        0  gmath.o(i.nmea_degree2ndeg)
    i.nmea_ndeg2degree                       0x08017ebc   Section        0  gmath.o(i.nmea_ndeg2degree)
    i.nmea_parse_GPRMC                       0x08017f08   Section        0  parse.o(i.nmea_parse_GPRMC)
    i.nmea_scanf                             0x08017fdc   Section        0  tok.o(i.nmea_scanf)
    i.nosimcard_sleep                        0x08018198   Section        0  work.o(i.nosimcard_sleep)
    i.openReadFile                           0x08018200   Section        0  config_file.o(i.openReadFile)
    i.open_eh_and_ml_file                    0x08018248   Section        0  gps.o(i.open_eh_and_ml_file)
    i.openfile                               0x080182b0   Section        0  config_file.o(i.openfile)
    i.osDelay                                0x08018328   Section        0  cmsis_os.o(i.osDelay)
    i.osKernelStart                          0x08018338   Section        0  cmsis_os.o(i.osKernelStart)
    i.osSystickHandler                       0x08018342   Section        0  cmsis_os.o(i.osSystickHandler)
    i.osThreadCreate                         0x08018352   Section        0  cmsis_os.o(i.osThreadCreate)
    i.overspeedEvent                         0x0801838c   Section        0  gsm.o(i.overspeedEvent)
    i.parse_FuelCircuitControl_setting       0x080183d0   Section        0  gpsone.o(i.parse_FuelCircuitControl_setting)
    i.parse_InitialEnginer_setting           0x080184b8   Section        0  gpsone.o(i.parse_InitialEnginer_setting)
    i.parse_InitialMileage_setting           0x080184c8   Section        0  gpsone.o(i.parse_InitialMileage_setting)
    i.parse_WorkMode_setting                 0x080184d8   Section        0  gpsone.o(i.parse_WorkMode_setting)
    i.parse_apn_setting                      0x08018684   Section        0  gpsone.o(i.parse_apn_setting)
    i.parse_arm_setting                      0x08018908   Section        0  gpsone.o(i.parse_arm_setting)
    i.parse_command                          0x08018958   Section        0  debug.o(i.parse_command)
    parse_command                            0x08018959   Thumb Code    90  debug.o(i.parse_command)
    i.parse_disarm_setting                   0x080189b8   Section        0  gpsone.o(i.parse_disarm_setting)
    i.parse_domain_setting                   0x08018a08   Section        0  gpsone.o(i.parse_domain_setting)
    i.parse_eh_setting                       0x08018b54   Section        0  gpsone.o(i.parse_eh_setting)
    i.parse_guard_setting                    0x08018be8   Section        0  gpsone.o(i.parse_guard_setting)
    i.parse_igkilloff_setting                0x08018cdc   Section        0  gpsone.o(i.parse_igkilloff_setting)
    i.parse_igkillon_setting                 0x08018d6c   Section        0  gpsone.o(i.parse_igkillon_setting)
    i.parse_lowbat_setting                   0x08018dfc   Section        0  gpsone.o(i.parse_lowbat_setting)
    i.parse_ml_setting                       0x08018ef4   Section        0  gpsone.o(i.parse_ml_setting)
    i.parse_offrepinterval_setting           0x08018f90   Section        0  gpsone.o(i.parse_offrepinterval_setting)
    i.parse_onrepinterval_setting            0x0801908c   Section        0  gpsone.o(i.parse_onrepinterval_setting)
    i.parse_overspeed_setting                0x0801917c   Section        0  gpsone.o(i.parse_overspeed_setting)
    i.parse_parameter_message                0x080193a4   Section        0  gpsone.o(i.parse_parameter_message)
    i.parse_position_message                 0x0801949c   Section        0  gpsone.o(i.parse_position_message)
    i.parse_recover_setting                  0x080197a0   Section        0  gpsone.o(i.parse_recover_setting)
    i.parse_server_setting                   0x080197c8   Section        0  gpsone.o(i.parse_server_setting)
    i.parse_sirenoff_setting                 0x08019910   Section        0  gpsone.o(i.parse_sirenoff_setting)
    i.parse_sirenon_setting                  0x08019960   Section        0  gpsone.o(i.parse_sirenon_setting)
    i.parse_sms_sos_setting                  0x080199b0   Section        0  gpsone.o(i.parse_sms_sos_setting)
    i.parse_sos_setting                      0x08019cfc   Section        0  gpsone.o(i.parse_sos_setting)
    i.parse_status_message                   0x0801a068   Section        0  gpsone.o(i.parse_status_message)
    i.parse_timezone_setting                 0x0801a0dc   Section        0  gpsone.o(i.parse_timezone_setting)
    i.parse_update_message                   0x0801a1cc   Section        0  gpsone.o(i.parse_update_message)
    i.parse_urgent_setting                   0x0801a2a4   Section        0  gpsone.o(i.parse_urgent_setting)
    i.pow                                    0x0801a3a4   Section        0  pow.o(i.pow)
    i.powerLedOn                             0x0801ada0   Section        0  work.o(i.powerLedOn)
    i.prompt                                 0x0801ade4   Section        0  debug.o(i.prompt)
    prompt                                   0x0801ade5   Thumb Code    20  debug.o(i.prompt)
    i.prvAddCurrentTaskToDelayedList         0x0801ae08   Section        0  tasks.o(i.prvAddCurrentTaskToDelayedList)
    prvAddCurrentTaskToDelayedList           0x0801ae09   Thumb Code    46  tasks.o(i.prvAddCurrentTaskToDelayedList)
    i.prvCheckTasksWaitingTermination        0x0801ae3c   Section        0  tasks.o(i.prvCheckTasksWaitingTermination)
    prvCheckTasksWaitingTermination          0x0801ae3d   Thumb Code    78  tasks.o(i.prvCheckTasksWaitingTermination)
    i.prvCopyDataFromQueue                   0x0801ae94   Section        0  queue.o(i.prvCopyDataFromQueue)
    prvCopyDataFromQueue                     0x0801ae95   Thumb Code    38  queue.o(i.prvCopyDataFromQueue)
    i.prvCopyDataToQueue                     0x0801aeba   Section        0  queue.o(i.prvCopyDataToQueue)
    prvCopyDataToQueue                       0x0801aebb   Thumb Code   118  queue.o(i.prvCopyDataToQueue)
    i.prvGetExpectedIdleTime                 0x0801af30   Section        0  tasks.o(i.prvGetExpectedIdleTime)
    prvGetExpectedIdleTime                   0x0801af31   Thumb Code    30  tasks.o(i.prvGetExpectedIdleTime)
    i.prvHeapInit                            0x0801af58   Section        0  heap_4.o(i.prvHeapInit)
    prvHeapInit                              0x0801af59   Thumb Code    60  heap_4.o(i.prvHeapInit)
    i.prvIdleTask                            0x0801af9c   Section        0  tasks.o(i.prvIdleTask)
    prvIdleTask                              0x0801af9d   Thumb Code    60  tasks.o(i.prvIdleTask)
    i.prvInsertBlockIntoFreeList             0x0801afe0   Section        0  heap_4.o(i.prvInsertBlockIntoFreeList)
    prvInsertBlockIntoFreeList               0x0801afe1   Thumb Code    72  heap_4.o(i.prvInsertBlockIntoFreeList)
    i.prvResetNextTaskUnblockTime            0x0801b02c   Section        0  tasks.o(i.prvResetNextTaskUnblockTime)
    prvResetNextTaskUnblockTime              0x0801b02d   Thumb Code    28  tasks.o(i.prvResetNextTaskUnblockTime)
    i.prvSetupTimerInterrupt                 0x0801b04c   Section        0  port.o(i.prvSetupTimerInterrupt)
    prvSetupTimerInterrupt                   0x0801b04d   Thumb Code    62  port.o(i.prvSetupTimerInterrupt)
    i.prvTaskExitError                       0x0801b09c   Section        0  port.o(i.prvTaskExitError)
    prvTaskExitError                         0x0801b09d   Thumb Code    14  port.o(i.prvTaskExitError)
    i.prvUnlockQueue                         0x0801b0b0   Section        0  queue.o(i.prvUnlockQueue)
    prvUnlockQueue                           0x0801b0b1   Thumb Code   106  queue.o(i.prvUnlockQueue)
    i.put_fat                                0x0801b11a   Section        0  ff.o(i.put_fat)
    i.putch                                  0x0801b218   Section        0  debug.o(i.putch)
    i.pvPortMalloc                           0x0801b22c   Section        0  heap_4.o(i.pvPortMalloc)
    i.pvTaskIncrementMutexHeldCount          0x0801b2dc   Section        0  tasks.o(i.pvTaskIncrementMutexHeldCount)
    i.pxPortInitialiseStack                  0x0801b2f4   Section        0  port.o(i.pxPortInitialiseStack)
    i.rad                                    0x0801b314   Section        0  gps.o(i.rad)
    rad                                      0x0801b315   Thumb Code    20  gps.o(i.rad)
    i.rb_Get                                 0x0801b334   Section        0  ring_buffer.o(i.rb_Get)
    i.rb_Init                                0x0801b358   Section        0  ring_buffer.o(i.rb_Init)
    i.rb_Put                                 0x0801b364   Section        0  ring_buffer.o(i.rb_Put)
    i.readGsenserXYZ                         0x0801b388   Section        0  gsensor.o(i.readGsenserXYZ)
    i.read_eeprom                            0x0801b5bc   Section        0  eeprom.o(i.read_eeprom)
    i.readfile                               0x0801b61c   Section        0  config_file.o(i.readfile)
    i.recordSn                               0x0801b6c4   Section        0  gsm.o(i.recordSn)
    i.refreshWWDG                            0x0801b71c   Section        0  hardware.o(i.refreshWWDG)
    i.remove_chain                           0x0801b768   Section        0  ff.o(i.remove_chain)
    remove_chain                             0x0801b769   Thumb Code   102  ff.o(i.remove_chain)
    i.report_alarm_message                   0x0801b7d0   Section        0  gpsone.o(i.report_alarm_message)
    i.scale_matrix                           0x0801bc08   Section        0  matrix.o(i.scale_matrix)
    i.scale_row                              0x0801bc50   Section        0  matrix.o(i.scale_row)
    i.seekfile                               0x0801bc88   Section        0  config_file.o(i.seekfile)
    i.seekfilesize                           0x0801bcd4   Section        0  config_file.o(i.seekfilesize)
    i.setAccState                            0x0801bd20   Section        0  work.o(i.setAccState)
    i.setAlarmState                          0x0801bd38   Section        0  work.o(i.setAlarmState)
    i.setEvent                               0x0801bd64   Section        0  work.o(i.setEvent)
    i.setGc_enginHour                        0x0801bd70   Section        0  gps.o(i.setGc_enginHour)
    i.setGc_mileage                          0x0801bd84   Section        0  gps.o(i.setGc_mileage)
    i.setGpsSendTimer                        0x0801bd98   Section        0  gps.o(i.setGpsSendTimer)
    i.setInState                             0x0801bda8   Section        0  work.o(i.setInState)
    i.setSirenStatus                         0x0801bdc0   Section        0  work.o(i.setSirenStatus)
    i.set_identity_matrix                    0x0801bdcc   Section        0  matrix.o(i.set_identity_matrix)
    i.set_matrix                             0x0801be0c   Section        0  matrix.o(i.set_matrix)
    i.set_matrix_const                       0x0801be4e   Section        0  matrix.o(i.set_matrix_const)
    i.set_seconds_per_timestep               0x0801be80   Section        0  kalman.o(i.set_seconds_per_timestep)
    set_seconds_per_timestep                 0x0801be81   Thumb Code    26  kalman.o(i.set_seconds_per_timestep)
    i.shear_row                              0x0801bea8   Section        0  matrix.o(i.shear_row)
    i.shellData                              0x0801bee8   Section        0  debug.o(i.shellData)
    i.shell_help                             0x0801bef0   Section        0  debug.o(i.shell_help)
    shell_help                               0x0801bef1   Thumb Code     2  debug.o(i.shell_help)
    i.shell_relay_1                          0x0801bef4   Section        0  debug.o(i.shell_relay_1)
    i.shell_relay_2                          0x0801bf7c   Section        0  debug.o(i.shell_relay_2)
    i.shell_testgprs                         0x0801c008   Section        0  debug.o(i.shell_testgprs)
    shell_testgprs                           0x0801c009   Thumb Code    26  debug.o(i.shell_testgprs)
    i.shell_testmode                         0x0801c028   Section        0  debug.o(i.shell_testmode)
    shell_testmode                           0x0801c029   Thumb Code    80  debug.o(i.shell_testmode)
    i.shockEvent                             0x0801c0c8   Section        0  gsm.o(i.shockEvent)
    i.show_sw_conf                           0x0801c108   Section        0  config_file.o(i.show_sw_conf)
    i.signal_state                           0x0801c138   Section        0  work.o(i.signal_state)
    i.simcard_INT                            0x0801c264   Section        0  hardware.o(i.simcard_INT)
    i.simcard_state                          0x0801c2b0   Section        0  work.o(i.simcard_state)
    i.sin                                    0x0801c328   Section        0  sin.o(i.sin)
    i.sosEvent                               0x0801c3c4   Section        0  gsm.o(i.sosEvent)
    i.sos_state                              0x0801c404   Section        0  work.o(i.sos_state)
    i.spi_flash_disk_read                    0x0801c4d0   Section        0  spi_flash.o(i.spi_flash_disk_read)
    i.spi_flash_disk_write                   0x0801c4e0   Section        0  spi_flash.o(i.spi_flash_disk_write)
    i.sqrt                                   0x0801c574   Section        0  sqrt.o(i.sqrt)
    i.st_clust                               0x0801c5bc   Section        0  ff.o(i.st_clust)
    st_clust                                 0x0801c5bd   Thumb Code    16  ff.o(i.st_clust)
    i.startWWDG                              0x0801c5cc   Section        0  hardware.o(i.startWWDG)
    i.strcpyEx                               0x0801c614   Section        0  utility.o(i.strcpyEx)
    i.subtract_from_identity_matrix          0x0801c630   Section        0  matrix.o(i.subtract_from_identity_matrix)
    i.subtract_matrix                        0x0801c690   Section        0  matrix.o(i.subtract_matrix)
    i.swap_rows                              0x0801c6e0   Section        0  matrix.o(i.swap_rows)
    i.sync_fs                                0x0801c6f4   Section        0  ff.o(i.sync_fs)
    sync_fs                                  0x0801c6f5   Thumb Code   148  ff.o(i.sync_fs)
    i.sync_window                            0x0801c788   Section        0  ff.o(i.sync_window)
    sync_window                              0x0801c789   Thumb Code    84  ff.o(i.sync_window)
    i.taskRun                                0x0801c7dc   Section        0  main.o(i.taskRun)
    i.uart_puts                              0x0801c858   Section        0  debug.o(i.uart_puts)
    i.update_conf_elem                       0x0801c86c   Section        0  config_file.o(i.update_conf_elem)
    i.update_conf_elem_map                   0x0801c89c   Section        0  config_file.o(i.update_conf_elem_map)
    i.update_conf_elem_rom                   0x0801c8c8   Section        0  config_file.o(i.update_conf_elem_rom)
    i.uxListRemove                           0x0801c8d0   Section        0  list.o(i.uxListRemove)
    i.uxQueueMessagesWaiting                 0x0801c8f4   Section        0  queue.o(i.uxQueueMessagesWaiting)
    i.vApplicationTickHook                   0x0801c90c   Section        0  main.o(i.vApplicationTickHook)
    i.vDebugTask                             0x0801c914   Section        0  debug.o(i.vDebugTask)
    i.vGpsTask                               0x0801c954   Section        0  gps.o(i.vGpsTask)
    i.vGsensor                               0x0801cf6c   Section        0  gsensor.o(i.vGsensor)
    i.vGsmTask                               0x0801cf8c   Section        0  gsm.o(i.vGsmTask)
    i.vListInitialise                        0x0801d2f4   Section        0  list.o(i.vListInitialise)
    i.vListInitialiseItem                    0x0801d30a   Section        0  list.o(i.vListInitialiseItem)
    i.vListInsert                            0x0801d310   Section        0  list.o(i.vListInsert)
    i.vListInsertEnd                         0x0801d340   Section        0  list.o(i.vListInsertEnd)
    i.vPortEnterCritical                     0x0801d358   Section        0  port.o(i.vPortEnterCritical)
    i.vPortExitCritical                      0x0801d370   Section        0  port.o(i.vPortExitCritical)
    i.vPortFree                              0x0801d38c   Section        0  heap_4.o(i.vPortFree)
    i.vPortSuppressTicksAndSleep             0x0801d3d0   Section        0  port.o(i.vPortSuppressTicksAndSleep)
    i.vPortYield                             0x0801d4bc   Section        0  port.o(i.vPortYield)
    i.vTaskDelay                             0x0801d4d4   Section        0  tasks.o(i.vTaskDelay)
    i.vTaskMissedYield                       0x0801d510   Section        0  tasks.o(i.vTaskMissedYield)
    i.vTaskPlaceOnEventList                  0x0801d51c   Section        0  tasks.o(i.vTaskPlaceOnEventList)
    i.vTaskPriorityInherit                   0x0801d55c   Section        0  tasks.o(i.vTaskPriorityInherit)
    i.vTaskSetTimeOutState                   0x0801d5c0   Section        0  tasks.o(i.vTaskSetTimeOutState)
    i.vTaskStartScheduler                    0x0801d5d8   Section        0  tasks.o(i.vTaskStartScheduler)
    i.vTaskStepTick                          0x0801d61c   Section        0  tasks.o(i.vTaskStepTick)
    i.vTaskSuspendAll                        0x0801d638   Section        0  tasks.o(i.vTaskSuspendAll)
    i.vTaskSwitchContext                     0x0801d648   Section        0  tasks.o(i.vTaskSwitchContext)
    i.vWorkTask                              0x0801d6a0   Section        0  work.o(i.vWorkTask)
    i.validate                               0x0801d9d8   Section        0  ff.o(i.validate)
    validate                                 0x0801d9d9   Thumb Code    52  ff.o(i.validate)
    i.workDebugEnable                        0x0801da0c   Section        0  work.o(i.workDebugEnable)
    i.writeReg                               0x0801da18   Section        0  gsensor.o(i.writeReg)
    i.write_sw_conf_table                    0x0801da80   Section        0  config_file.o(i.write_sw_conf_table)
    i.writefile                              0x0801db08   Section        0  config_file.o(i.writefile)
    i.xPortStartScheduler                    0x0801dc58   Section        0  port.o(i.xPortStartScheduler)
    i.xPortSysTickHandler                    0x0801dc88   Section        0  port.o(i.xPortSysTickHandler)
    i.xQueueGenericCreate                    0x0801dcac   Section        0  queue.o(i.xQueueGenericCreate)
    i.xQueueGenericReceive                   0x0801dcf8   Section        0  queue.o(i.xQueueGenericReceive)
    i.xQueueGenericReset                     0x0801de32   Section        0  queue.o(i.xQueueGenericReset)
    i.xQueueGenericSend                      0x0801de9c   Section        0  queue.o(i.xQueueGenericSend)
    i.xQueueGiveFromISR                      0x0801dfb2   Section        0  queue.o(i.xQueueGiveFromISR)
    i.xTaskCheckForTimeOut                   0x0801e024   Section        0  tasks.o(i.xTaskCheckForTimeOut)
    i.xTaskGenericCreate                     0x0801e078   Section        0  tasks.o(i.xTaskGenericCreate)
    i.xTaskGetSchedulerState                 0x0801e1f4   Section        0  tasks.o(i.xTaskGetSchedulerState)
    i.xTaskGetTickCount                      0x0801e214   Section        0  tasks.o(i.xTaskGetTickCount)
    i.xTaskIncrementTick                     0x0801e220   Section        0  tasks.o(i.xTaskIncrementTick)
    i.xTaskPriorityDisinherit                0x0801e2ec   Section        0  tasks.o(i.xTaskPriorityDisinherit)
    i.xTaskRemoveFromEventList               0x0801e354   Section        0  tasks.o(i.xTaskRemoveFromEventList)
    i.xTaskResumeAll                         0x0801e3bc   Section        0  tasks.o(i.xTaskResumeAll)
    .constdata                               0x0801e464   Section      100  main.o(.constdata)
    .constdata                               0x0801e4c8   Section       18  gpsone.o(.constdata)
    .constdata                               0x0801e4da   Section        8  gpsone.o(.constdata)
    .constdata                               0x0801e4e2   Section        8  gpsone.o(.constdata)
    .constdata                               0x0801e4ea   Section        8  gpsone.o(.constdata)
    .constdata                               0x0801e4f4   Section      400  gpsone.o(.constdata)
    .constdata                               0x0801e684   Section       15  gpsone.o(.constdata)
    .constdata                               0x0801e698   Section      552  gsm.o(.constdata)
    .constdata                               0x0801e8c0   Section      384  kalman.o(.constdata)
    .constdata                               0x0801ea40   Section       32  utility.o(.constdata)
    .constdata                               0x0801ea60   Section       84  gps.o(.constdata)
    .constdata                               0x0801eab4   Section       19  gps.o(.constdata)
    .constdata                               0x0801eac7   Section       12  gps.o(.constdata)
    .constdata                               0x0801ead3   Section       19  gps.o(.constdata)
    .constdata                               0x0801eae6   Section       10  gps.o(.constdata)
    .constdata                               0x0801eaf0   Section       16  gps.o(.constdata)
    .constdata                               0x0801eb00   Section       16  gps.o(.constdata)
    .constdata                               0x0801eb10   Section       16  gps.o(.constdata)
    .constdata                               0x0801eb20   Section       16  gps.o(.constdata)
    .constdata                               0x0801eb30   Section       16  gps.o(.constdata)
    .constdata                               0x0801eb40   Section       16  gps.o(.constdata)
    .constdata                               0x0801eb50   Section       16  stm32l0xx_hal_rcc.o(.constdata)
    APBAHBPrescTable                         0x0801eb50   Data          16  stm32l0xx_hal_rcc.o(.constdata)
    .constdata                               0x0801eb60   Section       25  system_stm32l0xx.o(.constdata)
    .constdata                               0x0801eb7a   Section      172  ff.o(.constdata)
    ExCvt                                    0x0801eb7a   Data         128  ff.o(.constdata)
    vst                                      0x0801ebfa   Data          22  ff.o(.constdata)
    cst                                      0x0801ec10   Data          22  ff.o(.constdata)
    .constdata                               0x0801ec28   Section       20  flash_diskio.o(.constdata)
    .constdata                               0x0801ec40   Section       80  asin.o(.constdata)
    pS                                       0x0801ec40   Data          48  asin.o(.constdata)
    qS                                       0x0801ec70   Data          32  asin.o(.constdata)
    .constdata                               0x0801ec90   Section      136  pow.o(.constdata)
    bp                                       0x0801ec90   Data          16  pow.o(.constdata)
    dp_h                                     0x0801eca0   Data          16  pow.o(.constdata)
    dp_l                                     0x0801ecb0   Data          16  pow.o(.constdata)
    L                                        0x0801ecc0   Data          48  pow.o(.constdata)
    P                                        0x0801ecf0   Data          40  pow.o(.constdata)
    .constdata                               0x0801ed18   Section      129  ctype_o.o(.constdata)
    .constdata                               0x0801ed9c   Section        4  ctype_o.o(.constdata)
    table                                    0x0801ed9c   Data           4  ctype_o.o(.constdata)
    .constdata                               0x0801eda0   Section       48  cos_i.o(.constdata)
    C                                        0x0801eda0   Data          48  cos_i.o(.constdata)
    .constdata                               0x0801edd0   Section        8  qnan.o(.constdata)
    .constdata                               0x0801edd8   Section      200  rred.o(.constdata)
    pio2s                                    0x0801edd8   Data          48  rred.o(.constdata)
    twooverpi                                0x0801ee08   Data         152  rred.o(.constdata)
    .constdata                               0x0801eea0   Section       40  sin_i.o(.constdata)
    S                                        0x0801eea0   Data          40  sin_i.o(.constdata)
    .conststring                             0x0801eec8   Section       67  main.o(.conststring)
    .conststring                             0x0801ef0c   Section      684  work.o(.conststring)
    .conststring                             0x0801f1b8   Section        5  debug.o(.conststring)
    .conststring                             0x0801f1c0   Section      425  gpsone.o(.conststring)
    .conststring                             0x0801f36c   Section      145  gsm.o(.conststring)
    .conststring                             0x0801f400   Section      288  config_file.o(.conststring)
    .conststring                             0x0801f520   Section       66  gps.o(.conststring)
    .data                                    0x20000000   Section        4  main.o(.data)
    DebugEnable                              0x20000000   Data           1  main.o(.data)
    .data                                    0x20000004   Section      152  work.o(.data)
    DebugEnable                              0x20000004   Data           1  work.o(.data)
    .data                                    0x2000009c   Section       12  debug.o(.data)
    commands                                 0x200000a0   Data           8  debug.o(.data)
    .data                                    0x200000a8   Section      176  gpsone.o(.data)
    DebugEnable                              0x200000a8   Data           1  gpsone.o(.data)
    .data                                    0x20000158   Section       44  gsensor.o(.data)
    DebugEnable                              0x20000158   Data           1  gsensor.o(.data)
    flg_once                                 0x2000015a   Data           1  gsensor.o(.data)
    gc                                       0x20000170   Data           4  gsensor.o(.data)
    dtmax                                    0x20000174   Data           4  gsensor.o(.data)
    dtx                                      0x20000178   Data           4  gsensor.o(.data)
    dty                                      0x2000017c   Data           4  gsensor.o(.data)
    dtz                                      0x20000180   Data           4  gsensor.o(.data)
    .data                                    0x20000184   Section      156  gsm.o(.data)
    DebugEnable                              0x20000184   Data           1  gsm.o(.data)
    .data                                    0x20000220   Section        8  hardware.o(.data)
    DebugEnable                              0x20000220   Data           1  hardware.o(.data)
    .data                                    0x20000228   Section        8  kalman.o(.data)
    .data                                    0x20000230   Section        8  kalman.o(.data)
    .data                                    0x20000238   Section        8  kalman.o(.data)
    .data                                    0x20000240   Section        8  kalman.o(.data)
    .data                                    0x20000248   Section        8  kalman.o(.data)
    .data                                    0x20000250   Section        8  kalman.o(.data)
    .data                                    0x20000258   Section        8  kalman.o(.data)
    .data                                    0x20000260   Section      492  config_file.o(.data)
    DebugEnable                              0x20000260   Data           1  config_file.o(.data)
    .data                                    0x2000044c   Section       15  config_file.o(.data)
    .data                                    0x2000045b   Section       20  config_file.o(.data)
    .data                                    0x2000046f   Section       20  config_file.o(.data)
    .data                                    0x20000483   Section       20  config_file.o(.data)
    .data                                    0x20000497   Section       20  config_file.o(.data)
    .data                                    0x200004ab   Section       20  config_file.o(.data)
    .data                                    0x200004bf   Section       20  config_file.o(.data)
    .data                                    0x200004d3   Section       10  config_file.o(.data)
    .data                                    0x200004dd   Section       50  config_file.o(.data)
    .data                                    0x2000050f   Section       40  config_file.o(.data)
    .data                                    0x20000537   Section       40  config_file.o(.data)
    .data                                    0x2000055f   Section       40  config_file.o(.data)
    .data                                    0x20000587   Section       10  config_file.o(.data)
    .data                                    0x20000591   Section       10  config_file.o(.data)
    .data                                    0x2000059b   Section        2  config_file.o(.data)
    .data                                    0x2000059d   Section        2  config_file.o(.data)
    .data                                    0x2000059f   Section        2  config_file.o(.data)
    .data                                    0x200005a1   Section        2  config_file.o(.data)
    .data                                    0x200005a3   Section        2  config_file.o(.data)
    .data                                    0x200005a5   Section        2  config_file.o(.data)
    .data                                    0x200005a7   Section        2  config_file.o(.data)
    .data                                    0x200005a9   Section        2  config_file.o(.data)
    .data                                    0x200005ab   Section        2  config_file.o(.data)
    .data                                    0x200005ad   Section        2  config_file.o(.data)
    .data                                    0x200005af   Section       10  config_file.o(.data)
    .data                                    0x200005b9   Section       10  config_file.o(.data)
    .data                                    0x200005c3   Section        2  config_file.o(.data)
    .data                                    0x200005c5   Section       20  config_file.o(.data)
    .data                                    0x200005d9   Section       10  config_file.o(.data)
    .data                                    0x200005e4   Section       16  eeprom.o(.data)
    DebugEnable                              0x200005e4   Data           1  eeprom.o(.data)
    .data                                    0x200005f8   Section       24  gps.o(.data)
    DebugEnable                              0x200005f8   Data           1  gps.o(.data)
    .data                                    0x20000610   Section        4  stm32l0xx_hal.o(.data)
    uwTick                                   0x20000610   Data           4  stm32l0xx_hal.o(.data)
    .data                                    0x20000614   Section        4  system_stm32l0xx.o(.data)
    .data                                    0x20000618   Section       56  tasks.o(.data)
    uxTasksDeleted                           0x2000061c   Data           4  tasks.o(.data)
    uxCurrentNumberOfTasks                   0x20000620   Data           4  tasks.o(.data)
    xTickCount                               0x20000624   Data           4  tasks.o(.data)
    uxTopReadyPriority                       0x20000628   Data           4  tasks.o(.data)
    xSchedulerRunning                        0x2000062c   Data           4  tasks.o(.data)
    uxPendedTicks                            0x20000630   Data           4  tasks.o(.data)
    xYieldPending                            0x20000634   Data           4  tasks.o(.data)
    xNumOfOverflows                          0x20000638   Data           4  tasks.o(.data)
    uxTaskNumber                             0x2000063c   Data           4  tasks.o(.data)
    xNextTaskUnblockTime                     0x20000640   Data           4  tasks.o(.data)
    uxSchedulerSuspended                     0x20000644   Data           4  tasks.o(.data)
    pxDelayedTaskList                        0x20000648   Data           4  tasks.o(.data)
    pxOverflowDelayedTaskList                0x2000064c   Data           4  tasks.o(.data)
    .data                                    0x20000650   Section       24  heap_4.o(.data)
    pxEnd                                    0x20000650   Data           4  heap_4.o(.data)
    xFreeBytesRemaining                      0x20000654   Data           4  heap_4.o(.data)
    xMinimumEverFreeBytesRemaining           0x20000658   Data           4  heap_4.o(.data)
    xBlockAllocatedBit                       0x2000065c   Data           4  heap_4.o(.data)
    xStart                                   0x20000660   Data           8  heap_4.o(.data)
    .data                                    0x20000668   Section       16  port.o(.data)
    uxCriticalNesting                        0x20000668   Data           4  port.o(.data)
    ulTimerCountsForOneTick                  0x2000066c   Data           4  port.o(.data)
    xMaximumPossibleSuppressedTicks          0x20000670   Data           4  port.o(.data)
    ulStoppedTimerCompensation               0x20000674   Data           4  port.o(.data)
    .data                                    0x20000678   Section        8  ff.o(.data)
    Fsid                                     0x20000678   Data           2  ff.o(.data)
    FatFs                                    0x2000067c   Data           4  ff.o(.data)
    .data                                    0x20000680   Section        1  flash_diskio.o(.data)
    Stat                                     0x20000680   Data           1  flash_diskio.o(.data)
    .data                                    0x20000684   Section        4  stdout.o(.data)
    .data                                    0x20000688   Section        4  errno.o(.data)
    _errno                                   0x20000688   Data           4  errno.o(.data)
    .bss                                     0x2000068c   Section       80  work.o(.bss)
    GPIO_InitStruct                          0x2000068c   Data          20  work.o(.bss)
    .bss                                     0x200006dc   Section      136  debug.o(.bss)
    .bss                                     0x20000764   Section      172  gpsone.o(.bss)
    GPIO_InitStruct                          0x20000764   Data          20  gpsone.o(.bss)
    .bss                                     0x20000810   Section       16  gpsone.o(.bss)
    .bss                                     0x20000820   Section       16  gpsone.o(.bss)
    .bss                                     0x20000830   Section       16  gpsone.o(.bss)
    .bss                                     0x20000840   Section       16  gpsone.o(.bss)
    .bss                                     0x20000850   Section      216  gsensor.o(.bss)
    g_data                                   0x20000850   Data          60  gsensor.o(.bss)
    avg                                      0x2000088c   Data          12  gsensor.o(.bss)
    g_sensorinfo                             0x20000898   Data          24  gsensor.o(.bss)
    .bss                                     0x20000928   Section     1912  gsm.o(.bss)
    .bss                                     0x200010a0   Section      488  hardware.o(.bss)
    .bss                                     0x20001288   Section       88  hardware.o(.bss)
    .bss                                     0x200012e0   Section       36  hardware.o(.bss)
    .bss                                     0x20001304   Section       96  hardware.o(.bss)
    .bss                                     0x20001368   Section     1568  kalman.o(.bss)
    .bss                                     0x20001988   Section       16  kalman.o(.bss)
    .bss                                     0x20001998   Section       16  kalman.o(.bss)
    .bss                                     0x200019a8   Section       16  kalman.o(.bss)
    .bss                                     0x200019b8   Section       16  kalman.o(.bss)
    .bss                                     0x200019c8   Section       16  kalman.o(.bss)
    .bss                                     0x200019d8   Section       16  kalman.o(.bss)
    .bss                                     0x200019e8   Section       16  kalman.o(.bss)
    .bss                                     0x200019f8   Section      407  config_file.o(.bss)
    .bss                                     0x20001b8f   Section       51  config_file.o(.bss)
    .bss                                     0x20001bc4   Section     1628  config_file.o(.bss)
    .bss                                     0x20002220   Section      536  gps.o(.bss)
    gpsTxBuffer                              0x20002220   Data          32  gps.o(.bss)
    gpsRxBuffer                              0x20002240   Data         128  gps.o(.bss)
    .bss                                     0x20002438   Section       24  stm32l0xx_hal_flash.o(.bss)
    .bss                                     0x20002450   Section      240  tasks.o(.bss)
    pxReadyTasksLists                        0x20002450   Data         140  tasks.o(.bss)
    xDelayedTaskList1                        0x200024dc   Data          20  tasks.o(.bss)
    xDelayedTaskList2                        0x200024f0   Data          20  tasks.o(.bss)
    xPendingReadyList                        0x20002504   Data          20  tasks.o(.bss)
    xTasksWaitingTermination                 0x20002518   Data          20  tasks.o(.bss)
    xSuspendedTaskList                       0x2000252c   Data          20  tasks.o(.bss)
    .bss                                     0x20002540   Section     5120  heap_4.o(.bss)
    ucHeap                                   0x20002540   Data        5120  heap_4.o(.bss)
    .bss                                     0x20003940   Section       48  ff.o(.bss)
    Files                                    0x20003940   Data          48  ff.o(.bss)
    .bss                                     0x20003970   Section       12  ff_gen_drv.o(.bss)
    .bss                                     0x2000397c   Section     4096  flash_diskio.o(.bss)
    STACK                                    0x20004980   Section     1024  startup_stm32l073xx.o(STACK)

    Global Symbols

    Symbol Name                              Value     Ov Type        Size  Object(Section)

    BuildAttributes$$THM_ISAv3M$S$PE$A:L22$X:L11$S22$IEEE1$IW$USESV6$~STKCKD$USESV7$~SHL$OTIME$ROPI$IEEEX$EBA8$MICROLIB$REQ8$PRES8$EABIv2 0x00000000   Number         0  anon$$obj.o ABSOLUTE
    __ARM_use_no_argv                        0x00000000   Number         0  main.o ABSOLUTE
    _printf_a                                0x00000000   Number         0  stubs.o ABSOLUTE
    _printf_c                                0x00000000   Number         0  stubs.o ABSOLUTE
    _printf_charcount                        0x00000000   Number         0  stubs.o ABSOLUTE
    _printf_d                                0x00000000   Number         0  stubs.o ABSOLUTE
    _printf_e                                0x00000000   Number         0  stubs.o ABSOLUTE
    _printf_f                                0x00000000   Number         0  stubs.o ABSOLUTE
    _printf_flags                            0x00000000   Number         0  stubs.o ABSOLUTE
    _printf_fp_dec                           0x00000000   Number         0  stubs.o ABSOLUTE
    _printf_fp_hex                           0x00000000   Number         0  stubs.o ABSOLUTE
    _printf_g                                0x00000000   Number         0  stubs.o ABSOLUTE
    _printf_i                                0x00000000   Number         0  stubs.o ABSOLUTE
    _printf_int_dec                          0x00000000   Number         0  stubs.o ABSOLUTE
    _printf_l                                0x00000000   Number         0  stubs.o ABSOLUTE
    _printf_lc                               0x00000000   Number         0  stubs.o ABSOLUTE
    _printf_ll                               0x00000000   Number         0  stubs.o ABSOLUTE
    _printf_lld                              0x00000000   Number         0  stubs.o ABSOLUTE
    _printf_lli                              0x00000000   Number         0  stubs.o ABSOLUTE
    _printf_llo                              0x00000000   Number         0  stubs.o ABSOLUTE
    _printf_llu                              0x00000000   Number         0  stubs.o ABSOLUTE
    _printf_llx                              0x00000000   Number         0  stubs.o ABSOLUTE
    _printf_longlong_dec                     0x00000000   Number         0  stubs.o ABSOLUTE
    _printf_longlong_hex                     0x00000000   Number         0  stubs.o ABSOLUTE
    _printf_longlong_oct                     0x00000000   Number         0  stubs.o ABSOLUTE
    _printf_ls                               0x00000000   Number         0  stubs.o ABSOLUTE
    _printf_mbtowc                           0x00000000   Number         0  stubs.o ABSOLUTE
    _printf_n                                0x00000000   Number         0  stubs.o ABSOLUTE
    _printf_o                                0x00000000   Number         0  stubs.o ABSOLUTE
    _printf_p                                0x00000000   Number         0  stubs.o ABSOLUTE
    _printf_percent                          0x00000000   Number         0  stubs.o ABSOLUTE
    _printf_pre_padding                      0x00000000   Number         0  stubs.o ABSOLUTE
    _printf_return_value                     0x00000000   Number         0  stubs.o ABSOLUTE
    _printf_s                                0x00000000   Number         0  stubs.o ABSOLUTE
    _printf_sizespec                         0x00000000   Number         0  stubs.o ABSOLUTE
    _printf_str                              0x00000000   Number         0  stubs.o ABSOLUTE
    _printf_truncate_signed                  0x00000000   Number         0  stubs.o ABSOLUTE
    _printf_truncate_unsigned                0x00000000   Number         0  stubs.o ABSOLUTE
    _printf_u                                0x00000000   Number         0  stubs.o ABSOLUTE
    _printf_wc                               0x00000000   Number         0  stubs.o ABSOLUTE
    _printf_wctomb                           0x00000000   Number         0  stubs.o ABSOLUTE
    _printf_widthprec                        0x00000000   Number         0  stubs.o ABSOLUTE
    _printf_x                                0x00000000   Number         0  stubs.o ABSOLUTE
    __cpp_initialize__aeabi_                  - Undefined Weak Reference
    __cxa_finalize                            - Undefined Weak Reference
    _clock_init                               - Undefined Weak Reference
    _microlib_exit                            - Undefined Weak Reference
    _scanf_int                                - Undefined Weak Reference
    _scanf_longlong                           - Undefined Weak Reference
    __Vectors_Size                           0x000000c0   Number         0  startup_stm32l073xx.o ABSOLUTE
    __Vectors                                0x08008000   Data           4  startup_stm32l073xx.o(RESET)
    __Vectors_End                            0x080080c0   Data           0  startup_stm32l073xx.o(RESET)
    __main                                   0x080080c1   Thumb Code     0  entry.o(.ARM.Collect$$$$00000000)
    _main_stk                                0x080080c1   Thumb Code     0  entry2.o(.ARM.Collect$$$$00000001)
    _main_scatterload                        0x080080c5   Thumb Code     0  entry5.o(.ARM.Collect$$$$00000004)
    __main_after_scatterload                 0x080080c9   Thumb Code     0  entry5.o(.ARM.Collect$$$$00000004)
    _main_clock                              0x080080c9   Thumb Code     0  entry7b.o(.ARM.Collect$$$$00000008)
    _main_cpp_init                           0x080080c9   Thumb Code     0  entry8b.o(.ARM.Collect$$$$0000000A)
    _main_init                               0x080080c9   Thumb Code     0  entry9a.o(.ARM.Collect$$$$0000000B)
    __rt_final_cpp                           0x080080d1   Thumb Code     0  entry10a.o(.ARM.Collect$$$$0000000D)
    __rt_final_exit                          0x080080d1   Thumb Code     0  entry11a.o(.ARM.Collect$$$$0000000F)
    __asm___6_port_c_39a90d8d__prvPortStartFirstTask 0x080080d5   Thumb Code    28  port.o(.emb_text)
    ulSetInterruptMaskFromISR                0x080080f5   Thumb Code     8  port.o(.emb_text)
    vClearInterruptMaskFromISR               0x080080fd   Thumb Code     6  port.o(.emb_text)
    PendSV_Handler                           0x08008103   Thumb Code    62  port.o(.emb_text)
    Reset_Handler                            0x08008145   Thumb Code     8  startup_stm32l073xx.o(.text)
    ADC1_COMP_IRQHandler                     0x08008157   Thumb Code     0  startup_stm32l073xx.o(.text)
    DMA1_Channel2_3_IRQHandler               0x08008157   Thumb Code     0  startup_stm32l073xx.o(.text)
    DMA1_Channel4_5_6_7_IRQHandler           0x08008157   Thumb Code     0  startup_stm32l073xx.o(.text)
    EXTI2_3_IRQHandler                       0x08008157   Thumb Code     0  startup_stm32l073xx.o(.text)
    FLASH_IRQHandler                         0x08008157   Thumb Code     0  startup_stm32l073xx.o(.text)
    I2C2_IRQHandler                          0x08008157   Thumb Code     0  startup_stm32l073xx.o(.text)
    I2C3_IRQHandler                          0x08008157   Thumb Code     0  startup_stm32l073xx.o(.text)
    LCD_IRQHandler                           0x08008157   Thumb Code     0  startup_stm32l073xx.o(.text)
    LPTIM1_IRQHandler                        0x08008157   Thumb Code     0  startup_stm32l073xx.o(.text)
    PVD_IRQHandler                           0x08008157   Thumb Code     0  startup_stm32l073xx.o(.text)
    RCC_CRS_IRQHandler                       0x08008157   Thumb Code     0  startup_stm32l073xx.o(.text)
    RNG_LPUART1_IRQHandler                   0x08008157   Thumb Code     0  startup_stm32l073xx.o(.text)
    SPI1_IRQHandler                          0x08008157   Thumb Code     0  startup_stm32l073xx.o(.text)
    TIM21_IRQHandler                         0x08008157   Thumb Code     0  startup_stm32l073xx.o(.text)
    TIM22_IRQHandler                         0x08008157   Thumb Code     0  startup_stm32l073xx.o(.text)
    TIM2_IRQHandler                          0x08008157   Thumb Code     0  startup_stm32l073xx.o(.text)
    TIM3_IRQHandler                          0x08008157   Thumb Code     0  startup_stm32l073xx.o(.text)
    TIM6_DAC_IRQHandler                      0x08008157   Thumb Code     0  startup_stm32l073xx.o(.text)
    TIM7_IRQHandler                          0x08008157   Thumb Code     0  startup_stm32l073xx.o(.text)
    TSC_IRQHandler                           0x08008157   Thumb Code     0  startup_stm32l073xx.o(.text)
    USART1_IRQHandler                        0x08008157   Thumb Code     0  startup_stm32l073xx.o(.text)
    USB_IRQHandler                           0x08008157   Thumb Code     0  startup_stm32l073xx.o(.text)
    WWDG_IRQHandler                          0x08008157   Thumb Code     0  startup_stm32l073xx.o(.text)
    __aeabi_uidiv                            0x08008161   Thumb Code     0  uidiv.o(.text)
    __aeabi_uidivmod                         0x08008161   Thumb Code    44  uidiv.o(.text)
    __aeabi_idiv                             0x0800818d   Thumb Code     0  idiv.o(.text)
    __aeabi_idivmod                          0x0800818d   Thumb Code    40  idiv.o(.text)
    __rt_ctype_table                         0x080081b5   Thumb Code     4  ctype_o.o(.text)
    isspace                                  0x080081bd   Thumb Code    18  isspace_o.o(.text)
    toupper                                  0x080081cf   Thumb Code    12  toupper.o(.text)
    __aeabi_memcpy                           0x080081db   Thumb Code    36  memcpya.o(.text)
    __aeabi_memcpy4                          0x080081db   Thumb Code     0  memcpya.o(.text)
    __aeabi_memcpy8                          0x080081db   Thumb Code     0  memcpya.o(.text)
    __aeabi_memset                           0x080081ff   Thumb Code    14  memseta.o(.text)
    __aeabi_memset4                          0x080081ff   Thumb Code     0  memseta.o(.text)
    __aeabi_memset8                          0x080081ff   Thumb Code     0  memseta.o(.text)
    __aeabi_memclr                           0x0800820d   Thumb Code     4  memseta.o(.text)
    __aeabi_memclr4                          0x0800820d   Thumb Code     0  memseta.o(.text)
    __aeabi_memclr8                          0x0800820d   Thumb Code     0  memseta.o(.text)
    _memset$wrapper                          0x08008211   Thumb Code    18  memseta.o(.text)
    strcat                                   0x08008223   Thumb Code    24  strcat.o(.text)
    strstr                                   0x0800823b   Thumb Code    40  strstr.o(.text)
    strncpy                                  0x08008263   Thumb Code    26  strncpy.o(.text)
    strchr                                   0x0800827d   Thumb Code    20  strchr.o(.text)
    strlen                                   0x08008291   Thumb Code    14  strlen.o(.text)
    strcmp                                   0x0800829f   Thumb Code    28  strcmp.o(.text)
    memchr                                   0x080082bb   Thumb Code    20  memchr.o(.text)
    strcpy                                   0x080082cf   Thumb Code    18  strcpy.o(.text)
    strncmp                                  0x080082e1   Thumb Code    30  strncmp.o(.text)
    __aeabi_uread4                           0x080082ff   Thumb Code    20  uread4.o(.text)
    __rt_uread4                              0x080082ff   Thumb Code     0  uread4.o(.text)
    _uread4                                  0x080082ff   Thumb Code     0  uread4.o(.text)
    __0sscanf                                0x08008315   Thumb Code    50  __0sscanf.o(.text)
    _scanf_string                            0x08008351   Thumb Code   232  _scanf_str.o(.text)
    atoi                                     0x08008439   Thumb Code    26  atoi.o(.text)
    __aeabi_fadd                             0x08008453   Thumb Code   162  fadd.o(.text)
    __aeabi_fsub                             0x080084f5   Thumb Code     8  fadd.o(.text)
    __aeabi_frsub                            0x080084fd   Thumb Code     8  fadd.o(.text)
    __aeabi_fdiv                             0x08008505   Thumb Code   124  fdiv.o(.text)
    __aeabi_dadd                             0x08008581   Thumb Code   328  dadd.o(.text)
    __aeabi_dsub                             0x080086c9   Thumb Code    12  dadd.o(.text)
    __aeabi_drsub                            0x080086d5   Thumb Code    12  dadd.o(.text)
    __aeabi_dmul                             0x080086e5   Thumb Code   202  dmul.o(.text)
    __aeabi_ddiv                             0x080087b5   Thumb Code   234  ddiv.o(.text)
    __ARM_scalbn                             0x080088a5   Thumb Code    44  dscalb.o(.text)
    scalbn                                   0x080088a5   Thumb Code     0  dscalb.o(.text)
    __aeabi_i2f                              0x080088d1   Thumb Code    22  fflti.o(.text)
    __aeabi_ui2f                             0x080088e7   Thumb Code    14  ffltui.o(.text)
    __aeabi_i2d                              0x080088f5   Thumb Code    34  dflti.o(.text)
    __aeabi_ui2d                             0x0800891d   Thumb Code    24  dfltui.o(.text)
    __aeabi_d2iz                             0x08008939   Thumb Code    62  dfixi.o(.text)
    __aeabi_d2uiz                            0x08008981   Thumb Code    50  dfixui.o(.text)
    __aeabi_cdcmpeq                          0x080089bd   Thumb Code     0  cdcmple.o(.text)
    __aeabi_cdcmple                          0x080089bd   Thumb Code    38  cdcmple.o(.text)
    __aeabi_cdrcmple                         0x080089e5   Thumb Code    38  cdrcmple.o(.text)
    __aeabi_cfcmpeq                          0x08008a0d   Thumb Code     0  cfcmple.o(.text)
    __aeabi_cfcmple                          0x08008a0d   Thumb Code    20  cfcmple.o(.text)
    __aeabi_cfrcmple                         0x08008a21   Thumb Code    20  cfrcmple.o(.text)
    __aeabi_uldivmod                         0x08008a35   Thumb Code    96  uldiv.o(.text)
    __aeabi_llsl                             0x08008a95   Thumb Code    32  llshl.o(.text)
    _ll_shift_l                              0x08008a95   Thumb Code     0  llshl.o(.text)
    __aeabi_llsr                             0x08008ab5   Thumb Code    34  llushr.o(.text)
    _ll_ushift_r                             0x08008ab5   Thumb Code     0  llushr.o(.text)
    __aeabi_lasr                             0x08008ad7   Thumb Code    38  llsshr.o(.text)
    _ll_sshift_r                             0x08008ad7   Thumb Code     0  llsshr.o(.text)
    __vfscanf_char                           0x08008b09   Thumb Code    24  scanf_char.o(.text)
    _sgetc                                   0x08008b29   Thumb Code    32  _sgetc.o(.text)
    _sbackspace                              0x08008b49   Thumb Code    36  _sgetc.o(.text)
    __strtod_int                             0x08008ba3   Thumb Code    92  strtod.o(.text)
    strtol                                   0x08008c11   Thumb Code   108  strtol.o(.text)
    __I$use$fp                               0x08008c81   Thumb Code     0  iusefp.o(.text)
    _float_round                             0x08008c81   Thumb Code    16  fepilogue.o(.text)
    _float_epilogue                          0x08008c91   Thumb Code   114  fepilogue.o(.text)
    _double_round                            0x08008d03   Thumb Code    26  depilogue.o(.text)
    _double_epilogue                         0x08008d1d   Thumb Code   164  depilogue.o(.text)
    _dsqrt                                   0x08008dc1   Thumb Code   162  dsqrt.o(.text)
    __aeabi_d2ulz                            0x08008e65   Thumb Code    54  dfixul.o(.text)
    __scatterload                            0x08008ea5   Thumb Code    28  init.o(.text)
    __scatterload_rt2                        0x08008ea5   Thumb Code     0  init.o(.text)
    __vfscanf                                0x08008ec9   Thumb Code   812  _scanf.o(.text)
    _scanf_real                              0x080092f7   Thumb Code     0  scanf_fp.o(.text)
    _scanf_really_real                       0x080092f7   Thumb Code   586  scanf_fp.o(.text)
    _strtoul                                 0x0800954d   Thumb Code   166  _strtoul.o(.text)
    __aeabi_lmul                             0x080095f3   Thumb Code   122  llmul.o(.text)
    _ll_mul                                  0x080095f3   Thumb Code     0  llmul.o(.text)
    _chval                                   0x0800966d   Thumb Code    30  _chval.o(.text)
    __aeabi_ul2d                             0x0800968d   Thumb Code    22  dfltul.o(.text)
    __aeabi_d2f                              0x080096a9   Thumb Code    56  d2f.o(.text)
    __decompress                             0x080096e1   Thumb Code     0  __dczerorl2.o(.text)
    __decompress1                            0x080096e1   Thumb Code    86  __dczerorl2.o(.text)
    ADC_Config                               0x08009739   Thumb Code   146  work.o(i.ADC_Config)
    ADC_Value                                0x080098fd   Thumb Code   360  work.o(i.ADC_Value)
    AudioCodec_M35                           0x08009ac9   Thumb Code    32  gsm.o(i.AudioCodec_M35)
    AudioCodec_UG35                          0x08009b19   Thumb Code    56  gsm.o(i.AudioCodec_UG35)
    Check_even                               0x08009bb9   Thumb Code   386  gsensor.o(i.Check_even)
    D2IToString                              0x08009d49   Thumb Code    52  gsm.o(i.D2IToString)
    D2I_6D                                   0x08009d81   Thumb Code    54  gsm.o(i.D2I_6D)
    DMA1_Channel1_IRQHandler                 0x08009dc1   Thumb Code    12  stm32l0xx_it.o(i.DMA1_Channel1_IRQHandler)
    DebugInit                                0x08009dd1   Thumb Code    50  debug.o(i.DebugInit)
    EXTI0_1_IRQHandler                       0x08009e0d   Thumb Code    10  hardware.o(i.EXTI0_1_IRQHandler)
    EXTI4_15_IRQHandler                      0x08009e17   Thumb Code    18  hardware.o(i.EXTI4_15_IRQHandler)
    Error_Handler                            0x08009e29   Thumb Code    18  hardware.o(i.Error_Handler)
    FATFS_LinkDriver                         0x08009e59   Thumb Code    10  ff_gen_drv.o(i.FATFS_LinkDriver)
    FATFS_LinkDriverEx                       0x08009e65   Thumb Code    60  ff_gen_drv.o(i.FATFS_LinkDriverEx)
    FATFS_UnLinkDriver                       0x08009ea5   Thumb Code    10  ff_gen_drv.o(i.FATFS_UnLinkDriver)
    FATFS_UnLinkDriverEx                     0x08009eb1   Thumb Code    48  ff_gen_drv.o(i.FATFS_UnLinkDriverEx)
    FLASH_WaitForLastOperation               0x08009f5d   Thumb Code   122  stm32l0xx_hal_flash.o(i.FLASH_WaitForLastOperation)
    FLASH_initialize                         0x08009fdd   Thumb Code    24  flash_diskio.o(i.FLASH_initialize)
    FLASH_ioctl                              0x08009ff9   Thumb Code    54  flash_diskio.o(i.FLASH_ioctl)
    FLASH_read                               0x0800a035   Thumb Code    20  flash_diskio.o(i.FLASH_read)
    FLASH_status                             0x0800a049   Thumb Code    18  flash_diskio.o(i.FLASH_status)
    FLASH_write                              0x0800a061   Thumb Code    20  flash_diskio.o(i.FLASH_write)
    FilterAverageGet                         0x0800a075   Thumb Code   196  kalman.o(i.FilterAverageGet)
    FilterAverageInit                        0x0800a141   Thumb Code    10  kalman.o(i.FilterAverageInit)
    FilterAverageUpdate                      0x0800a14d   Thumb Code    78  kalman.o(i.FilterAverageUpdate)
    FilterKalmanGet                          0x0800a1a1   Thumb Code    40  kalman.o(i.FilterKalmanGet)
    FilterKalmanInit                         0x0800a1d1   Thumb Code   270  kalman.o(i.FilterKalmanInit)
    FilterKalmanUpdate                       0x0800a2fd   Thumb Code   304  kalman.o(i.FilterKalmanUpdate)
    FindToken                                0x0800a435   Thumb Code    38  utility.o(i.FindToken)
    GGC_APNSetting                           0x0800a45b   Thumb Code    10  gpsone.o(i.GGC_APNSetting)
    GGC_AlarmSetting                         0x0800a465   Thumb Code   358  gpsone.o(i.GGC_AlarmSetting)
    GGC_DeviceReset                          0x0800a649   Thumb Code     4  gpsone.o(i.GGC_DeviceReset)
    GGC_FuelCircuitControl                   0x0800a64d   Thumb Code    10  gpsone.o(i.GGC_FuelCircuitControl)
    GGC_FwUpdate                             0x0800a659   Thumb Code    74  gpsone.o(i.GGC_FwUpdate)
    GGC_GprsSettings                         0x0800a6b1   Thumb Code   232  gpsone.o(i.GGC_GprsSettings)
    GGC_Guard                                0x0800a79d   Thumb Code    96  gpsone.o(i.GGC_Guard)
    GGC_InitSMS                              0x0800a82d   Thumb Code    18  gpsone.o(i.GGC_InitSMS)
    GGC_PollPosition                         0x0800a845   Thumb Code     4  gpsone.o(i.GGC_PollPosition)
    GGC_Recover                              0x0800a849   Thumb Code    10  gpsone.o(i.GGC_Recover)
    GGC_Reset                                0x0800a853   Thumb Code     4  gpsone.o(i.GGC_Reset)
    GGC_SOSSetting                           0x0800a857   Thumb Code    10  gpsone.o(i.GGC_SOSSetting)
    GGC_ServerSetting                        0x0800a861   Thumb Code    10  gpsone.o(i.GGC_ServerSetting)
    GGC_SetInitialEnginer                    0x0800a86b   Thumb Code    10  gpsone.o(i.GGC_SetInitialEnginer)
    GGC_SetInitialMileage                    0x0800a875   Thumb Code    10  gpsone.o(i.GGC_SetInitialMileage)
    GGC_ShutDown                             0x0800a87f   Thumb Code     4  gpsone.o(i.GGC_ShutDown)
    GGC_StartTracking                        0x0800a885   Thumb Code    92  gpsone.o(i.GGC_StartTracking)
    GGC_StopTracking                         0x0800a8f5   Thumb Code     4  gpsone.o(i.GGC_StopTracking)
    GGC_Sync                                 0x0800a8f9   Thumb Code     4  gpsone.o(i.GGC_Sync)
    GGC_TimeZone                             0x0800a8fd   Thumb Code    60  gpsone.o(i.GGC_TimeZone)
    GGC_WorkMode                             0x0800a949   Thumb Code    10  gpsone.o(i.GGC_WorkMode)
    GGR_Command                              0x0800a955   Thumb Code    58  gpsone.o(i.GGR_Command)
    GGR_General                              0x0800a99d   Thumb Code    18  gpsone.o(i.GGR_General)
    GGR_GprsSettings                         0x0800a9b1   Thumb Code    68  gpsone.o(i.GGR_GprsSettings)
    GGR_PollPosition                         0x0800aa25   Thumb Code    96  gpsone.o(i.GGR_PollPosition)
    GGR_SendMessage                          0x0800aab9   Thumb Code     4  gpsone.o(i.GGR_SendMessage)
    GGR_Sync                                 0x0800aabd   Thumb Code   610  gpsone.o(i.GGR_Sync)
    GG_CheckCommand                          0x0800adf1   Thumb Code    70  gpsone.o(i.GG_CheckCommand)
    GG_ClearAllCounts                        0x0800ae39   Thumb Code    32  gpsone.o(i.GG_ClearAllCounts)
    GPRS_SET_M35                             0x0800ae5d   Thumb Code   124  gsm.o(i.GPRS_SET_M35)
    GPRS_SET_UG35                            0x0800af05   Thumb Code   148  gsm.o(i.GPRS_SET_UG35)
    GPRS_START_M35                           0x0800afc5   Thumb Code    16  gsm.o(i.GPRS_START_M35)
    GPRS_START_UG35                          0x0800afe5   Thumb Code    16  gsm.o(i.GPRS_START_UG35)
    GPRS_STOP_M35                            0x0800b009   Thumb Code    70  gsm.o(i.GPRS_STOP_M35)
    GPRS_STOP_UG35                           0x0800b069   Thumb Code    16  gsm.o(i.GPRS_STOP_UG35)
    GPRS_TCPCLOSE_M35                        0x0800b08d   Thumb Code    70  gsm.o(i.GPRS_TCPCLOSE_M35)
    GPRS_TCPCLOSE_UG35                       0x0800b0f1   Thumb Code    16  gsm.o(i.GPRS_TCPCLOSE_UG35)
    GetDistance                              0x0800b115   Thumb Code   198  gps.o(i.GetDistance)
    GpsDeInit                                0x0800b1e1   Thumb Code    34  gps.o(i.GpsDeInit)
    GpsGeneral_Init                          0x0800b209   Thumb Code     4  gps.o(i.GpsGeneral_Init)
    GpsInit                                  0x0800b20d   Thumb Code   116  gps.o(i.GpsInit)
    GpsNoData                                0x0800b305   Thumb Code    10  gps.o(i.GpsNoData)
    Gps_Ignore                               0x0800b315   Thumb Code    16  gps.o(i.Gps_Ignore)
    GsmAddTask                               0x0800b329   Thumb Code    28  gsm.o(i.GsmAddTask)
    GsmIMEI                                  0x0800b34d   Thumb Code     4  gsm.o(i.GsmIMEI)
    GsmInit                                  0x0800b355   Thumb Code   324  gsm.o(i.GsmInit)
    HAL_ADCEx_Calibration_Start              0x0800b4fd   Thumb Code   142  stm32l0xx_hal_adc_ex.o(i.HAL_ADCEx_Calibration_Start)
    HAL_ADC_ConfigChannel                    0x0800b58d   Thumb Code   140  stm32l0xx_hal_adc.o(i.HAL_ADC_ConfigChannel)
    HAL_ADC_GetState                         0x0800b621   Thumb Code     4  stm32l0xx_hal_adc.o(i.HAL_ADC_GetState)
    HAL_ADC_GetValue                         0x0800b625   Thumb Code     6  stm32l0xx_hal_adc.o(i.HAL_ADC_GetValue)
    HAL_ADC_Init                             0x0800b62d   Thumb Code   440  stm32l0xx_hal_adc.o(i.HAL_ADC_Init)
    HAL_ADC_MspInit                          0x0800b7f1   Thumb Code    50  stm32l0xx_hal_msp.o(i.HAL_ADC_MspInit)
    HAL_ADC_PollForConversion                0x0800b82d   Thumb Code   190  stm32l0xx_hal_adc.o(i.HAL_ADC_PollForConversion)
    HAL_ADC_Start                            0x0800b8ed   Thumb Code    86  stm32l0xx_hal_adc.o(i.HAL_ADC_Start)
    HAL_DMA_IRQHandler                       0x0800b949   Thumb Code   634  stm32l0xx_hal_dma.o(i.HAL_DMA_IRQHandler)
    HAL_Delay                                0x0800bbc9   Thumb Code    22  stm32l0xx_hal.o(i.HAL_Delay)
    HAL_FLASHEx_DATAEEPROM_Erase             0x0800bbe1   Thumb Code    30  stm32l0xx_hal_flash_ex.o(i.HAL_FLASHEx_DATAEEPROM_Erase)
    HAL_FLASHEx_DATAEEPROM_Lock              0x0800bc09   Thumb Code    14  stm32l0xx_hal_flash_ex.o(i.HAL_FLASHEx_DATAEEPROM_Lock)
    HAL_FLASHEx_DATAEEPROM_Program           0x0800bc1d   Thumb Code    76  stm32l0xx_hal_flash_ex.o(i.HAL_FLASHEx_DATAEEPROM_Program)
    HAL_FLASHEx_DATAEEPROM_Unlock            0x0800bc71   Thumb Code    24  stm32l0xx_hal_flash_ex.o(i.HAL_FLASHEx_DATAEEPROM_Unlock)
    HAL_FLASH_GetError                       0x0800bc95   Thumb Code     6  stm32l0xx_hal_flash.o(i.HAL_FLASH_GetError)
    HAL_GPIO_DeInit                          0x0800bca1   Thumb Code   212  stm32l0xx_hal_gpio.o(i.HAL_GPIO_DeInit)
    HAL_GPIO_EXTI_Callback                   0x0800bd91   Thumb Code    44  hardware.o(i.HAL_GPIO_EXTI_Callback)
    HAL_GPIO_EXTI_IRQHandler                 0x0800bdc5   Thumb Code    18  stm32l0xx_hal_gpio.o(i.HAL_GPIO_EXTI_IRQHandler)
    HAL_GPIO_Init                            0x0800bddd   Thumb Code   356  stm32l0xx_hal_gpio.o(i.HAL_GPIO_Init)
    HAL_GPIO_ReadPin                         0x0800bf61   Thumb Code    10  stm32l0xx_hal_gpio.o(i.HAL_GPIO_ReadPin)
    HAL_GPIO_WritePin                        0x0800bf6b   Thumb Code    12  stm32l0xx_hal_gpio.o(i.HAL_GPIO_WritePin)
    HAL_GetTick                              0x0800bf79   Thumb Code     6  stm32l0xx_hal.o(i.HAL_GetTick)
    HAL_I2CEx_ConfigAnalogFilter             0x0800bf85   Thumb Code    96  stm32l0xx_hal_i2c_ex.o(i.HAL_I2CEx_ConfigAnalogFilter)
    HAL_I2C_DeInit                           0x0800bfe5   Thumb Code    48  stm32l0xx_hal_i2c.o(i.HAL_I2C_DeInit)
    HAL_I2C_ER_IRQHandler                    0x0800c015   Thumb Code   110  stm32l0xx_hal_i2c.o(i.HAL_I2C_ER_IRQHandler)
    HAL_I2C_EV_IRQHandler                    0x0800c083   Thumb Code   290  stm32l0xx_hal_i2c.o(i.HAL_I2C_EV_IRQHandler)
    HAL_I2C_ErrorCallback                    0x0800c1a5   Thumb Code    18  hardware.o(i.HAL_I2C_ErrorCallback)
    HAL_I2C_GetError                         0x0800c1dd   Thumb Code     4  stm32l0xx_hal_i2c.o(i.HAL_I2C_GetError)
    HAL_I2C_GetState                         0x0800c1e1   Thumb Code     6  stm32l0xx_hal_i2c.o(i.HAL_I2C_GetState)
    HAL_I2C_Init                             0x0800c1e9   Thumb Code   158  stm32l0xx_hal_i2c.o(i.HAL_I2C_Init)
    HAL_I2C_MasterRxCpltCallback             0x0800c28d   Thumb Code     2  stm32l0xx_hal_i2c.o(i.HAL_I2C_MasterRxCpltCallback)
    HAL_I2C_MasterTxCpltCallback             0x0800c28f   Thumb Code     2  stm32l0xx_hal_i2c.o(i.HAL_I2C_MasterTxCpltCallback)
    HAL_I2C_Master_Receive_IT                0x0800c291   Thumb Code   132  stm32l0xx_hal_i2c.o(i.HAL_I2C_Master_Receive_IT)
    HAL_I2C_Master_Transmit_IT               0x0800c315   Thumb Code   132  stm32l0xx_hal_i2c.o(i.HAL_I2C_Master_Transmit_IT)
    HAL_I2C_MemRxCpltCallback                0x0800c399   Thumb Code     2  stm32l0xx_hal_i2c.o(i.HAL_I2C_MemRxCpltCallback)
    HAL_I2C_MemTxCpltCallback                0x0800c39b   Thumb Code     2  stm32l0xx_hal_i2c.o(i.HAL_I2C_MemTxCpltCallback)
    HAL_I2C_MspDeInit                        0x0800c39d   Thumb Code    50  stm32l0xx_hal_msp.o(i.HAL_I2C_MspDeInit)
    HAL_I2C_MspInit                          0x0800c3d5   Thumb Code   120  stm32l0xx_hal_msp.o(i.HAL_I2C_MspInit)
    HAL_I2C_SlaveRxCpltCallback              0x0800c451   Thumb Code     2  stm32l0xx_hal_i2c.o(i.HAL_I2C_SlaveRxCpltCallback)
    HAL_I2C_SlaveTxCpltCallback              0x0800c453   Thumb Code     2  stm32l0xx_hal_i2c.o(i.HAL_I2C_SlaveTxCpltCallback)
    HAL_IncTick                              0x0800c455   Thumb Code    10  stm32l0xx_hal.o(i.HAL_IncTick)
    HAL_Init                                 0x0800c465   Thumb Code    26  stm32l0xx_hal.o(i.HAL_Init)
    HAL_InitTick                             0x0800c485   Thumb Code    34  stm32l0xx_hal.o(i.HAL_InitTick)
    HAL_MspInit                              0x0800c4a7   Thumb Code     2  stm32l0xx_hal.o(i.HAL_MspInit)
    HAL_NVIC_DisableIRQ                      0x0800c4a9   Thumb Code    14  stm32l0xx_hal_cortex.o(i.HAL_NVIC_DisableIRQ)
    HAL_NVIC_EnableIRQ                       0x0800c4bd   Thumb Code    14  stm32l0xx_hal_cortex.o(i.HAL_NVIC_EnableIRQ)
    HAL_NVIC_SetPriority                     0x0800c4d1   Thumb Code     8  stm32l0xx_hal_cortex.o(i.HAL_NVIC_SetPriority)
    HAL_NVIC_SystemReset                     0x0800c4d9   Thumb Code    18  stm32l0xx_hal_cortex.o(i.HAL_NVIC_SystemReset)
    HAL_PWR_EnterSLEEPMode                   0x0800c4f5   Thumb Code    38  stm32l0xx_hal_pwr.o(i.HAL_PWR_EnterSLEEPMode)
    HAL_PWR_EnterSTOPMode                    0x0800c525   Thumb Code    44  stm32l0xx_hal_pwr.o(i.HAL_PWR_EnterSTOPMode)
    HAL_RCCEx_PeriphCLKConfig                0x0800c559   Thumb Code   338  stm32l0xx_hal_rcc_ex.o(i.HAL_RCCEx_PeriphCLKConfig)
    HAL_RCC_ClockConfig                      0x0800c6b9   Thumb Code   320  stm32l0xx_hal_rcc.o(i.HAL_RCC_ClockConfig)
    HAL_RCC_GetHCLKFreq                      0x0800c805   Thumb Code    26  stm32l0xx_hal_rcc.o(i.HAL_RCC_GetHCLKFreq)
    HAL_RCC_GetPCLK1Freq                     0x0800c82d   Thumb Code    22  stm32l0xx_hal_rcc.o(i.HAL_RCC_GetPCLK1Freq)
    HAL_RCC_GetPCLK2Freq                     0x0800c84d   Thumb Code    22  stm32l0xx_hal_rcc.o(i.HAL_RCC_GetPCLK2Freq)
    HAL_RCC_GetSysClockFreq                  0x0800c86d   Thumb Code   108  stm32l0xx_hal_rcc.o(i.HAL_RCC_GetSysClockFreq)
    HAL_RCC_OscConfig                        0x0800c8f1   Thumb Code   928  stm32l0xx_hal_rcc.o(i.HAL_RCC_OscConfig)
    HAL_RTCEx_WakeUpTimerEventCallback       0x0800cca5   Thumb Code    44  hardware.o(i.HAL_RTCEx_WakeUpTimerEventCallback)
    HAL_RTCEx_WakeUpTimerIRQHandler          0x0800ccd9   Thumb Code    48  stm32l0xx_hal_rtc_ex.o(i.HAL_RTCEx_WakeUpTimerIRQHandler)
    HAL_RTC_DeInit                           0x0800cd11   Thumb Code   200  stm32l0xx_hal_rtc.o(i.HAL_RTC_DeInit)
    HAL_RTC_GetDate                          0x0800cde5   Thumb Code    68  stm32l0xx_hal_rtc.o(i.HAL_RTC_GetDate)
    HAL_RTC_GetTime                          0x0800ce29   Thumb Code    88  stm32l0xx_hal_rtc.o(i.HAL_RTC_GetTime)
    HAL_RTC_Init                             0x0800ce85   Thumb Code   160  stm32l0xx_hal_rtc.o(i.HAL_RTC_Init)
    HAL_RTC_MspDeInit                        0x0800cf29   Thumb Code    14  stm32l0xx_hal_msp.o(i.HAL_RTC_MspDeInit)
    HAL_RTC_MspInit                          0x0800cf3d   Thumb Code    88  stm32l0xx_hal_msp.o(i.HAL_RTC_MspInit)
    HAL_RTC_SetDate                          0x0800cf99   Thumb Code   200  stm32l0xx_hal_rtc.o(i.HAL_RTC_SetDate)
    HAL_RTC_SetTime                          0x0800d065   Thumb Code   234  stm32l0xx_hal_rtc.o(i.HAL_RTC_SetTime)
    HAL_RTC_WaitForSynchro                   0x0800d155   Thumb Code    52  stm32l0xx_hal_rtc.o(i.HAL_RTC_WaitForSynchro)
    HAL_SPI_DeInit                           0x0800d189   Thumb Code    48  stm32l0xx_hal_spi.o(i.HAL_SPI_DeInit)
    HAL_SPI_ErrorCallback                    0x0800d1b9   Thumb Code     8  hardware.o(i.HAL_SPI_ErrorCallback)
    HAL_SPI_IRQHandler                       0x0800d1c5   Thumb Code   194  stm32l0xx_hal_spi.o(i.HAL_SPI_IRQHandler)
    HAL_SPI_Init                             0x0800d287   Thumb Code   132  stm32l0xx_hal_spi.o(i.HAL_SPI_Init)
    HAL_SPI_MspDeInit                        0x0800d30d   Thumb Code    62  stm32l0xx_hal_msp.o(i.HAL_SPI_MspDeInit)
    HAL_SPI_MspInit                          0x0800d359   Thumb Code   132  stm32l0xx_hal_msp.o(i.HAL_SPI_MspInit)
    HAL_SPI_RxCpltCallback                   0x0800d3e9   Thumb Code     2  stm32l0xx_hal_spi.o(i.HAL_SPI_RxCpltCallback)
    HAL_SPI_TransmitReceive_IT               0x0800d3ed   Thumb Code   154  stm32l0xx_hal_spi.o(i.HAL_SPI_TransmitReceive_IT)
    HAL_SPI_TxCpltCallback                   0x0800d491   Thumb Code     2  stm32l0xx_hal_spi.o(i.HAL_SPI_TxCpltCallback)
    HAL_SPI_TxRxCpltCallback                 0x0800d495   Thumb Code     8  hardware.o(i.HAL_SPI_TxRxCpltCallback)
    HAL_SYSTICK_Config                       0x0800d4a1   Thumb Code    38  stm32l0xx_hal_cortex.o(i.HAL_SYSTICK_Config)
    HAL_UARTEx_WakeupCallback                0x0800d4d1   Thumb Code     2  stm32l0xx_hal_uart_ex.o(i.HAL_UARTEx_WakeupCallback)
    HAL_UART_DeInit                          0x0800d4d3   Thumb Code    60  stm32l0xx_hal_uart.o(i.HAL_UART_DeInit)
    HAL_UART_ErrorCallback                   0x0800d50f   Thumb Code     2  hardware.o(i.HAL_UART_ErrorCallback)
    HAL_UART_IRQHandler                      0x0800d511   Thumb Code   240  stm32l0xx_hal_uart.o(i.HAL_UART_IRQHandler)
    HAL_UART_Init                            0x0800d601   Thumb Code   104  stm32l0xx_hal_uart.o(i.HAL_UART_Init)
    HAL_UART_MspDeInit                       0x0800d669   Thumb Code   180  stm32l0xx_hal_msp.o(i.HAL_UART_MspDeInit)
    HAL_UART_MspInit                         0x0800d735   Thumb Code   368  stm32l0xx_hal_msp.o(i.HAL_UART_MspInit)
    HAL_UART_Receive                         0x0800d8bd   Thumb Code   238  stm32l0xx_hal_uart.o(i.HAL_UART_Receive)
    HAL_UART_Receive_IT                      0x0800d9b1   Thumb Code   160  stm32l0xx_hal_uart.o(i.HAL_UART_Receive_IT)
    HAL_UART_RxCpltCallback                  0x0800da55   Thumb Code    72  hardware.o(i.HAL_UART_RxCpltCallback)
    HAL_UART_Transmit                        0x0800dab1   Thumb Code   186  stm32l0xx_hal_uart.o(i.HAL_UART_Transmit)
    HAL_UART_Transmit_IT                     0x0800db6b   Thumb Code   100  stm32l0xx_hal_uart.o(i.HAL_UART_Transmit_IT)
    HAL_UART_TxCpltCallback                  0x0800dbcf   Thumb Code     2  hardware.o(i.HAL_UART_TxCpltCallback)
    HAL_WWDG_DeInit                          0x0800dbd1   Thumb Code    70  stm32l0xx_hal_wwdg.o(i.HAL_WWDG_DeInit)
    HAL_WWDG_Init                            0x0800dc17   Thumb Code    86  stm32l0xx_hal_wwdg.o(i.HAL_WWDG_Init)
    HAL_WWDG_MspDeInit                       0x0800dc6d   Thumb Code    18  stm32l0xx_hal_msp.o(i.HAL_WWDG_MspDeInit)
    HAL_WWDG_MspInit                         0x0800dc85   Thumb Code    12  stm32l0xx_hal_msp.o(i.HAL_WWDG_MspInit)
    HAL_WWDG_Refresh                         0x0800dc95   Thumb Code    16  stm32l0xx_hal_wwdg.o(i.HAL_WWDG_Refresh)
    HAL_WWDG_Start                           0x0800dca5   Thumb Code    40  stm32l0xx_hal_wwdg.o(i.HAL_WWDG_Start)
    HardFault_Handler                        0x0800dccd   Thumb Code     2  stm32l0xx_it.o(i.HardFault_Handler)
    HardwareInit                             0x0800dccf   Thumb Code    26  main.o(i.HardwareInit)
    I2C1_IRQHandler                          0x0800dce9   Thumb Code    16  stm32l0xx_it.o(i.I2C1_IRQHandler)
    LpUartInit                               0x0800e0a9   Thumb Code   126  work.o(i.LpUartInit)
    Max3                                     0x0800e18d   Thumb Code    54  gsensor.o(i.Max3)
    NMI_Handler                              0x0800e1c3   Thumb Code     2  stm32l0xx_it.o(i.NMI_Handler)
    NextToken                                0x0800e24d   Thumb Code    22  utility.o(i.NextToken)
    NmeaAddChecksum                          0x0800e265   Thumb Code    40  utility.o(i.NmeaAddChecksum)
    Normal_Power_Run                         0x0800e291   Thumb Code    58  work.o(i.Normal_Power_Run)
    PostSleepProcessing                      0x0800e2e9   Thumb Code     2  main.o(i.PostSleepProcessing)
    PreSleepProcessing                       0x0800e2eb   Thumb Code    16  main.o(i.PreSleepProcessing)
    ProcessGpsGateCommand                    0x0800e2fd   Thumb Code   202  gpsone.o(i.ProcessGpsGateCommand)
    RTC_Bcd2ToByte                           0x0800e3ed   Thumb Code    16  stm32l0xx_hal_rtc.o(i.RTC_Bcd2ToByte)
    RTC_ByteToBcd2                           0x0800e3fd   Thumb Code    22  stm32l0xx_hal_rtc.o(i.RTC_ByteToBcd2)
    RTC_Config                               0x0800e415   Thumb Code    58  work.o(i.RTC_Config)
    RTC_EnterInitMode                        0x0800e47d   Thumb Code    56  stm32l0xx_hal_rtc.o(i.RTC_EnterInitMode)
    RTC_INIT_SUCCESS                         0x0800e4b5   Thumb Code     6  work.o(i.RTC_INIT_SUCCESS)
    RTC_IRQHandler                           0x0800e4c1   Thumb Code    10  stm32l0xx_it.o(i.RTC_IRQHandler)
    RTC_TIME                                 0x0800e4d1   Thumb Code   122  work.o(i.RTC_TIME)
    RTC_TimeShow                             0x0800e5bd   Thumb Code    28  work.o(i.RTC_TimeShow)
    SPI2_IRQHandler                          0x0800e5dd   Thumb Code    10  stm32l0xx_it.o(i.SPI2_IRQHandler)
    SPI_FLASH_BufferRead                     0x0800e61d   Thumb Code    80  spi_flash.o(i.SPI_FLASH_BufferRead)
    SPI_FLASH_Init                           0x0800e671   Thumb Code    88  spi_flash.o(i.SPI_FLASH_Init)
    SPI_FLASH_PageWrite                      0x0800e715   Thumb Code    86  spi_flash.o(i.SPI_FLASH_PageWrite)
    SPI_FLASH_SectorErase                    0x0800e771   Thumb Code    64  spi_flash.o(i.SPI_FLASH_SectorErase)
    SPI_FLASH_SendBuff                       0x0800e7b5   Thumb Code    28  spi_flash.o(i.SPI_FLASH_SendBuff)
    SPI_FLASH_SendByte                       0x0800e7d9   Thumb Code    38  spi_flash.o(i.SPI_FLASH_SendByte)
    SPI_FLASH_WaitForWriteEnd                0x0800e809   Thumb Code    46  spi_flash.o(i.SPI_FLASH_WaitForWriteEnd)
    SPI_FLASH_WriteEnable                    0x0800e83d   Thumb Code    36  spi_flash.o(i.SPI_FLASH_WriteEnable)
    STRCPY                                   0x0800eab3   Thumb Code    14  config_file.o(i.STRCPY)
    SVC_Handler                              0x0800eac1   Thumb Code     2  port.o(i.SVC_Handler)
    ShowError                                0x0800eac5   Thumb Code    86  main.o(i.ShowError)
    ShowFatalError                           0x0800eb25   Thumb Code    12  main.o(i.ShowFatalError)
    ShowFatalErrorOnly                       0x0800eb31   Thumb Code    84  main.o(i.ShowFatalErrorOnly)
    Stop                                     0x0800eb8d   Thumb Code    82  work.o(i.Stop)
    SysTick_Handler                          0x0800ebfd   Thumb Code    12  stm32l0xx_it.o(i.SysTick_Handler)
    SystemClock_Config                       0x0800ec09   Thumb Code   120  main.o(i.SystemClock_Config)
    SystemInit                               0x0800ec89   Thumb Code    66  system_stm32l0xx.o(i.SystemInit)
    SystemRestart                            0x0800ece1   Thumb Code    12  main.o(i.SystemRestart)
    TCP_OPEN_M35                             0x0800eced   Thumb Code   186  gsm.o(i.TCP_OPEN_M35)
    TCP_OPEN_UG35                            0x0800ede9   Thumb Code   364  gsm.o(i.TCP_OPEN_UG35)
    TCP_SEND_M35                             0x0800ef8d   Thumb Code    42  gsm.o(i.TCP_SEND_M35)
    TCP_SEND_UG35                            0x0800efd5   Thumb Code    44  gsm.o(i.TCP_SEND_UG35)
    TokenBefore                              0x0800f01d   Thumb Code    52  utility.o(i.TokenBefore)
    TokenNextComma                           0x0800f051   Thumb Code    32  utility.o(i.TokenNextComma)
    TokenSizeComma                           0x0800f071   Thumb Code    34  utility.o(i.TokenSizeComma)
    UART_AdvFeatureConfig                    0x0800f093   Thumb Code   202  stm32l0xx_hal_uart.o(i.UART_AdvFeatureConfig)
    UART_CheckIdleState                      0x0800f15d   Thumb Code    80  stm32l0xx_hal_uart.o(i.UART_CheckIdleState)
    UART_SetConfig                           0x0800f245   Thumb Code   484  stm32l0xx_hal_uart.o(i.UART_SetConfig)
    UART_WaitOnFlagUntilTimeout              0x0800f4c7   Thumb Code   174  stm32l0xx_hal_uart.o(i.UART_WaitOnFlagUntilTimeout)
    USART2_IRQHandler                        0x0800f575   Thumb Code    10  hardware.o(i.USART2_IRQHandler)
    USART4_5_IRQHandler                      0x0800f585   Thumb Code    18  hardware.o(i.USART4_5_IRQHandler)
    __0printf                                0x0800f59d   Thumb Code    24  printfa.o(i.__0printf)
    __1printf                                0x0800f59d   Thumb Code     0  printfa.o(i.__0printf)
    __2printf                                0x0800f59d   Thumb Code     0  printfa.o(i.__0printf)
    __c89printf                              0x0800f59d   Thumb Code     0  printfa.o(i.__0printf)
    printf                                   0x0800f59d   Thumb Code     0  printfa.o(i.__0printf)
    __0sprintf                               0x0800f5bd   Thumb Code    36  printfa.o(i.__0sprintf)
    __1sprintf                               0x0800f5bd   Thumb Code     0  printfa.o(i.__0sprintf)
    __2sprintf                               0x0800f5bd   Thumb Code     0  printfa.o(i.__0sprintf)
    __c89sprintf                             0x0800f5bd   Thumb Code     0  printfa.o(i.__0sprintf)
    sprintf                                  0x0800f5bd   Thumb Code     0  printfa.o(i.__0sprintf)
    __ARM_clz                                0x0800f5e5   Thumb Code    46  depilogue.o(i.__ARM_clz)
    __ARM_common_ll_muluu                    0x0800f613   Thumb Code    50  rred.o(i.__ARM_common_ll_muluu)
    __ARM_common_switch8                     0x0800f645   Thumb Code    26  work.o(i.__ARM_common_switch8)
    __ARM_fpclassify                         0x0800f661   Thumb Code    40  fpclassify.o(i.__ARM_fpclassify)
    __aeabi_errno_addr                       0x0800f68d   Thumb Code     4  errno.o(i.__aeabi_errno_addr)
    __rt_errno_addr                          0x0800f68d   Thumb Code     0  errno.o(i.__aeabi_errno_addr)
    __ieee754_rem_pio2                       0x0800f695   Thumb Code   838  rred.o(i.__ieee754_rem_pio2)
    __kernel_cos                             0x0800fa31   Thumb Code   224  cos_i.o(i.__kernel_cos)
    __kernel_poly                            0x0800fb25   Thumb Code   172  poly.o(i.__kernel_poly)
    __kernel_sin                             0x0800fbd1   Thumb Code   222  sin_i.o(i.__kernel_sin)
    __mathlib_dbl_divzero                    0x0800fcbd   Thumb Code    16  dunder.o(i.__mathlib_dbl_divzero)
    __mathlib_dbl_infnan                     0x0800fcd1   Thumb Code    10  dunder.o(i.__mathlib_dbl_infnan)
    __mathlib_dbl_infnan2                    0x0800fcdb   Thumb Code     8  dunder.o(i.__mathlib_dbl_infnan2)
    __mathlib_dbl_invalid                    0x0800fce3   Thumb Code    16  dunder.o(i.__mathlib_dbl_invalid)
    __mathlib_dbl_overflow                   0x0800fcf5   Thumb Code    16  dunder.o(i.__mathlib_dbl_overflow)
    __mathlib_dbl_underflow                  0x0800fd09   Thumb Code    14  dunder.o(i.__mathlib_dbl_underflow)
    __read_errno                             0x0800fd1d   Thumb Code     6  errno.o(i.__read_errno)
    __scatterload_copy                       0x0800fd29   Thumb Code    14  handlers.o(i.__scatterload_copy)
    __scatterload_null                       0x0800fd37   Thumb Code     2  handlers.o(i.__scatterload_null)
    __scatterload_zeroinit                   0x0800fd39   Thumb Code    14  handlers.o(i.__scatterload_zeroinit)
    __set_errno                              0x0800fd49   Thumb Code     6  errno.o(i.__set_errno)
    _is_digit                                0x0800fead   Thumb Code    14  scanf_fp.o(i._is_digit)
    _nmea_parse_time                         0x0800febd   Thumb Code    98  parse.o(i._nmea_parse_time)
    accEvent                                 0x08010681   Thumb Code    46  gsm.o(i.accEvent)
    acc_signal                               0x080106b5   Thumb Code   246  work.o(i.acc_signal)
    accon_INT                                0x080108bd   Thumb Code    66  hardware.o(i.accon_INT)
    action                                   0x0801090d   Thumb Code    78  main.o(i.action)
    add_matrix                               0x080109bd   Thumb Code    80  matrix.o(i.add_matrix)
    adjust_timezone_time                     0x08010a0d   Thumb Code   320  gpsone.o(i.adjust_timezone_time)
    alarm_state                              0x08010b5d   Thumb Code    60  work.o(i.alarm_state)
    asin                                     0x08010b9d   Thumb Code   574  asin.o(i.asin)
    atCommand                                0x08010e11   Thumb Code   112  gsm.o(i.atCommand)
    atof                                     0x08010ef9   Thumb Code    42  atof.o(i.atof)
    batterylowEvent                          0x08010f25   Thumb Code    46  gsm.o(i.batterylowEvent)
    calc_gvalue                              0x08010f65   Thumb Code    68  gsensor.o(i.calc_gvalue)
    calculate_whole_enginhour                0x08010fad   Thumb Code    46  gps.o(i.calculate_whole_enginhour)
    calculate_whole_mileage                  0x08010fe9   Thumb Code   104  gps.o(i.calculate_whole_mileage)
    closeFile                                0x080111cd   Thumb Code    34  config_file.o(i.closeFile)
    clust2sect                               0x08011211   Thumb Code    30  ff.o(i.clust2sect)
    configFileDebugEnable                    0x08011231   Thumb Code     6  config_file.o(i.configFileDebugEnable)
    configReg                                0x0801123d   Thumb Code   114  gsensor.o(i.configReg)
    convert_lat_lng_string_to_double         0x080112b1   Thumb Code   226  gps.o(i.convert_lat_lng_string_to_double)
    cos                                      0x0801139d   Thumb Code   142  cos.o(i.cos)
    create_sw_conf_table                     0x080115fd   Thumb Code   126  config_file.o(i.create_sw_conf_table)
    createfile                               0x08011691   Thumb Code    38  config_file.o(i.createfile)
    cutdetectlowEvent                        0x080116d9   Thumb Code    46  gsm.o(i.cutdetectlowEvent)
    deInitWWDG                               0x08011719   Thumb Code    28  hardware.o(i.deInitWWDG)
    delete_sw_conf                           0x0801179d   Thumb Code    28  config_file.o(i.delete_sw_conf)
    delete_sw_conf_noReset                   0x080117b9   Thumb Code    20  config_file.o(i.delete_sw_conf_noReset)
    deletefile                               0x080117cd   Thumb Code    32  config_file.o(i.deletefile)
    destructive_invert_matrix                0x08011811   Thumb Code   240  matrix.o(i.destructive_invert_matrix)
    disk_initialize                          0x08011bc1   Thumb Code    38  diskio.o(i.disk_initialize)
    disk_ioctl                               0x08011bed   Thumb Code    24  diskio.o(i.disk_ioctl)
    disk_read                                0x08011c09   Thumb Code    24  diskio.o(i.disk_read)
    disk_status                              0x08011c25   Thumb Code    18  diskio.o(i.disk_status)
    disk_write                               0x08011c3d   Thumb Code    24  diskio.o(i.disk_write)
    doSendCommand                            0x08011c59   Thumb Code  1568  gsm.o(i.doSendCommand)
    eTaskConfirmSleepModeStatus              0x080125ad   Thumb Code    40  tasks.o(i.eTaskConfirmSleepModeStatus)
    ehEvent                                  0x080125dd   Thumb Code    64  gsm.o(i.ehEvent)
    f_close                                  0x08012629   Thumb Code    44  ff.o(i.f_close)
    f_lseek                                  0x08012655   Thumb Code   610  ff.o(i.f_lseek)
    f_mkfs                                   0x080128b9   Thumb Code  1322  ff.o(i.f_mkfs)
    f_mount                                  0x08012de5   Thumb Code    90  ff.o(i.f_mount)
    f_open                                   0x08012e45   Thumb Code   426  ff.o(i.f_open)
    f_read                                   0x08012ff5   Thumb Code   378  ff.o(i.f_read)
    f_sync                                   0x08013175   Thumb Code   168  ff.o(i.f_sync)
    f_unlink                                 0x0801321d   Thumb Code   182  ff.o(i.f_unlink)
    f_write                                  0x080132d5   Thumb Code   434  ff.o(i.f_write)
    fabs_g                                   0x0801348d   Thumb Code    16  gsensor.o(i.fabs_g)
    fatfsUnLink                              0x0801349d   Thumb Code    10  config_file.o(i.fatfsUnLink)
    fileSystem                               0x080134ad   Thumb Code   148  config_file.o(i.fileSystem)
    flash_eeprom                             0x080138d9   Thumb Code   206  eeprom.o(i.flash_eeprom)
    floor                                    0x08013a21   Thumb Code   180  floor.o(i.floor)
    fputc                                    0x08013bb1   Thumb Code    46  debug.o(i.fputc)
    frame                                    0x08013bf1   Thumb Code   348  gsm.o(i.frame)
    gJumpToApplication                       0x08013d5d   Thumb Code    20  gsm.o(i.gJumpToApplication)
    g_sensor_get_info                        0x08013d75   Thumb Code    64  gsensor.o(i.g_sensor_get_info)
    g_sensor_read                            0x08013dc5   Thumb Code     8  gsensor.o(i.g_sensor_read)
    getADCVolt                               0x08013dcd   Thumb Code    40  work.o(i.getADCVolt)
    getADCVolt_v                             0x08013e0d   Thumb Code    40  work.o(i.getADCVolt_v)
    getCutStatus                             0x08013e45   Thumb Code     8  work.o(i.getCutStatus)
    getEnginHour                             0x08013e51   Thumb Code     6  gps.o(i.getEnginHour)
    getGPRMCData                             0x08013e5d   Thumb Code    18  gps.o(i.getGPRMCData)
    getGpsSleep                              0x08013e75   Thumb Code     6  gps.o(i.getGpsSleep)
    getGsmSleep                              0x08013e81   Thumb Code     6  gsm.o(i.getGsmSleep)
    getMainActionDone                        0x08013e8d   Thumb Code     6  main.o(i.getMainActionDone)
    getMileage                               0x08013e99   Thumb Code     6  gps.o(i.getMileage)
    getOta                                   0x08013ea5   Thumb Code     4  gpsone.o(i.getOta)
    getReadData                              0x08013ead   Thumb Code     4  config_file.o(i.getReadData)
    getSigalQuality                          0x08013eb5   Thumb Code     4  gsm.o(i.getSigalQuality)
    getSignal                                0x08013ebd   Thumb Code    10  gsm.o(i.getSignal)
    getSmsNumber                             0x08013ecd   Thumb Code    74  gpsone.o(i.getSmsNumber)
    getTCPConState                           0x08013f55   Thumb Code    12  gsm.o(i.getTCPConState)
    getWriteFilepStatus                      0x08013f65   Thumb Code     6  config_file.o(i.getWriteFilepStatus)
    get_conf_elem                            0x08013f71   Thumb Code    34  config_file.o(i.get_conf_elem)
    get_fat                                  0x08013f99   Thumb Code   204  ff.o(i.get_fat)
    get_fattime                              0x08014065   Thumb Code     4  diskio.o(i.get_fattime)
    getfilesize                              0x080140a5   Thumb Code    38  config_file.o(i.getfilesize)
    getresetIndex                            0x080140f1   Thumb Code     8  gpsone.o(i.getresetIndex)
    ggFindCommand                            0x080140fd   Thumb Code    38  gpsone.o(i.ggFindCommand)
    gpio_wakeup                              0x08014125   Thumb Code   244  work.o(i.gpio_wakeup)
    gpsCheckTypeInit                         0x08014225   Thumb Code    10  gps.o(i.gpsCheckTypeInit)
    gpsData                                  0x08014231   Thumb Code   214  gps.o(i.gpsData)
    gpsDataLogEnable                         0x0801430d   Thumb Code     6  gps.o(i.gpsDataLogEnable)
    gpsDebugEnable                           0x08014319   Thumb Code     6  gps.o(i.gpsDebugEnable)
    gpsLedOff                                0x08014325   Thumb Code    60  work.o(i.gpsLedOff)
    gpsLedOn                                 0x08014365   Thumb Code    60  work.o(i.gpsLedOn)
    gpsLedToggle                             0x080143a5   Thumb Code    76  work.o(i.gpsLedToggle)
    gpsOneDebugEnable                        0x080143f5   Thumb Code     6  gpsone.o(i.gpsOneDebugEnable)
    gpsPowerOff                              0x08014401   Thumb Code    60  gps.o(i.gpsPowerOff)
    gpsPowerOn                               0x08014445   Thumb Code    60  gps.o(i.gpsPowerOn)
    gpsWaitComplete                          0x08014489   Thumb Code    60  gps.o(i.gpsWaitComplete)
    gsensor_INT                              0x080144c5   Thumb Code    66  hardware.o(i.gsensor_INT)
    gsensor_detect                           0x08014515   Thumb Code   112  gsensor.o(i.gsensor_detect)
    gsenssorDebugEnable                      0x0801458d   Thumb Code     6  gsensor.o(i.gsenssorDebugEnable)
    gsmATDebugEnable                         0x08014599   Thumb Code     6  gsm.o(i.gsmATDebugEnable)
    gsmCheckPIN                              0x080145a5   Thumb Code    60  gsm.o(i.gsmCheckPIN)
    gsmCmd0                                  0x080145e5   Thumb Code    16  gsm.o(i.gsmCmd0)
    gsmCmd1                                  0x080145f5   Thumb Code    12  gsm.o(i.gsmCmd1)
    gsmCmd2                                  0x08014601   Thumb Code    92  gsm.o(i.gsmCmd2)
    gsmConnectTCP                            0x08014665   Thumb Code   198  gsm.o(i.gsmConnectTCP)
    gsmDTRLow                                0x08014749   Thumb Code    58  gsm.o(i.gsmDTRLow)
    gsmData                                  0x0801478d   Thumb Code   368  gsm.o(i.gsmData)
    gsmDebugEnable                           0x08014911   Thumb Code     6  gsm.o(i.gsmDebugEnable)
    gsmDeleteSMS                             0x0801491d   Thumb Code    28  gsm.o(i.gsmDeleteSMS)
    gsmDisconnectTCP                         0x0801494d   Thumb Code    88  gsm.o(i.gsmDisconnectTCP)
    gsmGetFileFTP_M35                        0x080149b5   Thumb Code   362  gsm.o(i.gsmGetFileFTP_M35)
    gsmGetFileFTP_UG35                       0x08014b29   Thumb Code   180  gsm.o(i.gsmGetFileFTP_UG35)
    gsmGetHostLine                           0x08014be1   Thumb Code   116  gsm.o(i.gsmGetHostLine)
    gsmHostUndefine                          0x08014c59   Thumb Code    16  gsm.o(i.gsmHostUndefine)
    gsmIsRegister                            0x08014c6d   Thumb Code   124  gsm.o(i.gsmIsRegister)
    gsmLedOff                                0x08014ced   Thumb Code    60  work.o(i.gsmLedOff)
    gsmLedOn                                 0x08014d31   Thumb Code    60  work.o(i.gsmLedOn)
    gsmLedToggle                             0x08014d75   Thumb Code    76  work.o(i.gsmLedToggle)
    gsmPowerOff                              0x08014dc9   Thumb Code    96  gsm.o(i.gsmPowerOff)
    gsmPowerOn                               0x08014e2d   Thumb Code   190  gsm.o(i.gsmPowerOn)
    gsmProcessHostResponse                   0x08014ef9   Thumb Code   544  gsm.o(i.gsmProcessHostResponse)
    gsmRtsLow                                0x08015211   Thumb Code    60  gsm.o(i.gsmRtsLow)
    gsmRxFlush                               0x08015251   Thumb Code    46  gsm.o(i.gsmRxFlush)
    gsmSaveSMS                               0x08015289   Thumb Code    66  gsm.o(i.gsmSaveSMS)
    gsmScanSMS                               0x080152f1   Thumb Code   148  gsm.o(i.gsmScanSMS)
    gsmScanSMSInt                            0x080153e9   Thumb Code   582  gsm.o(i.gsmScanSMSInt)
    gsmSend                                  0x080156d5   Thumb Code    54  gsm.o(i.gsmSend)
    gsmSendSMS                               0x08015741   Thumb Code    66  gsm.o(i.gsmSendSMS)
    gsmSendTaskCommand                       0x080157a9   Thumb Code  1882  gsm.o(i.gsmSendTaskCommand)
    gsmSenderDAnumber                        0x08015fc1   Thumb Code     4  gsm.o(i.gsmSenderDAnumber)
    gsmShowError                             0x08015fc9   Thumb Code   164  gsm.o(i.gsmShowError)
    gsmShowResponse                          0x08016115   Thumb Code    30  gsm.o(i.gsmShowResponse)
    gsmToken                                 0x08016149   Thumb Code    26  gsm.o(i.gsmToken)
    gsmWaitNetwork                           0x08016169   Thumb Code   154  gsm.o(i.gsmWaitNetwork)
    gsmWaitRegister                          0x08016215   Thumb Code    96  gsm.o(i.gsmWaitRegister)
    handleSmsCommand                         0x08016275   Thumb Code  1722  gpsone.o(i.handleSmsCommand)
    handle_filedata                          0x0801698d   Thumb Code   198  gsm.o(i.handle_filedata)
    inEvent                                  0x08016c25   Thumb Code    28  gsm.o(i.inEvent)
    in_signal                                0x08016c45   Thumb Code   188  work.o(i.in_signal)
    initEH                                   0x08016e29   Thumb Code    42  gps.o(i.initEH)
    initGprsParameter                        0x08016e81   Thumb Code   218  gpsone.o(i.initGprsParameter)
    initGpsUartHandle                        0x08016f91   Thumb Code    30  gps.o(i.initGpsUartHandle)
    initGsensor                              0x08016fb9   Thumb Code   124  gsensor.o(i.initGsensor)
    initGsmUart                              0x080170cd   Thumb Code    78  gsm.o(i.initGsmUart)
    initML                                   0x0801719d   Thumb Code    56  gps.o(i.initML)
    initSpi                                  0x08017219   Thumb Code   108  hardware.o(i.initSpi)
    initWWDG                                 0x08017291   Thumb Code    70  hardware.o(i.initWWDG)
    init_matrix                              0x08017309   Thumb Code    30  matrix.o(i.init_matrix)
    init_sw_conf_table                       0x08017329   Thumb Code   176  config_file.o(i.init_sw_conf_table)
    isAccOn                                  0x08017401   Thumb Code     6  work.o(i.isAccOn)
    isSosNumber                              0x0801740d   Thumb Code    90  gpsone.o(i.isSosNumber)
    itoa                                     0x080174a5   Thumb Code   106  utility.o(i.itoa)
    itoa16                                   0x08017515   Thumb Code    98  utility.o(i.itoa16)
    led_state                                0x080175bd   Thumb Code    56  work.o(i.led_state)
    led_state_off                            0x080175f9   Thumb Code    84  work.o(i.led_state_off)
    ledoff                                   0x08017651   Thumb Code   130  work.o(i.ledoff)
    low_power_pins                           0x080176dd   Thumb Code   870  work.o(i.low_power_pins)
    lpUartReceiveHandle                      0x08017a55   Thumb Code    62  work.o(i.lpUartReceiveHandle)
    main                                     0x08017ab9   Thumb Code    16  main.o(i.main)
    mainOneDebugEnable                       0x08017acd   Thumb Code     6  main.o(i.mainOneDebugEnable)
    mlEvent                                  0x08017b05   Thumb Code    54  gsm.o(i.mlEvent)
    modf                                     0x08017b41   Thumb Code   136  modf.o(i.modf)
    multiply_by_transpose_matrix             0x08017c09   Thumb Code   138  matrix.o(i.multiply_by_transpose_matrix)
    multiply_matrix                          0x08017c93   Thumb Code   130  matrix.o(i.multiply_matrix)
    nmea_atof                                0x08017d15   Thumb Code   252  tok.o(i.nmea_atof)
    nmea_atoi                                0x08017e15   Thumb Code    98  tok.o(i.nmea_atoi)
    nmea_calc_crc                            0x08017e77   Thumb Code    18  tok.o(i.nmea_calc_crc)
    nmea_degree2ndeg                         0x08017e89   Thumb Code    42  gmath.o(i.nmea_degree2ndeg)
    nmea_ndeg2degree                         0x08017ebd   Thumb Code    66  gmath.o(i.nmea_ndeg2degree)
    nmea_parse_GPRMC                         0x08017f09   Thumb Code   158  parse.o(i.nmea_parse_GPRMC)
    nmea_scanf                               0x08017fdd   Thumb Code   444  tok.o(i.nmea_scanf)
    nosimcard_sleep                          0x08018199   Thumb Code    32  work.o(i.nosimcard_sleep)
    openReadFile                             0x08018201   Thumb Code    38  config_file.o(i.openReadFile)
    open_eh_and_ml_file                      0x08018249   Thumb Code    82  gps.o(i.open_eh_and_ml_file)
    openfile                                 0x080182b1   Thumb Code    54  config_file.o(i.openfile)
    osDelay                                  0x08018329   Thumb Code    16  cmsis_os.o(i.osDelay)
    osKernelStart                            0x08018339   Thumb Code    10  cmsis_os.o(i.osKernelStart)
    osSystickHandler                         0x08018343   Thumb Code    16  cmsis_os.o(i.osSystickHandler)
    osThreadCreate                           0x08018353   Thumb Code    56  cmsis_os.o(i.osThreadCreate)
    overspeedEvent                           0x0801838d   Thumb Code    46  gsm.o(i.overspeedEvent)
    parse_FuelCircuitControl_setting         0x080183d1   Thumb Code   166  gpsone.o(i.parse_FuelCircuitControl_setting)
    parse_InitialEnginer_setting             0x080184b9   Thumb Code    16  gpsone.o(i.parse_InitialEnginer_setting)
    parse_InitialMileage_setting             0x080184c9   Thumb Code    16  gpsone.o(i.parse_InitialMileage_setting)
    parse_WorkMode_setting                   0x080184d9   Thumb Code   298  gpsone.o(i.parse_WorkMode_setting)
    parse_apn_setting                        0x08018685   Thumb Code   548  gpsone.o(i.parse_apn_setting)
    parse_arm_setting                        0x08018909   Thumb Code    58  gpsone.o(i.parse_arm_setting)
    parse_disarm_setting                     0x080189b9   Thumb Code    58  gpsone.o(i.parse_disarm_setting)
    parse_domain_setting                     0x08018a09   Thumb Code   262  gpsone.o(i.parse_domain_setting)
    parse_eh_setting                         0x08018b55   Thumb Code   124  gpsone.o(i.parse_eh_setting)
    parse_guard_setting                      0x08018be9   Thumb Code   188  gpsone.o(i.parse_guard_setting)
    parse_igkilloff_setting                  0x08018cdd   Thumb Code   120  gpsone.o(i.parse_igkilloff_setting)
    parse_igkillon_setting                   0x08018d6d   Thumb Code   120  gpsone.o(i.parse_igkillon_setting)
    parse_lowbat_setting                     0x08018dfd   Thumb Code   188  gpsone.o(i.parse_lowbat_setting)
    parse_ml_setting                         0x08018ef5   Thumb Code   130  gpsone.o(i.parse_ml_setting)
    parse_offrepinterval_setting             0x08018f91   Thumb Code   192  gpsone.o(i.parse_offrepinterval_setting)
    parse_onrepinterval_setting              0x0801908d   Thumb Code   192  gpsone.o(i.parse_onrepinterval_setting)
    parse_overspeed_setting                  0x0801917d   Thumb Code   466  gpsone.o(i.parse_overspeed_setting)
    parse_parameter_message                  0x080193a5   Thumb Code   122  gpsone.o(i.parse_parameter_message)
    parse_position_message                   0x0801949d   Thumb Code   478  gpsone.o(i.parse_position_message)
    parse_recover_setting                    0x080197a1   Thumb Code    36  gpsone.o(i.parse_recover_setting)
    parse_server_setting                     0x080197c9   Thumb Code   262  gpsone.o(i.parse_server_setting)
    parse_sirenoff_setting                   0x08019911   Thumb Code    66  gpsone.o(i.parse_sirenoff_setting)
    parse_sirenon_setting                    0x08019961   Thumb Code    66  gpsone.o(i.parse_sirenon_setting)
    parse_sms_sos_setting                    0x080199b1   Thumb Code   706  gpsone.o(i.parse_sms_sos_setting)
    parse_sos_setting                        0x08019cfd   Thumb Code   636  gpsone.o(i.parse_sos_setting)
    parse_status_message                     0x0801a069   Thumb Code    68  gpsone.o(i.parse_status_message)
    parse_timezone_setting                   0x0801a0dd   Thumb Code   188  gpsone.o(i.parse_timezone_setting)
    parse_update_message                     0x0801a1cd   Thumb Code   182  gpsone.o(i.parse_update_message)
    parse_urgent_setting                     0x0801a2a5   Thumb Code   194  gpsone.o(i.parse_urgent_setting)
    pow                                      0x0801a3a5   Thumb Code  2548  pow.o(i.pow)
